:020000040000FA
:1000000080314C28013400347E1480314E01961E1C
:100010000A280B2813288C1E0E280F281328AD3110
:10002000EB2580314A280B1F162817284A28991CCF
:100030001A281B2823288F1C1E281F282328AC3190
:10004000E22480314A28191C262827282F280F1C33
:100050002A282B282F288831022080314A28971CF3
:10006000322833283B288D1C362837283B28AD31D1
:10007000DC2580314A28991E3E283F284A288F1EB9
:10008000422843284A2844016D088A006C080A0067
:1000900080314A287E10090080314E28C13084000A
:1000A000AD3085005C308600013087000030FF00F5
:1000B0000D30AD31B52580314301803102208031D2
:1000C000ED00803103208031EE00EE3084002330DB
:1000D00085000230FE000430FF00AD31A9258031DB
:1000E000F001F101F201F301F401F501F601203014
:1000F0008400013085003C30FE000030FF00AD314F
:10010000A9258031A0308400013085004930FE00EF
:100110000030FF00AD31A92580312030840002304D
:1001200085004A30FE000030FF00AD31A925803146
:10013000A0308400023085004A30FE000030FF000D
:10014000AD31A9258031203084000330850037305F
:10015000FE000030FF00AD31A9258031A0308400C1
:10016000033085004030FE000030FF00AD31A9258E
:1001700080317E104001A331132B0230B93E86003E
:100180008701403F4001A000413FA100423FA20043
:10019000433FA3000030A7000030A6000030A500B8
:1001A0000030A400A43120248031031CD828D92891
:1001B00017290230E03E860087010330E03E8400CC
:1001C0008501410142084001CF0041014108400141
:1001D000CE00410140084001CD0041013F084001EF
:1001E000CC004330CB007F30CA000030C900003063
:1001F000C8008D31A925803140014B084101B30071
:1002000040014A084101B200400149084101B100E2
:10021000400148084101B000A731802780314101E9
:100220003008803FC03FC3004308E100B32B433098
:100230004001B100B430B0000030AF000030AE007B
:10024000410139084001A00041013A084001A100E4
:10025000A201A30100309A317A22803140012308A3
:10026000B5002208B4002108B3002008B20086318E
:100270003B268031400131084101DB00400130085C
:100280004101DA0040012F084101D90040012E0848
:100290004101D8000630B93E86008701403F400149
:1002A000E200413FE300423FE400433FE5003F30CE
:1002B000E9000030E8000030E7000030E600983147
:1002C000BB208031031C65296629DB290230B93E39
:1002D00086008701403F4001A900413FAA00423FFC
:1002E000AB00433FAC000630B93E86008701403F7B
:1002F000AD00413FAE00423FAF00433FB0008B3105
:100300007123803140012C084101C70040012B08B6
:100310004101C60040012A084101C50040012908E9
:100320004101C4000230B93E86008701403F4001D0
:10033000C800413FC900423FCA00433FCB000630DE
:10034000B93E86008701403FCC00413FCD00423F8F
:10035000CE00433FCF008D31A925803140014B08AD
:10036000E5004A08E4004908E3004808E2004101CA
:1003700047084001E900410146084001E800410109
:1003800045084001E700410144084001E600A03172
:1003900000208031400165084101DF004001640810
:1003A0004101DE00400163084101DD0040016208B7
:1003B0004101DC001B2A0630B93E86008701403F20
:1003C0004001C800413FC900423FCA00433FCB0043
:1003D0003F30AC008030AB000030AA000030A900F4
:1003E0000230B93E86008701403FAD00413FAE007C
:1003F000423FAF00433FB0008B3171238031400159
:100400002C08CF002B08CE002A08CD002908CC00EC
:100410008D31A925803140014B084101DF004001A9
:100420004A084101DE00400149084101DD00400168
:1004300048084101DC005F084001E50041015E0819
:100440004001E40041015D084001E30041015C0816
:100450004001E2004030CB000030CA000030C9004B
:100460000030C8000630B93E86008701403FCC000E
:10047000413FCD00423FCE00433FCF008D31A92503
:10048000803140014B08E9004A08E8004908E700CC
:100490004808E600A0310020803140016508410194
:1004A000D700400164084101D600400163084101C2
:1004B000D500400162084101D4005B084001B00052
:1004C00041015A084001AF00410159084001AE0006
:1004D000410158084001AD003E30AC00AA30AB00ED
:1004E000AA30AA00AB30A9008B31712380314001C2
:1004F0002C084101CF0040012B084101CE004001F2
:100500002A084101CD00400129084101CC004F08D3
:10051000AB004E08AA004D08A9004C08A8005F08CF
:10052000A7005E08A6005D08A5005C08A4005708A7
:10053000A3005608A2005508A1005408A00083316A
:10054000BC23803141012308D3002208D2002108B6
:10055000D1002008D00053084001CF0041015208CB
:100560004001CE00410151084001CD004101500839
:100570004001CC004330CB007F30CA000030C900BE
:100580000030C8008D31A925803140014B08410160
:10059000B30040014A084101B2004001490841014D
:1005A000B100400148084101B000A73180278031E7
:1005B00041013008C3004308E1005B08AB005A0862
:1005C000AA005908A9005808A8005F08A7005E08FB
:1005D000A6005D08A5005C08A4005708A300560803
:1005E000A2005508A1005408A0008331BC2380312B
:1005F00041012308CB002208CA002108C9002008B5
:10060000C8004B084001CF0041014A084001CE001C
:10061000410149084001CD00410148084001CC009A
:100620004330CB007F30CA000030C9000030C80022
:100630008D31A925803140014B084101B3004001B3
:100640004A084101B200400149084101B10040019E
:1006500048084101B000A7318027803141013008AE
:10066000C3004308E2005B084001B00041015A08A2
:100670004001AF00410159084001AE004101580856
:100680004001AD00BE30AC00AA30AB00AA30AA00D9
:10069000AB30A9008B317123803140012C0841011E
:1006A000CF0040012B084101CE0040012A08410142
:1006B000CD00400129084101CC004F08AB004E0895
:1006C000AA004D08A9004C08A8005F08A7005E0812
:1006D000A6005D08A5005C08A4005708A300560802
:1006E000A2005508A1005408A0008331BC2380312A
:1006F00041012308D3002208D2002108D10020089C
:10070000D00053084001CF00410152084001CE0003
:10071000410151084001CD00410150084001CC0089
:100720004330CB007F30CA000030C9000030C80021
:100730008D31A925803140014B084101B3004001B2
:100740004A084101B200400149084101B10040019D
:1007500048084101B000A7318027803141013008AD
:10076000C3004308E3006308BC006208BB006108E3
:10077000BA006008B900080041012B084001E500FB
:1007800041012A084001E400410129084001E30039
:10079000410128084001E2000030E9000030E80093
:1007A0000030E7000030E6009831BB2083310318A9
:1007B000DA2BDB2B072C3F304001AC008030AB0044
:1007C0000030AA000030A90041012B084001B00010
:1007D00041012A084001AF00410129084001AE0053
:1007E000410128084001AD008B3171238331400164
:1007F0002C084101AB0040012B084101AA00400137
:100800002A084101A900400129084101A8003F3000
:100810004001E5008030E4000030E3000030E200F9
:1008200041012B084001E90041012A084001E8008C
:10083000410129084001E700410128084001E60084
:100840009831BB2083310318262C272C532C3F30A2
:100850004001E5008030E4000030E3000030E200B9
:1008600041012B084001E90041012A084001E8004C
:10087000410129084001E700410128084001E60044
:10088000A03100208331400165084101AB004001E7
:1008900064084101AA00400163084101A900400128
:1008A00062084101A80040304001CB00C030CA00BE
:1008B0000030C9000030C80041012B084001CF00C2
:1008C00041012A084001CE00410129084001CD0024
:1008D000410128084001CC008D31A9258331400118
:1008E0004B08E5004A08E4004908E3004808E20034
:1008F0003F30E9008030E8000030E7000030E600DB
:100900009831BB2083310318862C872C1E2D403054
:100910004001CB00C030CA000030C9000030C80020
:10092000410123084001E500410122084001E400A3
:10093000410121084001E300410120084001E2009B
:10094000410127084001E900410126084001E80073
:10095000410125084001E700410124084001E6006B
:10096000A0310020833140016508CF006408CE002B
:100970006308CD006208CC008D31A9258331400188
:100980004B084101AF0040014A084101AE0040015F
:1009900049084101AD00400148084101AC0023086D
:1009A0004001AC00410122084001AB004101210897
:1009B0004001AA00410120084001A90041012B0883
:1009C0004001CB0041012A084001CA004101290829
:1009D0004001C900410128084001C80041012F0819
:1009E0004001CF0041012E084001CE0041012D08F9
:1009F0004001CD0041012C084001CC008D31A925DA
:100A0000833140014B08B0004A08AF004908AE00EE
:100A10004808AD008B317123833140012C0841011E
:100A2000A30040012B084101A20040012A08410116
:100A3000A100400129084101A0003A2E40304001A8
:100A4000CB000030CA000030C9000030C8004101AE
:100A50002B084001CF0041012A084001CE0041018E
:100A600029084001CD00410128084001CC008D310A
:100A7000A925833140014B08E5004A08E4004908F4
:100A8000E3004808E2003F30E9008030E800003031
:100A9000E7000030E6009831BB2083310318512D68
:100AA000522D5C2D41012708A3002608A20025082D
:100AB000A1002408A0003A2E40304001CB00403075
:100AC000CA000030C9000030C80041012B084001B5
:100AD000CF0041012A084001CE0041012908400110
:100AE000CD00410128084001CC008D31A92583317A
:100AF00040014B08E5004A08E4004908E3004808C3
:100B0000E2004030E9000030E8000030E70000304B
:100B1000E6009831BB20833103188F2D902D3A2E9B
:100B200041012B084001E50041012A084001E40091
:100B3000410129084001E300410128084001E20089
:100B40003F30E9002A30E800AA30E700AB30E60089
:100B5000A0310020833140016508CB006408CA0041
:100B60006308C9006208C800410123084001E5008C
:100B7000410122084001E400410121084001E30055
:100B8000410120084001E200410127084001E9003D
:100B9000410126084001E800410125084001E70025
:100BA000410124084001E600A031002083314001CA
:100BB0006508CF006408CE006308CD006208CC0051
:100BC0008D31A925833140014B084101AF0040011F
:100BD0004A084101AE00400149084101AD00400111
:100BE00048084101AC0023084001AC004101220843
:100BF0004001AB00410121084001AA004101200849
:100C00004001A9004030CB00C030CA000030C9000C
:100C10000030C80041012F084001CF0041012E08DB
:100C20004001CE0041012D084001CD0041012C08BA
:100C30004001CC008D31A925833140014B08B00023
:100C40004A08AF004908AE004808AD008B31712357
:100C5000833140012C084101A30040012B084101D0
:100C6000A20040012A084101A100400129084101D8
:100C7000A0003A2E0800400135088039B600360839
:100C8000BF003535B6003608C600B41F482E492EC1
:100C90004A2E4614460803194E2E4F2E5F2E460A42
:100CA000031D532E542E5C2E0030B5000030B400CE
:100CB0000030B3000030B200B417B501672E003029
:100CC000B5000030B4000030B3000030B20031088D
:100CD0008039B6003608BF063135B6003608C70081
:100CE000B01F732E742E752E471447080319792EE2
:100CF0007A2E8A2E470A031D7E2E7F2E872E0030E5
:100D0000B1000030B0000030AF000030AE00B017CE
:100D1000B101922E0030B1000030B0000030AF00C1
:100D20000030AE00310830042F042E04031D992E2C
:100D30009A2EB32E0030B5000030B4000030B3005E
:100D40000030B2008030B4047F30B5043F08B600F4
:100D50003608B5043508B1003408B0003308AF00D8
:100D60003208AE00EE2F4608031DB72EB82EC12E56
:100D70000030B1000030B0000030AF000030AE00F5
:100D8000EE2F4608B600B7013708B900470836020B
:100D9000B800031CB90338087F3EC0000030393D5D
:100DA000C1003508BE003408BD003308BC0032085D
:100DB000BB000030B5000030B4000030B30000309C
:100DC000B2000030C5000030C4000030C300003065
:100DD000C200C701292F47080319EF2EF02E0A2F52
:100DE0000130BB35BC0DBD0DBE0D890BF12E0130A0
:100DF000B235B30DB40DB50D890BF82EC51F012FFB
:100E0000022F032F32140130C235C30DC40DC50D9E
:100E1000890B042F31083E02031D182F30083D02B4
:100E2000031D182F2F083C02031D182F2E083B020C
:100E3000031C1B2F1C2F252F45172E08BB022F0824
:100E4000BC3B3008BD3B3108BE3B0130B600360824
:100E5000C7071A304702031C2E2F2F2FEB2E3E08F8
:100E60003D043C043B040319362F372F502F421406
:100E7000502F0130B235B30DB40DB50D890B3A2F9B
:100E8000C51F432F442F452F32140130C235C30DE7
:100E9000C40DC50D890B462FFF30C007FF30C13D83
:100EA000B41F532F542F392FC701C51F582F592F47
:100EB000752FFF304205B600FF304305B700FF3005
:100EC0004405B8007F304505B900390838043704B7
:100ED000360403196C2F6D2F702FC701C70A752FA9
:100EE000321C732F742F752F6D2F47080319792F1C
:100EF0007A2FA22F0130B2070030B33D0030B43D4D
:100F00000030B53D351C852F862FA22F3208B60044
:100F10003308B7003408B8003508B9000130BA000A
:100F2000B937B80CB70CB60CBA0B902F3908B5000E
:100F30003808B4003708B3003608B2000130C007E3
:100F40000030C13D4108803AB60080303602031DB2
:100F5000AB2FFF304002031CAE2FAF2FBC2FFF3052
:100F60004001C0000030C1000030B5000030B400C6
:100F70000030B3000030B20040014108803AB600B2
:100F800080303602031DC62F013040020318C92FDE
:100F9000CA2FD62F4001C001C1010030B50000307A
:100FA000B4000030B3000030B200BF01400140087F
:100FB000B6003608C600461CDE2FDF2FE12FB4171F
:100FC000E52F7F30B6003608B4054636B600360841
:100FD000B5003F08B6003608B504AA2E0800400147
:100FE000A0002008073E860003308700033001067A
:100FF000031DFB2FFC2FFE2F0130FF2F00300800B8
:10100000080008004E010F104301901F082809280E
:10101000542990134201D6015408033E8600013042
:1010200087000108860087018101810AD401802997
:10103000A2181B281C2880292108F9007908D4004F
:1010400021088600013087000108F9007908D500E1
:10105000210A860001308700403FBD00413FBE00AD
:101060000430F9007908A1072108E93A031D39285D
:101070003A283E28E530F9007908A100221021081D
:101080002006031D442845284628A21443011114B4
:101090000230F90079084201D600802943019114F9
:1010A00048284301111F5528562860280130F900AF
:1010B00079084201A4070430AF31452788318029DF
:1010C00042015B08FA005A08F900FA36F90C79086F
:1010D00043018C0042015A1C6E286F2874280B3083
:1010E000F9007908D60080290330F9007908D60084
:1010F00080294301111F7D287E2888280130F900AE
:1011000079084201A4070430AF314527883180298E
:10111000911442015B08FA005A08F9007A08F900B4
:10112000FA0106307905FB0000307A05FC00F0304A
:101130007B04DA0000307C04DB005A14D101D10AB0
:10114000482851030319A528A628C0283D08860071
:101150003E088700403FDA00413FDB003D08860043
:101160003E08870043310108F9007908D3003D08A3
:1011700086003E08870042310108F9007908D20054
:101180005A0843018C0042015A1CC728C8287428F9
:101190000530F9007908D60080294301111FD128B4
:1011A000D228DE280130F90079084201A407430162
:1011B00011130530AF3145278831802901304201B4
:1011C000D202520A031DE528E628F8280430BD079C
:1011D0000030BE3D0130D502031DEF28F028F52870
:1011E0000030AF31452788318029430191144828C8
:1011F000530886008701010843018C000130F90083
:1012000079084201D30780294301111F08290929C0
:1012100015290130F90079084201A4070430AF31E3
:101220004527883143011113802991150830F900B1
:1012300079084201D60080290830F9007908D600E3
:1012400043019115802943010C08F900420153081C
:1012500086008701790881000130F9007908D307F9
:101260000130D2020319352936293E294301911252
:101270000630F90079084201D6004329430191164E
:10128000AE310B2688314301111680290030AF3171
:101290004527883180290130F9007908A4070630F4
:1012A000AF3145278831802942015608F900FA01FB
:1012B0007A08003A03195D294B297908003A031985
:1012C0001828013A03194E28033A0319A128013AB4
:1012D0000319CD28073A03194629013A03190429AD
:1012E000033A03191C29013A031946290F3A031935
:1012F0002329023A03195128013A031979284B2965
:101300000800D6304401DB000130DC00C030DD00D5
:101310000130DE00DF30DF000230E000420138083B
:101320004401E500420137084401E400E3015B3079
:10133000E1000230E200CB304301D6000130D7009B
:101340005B30D8000230D9005030DA000230DB00C8
:10135000420138084301E000420137084301DF0041
:10136000DE01DE0AD630DC000130DD00C030CB000B
:101370000130CC00D630CD000130CE002430CF007B
:101380000230D000420138084301D500420137083D
:101390004301D40002304001A00020084301D300E3
:1013A000CB30D1000130D2005B30C0000230C10030
:1013B000CB30C2000130C300A830C4000230C500E9
:1013C000420138084301CA00420137084301C900FD
:1013D00003304001A00020084301C800C030C6000F
:1013E0000130C7004501DF01E001E101E201E30155
:1013F000E4013130E8001E30E90004304001A00073
:1014000020084501E7005B30E5000230E60045308A
:101410004401D0000230D1002F30D2000230D3007E
:10142000D430D4000230D500420138084401DA003B
:10143000420137084401D90005304001A0002008CE
:101440004401D800D630D6000130D7003A30C5006C
:101450000230C6005030C7000230C800C930C90091
:101460000230CA00420138084401CF004201370867
:101470004401CE0006304001A00020084401CD0008
:10148000D630CB000130CC002F30BA000230BB0088
:101490004530BC000230BD00BE30BE000230BF008F
:1014A000420138084401C400420137084401C30026
:1014B00007304001A00020084401C200D630C0001F
:1014C0000130C1005030AF000230B0003A30B100FE
:1014D0000230B200B330B3000230B4004201380829
:1014E0004401B900420137084401B8000830400106
:1014F000A00020084401B700D630B5000130B60086
:101500004601CC01CD01CE01CF012430D000023004
:10151000D1004630D5001130D60012304001A00075
:1015200020084601D400CB30D2000130D300440162
:10153000A401A501A601A7014130A8000330A9001C
:101540004630AD001130AE0011304001A00020083F
:101550004401AC00CB30AA000130AB004601C10110
:10156000C201C301C4014C30C5000330C60046307F
:10157000CA001130CB0013304001A0002008460102
:10158000C900CB30C7000130C8004501A801A9013E
:10159000AA01AB013630AC000330AD006D30B100B4
:1015A0001330B2000D304001A00020084501B0000A
:1015B000C030AE000130AF004601B601B701B8013E
:1015C000B9012B30BA000330BB006D30BF001330BF
:1015D000C0000E304001A00020084601BE00C0300F
:1015E000BC000130BD00AB01AC01AD01AE0120304B
:1015F000AF000330B0006D30B4001330B5000F30D1
:101600004001A00020084601B300C030B100013005
:10161000B200A001A101A201A301A830A4000230E0
:10162000A5006D30A9001330AA0010304001A000C1
:1016300020084601A800C030A6000130A7004501DF
:10164000D401D501D601D701D801D9010830DD0078
:101650002730DE0009304001A00020084501DC00F1
:10166000D630DA000130DB00C901CA01CB01CC0160
:10167000CD01CE010830D2002730D3000A3040011E
:10168000A00020084501D100D630CF000130D000A5
:10169000BE01BF01C001C101C201C3010830C700C2
:1016A0002730C8000B304001A00020084501C600CB
:1016B000D630C4000130C500B301B401B501B60194
:1016C000B701B8010830BC002730BD000C30400124
:1016D000A00020084501BB00D630B9000130BA0097
:1016E000080040012C088039B1003108B9002C35C0
:1016F000B1003108BB00AB1F7E2B7F2B802B3B142E
:101700003B080319842B852B952B3B0A031D892B42
:101710008A2B922B0030AC000030AB000030AA00C6
:101720000030A900AB17AC019D2B0030AC0000309D
:10173000AB000030AA000030A90030088039B100A9
:101740003108BA003A0839060319A72BA82BA92B90
:1017500039173035B1003108BA00AF1FB02BB12BAB
:10176000B22B3A143A080319B62BB72BC72B3A0AF7
:10177000031DBB2BBC2BC42B0030B0000030AF00CE
:101780000030AE000030AD00AF17B001CF2B0030FD
:10179000B0000030AF000030AE000030AD003B08BC
:1017A0003A020318D42BD52B192C391FD82BD92B3F
:1017B000DD2B8030B1003108B9063B08B10031089B
:1017C000BC003A08B1003108BB003C08B100310848
:1017D000BA002908B1003108BC002D08B100310859
:1017E000A9003C08B1003108AD002A08B100310859
:1017F000BC002E08B1003108AA003C08B100310835
:10180000AE002B08B1003108BC002F08B100310830
:10181000AB003C08B1003108AF002C08B100310822
:10182000BC003008B1003108AC003C08B100310800
:10183000B000BC013A08B100B2013208B4003B0864
:101840003102B300031CB4033408803AB500803081
:101850003502031D2D2C1A303302031C302C312C81
:10186000692C40012C082B042A042904031D392C5F
:101870003B2C01303C2C0030B1003108BC00003062
:10188000AC000030AB000030AA000030A9003A08DC
:10189000B1003108BB00702C3C1C4F2C502C562C36
:1018A0003C360138B1003108BC00582C0310BC0C88
:1018B000291C5B2C5C2C5D2CBC170130B100AC37B3
:1018C000AB0CAA0CA90CB10B5F2C0130B100310894
:1018D000BB0740013A083B02031C6F2C702C4C2CB8
:1018E000391B732C742CAC2C3B08031D782C792CE1
:1018F000822C0030AC000030AB000030AA00003079
:10190000A900A82D2D08A9072E08AA3D2F08AB3D38
:101910003008AC3D2C1C8D2C8E2C382D3C1C912C71
:10192000922C982C3C360138B1003108BC009A2C1E
:101930000310BC0C291C9D2C9E2C9F2CBC17013025
:10194000B100AC37AB0CAA0CA90CB10BA12C013027
:10195000B1003108BB07382D2C08803AB10030089F
:10196000803A3102031DBE2C2F082B02031DBE2C12
:101970002E082A02031DBE2C2D0829020318C12C93
:10198000C22CFA2CFF30B100FF30B200FF30B300A0
:10199000FF30B40029082D02B5002A082E3BB600FE
:1019A0002B082F3BB7002C08303BB8003508B10797
:1019B0003608B23D3708B33D3808B43D3408AC00B2
:1019C0003308AB003208AA003108A9008030B1000A
:1019D0003108B906BC09BC0A3C08031DF02CF12CE7
:1019E000022D0130A9070030AA3D0030AB3D003088
:1019F000AC3D022D2D08A9022E08AA3B2F08AB3BB7
:101A00003008AC3B2C082B042A042904031D092DA3
:101A10000A2D342D3C08031D0E2D0F2D342D0030C2
:101A2000AC000030AB000030AA000030A900A82DA7
:101A30000130A935AA0DAB0DAC0D890B192DBC1FBA
:101A4000222D232D242D29143C1C272D282D2B2D10
:101A50000314BC0D2D2D0310BC0D3B080319312DB3
:101A6000322D342D0130BB02AB1F372D382D182DF0
:101A7000BA01BC1F3C2D3D2D4B2D3C087F3903196D
:101A8000422D432D462DBA01BA0A4B2D291C492D52
:101A90004A2D4B2D432D3A0803194F2D502D7D2DE6
:101AA0000130A9070030AA3D0030AB3D0030AC3D0D
:101AB0002C1C5B2D5C2D7D2D2908B1002A08B2005D
:101AC0002B08B3002C08B4000130B500B437B30CB8
:101AD000B20CB10CB50B662D3408AC003308AB006A
:101AE0003208AA003108A9003B0A0319782D792D84
:101AF0007D2D0130B1003108BB073B0A0319812D50
:101B0000822D872D3B08031D862D872D952D0030B6
:101B1000AC000030AB000030AA000030A9003B0848
:101B2000031D932D942D952DB9013B1C982D992DB6
:101B30009B2DAB179F2D7F30B1003108AB053B3695
:101B4000B1003108AC00B91FA62DA72DA82DAC17E8
:101B5000080040014B088039D0005008D5004B35B3
:101B6000D0005008D700CA1FB62DB72DB82D571476
:101B700057080319BC2DBD2DCC2D570A031DC12DAF
:101B8000C22DCA2D0030CB000030CA000030C90081
:101B90000030C800CA17D42D0030CB000030CA0076
:101BA0000030C9000030C8004F088039D00050080C
:101BB000D5064F35D0005008D600CE1FE02DE12DC0
:101BC000E22D561456080319E62DE72DF62D560A78
:101BD000031DEB2DEC2DF42D0030CF000030CE0096
:101BE0000030CD000030CC00CE17FE2D0030CF00ED
:101BF0000030CE000030CD000030CC005608031974
:101C0000022E032E082E5708031D072E082E112E14
:101C10000030CB000030CA000030C9000030C800DE
:101C2000FF2F4808D0005008A0004E08A0318720A0
:101C30008D3140012108E1002008E0006008D0005B
:101C4000D101D201D3015308DB005208DA00510858
:101C5000D9005008D8006108D000D101D201D301C9
:101C60005308DF005208DE005108DD005008DC0098
:101C70004908D0005008A0004D08A03187208D31C0
:101C800040012108E1002008E0006008D000D101F7
:101C9000D201D3015008D8075108D93D5208DA3D86
:101CA0005308DB3D6108D000D101D201D3015008B7
:101CB000DC075108DD3D5208DE3D5308DF3D4A0890
:101CC000D0005008A0004C08A03187208D31400181
:101CD0002108E1002008E0006008D000D101D20115
:101CE000D3015008D8075108D93D5208DA3D5308AE
:101CF000DB3D6108D000D101D201D3015008DC07DF
:101D00005108DD3D5208DE3D5308DF3D0830D8352F
:101D1000D90DDA0DDB0D890B872E4908D00050084C
:101D2000A0004C08A03187208D3140012108E1003E
:101D30002008E0006008D8076108D93D0030DA3D8E
:101D4000DB3D4808D0005008A0004D08A031872096
:101D50008D3140012108E1002008E0006008D8072B
:101D60006108D93D0030DA3DDB3D0830D835D90D6A
:101D7000DA0DDB0D890BB62E4808D0005008A00004
:101D80004C08A03187208D3140012108E100200856
:101D9000E0006008D8076108D93D0030DA3DDB3D3E
:101DA0004908D0005008A0004E08A03187208D318E
:101DB00040012108E1002008E0006008DC0761081C
:101DC000DD3D0030DE3DDF3D4A08D0005008A00078
:101DD0004D08A03187208D3140012108E100200805
:101DE000E0006008DC076108DD3D0030DE3DDF3DDE
:101DF0004A08D0005008A0004E08A03187208D313D
:101E000040012108E1002008E0006008D0006108DE
:101E1000D100D201D3010830D035D10DD20DD30D70
:101E2000890B0C2F5008DC075108DD3D5208DE3DC0
:101E30005308DF3D5808D0005908D1005A08D20095
:101E40005B08D3001830D336D20CD10CD00C890BE0
:101E5000232F5008DC075108DD3D5208DE3D5308B2
:101E6000DF3D0830D835D90DDA0DDB0D890B322F67
:101E700057085607D000D101D10D5008823EE0002E
:101E8000FF30513DE1005B2F0130DC35DD0DDE0D13
:101E9000DF0D890B452FDB1F4E2F4F2F502F5C146A
:101EA0000130D835D90DDA0DDB0D890B512FFF30FC
:101EB000E007FF30E13DDE1F5E2F5F2F442FD6018C
:101EC000DB1F632F642F802FFF305805D000FF30B9
:101ED0005905D100FF305A05D2007F305B05D30091
:101EE00053085204510450040319772F782F7B2F85
:101EF000D601D60A802F5C1C7E2F7F2F802F782F53
:101F000056080319842F852FAD2F0130DC070030D0
:101F1000DD3D0030DE3D0030DF3D5F1C902F912F16
:101F2000AD2F5C08D0005D08D1005E08D2005F08CC
:101F3000D3000130D400D337D20CD10CD00CD40B49
:101F40009B2F5308DF005208DE005108DD005008C7
:101F5000DC000130E0070030E13D6108803AD0004C
:101F600080305002031DB62FFF306002031CB92FD2
:101F7000BA2FC42F7F304001DF008030DE000030F8
:101F8000DD000030DC00F32F40016108803AD00012
:101F900080305002031DCE2F013060020318D12F74
:101FA000D22FDD2F00304001DF000030DE00003096
:101FB000DD000030DC00D501F32F40016008D000C7
:101FC0005008D700FF30DC05FF30DD057F30DE052F
:101FD0000030DF05571CED2FEE2FEF2FDE175736A1
:101FE000D0005008DF005508D0005008DF045F081B
:101FF000CB005E08CA005D08C9005C08C800080084
:102000004001980199019A013F309200F03093000D
:1020100006309400FF307E01CE00E030C300073070
:10202000B800C401B901CF01BA01C501D0013730F0
:10203000BB00F030C600FF30D10005307D01C50087
:1020400014307E0194000B30A3000C30A400133038
:1020500095000930A5000A30A6000930A700043019
:102060007D01C6000C30CB000800AD312025903139
:1020700040012108A7002008A60042013B084001BA
:102080002602A20042013C084001273BA300003089
:1020900023020A300319220203184F28502851281E
:1020A000452927084201BC00400126084201BB0027
:1020B0004001A5012508A2000230A235FF3E031D04
:1020C0005D282235C03EA3002308A800280886000A
:1020D00003308700403FA200413FA3002208860052
:1020E000230887000130A4002808023E8400033042
:1020F0008500000A7C28A435890B7B28240801056B
:10210000031D832884289F282808033E8600033067
:1021100087008101810A2808073E86000330870076
:102120000108031D94289528A5282808053E860047
:10213000033087002608C03F2708C13FA52828088C
:10214000033E86000330870081012808033E860095
:10215000033087000108031DAE28AF28C1282808D6
:10216000043E8600033087000103031DB828B92808
:10217000C1282808073E8600033087008101810AB4
:102180002D292808033E8600033087000103031D24
:10219000CA28CB2808292808043E86000330870077
:1021A0000103031DD428D52808292808053E8600E8
:1021B00003308700403F2602A200413F273BA30097
:1021C00000302302C93003192202031CE828E92841
:1021D000F3280330A2002808073E8600033087005A
:1021E000220881002D292808073E86000330870039
:1021F000033001060319FD28FE282D290230A20014
:102200002808073E860003308700220881002D2918
:102210002808033E8600033087000108031D1129AA
:1022200012292D292808043E860003308700010367
:10223000031D1B291C292D292808073E8600033071
:10224000870003300106031D262927292D29280888
:10225000073E86000330870081012808033E860080
:10226000033087000108A2002808043E86000330DE
:102270008700220881000130A2002208A50704304F
:102280002502031C442945295A280800750803190A
:102290004A294B296729720886007308870048314C
:1022A00012300106031D5529562967290A304201BB
:1022B000660203185C295D2962290130E90069087A
:1022C000E607FB290A30E9006908E600FB297408E3
:1022D00003196B296C29842972088600730887000A
:1022E000483112300106031D7629772984290230EE
:1022F00042016602031C7D297E2981290130E60204
:10230000FB29E601E60AFB297508031988298929B2
:10231000A52972088600730887004831113001062C
:10232000031D93299429A5290A3042016502031847
:102330009A299B29A0290130E9006908E507FB29B2
:102340000A30E9006908E500FB2974080319A92986
:10235000AA29C02972088600730887004831113005
:102360000106031DB429B529C029420165080319D6
:10237000BA29BB29BE290130E502FB29E501FB2969
:1023800075080319C429C529E12972088600730854
:102390008700483113300106031DCF29D029E129D8
:1023A0000A30420164020318D629D729DC290130FA
:1023B000E9006908E407FB290A30E9006908E4003C
:1023C000FB2974080319E529E629FB297208860010
:1023D00073088700483113300106031DF029F129E5
:1023E000FB29420164080319F629F729FA2901306B
:1023F000E402FB29E4017208860073088700483173
:1024000012300106031D052A062A142A92304101C2
:10241000A000B030A100AE31AF2691314201660874
:10242000A63190269131452A7208860073088700EC
:10243000483111300106031D1E2A1F2A2D2A96300D
:102440004101A000B030A100AE31AF269131420170
:102450006508A63190269131452A720886007308D6
:102460008700483113300106031D372A382A452AD0
:102470008E304101A000B030A100AE31AF269131C5
:1024800042016408A6319026913142016508E900B5
:1024900069084101E40042016408EA006A08410158
:1024A000E500420166089F3113279131080042017F
:1024B0006703031D5C2A5D2A622A5B30F20002304A
:1024C000F300E7014F08AE31832692314201EB0061
:1024D0006B08F5004E08AE31832692314201EB00C5
:1024E0006B08F4005008AE31832692314201EB00B4
:1024F0006B08CC004D08AE31832692314201EB00CF
:102500006B08CB004C080319862A872A912A720887
:102510008600730887004631403FF200413FF300D8
:10252000452B75080319952A962AA92A7208860050
:10253000730887001600010403199F2AA02AA92AFC
:102540007208860073088700403FF200413FF300A5
:10255000452B74080319AD2AAE2AC32A72088600D7
:10256000730887004231160001040319B82AB92AFA
:10257000C32A72088600730887004231403FF20088
:10258000413FF300452B4B080319C72AC82AE62A06
:10259000720886007308870044311600010403198D
:1025A000D22AD32AE62A72088600730887004431AB
:1025B000403FF200413FF300720886007308870035
:1025C0004931403FB700413FB800452B452B5530BE
:1025D0004101A000B030A100AE31AF2692316C2B8A
:1025E00073304101A000B030A100AE31AF2692316E
:1025F0006C2B61304101A000B030A100AE31AF269C
:1026000092316C2B5B304101A000B030A100AE31A3
:10261000AF2692316C2B49304101A000B030A100AF
:10262000AE31AF2692316C2B6D304101A000B0303D
:10263000A100AE31AF2692316C2B4F304101A0008A
:10264000B030A100AE31AF2692316C2B6730410122
:10265000A000B030A100AE31AF2692316C2B7208D1
:102660008600730887004931160001040319392BCD
:102670003A2B6C2B72088600730887004931413F62
:102680008A00403F0A0093316C2B72088600730861
:10269000870048310108EB00EC016C08003A03198F
:1026A000522B2F2B6B08003A0319E72A013A031922
:1026B000F02A033A0319F92A013A0319022B063AC0
:1026C00003190B2B033A0319142B013A03191D2B81
:1026D0000F3A0319262B2F2B0800AE3131269331E8
:1026E000CD2B9730A000B030A100AE31AF26933192
:1026F000420126084101D900DA0159084001B6001B
:1027000041015A084001B7009931DD219331E92B8D
:10271000A030A000B030A100AE31AF26933142010D
:1027200027084101D900DA0159084001B6004101EA
:102730005A084001B7009931DD219331E92B9D30D2
:10274000A000B030A100AE31AF269331420128087D
:102750004101D900DA0159084001B60041015A0887
:102760004001B7009931DD219331E92BA330A0005E
:10277000B030A100AE31AF269331420125084101AE
:10278000D900DA0159084001B60041015A08400158
:10279000B7009931DD219331E92B72088600730867
:1027A0008700483101084101D900DA015A08003A8E
:1027B0000319DB2BE92B59080D3A0319712B033A46
:1027C0000319882B013A03199F2B1F3A0319B62BC3
:1027D000E92B42014F088731EF279331003A031963
:1027E000F22BF32B322CAD312025933142013508E9
:1027F000400120024101D900420136084001213B3D
:102800004101DA005A0842016102031D0B2C41010B
:1028100059084201600203180E2C0F2C322CA431EF
:102820006F249331AD3120259331400121084201BD
:10283000B600400120084201B5006108803A41011C
:10284000D90080305902031D282C0B304201600250
:10285000031C2B2C2C2CAB2CFF304201E007FF304B
:10286000E13DAB2C42014E088731EF279331003A0E
:1028700003193B2C3C2C762CAD31202593314201A1
:102880003508400120024101D900420136084001CB
:10289000213B4101DA005A0842016102031D542C18
:1028A00041015908420160020318572C582C762C1C
:1028B000A33151239331AD312025933140012108BB
:1028C0004201B600400120084201B5006108803A8B
:1028D0004101D90080305902031D712C0B30420197
:1028E0006002031C742C752CAB2C2C2C750803195E
:1028F0007A2C7B2C7F2CA4316F249331AB2C740861
:102900000319832C842C882CA33151239331AB2CB5
:10291000750803198C2C8D2C922C7408031D912C96
:10292000922CAB2C42014E088731EF279331003AAD
:10293000031D9B2C9C2CAB2C42014F088731EF27A9
:102940009331003A031DA52CA62CAB2C6430420118
:10295000E0000030E100080041015208D500D60136
:10296000D701D80158084001A30041015708400190
:10297000A200410156084001A10041015508400153
:10298000A00001309A317A22943140012308B50029
:102990002208B4002108B3002008B2004330B1007F
:1029A0007F30B0000030AF000030AE0086313B26F3
:1029B000943140013108CF003008CE002F08CD00FF
:1029C0002E08CC004230CB00FE30CA000030C900D7
:1029D0000030C8008D31A925943140014B084101D8
:1029E000B30040014A084101B200400149084101D9
:1029F000B100400148084101B000A731802794315F
:102A000041013108BA003008B900AF31BC27943118
:102A100041015308D500D601D701D801580840011B
:102A2000A300410157084001A2004101560840019E
:102A3000A100410155084001A00001309A317A22DD
:102A4000943140012308B5002208B4002108B300E6
:102A50002008B2004330B1007F30B0000030AF003A
:102A60000030AE0086313B26943140013108CF0062
:102A70003008CE002F08CD002E08CC004230CB000D
:102A8000FE30CA000030C9000030C8008D31A925D1
:102A9000943140014B084101B30040014A08410113
:102AA000B200400149084101B1004001480841011C
:102AB000B000A7318027943141013108BA003008B5
:102AC000B900AF31DE27943141015408D500D60159
:102AD000D701D80158084001A3004101570840011F
:102AE000A200410156084001A100410155084001E2
:102AF000A00001309A317A22943140012308B500B8
:102B00002208B4002108B3002008B2004330B1000D
:102B10007F30B0000030AF000030AE0086313B2681
:102B2000943140013108CF003008CE002F08CD008D
:102B30002E08CC004230CB00FE30CA000030C90065
:102B40000030C8008D31A925943140014B08410166
:102B5000B30040014A084101B20040014908410167
:102B6000B100400148084101B000A73180279431ED
:102B700041013108BA003008B900A0312020943159
:102B800041015108D500D601D701D80158084001AC
:102B9000A300410157084001A2004101560840012D
:102BA000A100410155084001A00001309A317A226C
:102BB000943140012308B5002208B4002108B30075
:102BC0002008B2004330B1007F30B0000030AF00C9
:102BD0000030AE0086313B26943140013108CF00F1
:102BE0003008CE002F08CD002E08CC004230CB009C
:102BF000FE30CA000030C9000030C8008D31A92560
:102C0000943140014B084101B30040014A084101A1
:102C1000B200400149084101B100400148084101AA
:102C2000B000A7318027943141013108BA00300843
:102C3000B900A031422094310800AD3120259631F1
:102C400042012F08400120024101D9004201300811
:102C50004001213B4101DA0000305A0232300319B1
:102C600059020318342E352E362EFF2FAD31202574
:102C70009631400121084201B00040012008420184
:102C8000AF0040019A12AD31722596314101D90051
:102C90005908DB005B0803194E2E4F2E512E4001C0
:102CA0009A1641015B08031D562E572E6B2EC30149
:102CB000C401C501003099314621963141014608D1
:102CC000D4004508D3004408D2004308D100943111
:102CD000AC249631FF2F70037104031D702E712EEA
:102CE0008A2EC301C401C501C50A003099314621AD
:102CF000963141014608D4004508D3004408D2006B
:102D00004308D1009431AC2496310130F0070030F3
:102D1000F13DFF2F023070067104031D902E912E9D
:102D2000A72EC301C30AC401C501C50A00309931E9
:102D30004621963141014608D4004508D300440895
:102D4000D2004308D1009431AC249631852E033053
:102D500070067104031DAD2EAE2EC42EC301C30A2E
:102D6000C401C40AC50100309931462196314101A0
:102D70004608D4004508D3004408D2004308D100D7
:102D80009431AC249631852E043070067104031DF5
:102D9000CA2ECB2EE12EC301C401C40AC501C50A47
:102DA000013099314621963141014608D400450849
:102DB000D3004408D2004308D1009431AC249631AA
:102DC000852E053070067104031DE72EE82EFE2EB9
:102DD000C301C30AC401C40AC501003099314621A8
:102DE000963141014608D4004508D3004408D2007A
:102DF0004308D1009431AC249631852E06307006FC
:102E00007104031D042F052F1B2FC301C30AC40126
:102E1000C40AC50101309931462196314101460865
:102E2000D4004508D3004408D2004308D1009431AF
:102E3000AC249631852E083070067104031D212FB5
:102E4000222F382FC301C30AC401C501C50A0130AE
:102E500099314621963141014608D4004508D300F6
:102E60004408D2004308D1009431AC249631852E19
:102E7000093070067104031D3E2F3F2F552FC301EB
:102E8000C30AC401C501C50A0030993146219631F3
:102E900041014608D4004508D3004408D200430845
:102EA000D1009431AC249631852E0A30700671041D
:102EB000031D5B2F5C2F722FC301C401C40AC5011F
:102EC000C50A003099314621963141014608D400A7
:102ED0004508D3004408D2004308D1009431AC2403
:102EE0009631852E0B3070067104031D782F792FD3
:102EF0008E2FC301C401C40AC50101309931462196
:102F0000963141014608D4004508D3004408D20058
:102F10004308D1009431AC249631852E0C307006D4
:102F20007104031D942F952FAA2FC301C401C5015D
:102F3000C50A013099314621963141014608D40035
:102F40004508D3004408D2004308D1009431AC2492
:102F50009631852E0D3070067104031DB02FB12FF0
:102F6000C82FC301C30AC401C40AC501C50A013080
:102F700099314621963141014608D4004508D300D5
:102F80004408D2004308D1009431AC249631852EF8
:102F90000E3070067104031DCE2FCF2FE52FC30115
:102FA000C30AC401C501C50A0030993146219631D2
:102FB00041014608D4004508D3004408D200430824
:102FC000D1009431AC249631852EC301C30AC401CB
:102FD000C40AC501C50A0030993146219631410124
:102FE0004608D4004508D3004408D2004308D10065
:102FF0009431AC2496310130F0000030F10008002B
:103000004201620808004001280829040319092820
:103010000A283328AD01AD0A16280130A835A90DBC
:10302000890B0E280130AC002C08AD07A91F192808
:103030001A280D2829082B02031D202828082A02F7
:10304000031C2328242828282808AA022908AB3B87
:103050000130A936A80C890B29280130AD02031DC7
:10306000322833281A282B08A9002A08A8000800AB
:10307000420168084101BD00BE01BF01C001400816
:103080004001A30041013F084001A20041013E0868
:103090004001A10041013D084001A00001309A31EA
:1030A0007A22983140012308B5002208B400210893
:1030B000B3002008B2004130B1001030B000003041
:1030C000AF000030AE0086313B2698314001310818
:1030D000CF003008CE002F08CD002E08CC004330A2
:1030E000CB007F30CA000030C9000030C8008D31ED
:1030F000A925983140014B084101B30040014A081D
:103100004101B200400149084101B10040014808B5
:103110004101B000A7318027983141013008C1003A
:103120004108C2004208BD00BE01BF01C001400805
:103130004001A30041013F084001A20041013E08B7
:103140004001A10041013D084001A00000309A313A
:103150007A229831400123084101BC004001220835
:103160004101BB00400121084101BA004001200893
:103170004101B9000800003040016205EA0000305A
:103180006305EB0080306405EC007F306505ED00E1
:103190006D086C046B046A04031DCF28D028D8285E
:1031A0000030E5000030E4000030E3000030E200D1
:1031B00000306605EA0000306705EB0080306805E6
:1031C000EC007F306905ED006D086C046B046A0447
:1031D000031DEB28EC28F4280030E9000030E8005B
:1031E0000030E7000030E600E51FF728F828102936
:1031F0000030EA000030EB000030EC008030ED00E1
:103200006208EA026308EB3B6408EC3B6508ED3BAF
:103210006D08E5006C08E4006B08E3006A08E20052
:10322000E91F132914292C290030EA000030EB0093
:103230000030EC008030ED006608EA026708EB3BE6
:103240006808EC3B6908ED3B6D08E9006C08E80094
:103250006B08E7006A08E6008030E5068030E90682
:1032600069086502031D3E2968086402031D3E29A2
:1032700067086302031D3E2966086202031841299C
:103280004229442903104529031408004101C800BC
:10329000480803194C294D296A2998313820993159
:1032A00041013C08CC003B08CB003A08CA00390871
:1032B000C9004C08B3004B08B2004A08B1004908E5
:1032C000B000A7318027993141013008C700470875
:1032D000CE006B29CE01440803196F2970298D296E
:1032E00098313820993141013C08CC003B08CB0093
:1032F0003A08CA003908C9004C08B3004B08B200AC
:103300004A08B1004908B000A7318027993141012E
:103310003008C7004708D0008E29D00143080319A0
:1033200092299329B02998313820993141013C08DC
:10333000CC003B08CB003A08CA003908C9004C0849
:10334000B3004B08B2004A08B1004908B000A731E9
:103350008027993141013008C7004708CF00B129C3
:10336000CF0145080319B529B629D329983138204A
:10337000993141013C08CC003B08CB003A08CA0017
:103380003908C9004C08B3004B08B2004A08B10024
:103390004908B000A7318027993141013008C700A2
:1033A0004708CD00D429CD015008C6004F08C500FC
:1033B0004E08C4004D08C300080003304001370226
:1033C000E83003193602031CE629E7290B2A793075
:1033D000B8003808B0003430AF317D2799317930EA
:1033E0004001B8003808B0003530AF317D27993141
:1033F00079304001B8003808B0003630AF317D2751
:10340000993179304001B8003808B0003730AF3119
:103410007D279931792A0A30A8000030A9003708A1
:10342000AB003608AA0098310320993140012908E1
:1034300085002808840010308407A830853D0008E6
:10344000B8003808B0003730AF317D2799310A30E5
:103450004001A8000030A9000A30A0000030A100FF
:103460003708A3003608A200A231D62299314001C4
:103470002108AB002008AA009831032099314001AF
:10348000290885002808840010308407A830853D6D
:103490000008B8003808B0003630AF317D279931C8
:1034A0000A304001A8000030A9006430A0000030BC
:1034B000A1003708A3003608A200A231D622993114
:1034C00040012108AB002008AA009831032099315F
:1034D0004001290885002808840010308407A8309E
:1034E000853D0008B8003808B0003530AF317D2781
:1034F000993108004001A80028080319802A812A70
:10350000952AA31F842A852A952A2009AA00210921
:10351000AB002209AC002309AD00AA0A0319AB0ACB
:103520000319AC0A0319AD0A9D2A2308AD0022082D
:10353000AC002108AB002008AA00230822042104C3
:103540002004031DA42AA52AAE2A0030A3000030BF
:10355000A2000030A1000030A000262B9630A4006D
:103560002408A900BE2A0130A4002408A9070130BC
:10357000AD36AC0CAB0CAA0C890BB82AFE302D056D
:10358000031DC32AC42AB32AD82A0130A400240860
:10359000A9070130AA070030AB3D0030AC3D003038
:1035A000AD3D0130AD36AC0CAB0CAA0C890BD22A68
:1035B000FF302D05031DDD2ADE2AC52AE82A013049
:1035C000A9020130AA35AB0DAC0DAD0D890BE22A75
:1035D000AC1BEB2AEC2AF22A023029020318F12A4A
:1035E000F22ADF2A2918F52AF62AFE2AFF30AA0530
:1035F000FF30AB057F30AC05FF30AD050310A90CE3
:103600002908A400A501A601A7011830A435A50D1D
:10361000A60DA70D890B062B2408AA042508AB04C8
:103620002608AC042708AD0428080319182B192B09
:103630001E2BA31F1C2B1D2B1E2BAD172D08A3000B
:103640002C08A2002B08A1002A08A0000800AD3118
:1036500020259B3142012F08400120024101E40056
:10366000420130084001213B4101E500073065027D
:10367000D0300319640203183E2B3F2B402BD62B6E
:10368000AD3120259B31400121084201B0004001AD
:1036900020084201AF00AD3172259B314101E400A9
:1036A0006408E60001304301A0070030A13DA030CE
:1036B000860001308700B9308400003085000A3070
:1036C0004101E40016001A00E40B622B8031BD209A
:1036D0009B3141013C084401A30041013B084401E6
:1036E000A20041013A084401A10041013908440106
:1036F000A0004101660803197E2B7F2BA82BAD315A
:1037000020259B3142012D08400120024101E400A7
:1037100042012E084001213B4101E50000306502D5
:103720000A30031964020318962B972BA82BFF303D
:10373000E40064084401A000AD3120259B31400124
:1037400021084201AE00400120084201AD00C32B18
:10375000AD3120259B3142012D084001200241015D
:10376000E40042012E084001213B4101E500003008
:1037700065020A30031964020318BF2BC02BC32B48
:103780004401A0019C2B440123084101D4004401C1
:1037900022084101D300440121084101D200440123
:1037A00020084101D1009431AC249B310800400134
:1037B000E2005A0886008701403FDC00413FDD00FF
:1037C0005C0884005D0885001200253A031DE92B82
:1037D000EA2B652C5A0886008701013081074131A8
:1037E0000318810A4201A901AA01AB01AC01FF3013
:1037F0004301B400FF30B50040015A08860087013C
:10380000403FDC00413FDD005C0884005D0885002E
:103810001200633A031D0D2C0E2C302C5A08860022
:1038200087010130810741310318810A5B08860056
:103830008701010884008501023081070008DC004F
:103840005C08E1006108DC005C08D4006208A1317A
:10385000F5219B3140015508DB005408DA00882C23
:103860005A0886008701403FDC00413FDD005C08CC
:1038700084005D0885001200253A031D402C412C70
:103880005A2C5A08860087010130810741310318FC
:10389000810A2530BB000030BC006208DC005C08F7
:1038A000BD00A33190239B3101304001DA0000308C
:1038B000DB00882C5A0886008701013081074131DE
:1038C0000318810ADA01DB01882C5A088600870177
:1038D000403FDC00413FDD005C0884005D0885005E
:1038E0000008DE00DF015E08BB005F08BC00620864
:1038F000E0006008BD00A33190239B3140015A08CD
:10390000860087010130810741310318810A542C58
:103910000800273040013702103003193602031C1B
:10392000922C932CB72C7930B8003808B000343082
:10393000AF317D279C3179304001B8003808B000A4
:103940003530AF317D279C3179304001B8003808DF
:10395000B0003630AF317D279C3179304001B8005E
:103960003808B0003730AF317D279C314E2D0A30FA
:10397000A8000030A9003708AB003608AA0098312B
:1039800003209C314001290885002808840010305C
:103990008407A830853D0008B8003808B0003730EB
:1039A000AF317D279C310A304001A8000030A900CA
:1039B0000A30A0000030A1003708A3003608A2009A
:1039C000A231D6229C3140012108AB002008AA0078
:1039D000983103209C314001290885002808840083
:1039E00010308407A830853D0008B8003808B000C2
:1039F0003630AF317D279C310A304001A8000030BD
:103A0000A9006430A0000030A1003708A3003608E8
:103A1000A200A231D6229C3140012108AB0020082F
:103A2000AA00983103209C3140012908850028080C
:103A3000840010308407A830853D0008B80038089D
:103A4000B0003530AF317D279C310A304001A800ED
:103A50000030A900E830A0000330A1003708A3001F
:103A60003608A200A231D6229C3140012108AB00C9
:103A70002008AA00983103209C31400129088500C4
:103A80002808840010308407A830853D0008B8005D
:103A90003808B0003430AF317D279C310800AD319B
:103AA00020259D314201310840012002A800420139
:103AB00032084001213BA90042015D084001290272
:103AC000031D662D42015C08400128020318692D80
:103AD0006A2D6B2D302EAD3120259D3140012108FE
:103AE0004201B200400120084201B1004003031D21
:103AF0007A2D7B2D812D01304301B8070030B93D6F
:103B0000892D4301B801B9011E304201DC000030AB
:103B1000DD0042014003031D8E2D8F2DD52D3F0862
:103B2000031D932D942DD52DC101C10A3230DC0027
:103B30000030DD00AD3120259D31420133084001C8
:103B40002002AA00420134084001213BAB00AD3104
:103B500020259D31400121084201B4004001200888
:103B60004201B300003040012B02963003192A02B3
:103B70000318BB2DBC2DC22D90304301BA0001307B
:103B8000BB00D52D2B08A1002A08A0006030A200A0
:103B9000EA30A300A231D6229D3140012108430121
:103BA000BB00400120084301BA0042014008400127
:103BB000A80028084201BF00C00143013908803A2B
:103BC0004001A80080302802031DE92D0430430184
:103BD0003802031CEC2DED2D0B2E01304201DE07C7
:103BE0000030DF3D5F084001A10042015E08400156
:103BF000A000AD310E259D314301B801B901AD31B1
:103C000020259D31400121084201B40040012008D7
:103C10004201B300302EAD3120259D3142013308E1
:103C200040012002A800420134084001213BA900C4
:103C300003302902E93003192802031C202E212E0B
:103C4000302E01304201DE020030DF3B5F084001D0
:103C5000A10042015E084001A000AD310E259D315A
:103C60000800A6312C269E3142014F088731EF27EC
:103C70009E31003A03193D2E3E2E7D2EAD3120257A
:103C80009E3142013508400120024101E20042011B
:103C900036084001213B4101E30063084201610213
:103CA000031D562E41016208420160020318592E7D
:103CB0005A2E7D2EA031CF209E31AD3120259E3150
:103CC000400121084201B600400120084201B50030
:103CD0006108803A4101E20080306202031D732EC8
:103CE000153042016002031C762E772E122FFF3012
:103CF0004201E007FF30E13D122F42014E088731BB
:103D0000EF279E31003A0319862E872EC22EAD3141
:103D100020259E3142013508400120024101E20088
:103D2000420136084001213B4101E30063084201A2
:103D30006102031D9F2E41016208420160020318C7
:103D4000A22EA32EC22EA031AB209E31AD31202554
:103D50009E31400121084201B60040012008420185
:103D6000B5006108803A4101E20080306202031D23
:103D7000BC2E153042016002031CBF2EC02E122F34
:103D8000772E122F42014D088731EF279E31003ADE
:103D90000319CB2ECC2ED22E01304201E20000308E
:103DA000E300122F75080319D62ED72EE62EA03168
:103DB000CF209E31AD3120259E31400121084301A5
:103DC000BD00400120084301BC00122F74080319F4
:103DD000EA2EEB2EEF2EA031AB209E31122F75086C
:103DE0000319F32EF42EF92E7408031DF82EF92E64
:103DF000C12E42014E088731EF279E31003A031D44
:103E0000022F032FC12E42014F088731EF279E3129
:103E1000003A031D0C2F0D2FC12E64304201E0002B
:103E20000030E10008004101EA004C30E60066087D
:103E30004001A00041016508AE3199269F31123E34
:103E40004101E7006708EF006F08E600E701AD31C8
:103E500020259F3142012F08400120024101E80046
:103E6000420130084001213B4101E9006708690235
:103E7000031D3C2F6608680203183F2F402F412F77
:103E8000FF2FAD3120259F31400121084201B000B4
:103E9000400120084201AF00013043012102693096
:103EA000031920020318552F562F5B2F0130A0074E
:103EB0000030A13D5D2FA001A1013D304001CB00AC
:103EC000CC30CA00CC30C900CD30C80041016408F4
:103ED000E600E701E801E90169084001A3004101AA
:103EE00068084001A200410167084001A1004101AA
:103EF00066084001A00000309A317A229F314001CB
:103F00002308CF002208CE002108CD002008CC00D5
:103F10008D31A9259F3140014B084301A900400183
:103F20004A084301A800400149084301A700400195
:103F300048084301A6003D304001CB00CC30CA0008
:103F4000CC30C900CD30C80041016A08E600E70165
:103F5000E801E90169084001A30041016808400146
:103F6000A200410167084001A1004101660840012B
:103F7000A00000309A317A229F3140012308CF00FF
:103F80002208CE002108CD002008CC008D31A925C3
:103F90009F3140014B084301A50040014A084301FD
:103FA000A400400149084301A3004001480843011F
:103FB000A200A030860001308700B93084000030B4
:103FC00085000A304101E60016001A00E60BE42FD6
:103FD0008031BD209F3141013C08EE003B08ED00DF
:103FE0003A08EC003908EB006E08D4006D08D300E5
:103FF0006C08D2006B08D1009431AC249F310800CA
:1040000080304001E5066908AC006808AB0067082D
:10401000AA006608A9006508B0006408AF0063083C
:10402000AE006208AD008B317123A03140012C0835
:10403000E5002B08E4002A08E3002908E200080054
:10404000003041013A02803003193902031829284F
:104050002A284128FF30B9050330BA054601161E4B
:1040600032283328392806304101B935BA0D890B79
:10407000352841013A0846019500410139084601B9
:1040800094000800003041013A02803003193902DF
:1040900003184B284C286328FF30B9050330BA05B4
:1040A00046011A1E542855285B2806304101B935AF
:1040B000BA0D890B572841013A0846019900410180
:1040C00039084601980008004001A6002308A50011
:1040D0002208A400A435A50D26088600013087001B
:1040E0002408C03F2508C13F2108A4002608023E3D
:1040F000860001308700240881002008A4002608DB
:10410000033E86000130870024088100080040013A
:10411000A800A401A5012008A200A3012208A6006E
:104120002308A700281C952896289A282608A40763
:104130002708A53D0130A635A70D890B9B28031044
:10414000A80C2808031DA528A62892282508A10048
:104150002408A0000800420162036304031DB12883
:10416000B228B7280030E2000230E300BB2801305B
:10417000E2020030E33B9A304101A000B030A100E0
:10418000AE31AF26A031420163084001B7004201C1
:1041900062084001B6009931DD21A03108000230EB
:1041A000420163066204031DD628D728DC280130AB
:1041B000E2000030E300E0280130E2070030E33D98
:1041C0009A304101A000B030A100AE31AF26A0313D
:1041D000420163084001B700420162084001B60095
:1041E0009931DD21A0310800AD316825A031903131
:1041F0000020A031AD315F25A031AF316127A03162
:10420000AD317D25A031AD318825A031A1311921F5
:10421000A031AD319E25A031AD319325A031AD3116
:10422000CE25A031AE315926A031A2312822A031AD
:10423000080041018C018D018E018F0192019301D3
:1042400098019A019F0142018C018D018E018F011D
:1042500090019201543093005630940095019601DC
:1042600097019801D43091004E018D109714DF30E2
:104270004001A0002C30A100AD310525A13108007E
:104280004001C800C901CA0158294708C400C50136
:104290004408BB004508BC004308C6004608BD00F2
:1042A000A3319023A13101304001C9070030CA3D3C
:1042B00049084807C4004408860003308700010805
:1042C000C5004508C7004708031D67296829452917
:1042D00008004001AD00420122186F2970298F2982
:1042E00040012D08AB002B08A0002708AC002C08CB
:1042F000A1002908A3002808A200E130A031642011
:10430000A131E1304001A0000130A1002A08AB003A
:104310002B08A2000130A5316E25A131952940015D
:104320002A08860087018101810A08004001BA003D
:1043300004304201420203189E299F29AB290D3007
:1043400040013A060319A529A629AB293A08031DFD
:10435000AA29AB29AD294201C2010D3040013A061C
:104360000319B329B429C3293A08B9003908B6009A
:1043700042014208AE311E26A13101304001B90090
:1043800039084201C20708004001E8006408EA0059
:104390006308E9004301B201B301E2296930E60094
:1043A0006608DA006508E7006708DB0068089B31EB
:1043B000D723A13140015A084301B20740015B08ED
:1043C0004301B33D4001690884006A08850012007A
:1043D000031DEB29EC29CE29430133084001E400F9
:1043E000430132084001E30008004001D7004201C8
:1043F00029082A04031DFD29FE29062A2A0840014E
:10440000D900420129084001D8000F2A2908FF3E9F
:104410004001D800FF3042012A3D4001D900540834
:10442000D60056084701A000A101A0304001D600E7
:104430005608CB005908CD005808CC005708A531C4
:104440001225A13140014C08D5004B08D4000800CA
:104450004E0199125C304001A0002230A100AD3124
:104460003B25A231083042019F0090309D0004306E
:104470009E001F309B009C01E0304001A0002C30CA
:10448000A100AD314D25A231ED304001A0002C300E
:10449000A100AD315625A231E9304001A0002C30F9
:1044A000A100AD314425A2314201D701F601D90165
:1044B000D8014E01991608007608AA3E8600013000
:1044C0008700810142011D1D662A672A732A76082A
:1044D000AA3E860001308700811444016B088A00DF
:1044E0006A080A00A23142019D1C772A782A842A90
:1044F0007608AA3E860001308700011545016B0849
:104500008A006A080A00A2317608AA3E86000130B5
:104510008700010803198D2A8E2A952A460158081A
:104520008A0057080A00A231982AAE31F626A23135
:10453000080042019D1C9D2A9E2AA02A1D121D16BC
:1045400043016D086E04031DA62AA72AC92A420149
:104550001D19AB2AAC2AC92A1908F700F801430132
:104560003708FA003608F900F935FA0DEE30FB008D
:104570002330FC0079087B0786007A087C3D8700A1
:104580007708C03F7808C13F0130B6070030B73D1B
:10459000D32A4301B601B701ED01EE01420119082A
:1045A000F7007708FD004E018F1208004001A601B8
:1045B000A701200821040319DE2ADF2A0E2BA501FA
:1045C000A50AEB2A0130A035A10D890BE32A0130A1
:1045D000A4002408A507A11FEE2AEF2AE22A013031
:1045E000A635A70D890BF02A21082302031DFA2AFC
:1045F00020082202031CFD2AFE2A032B2008A20207
:104600002108A33B26140130A136A00C890B042BF2
:104610000130A502031D0D2B0E2BEF2A2708A10048
:104620002608A0000800A031F420A3311530420173
:10463000EE004B30ED00BE30890B1C2BED0B1C2B1C
:10464000EE0B1C2B0000AD313225A331A331D12359
:10465000A331AE31C526A331AF312A27A331893129
:104660008121A3318B170B17AE316E26A331AE31EA
:104670004526A331AD312025A33140012108430156
:10468000BF00400120084301BE0090313520A33116
:1046900092315722A3319D314F25A331452B8031D3
:1046A0004C28762B420126080319572B582B8F2BA9
:1046B0000130A6028F2B420127080319602B612BC2
:1046C0008F2B0130A7028F2B420128080319692B79
:1046D0006A2B8F2B0130A8028F2B4201250803196A
:1046E000722B732B8F2B0130A5028F2BAC31FE2444
:1046F000A3314001A000A1012108003A0319812B38
:104700008F2B20080D3A0319522B033A03195B2B08
:10471000013A0319642B1F3A03196D2B8F2B0800E4
:1047200040013D080319952B962B9B2B3D08031D3B
:104730009A2B9B2BA02B3B08A1319621A331D02B88
:104740003D08033E86008701160001040319A92BCA
:10475000AA2BC72B3D08033E86008701403FBE00C1
:10476000413FBF003D0A86008701403FC000413FF6
:10477000C1004108803AC2003F08803A4202031D4E
:10478000C32B3E0840020318C62BC72BD02B400179
:104790003D0A860087010130810741310318810AF3
:1047A0000800C0304001A50025084201D000C830F3
:1047B0004001A50025084201CF00D0304001A500EE
:1047C00025084201CE00D8304001A500250842014D
:1047D000CD000E304001A0000030A1000230A50045
:1047E0002508A20042015008AF319C27A3310C30AC
:1047F0004001A0000030A1000230A5002508A20061
:1048000042014D08AF319C27A3310E304001A0007A
:104810000030A100A20142014E08AF319C27A33114
:104820000E304001A0000030A100A201A20A420106
:104830004F08AF319C27A331AD31FA25A3310800D1
:10484000003040012005A80000302105A90080307B
:104850002205AA007F302305AB002B082A04290477
:104860002804031D342C352C3D2C0030A3000030CF
:10487000A2000030A1000030A00000302405A800F4
:1048800000302505A90080302605AA007F302705C5
:10489000AB002B082A0429042804031D502C512C9A
:1048A000592C0030A7000030A6000030A5000030D1
:1048B000A40027082306031D672C26082206031DD3
:1048C000672C25082106031D672C240820060319E0
:1048D0006A2C6B2C6D2C03106E2C03140800A42C76
:1048E0004201260A0319752C762CBD2C013040019B
:1048F000A00020084201A607BD2C4201270A031987
:10490000822C832CBD2C01304001A00020084201E4
:10491000A707BD2C4201280A03198F2C902CBD2C0F
:1049200001304001A00020084201A807BD2C42012F
:10493000250A03199C2C9D2CBD2C01304001A000A0
:1049400020084201A507BD2CAC31FE24A431400152
:10495000A000A1012108003A0319AF2CBD2C2008AA
:104960000D3A0319702C033A03197D2C013A0319EF
:104970008A2C1F3A0319972CBD2C08004001AF0167
:10498000AC1FC32CC42CCB2CAB09AC09AB0A03194C
:10499000AC0AAF01AF0AAA1FCE2CCF2CD42CA90988
:1049A000AA09A90A0319AA0A29082A040319D92C51
:1049B000DA2C032DAE01AE0AE62C0130A935AA0D82
:1049C000890BDE2C0130AD002D08AE07AA1FE92CA3
:1049D000EA2CDD2C2A082C02031DF02C29082B02BE
:1049E000031CF32CF42CF82C2908AB022A08AC3B4E
:1049F0000130AA36A90C890BF92C0130AE02031D37
:104A0000022D032DEA2C2F080319072D082D0D2D3B
:104A1000AB09AC09AB0A0319AC0A2C08AA002B0895
:104A2000A90008004001D30042012B1C182D192DAC
:104A3000222D40015308CE004E08C3004B08A1317F
:104A40004021A5314001CD1B262D272D2C2D4D08B1
:104A5000D2004C08D1002E2DD101D201CF01D001BE
:104A6000422D20304001BB000030BC005308CE0076
:104A70004E08BD00A3319023A53101304001CF077E
:104A80000030D03D5008803ACE005208803A4E02A5
:104A9000031D4C2D51084F02031C4F2D502D312D5D
:104AA00042012B18542D552D5E2D40015308CE0088
:104AB0004E08C3004B08A1314021A53140014B08ED
:104AC000A0000330A100AF311027A53140015108EB
:104AD0002007CB005208213DCC0008004001A40073
:104AE00042012218742D752DB62D02304001A3000D
:104AF000220886008701230881004201200A8600DF
:104B00000130870040012008C03F2108C13F240830
:104B1000A3004201200886000130870040012308DD
:104B200081002208A30042012008033E86000130D4
:104B300087004001230881000430A30023084201BC
:104B4000A0072008E93A031DA62DA72DAD2DE530BD
:104B50004001A30023084201A000A2102108200662
:104B6000031DB32DB42DBC2D2214BC2D40012208F1
:104B7000860087018101810A4001220886008701A1
:104B800002300106031DC52DC62DCB2DAC31F724F7
:104B9000A5314E010F1408004001A601A11FD12D1F
:104BA000D22DD92DA009A109A00A0319A10AA60195
:104BB000A60AA31FDC2DDD2DE62DA209A309A20A5A
:104BC0000319A30A0130A4002408A606A701A8011E
:104BD000200821040319ED2DEE2D1D2EA501A50A97
:104BE000FA2D0130A035A10D890BF22D0130A40062
:104BF0002408A507A11FFD2DFE2DF12D0130A7359D
:104C0000A80D890BFF2D21082302031D092E200862
:104C10002202031C0C2E0D2E122E2008A2022108A7
:104C2000A33B27140130A136A00C890B132E0130B1
:104C3000A502031D1C2E1D2EFE2D26080319212E54
:104C4000222E272EA709A809A70A0319A80A2808AF
:104C5000A1002708A000080098310020A6314101DA
:104C6000D900DA01D935DA0DEE30DB002330DC0073
:104C700059085B0786005A085C3D87000108DD0083
:104C80005D08DF0098310020A6314101D900DA012A
:104C9000D935DA0DF030DB002330DC0059085B0732
:104CA00086005A085C3D87000108DD005D08E000D1
:104CB00098310020A6314101D900DA01D935DA0D49
:104CC000F230DB002330DC0059085B0786005A080D
:104CD0005C3D87000108DD005D08E100983100209F
:104CE000A6314101D900DA01D935DA0DF430DB0003
:104CF0002330DC0059085B0786005A085C3D8700BA
:104D00000108DD005D08DE006108D4006008D30002
:104D10005F08D2005E08D1009431AC24A6310800AF
:104D20004001B90064303902031C972E982EBC2E26
:104D30007930B6003608B0003430AF317D27A63167
:104D400079304001B6003608B0003530AF317D27EC
:104D5000A63179304001B6003608B0003630AF31A8
:104D60007D27A63179304001B6003608B0003730D3
:104D7000AF317D27A631072F0A30A9000030AA00E5
:104D80003908B600B7013608AB003708AC00A431CB
:104D9000BE24A63140012A0885002908840010306D
:104DA0008407A830853D0008B8003808B0003730C7
:104DB000AF317D27A6310A304001A9000030AA009A
:104DC0000A30A0000030A1003908B600B70136084B
:104DD000A2003708A300A531CC25A6314001210847
:104DE000AC002008AB00A431BE24A63140012A0843
:104DF00085002908840010308407A830853D00080C
:104E0000B8003808B0003630AF317D27A631080031
:104E1000352F8230A000B030A100AE31AF26A731CF
:104E200096311D26A731512F8A30A000B030A10045
:104E3000AE31AF26A73188310020A731512F8630FF
:104E4000A000B030A100AE31AF26A7319B3127239F
:104E5000A731512F7E30A000B030A100AE31AF2677
:104E6000A73188310120A731512F720886007308BD
:104E70008700483101084101E700E8016808003A6D
:104E80000319432F512F6708093A0319092F033AD1
:104E90000319142F013A03191F2F073A03192A2F58
:104EA000512F42016808A6319026A73175080319D1
:104EB0005A2F5B2F702F0930420168020318612FAF
:104EC000622F692F01304101E70067084201E807BE
:104ED0007F2F09304101E70067084201E8007F2F7A
:104EE00074080319742F752F7F2F42016808031966
:104EF0007A2F7B2F7E2F0130E8027F2FE8010800F8
:104F000003104101320D330DB40034084001EF00AD
:104F10006F08031D8C2F8D2F972F00304101B30098
:104F20000030B2000030B1000030B000FF2F41016E
:104F30003008B4003108B5003208B6003308B700B5
:104F40001F30B736B60CB50CB40C890BA12F340842
:104F5000B80038084001EE004101B217FF30B0053B
:104F6000FF30B105FF30B2050030B3059630400187
:104F7000EF02EF1FBC2FBD2FD72F6F08803A973E4F
:104F80000318C32FC42FC52F8D2F01304101B33615
:104F9000B20CB10CB00C890BC62F0130B400340830
:104FA0004001EF07031DD52FD62FC52FEE2F203040
:104FB0006F02031CDC2FDD2FE92F8D2F0130410103
:104FC000B035B10DB20DB30D890BDF2F01304001AB
:104FD000EF026F08031DED2FEE2FDE2F6E08031971
:104FE000F22FF32FFF2F4101B009B109B209B30924
:104FF000B00A0319B10A0319B20A0319B30A080067
:10500000003482342134003400340034003402345B
:1050100039340F34003400340034403480340034E8
:105020003F3406345B344F3466346D347D3407349A
:105030007F346F3400340034003448340034533447
:10504000003477347C3439345E34793471346F34DD
:10505000763406341E3400343834003454343F344B
:105060007334673450346D3478343E340034003453
:1050700000346E340034393400340F3400340834D2
:1050800063345F347C3458345E347B3471346F3431
:10509000743402341E3400340634003454345C3426
:1050A0007334673450346D3478341C340034003435
:1050B00000346E340034393430340F34003400346A
:1059BE000800080008004E018F1008004201C001C7
:1059CE00C00A0800AE31F626AC31080042011D12A5
:1059DE001D16080001304201B9070030BA3D08001B
:1059EE0042015608031DFC2CFD2CF72C08007208F2
:1059FE00860073088700483101080800400121081D
:105A0E004301EA00400120084301E900080040017B
:105A1E00210841018F004001200841018E0008003D
:105A2E004001A000200841019F004201911711146E
:105A3E00080042013A084001A10042013908400124
:105A4E00A0000800400121084301EC00400120089D
:105A5E004301EB000800F1304001A0002C30A10002
:105A6E00AD312925AD310800400121084401ED007A
:105A7E00400120084401EC000800400121084601C5
:105A8E00D800400120084601D70008004001210837
:105A9E004401EB00400120084401EA0008004001E7
:105AAE0021084501EB00400120084501EA000800ED
:105ABE00603051018D008F019101063093009201EB
:105ACE0008004F0196019701980199019A019B01D7
:105ADE009C019D010800420141080319772D782D84
:105AEE007B2DC10101307C2D003008008C30460129
:105AFE008E008D018C0144011E08FC3901389E0078
:105B0E0008008C30460192009101900144011E085C
:105B1E00F33904389E0008008C304601960095013A
:105B2E00940144011E08CF3910389E0008008C30B5
:105B3E0046019A009901980144011E083F394038E8
:105B4E009E0008006400800101310130FE02003029
:105B5E00FF3B7F087E04031DAA2D0034FE001200B9
:105B6E001E000130FE020030FF3B7F087E04031D45
:105B7E00B62D00340A3400349034063464340034C4
:105B8E000134003405340534053401340534013054
:105B9E00450190008F019101FF308D008C014E0167
:105BAE009010F03045018E0008004E018D1043011B
:105BBE0069086A040319E42DE52DEA2D6A088A00A6
:105BCE0069080A00AD3108004E018C1243016B08C2
:105BDE006C040319F32DF42DF92D6C088A006B0853
:105BEE000A00AD310800400112157E013811391539
:105BFE0040011414941414157E014E10CE104E1143
:105C0E004F14CF144F15080004304201BD07003069
:105C1E00BE3D0130D502031D152E162E1B2E04304F
:105C2E00F7007708D6001D2ED601D60A08004001CF
:105C3E00B8003608E03E8400A7300318013E850008
:105C4E000008B7003708B0003808343EAF317D2762
:105C5E00AE310800420128084101D4004201270854
:105C6E004101D300420126084101D200420125081C
:105C7E004101D1009431AC24AE310800993040017D
:105C8E00A0002230A100AD313B25AE3142016308A8
:105C9E004001B700420162084001B6009C318924E0
:105CAE00AE31080045304B019F00F9309D009C013C
:105CBE004E018C129616E1304001A0002C30A1004E
:105CCE00AD312925AE3180304B019E0008000130E8
:105CDE00AE31DD26AE3179304101A000B030A100E9
:105CEE00AE31AF26AE3147304101A000B030A10039
:105CFE00AE31AF26AE3108004001A0002008073EAD
:105D0E008600033087000103031D8E2E8F2E972EE3
:105D1E002008073E86000330870081010130982E4F
:105D2E00003008004001A300A201231C9F2EA02ECC
:105D3E00A42E2008A1002108A2070310A00D031015
:105D4E00A30C2308031DAC2EAD2E9C2E220808009A
:105D5E00A2304001EB006B08EE004101210840012A
:105D6E00E400410120084001E3006E30EB006B08B7
:105D7E00E5000030A131C421AE31080042015F08B8
:105D8E004001A10042015E084001A000AD310E2588
:105D9E00AE31E5304001A0002C30A100AD3105251B
:105DAE00AE310F30AD311725AE3108004001B600CF
:105DBE0036080319E32EE42EEE2EB001B00A24307D
:105DCE00AF317D27AE314201C301C30AF52EB001BA
:105DDE002430AF317D27AE314201C30108004201AC
:105DEE001908F7007608A03E860002308700770873
:105DFE0081000130F7007708F60708307602031CA1
:105E0E00092F0A2F0B2FF6010130F7007708D8075C
:105E1E00080040012108A4002008A3001A2F013019
:105E2E00A0070030A13D2008840021088500120043
:105E3E00031D222F232F162F23082002A000240833
:105E4E00213BA10008004201A601A701A801A5015E
:105E5E00400194124301A001A1013F30A90000307E
:105E6E00A8000030A7000030A6003F30A500423049
:105E7E00A4008F30A3005C30A2000800F80043019C
:105E8E00111542015408033E8600013087000108B7
:105E9E000319522F532F5F2F7808F7005408033E33
:105EAE00860001308700010886008701770881008F
:105EBE00D6010800E5304001A00020084201A100F3
:105ECE00E5304001A00020084201A000A2142210DB
:105EDE00A40143018F012830900092014F308D00B4
:105EEE004E010F108F101914991408004001B400C0
:105EFE000230B1003108B500A701A70A3408B1007D
:105F0E00B2013108A8003208A9003530B3003308B9
:105F1E00AA003030A1316921AF310230400135067F
:105F2E0003199A2F9B2F942F08004001A4002408D8
:105F3E008600033087002008C03F2108C13F220899
:105F4E00A3002408023E8600033087002308810048
:105F5E002408033E86000330870081012408073E93
:105F6E0086000330870081010800003041013A02AB
:105F7E008030031939020318C52FC62FDD2FFF30CD
:105F8E00B9050330BA0546010E1ECE2FCF2FD52FE1
:105F9E0006304101B935BA0D890BD12F41013A08AE
:105FAE0046018D004101390846018C000800003081
:105FBE0041013A028030031939020318E72FE82F06
:105FCE00FF2FFF30B9050330BA054601121EF02F20
:105FDE00F12FF72F06304101B935BA0D890BF32F8A
:105FEE0041013A08460191004101390846019000ED
:105FFE000800253463342534633425346334253462
:10600E0063340D340034253463342534633425343D
:10601E00633420340D340034203425346334253475
:10602E006334253463340D340034483445345934E4
:10603E00593459345934593459340034253463346D
:10604E0025346334203420340D340034203420348D
:10605E0025346334253463340D34003425346334ED
:10606E002034203420340D340034203420342034B5
:10607E00253463340D34003420342034203420345D
:10608E000D34003442342034203420340D340034A6
:10609E0043342034203420340D340034503443340F
:1060AE00203420340D3400344C3445344434203400
:1060BE000D34003441344E34493420340D34003420
:1060CE0041344C344C3420340D3400344634413495
:1060DE00443445340D340034423445344134543460
:1060EE000D34003420342034203420340034413434
:1060FE002D340D34003442342D340D3400344334F9
:10610E002D340D34003446342D340D3400345334D4
:10611E0050340D34003441346E340D340034423476
:10612E0072340D34003464340D34003462340D3462
:0E613E00003467340D34003468340D340034FE
:020000040001F9
:0A000E00EC3FFF3F9F3FFF3FFF3F25
:00000001FF
