:020000040000FA
:1000000080313028080008007E1480314E01961A95
:100010008C1E0E288931F12180312E280B1F2E28AD
:1000200099188F1C17288931082180312E2819181A
:100030000F1C1E288131E32180312E2897188D1C3A
:1000400025288931E42180312E28991A8F1E2E28E7
:1000500042016D088A006C080A0080317E10090098
:1000600080313228FE30840089308500E2308600FD
:10007000003087000030FF000D308931D8218031F9
:10008000EE308400233085000230FE000430FF0093
:100090008931CC218031F001F101F201F301F40149
:1000A000F501F601EF01A030840000308500323008
:1000B000FE000030FF008931CC21803120308400E7
:1000C000013085004230FE000030FF008931CC2134
:1000D0008031A0308400013085002030FE000030E7
:1000E000FF008931CC217E1040018E31C92E4101A3
:1000F000DF01DF0A46088A314D2280314101DC00F0
:100100005C08C10045088A314D2280314101DC0084
:100110005C08C00047088A314D2280314101DC0073
:100120005C08BF0044088A314D2280314101DC0067
:100130005C08BE006E03031DC12889314321803154
:1001400041013708400120024101DC00380840012C
:10015000213B4101DD0013305D02883003195C0250
:100160000318C1288F31A527803141014108031DA3
:10017000BE28400803193F0803190800C301C30A39
:1001800008004308031DCB286E03031DCB28033052
:10019000DC005C08EC00EE016C08DC005C08DE00B2
:1001A0003F08031943080319DE284208031DDE280F
:1001B000C301C30A8F31A52780316929410803197A
:1001C000F42803306C06031DF4288B312B23803177
:1001D000893143218031400121084101B0004001B3
:1001E00020084101AF00692940080319FF280330A6
:1001F0006C06031DFF288A31E222803169294108FB
:1002000003193B29893143218031410131084001E3
:1002100020024101DC0032084001213B4101DD00A8
:100220005D086902031D16295C08680203183B2952
:1002300003306C06031D3B298B312B238031893120
:1002400043218031400121084101B20040012008D2
:100250004101B1006908803ADC0080305C02031D76
:10026000332915306802031C6929FF304101E80772
:10027000FF30E93D6929400803195C298931432190
:10028000803141013108400120024101DC00320887
:100290004001213B4101DD005D086902031D522937
:1002A0005C08680203185C2903306C06031D5C2996
:1002B0008A31E22280311F293E0803196829033060
:1002C0006C06031D68290130EA000030EB00692943
:1002D000DF0141016C030319712902306C06031D13
:1002E0007329DF01DF0A4108031D7D294008031D32
:1002F0007D296430E8000030E9005F0803198B298C
:10030000893143218031400121084101B000400181
:1003100020084101AF0089314321803141012F087C
:10032000400120024101DC0030084001213B410135
:10033000DD0013305D02883003195C02031CB22912
:1003400000308A3189228031893143218031400156
:100350002008773E4101AF00EC304001213D4101D2
:10036000B000B62901308A31892280310330410141
:100370006C06031DD5294308031DD5296B084001D0
:10038000B50041016A084001B4008531DB258031A8
:10039000D2294308031DD8295B30D2009030D30006
:1003A0008A319E224101C20108006C030319C92948
:1003B00002306C06031D08004308031D08004F307F
:1003C000D2009030CF294E010F104301901F042B13
:1003D00090134101CC017208023E8600870101089A
:1003E000860087018101810AF2010800A218080035
:1003F0002108F9007908F200210886008701010828
:10040000F9007908CB00210886008701413FF300FD
:100410000330F9007908A1072108D23A031D142AF4
:10042000CF30F9007908A100221021082006031915
:10043000A214430111140230F90079084101CC00E3
:100440000800AD2A4301111F2E2A0130F900790856
:100450004101A40704308A31CA2208007608FA0054
:100460007508F900FA36F90C79088C00751C3E2ADB
:100470000B30F90079084101CC0008000330F90085
:1004800079084101CC0008004301111F502A0130B6
:10049000F90079084101A40704308A31CA22080012
:1004A00091147608FA007508F9007A08F900FA0143
:1004B00006307905FB0000307A05FC00F0307B0443
:1004C000F50000307C04F60075144101C801C80A2B
:1004D0001B2A48030319822A73088600013087000B
:1004E000403FF500413FF600730886000130870069
:1004F0000130433FCA007308860001308700013095
:10050000423FC900750843018C00751C3E2A053026
:10051000F90079084101CC0008004301111F9B2A12
:100520000130F90079084101A40743011113053096
:100530008A31CA22080001304101C902490A031D5B
:10054000B02A0430F9007908F3070130CB02031D0B
:10055000AD2A00308A31CA220800430191141B2AB7
:100560004A0886008701010843018C000130F90028
:1005700079084101CA0708004301111FCA2A013046
:10058000F90079084101A40704308A31CA224301E5
:100590001113080091150830F90079084101CC00C9
:1005A00008000830F9007908CC00430191150800D3
:1005B00043010C08F90041014A08860087017908C7
:1005C00081000130F9007908CA070130C902031916
:1005D000F12A430191120630F90079084101CC005B
:1005E000F52A430191168A31192243011116080098
:1005F00000308A31CA2208000130F9007908A407C6
:1006000006308A31CA22080041014C08F900FA017B
:100610007A08003A03190D2BFC2A7908003A0319CD
:10062000F629013A0319212A033A0319692A013AE2
:1006300003198D2A073A0319F82A013A0319BC2A2B
:10064000033A0319D12A013A0319F82A0F3A031978
:10065000D82A023A0319222A013A0319442AFC2A09
:1006600008008931432183314201340840012002CE
:10067000A200420135084001213BA30000302302C3
:10068000643003192202031C08008931432183319D
:10069000400121084201B500400120084201B40098
:1006A00089315E218331003A031D722B00304001F5
:1006B000A000A1008B317D23833100304001A000D8
:1006C000A1008B319B23833100304001A000A100A9
:1006D0008B31B923833100304001A000A1008B3160
:1006E000D723080070037104031DE82B7830400104
:1006F000A0000030A1008B317D2383310030400108
:10070000A000A1008B319B23833100304001A00069
:10071000B12B00304001A000A12B78304001A00097
:100720000030A1008B317D23833100304001A000D7
:10073000A92B00304001A000BD2B78304001A00063
:100740000030A1008B317D23833178304001A0003F
:100750000030A1008B319B23833178304001A00011
:100760000030A1008B31B923833100304001A0005B
:10077000E02B78304001A0000030A1008B317D23B8
:10078000833100304001A000D02B00304001A00098
:10079000A1008B317D23833178304001A0000030EF
:1007A000A1008B319B23833178304001A0000030C1
:1007B000A1008B31B923833178304001A000003093
:1007C000A1008B31D7230130F0070030F13D080044
:1007D0000230700671040319892B0330700671040E
:1007E00003198D2B0430700671040319992B053001
:1007F0007006710403199D2B0630700671040319ED
:10080000B92B0830700671040319C52B78304001EC
:10081000A0000030A1008B317D238331783040016E
:10082000A0000030A1008B319B2383317830400140
:10083000A0000030A1008B31B92383317830400112
:10084000A0000030A1008B31D7230130F000003030
:10085000F100080089314321843140012108A700BB
:100860002008A6004101350840012602A2004101EE
:1008700036084001273BA300003023020230031951
:100880002202031C080027084101B6004001260887
:100890004101B5004001A5012508A2000230A235A2
:1008A000FF3E031D4F2C22353A3EA3002308A8002B
:1008B0002808860001308700403FA200413FA30086
:1008C00022088600230887000130A4002808023E81
:1008D000840001308500000A6E2CA435890B6D2C34
:1008E00024080105031D8D2C2808033E86000130D5
:1008F00087008101810A2808073E860001308700B1
:100900000108031D932C2808053E8600013087004E
:100910002608C03F2708C13F932C2808033E8600C5
:100920000130870081012808033E860001308700DE
:100930000108031DAB2C2808043E86000130870007
:100940000103031DAB2C2808073E860001308700F9
:100950008101810AF82C2808033E860001308700B7
:100960000103031DD92C2808043E860001308700AE
:100970000103031DD92C2808053E8600013087009D
:10098000403F2602A200413F273BA3000130230243
:10099000F53003192202031CCF2C0330D02C023077
:1009A000A2002808073E8600013087002208810047
:1009B000F82C2808033E8600013087000108031D3B
:1009C000F82C2808043E8600013087000103031D2F
:1009D000F82C2808073E8600013087000330010606
:1009E000031DF82C2808073E86000130870081018E
:1009F0002808033E8600013087000108A20028086D
:100A0000043E860001308700220881000130A200E8
:100A10002208A50704302502031808004C2C893150
:100A20004321853141012B0840012002A8004101EA
:100A30002C084001213BA900410165084001290221
:100A4000031D262D4101640840012802031C0800F3
:100A5000893143218531400121084101AC00400129
:100A600020084101AB003A03031D3B2D0130A907CB
:100A70000030AA3D412DA901AA011430E400003044
:100A8000E5003A03031D862D3908031D862DBB01A1
:100A9000BB0A6430E4000030E50089314321853130
:100AA00041012D0840012002AA0041012E08400109
:100AB000213BAB00893143218531400121084101AF
:100AC000AE00400120084101AD00003040012B0282
:100AD000963003192A020318732D90304201B80092
:100AE0000130B900862D2B08A1002A08A000603033
:100AF000A200EA30A3008D31822585314001210812
:100B00004201B900400120084201B80041013A0801
:100B10004001A80028084101B900BA012A08803A1A
:100B20004001A80080302802031D992D04304101A6
:100B30002902031CB82D01304101E6070030E73DD2
:100B400067084001A100410166084001A000893109
:100B5000312185314101A901AA0189314321400197
:100B600021084101AE00400120084101AD0008000C
:100B700089314321853141012D0840012002A8001F
:100B800041012E084001213BA90003302902E93030
:100B900003192802031C080001304101E60200305D
:100BA000E73B67084001A100410166084001A00041
:100BB00089313121080027304001350210300319F6
:100BC0003402031C062E7930B6003608AE003430ED
:100BD0008B316023853179304001B6003608AE0094
:100BE00035308B316023853179304001B6003608CD
:100BF000AE0036308B316023853179304001B6004C
:100C00003608AE0037308B31602308000A30A80068
:100C10000030A9003508AB003408AA008C31F62456
:100C20008531400129088500280884005630840752
:100C30008730853D0008B6003608AE0037308B316E
:100C4000602385310A304001A8000030A9000A3035
:100C5000A0000030A1003508A3003408A2008D31A7
:100C60008225853140012108AB002008AA008C3183
:100C7000F624853140012908850028088400563073
:100C800084078730853D0008B6003608AE00363050
:100C90008B31602385310A304001A8000030A90063
:100CA0006430A0000030A1003508A3003408A20081
:100CB0008D318225853140012108AB002008AA0032
:100CC0008C31F624853140012908850028088400EC
:100CD000563084078730853D0008B6003608AE00E0
:100CE00035308B31602385310A304001A800003057
:100CF000A900E830A0000330A1003508A3003408A3
:100D0000A2008D318225853140012108AB002008E9
:100D1000AA008C31F6248531400129088500280875
:100D20008400563084078730853D0008B6003608B9
:100D3000AE0034308B31602308004001E0005808D9
:100D400086008701403FDA00413FDB005A088400FB
:100D50005B0885001200253A031D232F58088600E2
:100D600087010130810741310318810A4101A50142
:100D7000A601A701A801FF304201B200FF30B30075
:100D80004001580886008701403FDA00413FDB0000
:100D90005A0884005B0885001200633A031DF12E97
:100DA0005808860087010130810741310318810A04
:100DB00059088600870101088400850102308107F7
:100DC0000008DA005A08DF005F08DA005A08D2008B
:100DD00060088D31522540015308D9005208D800CF
:100DE0000800580886008701403FDA00413FDB00D9
:100DF0005A0884005B0885001200253A031D182F4D
:100E00005808860087010130810741310318810AA3
:100E10002530B9000030BA006008DA005A08BB007B
:100E20008E31582601304001D8000030D90008002A
:100E30005808860087010130810741310318810A73
:100E4000D801D9010800580886008701403FDA0020
:100E5000413FDB005A0884005B0885000008DC0085
:100E6000DD015C08B9005D08BA006008DE005E08BC
:100E7000BB008E3158268631400158088600870114
:100E80000130810741310318810A122F0034823466
:100E900021340034003400340034023439340F3447
:100EA0000034003400344034803400343F3406349D
:100EB0005B344F3466346D347D3407347F346F34A3
:100EC0000034003400344834003453340034773470
:100ED0007C3439345E34793471346F34763406348A
:100EE0001E3400343834003454343F34733467349F
:100EF00050346D3478343E340034003400346E3471
:100F00000034393400340F340034083463345F342F
:100F10007C3458345E347B3471346F34743402342E
:100F20001E3400340634003454345C347334673473
:100F300050346D3478341C340034003400346E3452
:100F40000034393430340F34003400344001D100DF
:100F50004101271CB42F40015108CC004C08C100AE
:100F600049088C31802487314001CB1BBC2F4B08B2
:100F7000D0004A08CF00BE2FCF01D001CD01CE0155
:100F80004E08803ACC005008803A4C02031DCA2F0C
:100F90004F084D020318DE2F20304001B900003009
:100FA000BA005108CC004C08BB008E31582687315E
:100FB00001304001CD070030CE3DC02F4101271840
:100FC000EA2F40015108CC004C08C10049088C317F
:100FD0008024873140014908A0000130A1008A31F6
:100FE000FA2240014F082007C9005008213DCA00DD
:100FF000080001304101B3070030B43D080008008B
:10120A008B31122308004E018F1008004101BA01E8
:10121A00BA0A080042011D121D16080041014C08B5
:10122A00031908001329F9304001A0000730A10072
:10123A0089314C21080021304001A0000E30A10064
:10124A00893155210800400121084201E30040018B
:10125A0020084201E20008004001210841018F00F4
:10126A004001200841018E0008004001A00020082A
:10127A0041019F00420191171114080041013408ED
:10128A004001A100410133084001A00008004001CB
:10129A0021084201E500400120084201E40008005B
:1012AA00400121084201ED00400120084201EC0002
:1012BA00080041013B0803196529BB0101300800F8
:1012CA0000300800400121084201E70040012008DF
:1012DA004201E6000800400121084201EB004001FA
:1012EA0020084201EA000800400121084201E90001
:1012FA00400120084201E8000800603051018D00D9
:10130A008F01910106309300920108004F01960166
:10131A009701980199019A019B019C019D0108007E
:10132A0041016B084001B50041016A084001B4005F
:10133A008531DB2508008C3046018E008D018C0139
:10134A0044011E08FC3901389E0008008C30460111
:10135A0092009101900144011E08F33904389E005D
:10136A0008008C30460196009501940144011E083C
:10137A00CF3910389E0008008C3046019A00990136
:10138A00980144011E083F3940389E000800640055
:10139A00800101310130FE020030FF3B7F087E04EC
:1013AA0003190034CD29FE0012001E000130FE028E
:1013BA000030FF3B7F087E0403190034D9294E010F
:1013CA008D104201620863040319080063088A0049
:1013DA0062080A00893108004E018C124201640831
:1013EA0065040319080065088A0064080A0089313F
:1013FA000800013400340A3400349034063464346A
:10140A00003401340034033403340134013045011B
:10141A0090008F019101FF308D008C014E019010D8
:10142A00D03045018E0008000430F7007708F30732
:10143A0001304101CB02031D272A0430F700770847
:10144A00CC000800CC01CC0A0800400112157E012C
:10145A003811391540011414941414157E014E10D4
:10146A00CE104E114F14CF144F1508004001B6008C
:10147A003408263E840087300318013E85000008A0
:10148A00B5003508AE003608343E8B3160230800BB
:10149A004001A0002008073E8600013087000103B2
:1014AA00031D5F2A2008073E86000130870081015C
:1014BA00013008000030080045304B019F00F93028
:1014CA009D009C014E018C129616FF304001A0002F
:1014DA000730A10089314C2180304B019E00080061
:1014EA0001308A3189228A3167304101D200903035
:1014FA00D3008A319E228A3147304101D20090308E
:10150A00D3008A319E2208004001B400340803192E
:10151A00972AAE01AE0A24308B3160234101BD0106
:10152A00BD0A0800AE0124308B3160234101BD01A0
:10153A000800D4304001E9006908EC004101530871
:10154A004001E200410152084001E1006C30E9002B
:10155A006908E30000308D3123250800410167083E
:10156A004001A100410166084001A00089313121F2
:10157A008A310B304001A0000930A10089312821AD
:10158A008A310F3089313A210800F80043011115D8
:10159A007208023E8600870101080319DF2A7808CB
:1015AA00F7007208023E860087010108860087015B
:1015BA00770881004101CC01080041016A036B04EC
:1015CA00031DEC2A0030EA000230EB00F02A013059
:1015DA00EA020030EB3B6B084001B50041016A08A2
:1015EA004001B4008531DB25080040012108A40030
:1015FA002008A3002008840021088500120003198E
:10160A000B2B0130A0070030A13DFF2A230820023E
:10161A00A0002408213BA100080042011908F70094
:10162A0040016F08283E8600013087007708810054
:10163A000130F7007708EF0708306F020318EF014F
:10164A000130F70077084101CE0708000230410156
:10165A006B066A04031D362B0130EA000030EB00EA
:10166A003A2B0130EA070030EB3D6B084001B50028
:10167A0041016A084001B4008531DB250800CF30FA
:10168A004001A00020084101A100CF304001A00084
:10169A0020084101A000A2142210A40143018F01D5
:1016AA002830900092014F308D004E010F108F109C
:1016BA001914991408004001B2000230AF002F0833
:1016CA00B300A701A70A3208AF00B0012F08A8008B
:1016DA003008A9003330B1003108AA002E308C310D
:1016EA00CC248B31023040013306031D0800772BCE
:1016FA000030400121027930031920020318080042
:10170A00FF30A0050330A10546010E1E922B0630BC
:10171A004001A035A10D890B8E2B400121084601FD
:10172A008D004001200846018C000800003040016D
:10173A00210279300319200203180800FF30A0059E
:10174A000330A1054601121EB02B06304001A03518
:10175A00A10D890BAC2B40012108460191004001E3
:10176A00200846019000080000304001210279302B
:10177A000319200203180800FF30A0050330A10551
:10178A004601161ECE2B06304001A035A10D890B4D
:10179A00CA2B400121084601950040012008460154
:1017AA009400080000304001210279300319200218
:1017BA0003180800FF30A0050330A10546011A1ED0
:1017CA00EC2B06304001A035A10D890BE82B400116
:1017DA0021084601990040012008460198000800A6
:1017EA004001A40024088600013087002008C03F79
:1017FA002108C13F2208A3002408023E86000130C6
:10180A008700230881002408033E860001308700F0
:10181A0081012408073E8600013087008101080003
:10182A004001A6002308A5002208A400A435A50D9E
:10183A0026088600013087002408C03F2508C13FDA
:10184A002108A4002608023E8600013087002408E9
:10185A0081002008A4002608033E86000130870084
:10186A002408810008004001B800043041013C020C
:10187A000318462C0D3040013806031D3808031D95
:10188A00482C4101BC010D304001380603190800FB
:10189A003808B7003708B40041013C088A313B22B6
:1018AA0001304001B70037084101BC0708008931FF
:1018BA008B218C318D31EC258C31893182218C310F
:1018CA008B3144238C318931A0218C318931AB2170
:1018DA008C318C31A6248C318931C1218C318931EA
:1018EA00B6218C318A310B228C318A3161228C31BA
:1018FA008D31B72508004001C800C601C701460856
:10190A004807C20042088600013087000108C30068
:10191A004308C5004508031908004508C200C30169
:10192A004208B9004308BA004108C4004408BB0091
:10193A008E3158268C3101304001C6070030C73D30
:10194A00842C41018C018D018E018F01920193013A
:10195A0098019A019F0142018C018D018E018F012C
:10196A0090019201543093005630940095019601EB
:10197A0097019801D43091004E018D1097140230CE
:10198A004001A0000030A10089312821080040014F
:10199A00AD0041012218EF2C40012D08AB002B08A5
:1019AA00A0002708AC002C08A1002908A3002808D9
:1019BA00A2005E308C3115248C315E304001AB00C0
:1019CA002B08A0002A08AC002C08A10001308F3196
:1019DA005327080040012A08860087018101810AED
:1019EA00080040012808290403191E2DAD01AD0A7B
:1019FA00A91B092D0130A835A90D890B002D01302D
:101A0A00AC002C08AD07FD2C29082B02031D0F2D55
:101A1A0028082A02031C152D2808AA022908AB3B0C
:101A2A000130A936A80C890B162D0130AD02031D11
:101A3A00092D2B08A9002A08A80008004001E60081
:101A4A006208E8006108E7004201B001B101400103
:101A5A00670884006808850012000319492D673059
:101A6A00E4006408D8006308E5006508D900660840
:101A7A0086319D268D31400158084201B007400148
:101A8A0059084201B13D2C2D420131084001E200C2
:101A9A00420130084001E10008004001D70041013D
:101AAA0025082604031D612D26084001D6004101A0
:101ABA0025084001D5006A2D2508FF3E4001D500C2
:101ACA00FF304101263D4001D6005208D400540897
:101ADA004301A000A101A0304001D4005408C9006C
:101AEA005608CB005508CA0057088731A627400177
:101AFA004A08D3004908D20008004001A501A601FE
:101B0A00200821040319B22DA701A70AA11B972DAA
:101B1A000130A035A10D890B8E2D0130A4002408B7
:101B2A00A7078B2D0130A535A60D890B982D210805
:101B3A002302031DA22D20082202031CA92D20081E
:101B4A00A2022108A33B25140130A136A00C890B5F
:101B5A00AA2D0130A702031D972D2608A1002508EA
:101B6A00A00008004E0199128F304001A0000E30EB
:101B7A00A100893155218D31083042019F009030F2
:101B8A009D0004309E001F309B009C0103304001E1
:101B9A00A0000030A100893170218D310F30400141
:101BAA00A0000930A100893179218D310530400129
:101BBA00A0000930A100893167214101CD0140010E
:101BCA00EF01F4014101CE014E01991608004001CE
:101BDA00980199019A013F309200F0309300063043
:101BEA009400FF307E01CE00E030C3000730B80019
:101BFA00C401B901CF01BA01C501D0013730BB0018
:101C0A00F030C600FF30D10005307D01C500143028
:101C1A007E0194000B30A3000C30A4001330950011
:101C2A000930A5000A30A6000930A70004307D015A
:101C3A00C6000C30CB00080042019D1C262E1D1246
:101C4A001D16410162086304031D4A2E42011D1933
:101C5A004A2E1908F700F8013708FA003608F90081
:101C6A00F935FA0DEE30FB002330FC0079087B07CA
:101C7A0086007A087C3D87007708C03F7808C13F14
:101C8A000130B6070030B73D552E4201B601B70103
:101C9A004101E201E30142011908F7007708FD005A
:101CAA004E018F12080040013B08031D3B08031D2B
:101CBA00622E39088C31382408003B08033E86001E
:101CCA008701160001040319852E3B08033E86008E
:101CDA008701403FBC00413FBD003B0A86008701A7
:101CEA00403FBE00413FBF003F08803AC0003D0868
:101CFA00803A4002031D832E3C083E020318080066
:101D0A0040013B0A860087010130810741310318EF
:101D1A00810A080040016F08203E860001308700D2
:101D2A00810142011D1DA62E40016F08203E86003A
:101D3A0001308700811442016B088A006A080A0090
:101D4A008E3142019D1CB62E40016F08203E86004E
:101D5A00013087000115420169088A0068080A00F3
:101D6A008E3140016F08203E86000130870001084D
:101D7A000319C62E420167088A0066080A008E31D6
:101D8A0008008B31122308008C315C248E31153007
:101D9A004101E1004B30E000BE30890BD22EE00B4E
:101DAA00D22EE10BD22E0000893118218E318F31CB
:101DBA0005278E31893120218E318A31B3228E3125
:101DCA008B170B178A3175228E31893195218E3105
:101DDA00893143218E31400121084101B800400177
:101DEA0020084101B70084312A248E3180317720BE
:101DFA008E3185310F258E31833131238E31F82E84
:101E0A003A304001A50025084101C700423040018F
:101E1A00A50025084101C6004A304001A500250851
:101E2A004101C50052304001A50025084101C40006
:101E3A000E304001A0000030A1000230A5002508A4
:101E4A00A200410147088B31F5238F310C30400144
:101E5A00A0000030A1000230A5002508A20041011F
:101E6A0044088B31F5238F310E304001A000003039
:101E7A00A100A201410145088B31F5238F310E30B3
:101E8A004001A0000030A100A201A20A41014608B7
:101E9A008B31F5238F318A312A2208004001A300B1
:101EAA0041012218922F02304001A2002108860027
:101EBA008701220881002008A2004101200A860029
:101ECA0087014001220881002308A200410120085D
:101EDA00860087014001220881002108A2004101F1
:101EEA002008023E86008701400122088100033053
:101EFA00A20022084101A0072008D23A031D8B2F15
:101F0A00CF304001A20022084101A000A2102108FE
:101F1A002006031D982F2214982F400121088600BD
:101F2A0087018101810A4001210886008701023068
:101F3A000106031D0800893113214E010F14080000
:101F4A00410141080319BB2F03306D020318B42F56
:101F5A0001304001ED006D084101ED07C62F023046
:101F6A004001ED006D084101ED00C62F400803193C
:101F7A00C62F02306D02031CC52F0130ED02C62F99
:101F8A00ED013E080319EB2F6D084001ED006D08C5
:101F9A004101EC00C301C201C20A080055304101E7
:101FAA00D2009030D3008A319E220800613041016C
:101FBA00D2009030D3008A319E2208004930410174
:101FCA00D2009030D3008A319E2208006D08400169
:101FDA00ED00EE016E08003A0319F42FFF2F6D0889
:101FEA00013A0319D32F033A0319DB2F013A0319D4
:101FFA00E32FFF2F08002534633425346334253456
:10200A006334253463340D34003425346334253481
:10201A0063342534633420340D34003420342534B9
:10202A00633425346334253463340D34003448343E
:10203A00453459345934593459345934593400349B
:10204A002534633425346334203420340D34003489
:10205A002034203425346334253463340D34003479
:10206A00253463342034203420340D3400342034B1
:10207A0020342034253463340D34003420342034A1
:10208A00203420340D340034503443342034203486
:10209A000D34003442342D34313420340D340034BC
:1020AA0041344E34493420340D34003453344534E9
:1020BA004C3431340D3400344234453441345434D0
:0E20CA000D340034203420342034203400340F
:020000040001F9
:0A000E00EC3FFF3F9F3FFF3FFF3F25
:00000001FF
