:020000040000FA
:1000000080311428013400347E1480310B1F1228F3
:100010004E01991A8F1E1228410137088A003608AE
:100020000A0080317E1009008031162880310220BC
:100030008031FC00803103208031FD00EE308400EF
:10004000233085000230FE000430FF008731EA27AC
:100050008031F701F801F901FA01FB01EF01A0304D
:100060008400003085001030FE000030FF00873132
:10007000EA277E1040018331E32B40014B08803991
:10008000D0005008D5004B35D0005008DB00CA1B0B
:100090005B145B08031959285B0A031D57280030BD
:1000A000CB000030CA000030C9000030C800CA17B9
:1000B00061280030CB000030CA000030C900003099
:1000C000C8004F088039D0005008D5064F35D00001
:1000D0005008DA00CE1B5A145A0803197C285A0A11
:1000E000031D7A280030CF000030CE000030CD0054
:1000F0000030CC00CE1784280030CF000030CE0076
:100100000030CD000030CC005A08031D5B08031DF1
:1001100092280030CB000030CA000030C900003007
:10012000C80008004808D0005008A0004E088731D9
:100130001227803140012108E1002008E00060081A
:10014000D000D101D201D3015308D9005208D80000
:100150005108D7005008D6006108D000D101D20163
:10016000D3015308DF005208DE005108DD005008BB
:10017000DC004908D0005008A0004D088731122744
:10018000803140012108E1002008E0006008D00033
:10019000D101D201D3015008D6075108D73D5208EA
:1001A000D83D5308D93D6108D000D101D201D30117
:1001B0005008DC075108DD3D5208DE3D5308DF3DA5
:1001C0004A08D0005008A0004C088731122780311F
:1001D00040012108E1002008E0006008D000D101C2
:1001E000D201D3015008D6075108D73D5208D83D57
:1001F0005308D93D6108D000D101D201D301500884
:10020000DC075108DD3D5208DE3D5308DF3D083074
:10021000D635D70DD80DD90D890B08294908D0003E
:100220005008A0004C088731122780314001210876
:10023000E1002008E0006008D6076108D73D0030E3
:10024000D83DD93D4808D0005008A0004D0887315E
:100250001227803140012108E1002008E0006008F9
:10026000D6076108D73D0030D83DD93D0830D63596
:10027000D70DD80DD90D890B37294808D000500863
:10028000A0004C0887311227803140012108E1008D
:100290002008E0006008D6076108D73D0030D83D4F
:1002A000D93D4908D0005008A0004E0887311227D8
:1002B000803140012108E1002008E0006008DC07EF
:1002C0006108DD3D0030DE3DDF3D4A08D0005008CA
:1002D000A0004D0887311227803140012108E1003C
:1002E0002008E0006008DC076108DD3D0030DE3DED
:1002F000DF3D4A08D0005008A0004E088731122781
:10030000803140012108E1002008E0006008D000B1
:100310006108D100D201D3010830D035D10DD20D02
:10032000D30D890B8D295008DC075108DD3D52089B
:10033000DE3D5308DF3D5608D0005708D10058086D
:10034000D2005908D3001830D336D20CD10CD00CBF
:10035000890BA4295008DC075108DD3D5208DE3D19
:100360005308DF3D0830D635D70DD80DD90D890B90
:10037000B3295B085A07D000D101D10D5008823E45
:10038000E000FF30513DE100DE1BDB290130DC35B0
:10039000DD0DDE0DDF0D890BC729D91B5C14013083
:1003A000D635D70DD80DD90D890BD029FF30E007F0
:1003B000FF30E13DC429DA01D91FF429FF30560589
:1003C000D000FF305705D100FF305805D2007F30F4
:1003D0005905D300530852045104500403195C1802
:1003E000F229F429DA01DA0A5A0803191D2A013020
:1003F000DC070030DD3D0030DE3D0030DF3D5F1CBE
:100400001D2A5C08D0005D08D1005E08D2005F089C
:10041000D3000130D400D337D20CD10CD00CD40B84
:100420000B2A5308DF005208DE005108DD00500897
:10043000DC000130E0070030E13D6108803AD00087
:1004400080305002031D262AFF306002031C322A2E
:100450007F304001DF008030DE000030DD00003002
:10046000DC005C2A40016108803AD00080305002F4
:10047000031D3C2A013060020318492A0030400164
:10048000DF000030DE000030DD000030DC00D50190
:100490005C2A40016008D0005008DB00FF30DC051A
:1004A000FF30DD057F30DE050030DF055B18DE172D
:1004B0005B36D0005008DF005508D0005008DF043C
:1004C0005F08CB005E08CA005D08C9005C08C80070
:1004D0000800400135088039B6003608BF003535C0
:1004E000B6003608C600B41B461446080319862A0F
:1004F000460A031D832A0030B5000030B4000030E6
:10050000B3000030B200B417B5018E2A0030B50038
:100510000030B4000030B3000030B2003108803940
:10052000B6003608BF063135B6003608C700B01B26
:10053000471447080319AA2A470A031DA72A0030AF
:10054000B1000030B0000030AF000030AE00B01796
:10055000B101B22A0030B1000030B0000030AF006D
:100560000030AE00310830042F042E04031DD12AC0
:100570000030B5000030B4000030B3000030B200ED
:100580008030B4047F30B5043F08B6003608B504A7
:100590003508B1003408B0003308AF003208AE00AF
:1005A00008004608031DDD2A0030B1000030B0000D
:1005B0000030AF000030AE0008004608B600B701BA
:1005C0003708B90047083602B800031CB9033808D9
:1005D0007F3EC0000030393DC1003508BE00340800
:1005E000BD003308BC003208BB000030B50000304D
:1005F000B4000030B3000030B2000030C50000305D
:10060000C4000030C3000030C200C7011A304702E6
:100610000318422B47080319242B0130BB35BC0DAE
:10062000BD0DBE0D890B0E2B0130B235B30DB40DCF
:10063000B50D890B152BC51B32140130C235C30D06
:10064000C40DC50D890B1E2B31083E02031D322B34
:1006500030083D02031D322B2F083C02031D322BB4
:100660002E083B02031C3D2B45172E08BB022F080A
:10067000BC3B3008BD3B3108BE3B0130B6003608FC
:10068000C707062B3E083D043C043B04031D4214EF
:10069000B41B5F2B0130B235B30DB40DB50D890B12
:1006A0004B2BC51B32140130C235C30DC40DC50D13
:1006B000890B542BFF30C007FF30C13D482BC701C9
:1006C000C51F782BFF304205B600FF304305B70049
:1006D000FF304405B8007F304505B90039083804BB
:1006E0003704360403193218762B782BC701C70A52
:1006F00047080319A12B0130B2070030B33D003089
:10070000B43D0030B53D351CA12B3208B60033088E
:10071000B7003408B8003508B9000130BA00B9375D
:10072000B80CB70CB60CBA0B8F2B3908B5003808CB
:10073000B4003708B3003608B2000130C0070030FB
:10074000C13D4108803AB60080303602031DAA2B15
:10075000FF304002031CB92BFF304001C0000030C5
:10076000C1000030B5000030B4000030B3000030EC
:10077000B20040014108803AB60080303602031DC5
:10078000C32B013040020318D12B4001C001C1012D
:100790000030B5000030B4000030B3000030B200CB
:1007A000BF0140014008B6003608C600461CDA2BDF
:1007B000B417DE2B7F30B6003608B4054636B600D7
:1007C0003608B500C42A8731AA2783318B170B1747
:1007D000EE308600233087004231403F4101B800AF
:1007E000413FB90038084001A000410139084001EB
:1007F000A100890D893B8909A200A3000130853140
:100800004125833140012308B5002208B4002108A6
:10081000B3002008B2004330B1007F30B000003098
:10082000AF000030AE0082316922833140013108CF
:10083000CF003008CE002F08CD002E08CC0042306B
:10084000CB00BE30CA000030C9000030C800803183
:100850003D20833140014B08E5004A08E400490887
:10086000E3004808E20086314E26833140016308E8
:10087000EE006208ED0087318C278331EE30860070
:10088000233087004431403F4101B800413FB90067
:1008900038084001A000410139084001A100890D3C
:1008A000893B8909A200A3000130853141258331AC
:1008B00040012308B5002208B4002108B300200835
:1008C000B2004330B1007F30B0000030AF000030E4
:1008D000AE0082316922833140013108CF003008F7
:1008E000CE002F08CD002E08CC004230CB00BE3009
:1008F000CA000030C9000030C80080313D2083317B
:1009000040014B08E5004A08E4004908E3004808B4
:10091000E20086314E26833140016308EE00620812
:10092000ED0087316E278331EE308600233087005B
:100930004631403F4101B800413FB900380840010D
:10094000A000410139084001A100890D893B8909B6
:10095000A200A300013085314125833140012308E5
:10096000B5002208B4002108B3002008B2004330CB
:10097000B1007F30B0000030AF000030AE008231F7
:100980006922833140013108CF003008CE002F08A2
:10099000CD002E08CC004230CB00BE30CA00003063
:1009A000C9000030C80080313D20833140014B0830
:1009B000E5004A08E4004908E3004808E2008631FF
:1009C0004E26833140016308EE006208ED00873156
:1009D00050278331EE308600233087004831403F76
:1009E0004101B800413FB90038084001A000410171
:1009F00039084001A100890D893B8909A200A300A3
:100A0000013085314125833140012308B50022089A
:100A1000B4002108B3002008B2004330B1007F3099
:100A2000B0000030AF000030AE0082316922833167
:100A300040013108CF003008CE002F08CD002E082D
:100A4000CC004230CB00BE30CA000030C9000030BC
:100A5000C80080313D20833140014B08E5004A0841
:100A6000E4004908E3004808E20086314E2683315D
:100A700040016308EE006208ED00873132278331C0
:100A8000E82B4001A8002808031DA31F572D2009AB
:100A9000AA002109AB002209AC002309AD00AA0A73
:100AA0000319AB0A0319AC0A0319AD0A5F2D230819
:100AB000AD002208AC002108AB002008AA002308E2
:100AC000220421042004031D6E2D0030A3000030F9
:100AD000A2000030A1000030A00008009630A40061
:100AE0002408A900FE302D050319952D0130A4001E
:100AF0002408A9070130AD36AC0CAB0CAA0C890B4D
:100B00007B2D722D0130A4002408A9070130AA070B
:100B10000030AB3D0030AC3D0030AD3D0130AD3676
:100B2000AC0CAB0CAA0C890B8F2DFF302D050319D3
:100B3000A72D822D02302902031CA92D0130A90204
:100B40000130AA35AB0DAC0DAD0D890BA12DAC1F3D
:100B50009A2D2918B32DFF30AA05FF30AB057F3041
:100B6000AC05FF30AD050310A90C2908A400A501B0
:100B7000A601A7011830A435A50DA60DA70D890B58
:100B8000BB2D2408AA042508AB042608AC042708BA
:100B9000AD042808031DA31FCE2DAD172D08A300FB
:100BA0002C08A2002B08A1002A08A0000800400180
:100BB0006F08A03E86008701810142011D1DEC2DBA
:100BC00040016F08A03E860087018114410135086D
:100BD0008A0034080A00853142019D1CFB2D40012A
:100BE0006F08A03E860087010115410133088A0085
:100BF00032080A00853140016F08A03E8600870157
:100C0000010803190A2E410131088A0030080A0040
:100C100086310D2E8731C52785317C087D04031D63
:100C2000472E42011D19472E1908F100F2017808DC
:100C3000F4007708F300F335F40DEE30F5002330BF
:100C4000F6007308750786007408763D8700710802
:100C5000C03F7208C13F1908F100F2017808F400A2
:100C60007708F300F335F40DF030F5002330F6008B
:100C70007308750786007408763D87007108C03FC9
:100C80007208C13F0230F7070030F83D4B2EF701E4
:100C9000F801FC01FD014E018F1208000310400114
:100CA000640D650DE6006608EC006C08031D612EFE
:100CB0000030E5000030E4000030E3000030E200E6
:100CC00008006208E6006308E7006408E8006508B9
:100CD000E9001F30E936E80CE70CE60C890B6A2EB8
:100CE0006608EA006A08EB00E417FF30E205FF300F
:100CF000E305FF30E4050030E5059630EC02EC1F1B
:100D0000942E6C08803A973E031C582E0130E5362D
:100D1000E40CE30CE20C890B872E0130E600660838
:100D2000EC070319A52E862E20306C020318582ECE
:100D30006C080319A52E0130E235E30DE40DE50D35
:100D4000890B9C2E0130EC02982E6B0803190800C9
:100D5000E209E309E409E509E20A0319E30A0319D0
:100D6000E40A0319E50A08004E019912D730400140
:100D7000A0000530A1008F31BE2786310830420126
:100D80009F0090309D0004309E0007309B009C0126
:100D90009B304001A0000F30A1008F31AC2786317D
:100DA0009F304001A0000F30A1008F31B527863160
:100DB0009C304001A0000F30A1008F31A327F90122
:100DC0004001EF01FB01FA014E01991608004001B4
:100DD000980199019A013F309200B030930026307B
:100DE0009400FF307E01CE00E030C3003730B80001
:100DF000C401B901CF01BA01C501D0013730BB0030
:100E0000F030C600FF30D1000F309E000B30A30041
:100E10000C30A4000A30A6000930A7000C307D0178
:100E2000CB0008004001A800A401A5012008A200F1
:100E3000A3012208A6002308A700281C232F2608A8
:100E4000A4072708A53D0130A635A70D890B242F3F
:100E50000310A80C2808031D1D2F2508A100240835
:100E6000A0000800FF304001ED050330EE05003022
:100E70006E02603003196D020318080046011A1E45
:100E8000472F06304001ED35EE0D890B432F400111
:100E90006E084601990040016D084601980008005F
:100EA000FF304001ED050330EE0500306E0260308A
:100EB00003196D02031808004601161E652F06303F
:100EC0004001ED35EE0D890B612F40016E084601A2
:100ED000950040016D08460194000800FF30400174
:100EE000ED050330EE0500306E02603003196D022F
:100EF000031808004601121E832F06304001ED350D
:100F0000EE0D890B7F2F40016E08460191004001D4
:100F10006D08460190000800FF304001ED050330E8
:100F2000EE0500306E02603003196D0203180800F0
:100F300046010E1EA12F06304001ED35EE0D890B46
:100F40009D2F40016E0846018D0040016D0846014D
:100F50008C0008008731F62787318631E7268731F4
:100F60008F31C72787318F31D02787318F31DC27E9
:100F700087318F31F42787318F31E82787318731E7
:100F8000DC2787318631B426080042011908F000B9
:100F900040016F08A83E860087017008810001307B
:100FA000F0007008EF0708306F020318EF010130FE
:100FB000F0007008FA0708000130450190008F0129
:100FC0009101C7308D008C014E0190108030450199
:100FD0008E0008006400800101310130FE02003003
:100FE000FF3B7F087E0403190034EB2F4F0196016D
:100FF0009701980199019A019B019C019D010800AC
:101F360008008731C527080042011D121D1608003A
:101F4600400121084101B100400120084101B000D3
:101F56000800400121084101B50040012008410167
:101F6600B4000800400121084101B30040012008E7
:101F76004101B2000800400121084101B7004001BB
:101F860020084101B6000800623051018D008F0122
:101F9600910106309300920108008C3046018E00B4
:101FA6008D014F308C0044011E08FC3901389E001B
:101FB60008008C304601920091014F309000440198
:101FC6001E08F33904389E0008008C30460196003E
:101FD60095014F30940044011E08CF3910389E00F9
:101FE60008008C3046019A0099014F309800440150
:0A1FF6001E083F3940389E00080025
:020000040001F9
:0A000E00EC3FFF3F9F3FFF3FFF3F25
:00000001FF
