:020000040000FA
:1000000080313028080008007E1480314E01961A95
:100010008C1E0E288931BC2180312E280B1F2E28E2
:1000200099188F1C17288831E02080312E28191844
:100030000F1C1E288031762080312E2897188D1CA9
:1000400025288931AF2180312E28991A8F1E2E281C
:1000500042016B088A006A080A0080317E1009009C
:1000600080313228C930840089308500E330860031
:10007000003087000030FF000D308931A32180312E
:10008000EE308400233085000230FE000430FF0093
:10009000893197218031F001F101F201F301F4017E
:1000A000F501F601A0308400003085003530FE00F7
:1000B0000030FF00893197218031203084000130E9
:1000C00085004030FE000030FF00893197218031EB
:1000D000A0308400013085002030FE000030FF0099
:1000E000893197217E1040018E31782E4E010F10FC
:1000F0004301901F972990134101CF014D08023E03
:10010000860087010108860087018101810ACD01EF
:100110000800A21808002108F9007908CD0021087C
:10012000860087010108F9007908CE0021088600C1
:100130008701413FF2000330F9007908A107210847
:10014000D53A031DA728D230F9007908A100221062
:10015000210820060319A214430111140230F900EA
:1001600079084101CF00080040294301111FC1282F
:100170000130F90079084101A40704308A31CF2207
:1001800008007608FA007508F900FA36F90C7908C3
:100190008C00751CD1280B30F90079084101CF0083
:1001A00008000330F90079084101CF00080043013D
:1001B000111FE3280130F90079084101A407043038
:1001C0008A31CF22080091147608FA007508F900E8
:1001D0007A08F900FA0106307905FB0000307A054B
:1001E000FC00F0307B04F50000307C04F600751450
:1001F0004101CA01CA0AAE284A0303191529720827
:10020000860001308700403FF500413FF60072084C
:100210008600013087000130433FCC007208860021
:10022000013087000130423FCB00750843018C004C
:10023000751CD1280530F90079084101CF0008006C
:100240004301111F2E290130F90079084101A4074B
:100250004301111305308A31CF22080001304101DA
:10026000CB024B0A031D43290430F9007908F20739
:100270000130CE02031D402900308A31CF22080010
:1002800043019114AE284C08860087010108430100
:100290008C000130F90079084101CC0708004301C6
:1002A000111F5D290130F90079084101A4070430CC
:1002B0008A31CF2243011113080091150830F9004B
:1002C00079084101CF0008000830F9007908CF0013
:1002D00043019115080043010C08F90041014C0845
:1002E00086008701790881000130F9007908CC0780
:1002F0000130CB0203198429430191120630F90021
:1003000079084101CF008829430191168931F321F1
:1003100043011116080000308A31CF220800013055
:10032000F9007908A40706308A31CF22080041017C
:100330004F08F900FA017A08003A0319A0298F2919
:100340007908003A03198928013A0319B428033AB5
:100350000319FC28013A03192029073A03198B29AC
:10036000013A03194F29033A03196429013A031981
:100370008B290F3A03196B29023A0319B528013A60
:100380000319D7288F2908008931192181314201A9
:10039000340840012002A200420135084001213BFF
:1003A000A30000302302643003192202031C08005A
:1003B000893119218131400121084201B5004001F4
:1003C00020084201B400893134218131003A031DF3
:1003D000052A00304001A000A1008B316923813142
:1003E00000304001A000A1008B3187238131003013
:1003F0004001A000A1008B31A523813100304001D4
:10040000A000A1008B31C323080070037104031DF9
:100410007B2A78304001A0000030A1008B31692395
:10042000813100304001A000A1008B318723813150
:1004300000304001A000442A00304001A000342ACE
:1004400078304001A0000030A1008B316923813158
:1004500000304001A0003C2A00304001A000502A9A
:1004600078304001A0000030A1008B316923813138
:1004700078304001A0000030A1008B31872381310A
:1004800078304001A0000030A1008B31A5238131DC
:1004900000304001A000732A78304001A0000030F5
:1004A000A1008B316923813100304001A000632A13
:1004B00000304001A000A1008B31692381317830E8
:1004C0004001A0000030A1008B31872381317830BA
:1004D0004001A0000030A1008B31A523813178308C
:1004E0004001A0000030A1008B31C3230130F00790
:1004F0000030F13D080002307006710403191C2A17
:100500000330700671040319202A04307006710448
:1005100003192C2A0530700671040319302A06309D
:100520007006710403194C2A08307006710403190F
:10053000582A78304001A0000030A1008B31692397
:10054000813178304001A0000030A1008B31872339
:10055000813178304001A0000030A1008B31A5230B
:10056000813178304001A0000030A1008B31C323DD
:100570000130F0000030F10008004001EF01EF0A07
:10058000410148088A313A2282314101DF005F0887
:10059000C30047088A313A2282314101DF005F08F7
:1005A000C20049088A313A2282314101DF005F08E6
:1005B000C10046088A313A2282314101DF005F08DA
:1005C000C0006F03031D082B8931192182314101BD
:1005D0003908400120024101DF003A084001213B77
:1005E0004101E00013306002883003195F020318F4
:1005F000082B8F31A427823141014308031D052BAD
:1006000042080319410803190800C501C50A08007A
:100610004508031D122B6F03031D122B0330DF004F
:100620005F08ED00EF014108031945080319212B6C
:100630004408031D212BC501C50A8F31A42782312F
:100640003B2B03306D06031D2E2B8631C9268231CC
:100650004101DF005F084001EF003B2B6D03031DEC
:10066000352B4001EF01EF0A3B2B02306D060319D9
:10067000312B4001EF0141014308031D462B420885
:10068000031D462B6430E9000030EA0040016F088A
:100690000319552B8931192182314001210841016B
:1006A000B200400120084101B10089311921823195
:1006B00041013108400120024101DF0032084001C0
:1006C000213B4101E00013306002883003195F02D2
:1006D000031C7C2B00308A3176228231893119212A
:1006E000823140012008773E4101B100EC304001E9
:1006F000213D4101B200802B01308A3176228231C6
:10070000033041016D06031D9F2B4508031D9F2BE0
:100710006C084001B50041016B084001B40085310F
:100720005E2582319C2B4508031DA22B5B30D50032
:100730009030D6008A318B224101C40108006D033C
:100740000319932B02306D06031D08004508031D95
:1007500008004F30D5009030992B89311921833111
:1007600040012108A7002008A600410137084001E8
:100770002602A200410138084001273BA3000030B7
:100780002302053003192202031C08002708410137
:10079000B800400126084101B7004001A501250825
:1007A000A2000230A235FF3E031DD22B2235383E77
:1007B000A3002308A8002808860001308700403FD6
:1007C000A200413FA30022088600230887000130D1
:1007D000A4002808023E840001308500000AF12BA5
:1007E000A435890BF02B24080105031D102C2808C3
:1007F000033E8600013087008101810A2808073EF8
:100800008600013087000108031D162C2808053ECC
:100810008600013087002608C03F2708C13F162CFC
:100820002808033E86000130870081012808033E26
:100830008600013087000108031D2E2C2808043E85
:100840008600013087000103031D2E2C2808073E77
:100850008600013087008101810A7B2C2808033E35
:100860008600013087000103031D5C2C2808043E2C
:100870008600013087000103031D5C2C2808053E1B
:10088000860001308700403F2602A200413F273BFF
:10089000A30001302302F53003192202031C522C5D
:1008A0000330532C0230A2002808073E8600013096
:1008B0008700220881007B2C2808033E8600013037
:1008C00087000108031D7B2C2808043E86000130A8
:1008D00087000103031D7B2C2808073E860001309A
:1008E000870003300106031D7B2C2808073E860085
:1008F0000130870081012808033E8600013087000F
:100900000108A2002808043E860001308700220862
:1009100081000130A2002208A50704302502031837
:100920000800CF2B89311921843141012D08400164
:100930002002A80041012E084001213BA9004101ED
:10094000660840012902031DA92C410165084001E8
:100950002802031C08008931192184314001210833
:100960004101AE00400120084101AD003C03031DE0
:10097000BE2C0130AB070030AC3DC42CAB01AC0148
:100980001430E5000030E6003C03031D092D3B0850
:10099000031D092DBD01BD0A6430E5000030E600ED
:1009A00089311921843141012F0840012002AA0018
:1009B000410130084001213BAB00893119218431CC
:1009C000400121084101B000400120084101AF0071
:1009D000003040012B02963003192A020318F62C2E
:1009E00090304201B6000130B700092D2B08A1005C
:1009F0002A08A0006030A200EA30A3008D31D5257E
:100A00008431400121084201B70040012008420121
:100A1000B60041013C084001A80028084101BB0084
:100A2000BC012C08803A4001A80080302802031D38
:100A30001C2D043041012B02031C3B2D01304101D0
:100A4000E7070030E83D68084001A1004101670860
:100A50004001A0008931072184314101AB01AC0183
:100A600089311921400121084101B00040012008CD
:100A70004101AF00080089311921843141012F085B
:100A800040012002A800410130084001213BA9009B
:100A900003302902E93003192802031C0800013041
:100AA0004101E7020030E83B68084001A100410134
:100AB00067084001A0008931072108002730400164
:100AC0003502103003193402031C892D7930B60029
:100AD0003608AE0034308B314C23853179304001FB
:100AE000B6003608AE0035308B314C238531793075
:100AF0004001B6003608AE0036308B314C238531CC
:100B000079304001B6003608AE0037308B314C23C7
:100B100008000A30A8000030A9003508AB003408EE
:100B2000AA008C31E224853140012908850028087B
:100B300084007B3084078730853D0008B600360886
:100B4000AE0037308B314C2385310A304001A8008C
:100B50000030A9000A30A0000030A1003508A30031
:100B60003408A2008D31D525853140012108AB0024
:100B70002008AA008C31E224853140012908850033
:100B8000280884007B3084078730853D0008B60044
:100B90003608AE0036308B314C2385310A304001A7
:100BA000A8000030A9006430A0000030A100350882
:100BB000A3003408A2008D31D525853140012108DC
:100BC000AB002008AA008C31E224853140012908BD
:100BD0008500280884007B3084078730853D000825
:100BE000B6003608AE0035308B314C2385310A30E3
:100BF0004001A8000030A900E830A0000330A100A7
:100C00003508A3003408A2008D31D5258531400177
:100C10002108AB002008AA008C31E2248531400174
:100C200029088500280884007B3084078730853DAB
:100C30000008B6003608AE0034308B314C23080073
:100C40004001E000580886008701403FDA00413F3C
:100C5000DB005A0884005B0885001200253A031D5A
:100C6000A62E5808860087010130810741310318FC
:100C7000810A4101A501A601A701A801FF30420197
:100C8000B200FF30B3004001580886008701403FA2
:100C9000DA00413FDB005A0884005B08850012003F
:100CA000633A031D742E58088600870101308107BE
:100CB00041310318810A5908860087010108840020
:100CC0008501023081070008DA005A08DF005F085A
:100CD000DA005A08D20060088D313E2540015308E1
:100CE000D9005208D8000800580886008701403F04
:100CF000DA00413FDB005A0884005B0885001200DF
:100D0000253A031D9B2E5808860087010130810774
:100D100041310318810A2530B9000030BA0060085B
:100D2000DA005A08BB008E31412601304001D8005C
:100D30000030D9000800580886008701013081077B
:100D400041310318810AD801D901080058088600EA
:100D50008701403FDA00413FDB005A0884005B080E
:100D600085000008DC00DD015C08B9005D08BA0000
:100D70006008DE005E08BB008E31412686314001EE
:100D80005808860087010130810741310318810A24
:100D9000952E410148088931E4218631003A031932
:100DA000272F893119218631410133084001200262
:100DB000B700410134084001213BB8003808410127
:100DC0006A02031DE72E400137084101690203183A
:100DD000272F8B3117238631082F8931192186312E
:100DE0004101330840012002B700410134084001AD
:100DF000213BB800380841016A02031D032F40015E
:100E000037084101690203182F2F8A31E722863102
:100E1000893119218631400121084101B400400186
:100E200020084101B3006A08803A4001B7008030D1
:100E30003702031D1E2F153041016902031C252FA7
:100E4000FF304101E907FF30EA3D01300800410170
:100E500047088931E4218631003A031DED2E410116
:100E600046088931E4218631003A03193E2F0130CA
:100E70004101EB000030EC00013008004101430863
:100E80000319462F8B3117238631252F420803196A
:100E90004D2F8A31E7228631252F4008031D252F4B
:100EA0004308031D4208031D692F47088931E421C7
:100EB0008631003A031D692F410148088931E42138
:100EC0008631003A031D692F64304101E90000308A
:100ED000EA00003008000034823421340034003449
:100EE00000340034023439340F3400340034003418
:100EF0004034803400343F3406345B344F3466343D
:100F00006D347D3407347F346F3400340034003462
:100F1000483400345334003477347C3439345E340C
:100F2000793471346F34763406341E3400343834F6
:100F3000003454343F347334673450346D3478346F
:100F40003E340034003400346E340034393400341C
:100F50000F340034083463345F347C3458345E34E6
:100F60007B3471346F34743402341E3400340634EC
:100F7000003454345C347334673450346D34783412
:100F80001C340034003400346E34003439343034CE
:100F90000F34003400344001980199019A013F3028
:100FA0009200F030930006309400FF307E01CE00B6
:100FB000E030C3000730B800C401B901CF01BA0165
:100FC000C501D0013730BB00F030C600FF30D10082
:100FD00005307D01C50014307E0194000B30A30064
:100FE0000C30A400133095000930A5000A30A6008B
:100FF0000930A70004307D01C6000C30CB0008008A
:1011B80008008A31B72208004E018F10080041014B
:1011C800BC01BC0A080042011D121D16080041019D
:1011D8004F0803190800EB2801304101B50700301A
:1011E800B63D0800F0304001A0000830A100893168
:1011F80022210800400121084201E10040012008A5
:101208004201E00008004001210841018F0040012F
:10121800200841018E0008004001A000200841017B
:101228009F0042019117111408004101360840013E
:10123800A100410135084001A00008004001210833
:101248004201E300400120084201E2000800400199
:1012580021084201EB00400120084201EA00080091
:1012680041013D0803193B29BD0101300800003048
:101278000800400121084201E50040012008420120
:10128800E4000800400121084201E900400120086B
:101298004201E8000800400121084201E70040013E
:1012A80020084201E6000800603051018D008F01DE
:1012B800910106309300920108004F0196019701B1
:1012C800980199019A019B019C019D0108008C30AD
:1012D80046018E008D018C0144011E08FC3901383D
:1012E8009E0008008C304601920091019001440153
:1012F8001E08F33904389E0008008C304601960019
:101308009501940144011E08CF3910389E00080049
:101318008C3046019A009901980144011E083F3912
:1013280040389E0008006400800101310130FE024F
:101338000030FF3B7F087E04031900349829FE0023
:1013480012001E000130FE020030FF3B7F087E04C1
:1013580003190034A4294E018D104201600861046C
:101368000319080061088A0060080A00893108002A
:101378004E018C12420162086304031908006308D5
:101388008A0062080A0089310800013400340A34EE
:1013980000349034063464340034013400340334A7
:1013A800033401340130450190008F019101FF3071
:1013B8008D008C014E019010D03045018E00080040
:1013C8004001A0002008073E860001308700033056
:1013D8000106031DF129013008000030080004301F
:1013E800F7007708F20701304101CE02031D012AF8
:1013F8000430F7007708CF000800CF01CF0A0800B3
:10140800400112157E013811391540011414941445
:1014180014157E014E10CE104E114F14CF144F15D7
:1014280008004001B60034084B3E8400873003189A
:10143800013E85000008B5003508AE003608343E88
:101448008B314C2308000A304001A0000E30A10067
:1014580089312B218A3141016C084001B5004101D5
:101468006B084001B40085315E2508004001A000EA
:101478002008073E8600013087000103031D4C2A1F
:101488002008073E860001308700810101300800EE
:101498000030080045304B019F00F9309D009C0149
:1014A8004E018C12961603304001A0000030A100B6
:1014B8008931222180304B019E00080001308A3199
:1014C80076228A3167304101D5009030D6008A31C2
:1014D8008B228A3147304101D5009030D6008A31BD
:1014E8008B2208004001B40034080319842AAE0195
:1014F800AE0A24308B314C234101BF01BF0A0800DA
:10150800AE0124308B314C234101BF010800D73094
:101518004001E9006908EC00410156084001E20079
:10152800410155084001E1006C30E9006908E30019
:1015380000308D310F250800410168084001A100E5
:10154800410167084001A000893107218A31E33051
:101558004001A0000830A1008831FE208A310F30F8
:1015680089311021080042011908F7007408283E43
:10157800860001308700770881000130F70077087E
:10158800F407083074020318F4010130F7007708F3
:101598004101D1070800F8004301111541014D0828
:1015A800023E8600870101080319E52A7808F7003A
:1015B8004D08023E860087010108860087017708EA
:1015C8008100CF01080041016B036C04031DF12A5F
:1015D8000030EB000230EC00F52A0130EB0200305D
:1015E800EC3B6C084001B50041016B084001B400B8
:1015F80085315E25080040012108A4002008A300C9
:10160800200884002108850012000319102B0130DE
:10161800A0070030A13D042B23082002A0002408C5
:10162800213BA1000800023041016C066B04031D38
:10163800222B0130EB000030EC00262B0130EB07A9
:101648000030EC3D6C084001B50041016B084001D9
:10165800B40085315E250800D2304001A000200882
:101668004101A100D2304001A00020084101A000A2
:10167800A2142210A40143018F0128309000920186
:101688004F308D004E010F108F1019149914080057
:101698004001B2000230AF002F08B300A701A70A2B
:1016A8003208AF00B0012F08A8003008A900333075
:1016B800B1003108AA002E308C31B8248B310230A9
:1016C80040013306031D0800632B0030400121024E
:1016D80079300319200203180800FF30A0050330F1
:1016E800A10546010E1E7E2B06304001A035A10D36
:1016F800890B7A2B4001210846018D004001200802
:1017080046018C000800003040012102793003199D
:10171800200203180800FF30A0050330A105460188
:10172800121E9C2B06304001A035A10D890B982B69
:10173800400121084601910040012008460190001F
:1017480008000030400121027930031920020318F3
:101758000800FF30A0050330A1054601161EBA2B6C
:1017680006304001A035A10D890BB62B4001210898
:101778004601950040012008460194000800003009
:101788004001210279300319200203180800FF30B4
:10179800A0050330A10546011A1ED82B06304001CA
:1017A800A035A10D890BD42B4001210846019900D1
:1017B800400120084601980008004001A4002408C0
:1017C8008600013087002008C03F2108C13F220859
:1017D800A3002408023E8600013087002308810008
:1017E8002408033E86000130870081012408073E53
:1017F800860001308700810108004001A600230807
:10180800A5002208A400A435A50D260886000130ED
:1018180087002408C03F2508C13F2108A4002608E6
:10182800023E860001308700240881002008A400B9
:101838002608033E8600013087002408810008003E
:101848004001B800043041013E020318322C0D302B
:1018580040013806031D3808031D342C4101BE0120
:101868000D3040013806031908003808B70037085A
:10187800B40041013E088A31152201304001B70009
:1018880037084101BE070800893161218C31873151
:10189800CB278C31893158218C318B3130238C31D5
:1018A80089316B218C31893176218C318C319224AC
:1018B8008C3189318C218C31893181218C3189316C
:1018C800D6218C318A314E228C318D316E2508001B
:1018D8004001C800C601C70146084807C2004208BF
:1018E8008600013087000108C3004308C500450889
:1018F800031908004508C200C3014208B90043089B
:10190800BA004108C4004408BB008E3141268C311E
:1019180001304001C6070030C73D702C41018C01E1
:101928008D018E018F019201930198019A019F0107
:1019380042018C018D018E018F019001920154307A
:101948009300563094009501960197019801D43080
:1019580091004E018D109714DC304001A000083032
:10196800A1008831FE2008004001AD004101221885
:10197800DB2C40012D08AB002B08A0002708AC0089
:101988002C08A1002908A3002808A2005C308C318B
:1019980001248C315C304001AB002B08A0002A08E0
:1019A800AC002C08A10001308E31FF260800400150
:1019B8002A08860087018101810A08004001280859
:1019C800290403190A2DAD01AD0AA91BF52C013014
:1019D800A835A90D890BEC2C0130AC002C08AD07FB
:1019E800E92C29082B02031DFB2C28082A02031CBA
:1019F800012D2808AA022908AB3B0130A936A80CFA
:101A0800890B022D0130AD02031DF52C2B08A9000E
:101A18002A08A80008004001E6006208E8006108FA
:101A2800E7004201B001B10140016708840068087D
:101A3800850012000319352D6730E4006408D800CA
:101A48006308E5006508D9006608863120268D31CF
:101A5800400158084201B007400159084201B13D10
:101A6800182D420131084001E200420130084001CE
:101A7800E10008004001D700410125082604031DA4
:101A88004D2D26084001D600410125084001D5000A
:101A9800562D2508FF3E4001D500FF304101263D67
:101AA8004001D6005208D40054084301A000A10107
:101AB800A0304001D4005408C9005608CB0055088E
:101AC800CA0057088F31512740014A08D3004908F6
:101AD800D20008004E019912A1304001A0000D303B
:101AE800A10089312B218D31083042019F009030AF
:101AF8009D0004309E001F309B009C010230400175
:101B0800A0000030A100893146218D31E730400125
:101B1800A0000830A10089314F218D31DD3040010E
:101B2800A0000830A10089313D214101D001F40114
:101B3800F301D1014E01991608007408203E860071
:101B480001308700810142011D1DB52D7408203E1A
:101B5800860001308700811469088A0068080A0035
:101B68008D3142019D1CC32D7408203E8600013032
:101B78008700011567088A0066080A008D31740815
:101B8800203E86000130870001080319D22D42014A
:101B980065088A0064080A008D3108008A31B72276
:101BA80008004001A501A601200821040319052EFB
:101BB800A701A70AA11BEA2D0130A035A10D890BA9
:101BC800E12D0130A4002408A707DE2D0130A5353A
:101BD800A60D890BEB2D21082302031DF52D2008E6
:101BE8002202031CFC2D2008A2022108A33B251475
:101BF8000130A136A00C890BFD2D0130A702031D71
:101C0800EA2D2608A1002508A000080042019D1C15
:101C18000F2E1D121D16410163086404031D342E86
:101C280042011D19342E1908F700F80141012A084C
:101C3800FA002908F900F935FA0DEE30FB002330D7
:101C4800FC0079087B0786007A087C3D87007708C6
:101C5800C03F7808C13F0130A9070030AA3D3E2E99
:101C68004101A901AA01E301E40142011908F700B1
:101C78007708FD004E018F12080040013B08031D44
:101C88003B08031D4B2E39088C31242408003B08DF
:101C9800033E860087011600010403196E2E3B08D7
:101CA800033E86008701403FBC00413FBD003B0A20
:101CB80086008701403FBE00413FBF003F08803A91
:101CC800C0003D08803A4002031D6C2E3C083E02CD
:101CD8000318080040013B0A86008701013081078C
:101CE80041310318810A08008C3148248E3115309F
:101CF8004101E2004B30E100BE30890B812EE10B3F
:101D0800812EE20B812E00008831F6208E318E3133
:101D1800B1268E318A31A0228E318B170B178A316A
:101D280062228E318A3127228E31893119218E31F2
:101D3800400121084101BA00400120084101B900D1
:101D48008331AD238E318231BD228E31843192248C
:101D58008E318131C4218E31A42E38304001A50046
:101D680025084101C90040304001A500250841016E
:101D7800C80048304001A50025084101C70050307F
:101D88004001A50025084101C6000E304001A00011
:101D98000030A1000230A5002508A2004101490831
:101DA8008B31E1238E310C304001A0000030A100BE
:101DB8000230A5002508A200410146088B31E12325
:101DC8008E310E304001A0000030A100A201410177
:101DD80047088B31E1238E310E304001A0000030DE
:101DE800A100A201A20A410148088B31E1238E31EA
:101DF8008A31042208004001A300410122183E2F25
:101E080002304001A20021088600870122088100D3
:101E18002008A2004101200A86008701400122080B
:101E280081002308A20041012008860087014001A3
:101E3800220881002108A20041012008023E8600F4
:101E480087014001220881000330A20022084101D5
:101E5800A0072008D53A031D372FD2304001A20031
:101E680022084101A000A21021082006031D442FCA
:101E78002214442F40012108860087018101810A2C
:101E8800400121088600870102300106031D080071
:101E98008831EB204E010F1408004001D1004101A8
:101EA800271C5F2F40015108CC004C08C10049088D
:101EB8008C316C248F314001CB1B672F4B08D0002D
:101EC8004A08CF00692FCF01D001CD01CE014E08BD
:101ED800803ACC005008803A4C02031D752F4F08F9
:101EE8004D020318892F20304001B9000030BA0094
:101EF8005108CC004C08BB008E3141268F3101308F
:101F08004001CD070030CE3D6B2F41012718952F9A
:101F180040015108CC004C08C10049088C316C24A0
:101F28008F3140014908A0000130A1008A31FF2209
:101F380040014F082007C9005008213DCA00080089
:101F4800410143080319BA2F03306E020318B32F57
:101F580001304001ED006D084101EE07C62F023047
:101F68004001ED006D084101EE00C62F420803193B
:101F7800C62F02306E02031CC42F0130EE02C62F9A
:101F8800EE01EE0A40080319EB2F6E084001ED0040
:101F98006D084101ED00C501C401C40A08005530AF
:101FA8004101D5009030D6008A318B22080061307B
:101FB8004101D5009030D6008A318B220800493083
:101FC8004101D5009030D6008A318B2208006E0876
:101FD8004001ED00EE016E08003A0319F42FFF2FBF
:101FE8006D08013A0319D32F033A0319DB2F013A7D
:101FF8000319E32FFF2F0800253463342534633495
:1020080025346334253463340D3400342534633483
:10201800253463342534633420340D3400342034BB
:102028002534633425346334253463340D34003463
:102038004834453459345934593459345934593455
:1020480000342534633425346334203420340D348B
:1020580000342034203425346334253463340D347B
:102068000034253463342034203420340D340034D3
:10207800203420342034253463340D3400342034A3
:102088002034203420340D34003450344334203488
:1020980020340D34003442342D34313420340D349E
:1020A800003441344E34493420340D340034533430
:1020B80045344C3431340D340034423445344134E1
:1020C80054340D3400342034203420342034003487
:020000040001F9
:0A000E00EC3FFF3F9F3FFF3FFF3F25
:00000001FF
