:020000040000FA
:04000000803117280C
:100008007E1480310B1F15284E0199188F1C10285B
:10001800833170238031152819180F1C1528803159
:100028002A207E10090080311928F001F101F2011F
:10003800F301F401F50120308400003085003C30E4
:10004800833161237E1040018131D2294E010F1086
:100058004301901F3C299013F3017008023E86006B
:1000680087010108860087018101810AF0010800E3
:100078004001A21808002108F8007808F0002108BB
:10008800860087010108F8007808F2002108860038
:100098008701413FF1000330F8007808A1072108E3
:1000A8005C3A031D5B285930F8007808A10022103B
:1000B800210820060319A214430111140230F80084
:1000C8007808F3000800EA28111F73280130F800A7
:1000D80078084001A40704308231E5220800750839
:1000E800F9007408F800F936F80C78088C00741CCC
:1000F80082280B30F8007808F30008000330F80075
:100108007808F3000800111F92280130F8007808D9
:100118004001A40704308231E522080091147508D3
:10012800F9007408F8007908F800F9010630780534
:10013800FA0000307905FB00F0307A04F400003052
:100148007B04F50074144001AE01AE0A6228400138
:100158002E030319C028710886008701403FF40068
:10016800413FF500710886008701433FB0007108E0
:1001780086008701423FAF00740843018C00741C5D
:1001880082280530F8007808F3000800111FD728E6
:100198000130F80078084001A40743011113053025
:1001A8008231E522080001304001AF022F0A031D09
:1001B800EC280430F8007808F1070130F202031D3A
:1001C800E92800308231E5220800430191146228B1
:1001D800300886008701010843018C000130F800CF
:1001E80078084001B0070800111F05290130F80000
:1001F80078084001A40704308231E5224301111335
:10020800080091150830F8007808F3000800083055
:10021800F8007808F300911508000C08F800400170
:10022800300886008701780881000130F8007808D6
:10023800B0070130AF020319282943019112063093
:10024800F8007808F3002C29430191168231FC222A
:1002580043011116080000308231E5220800013000
:10026800F80078084001A40706308231E52208002A
:100278007308F800F9017908003A03194429332969
:100288007808003A03193C28013A03196728033A09
:100298000319AB28013A0319CA28073A03192F2969
:1002A800013A0319F828033A03190B29013A0319EB
:1002B8002F290F3A03191129023A03196828013A1C
:1002C8000319872833290800003482342134003484
:1002D800003400340034023439340F34003400342C
:1002E80000344034803400343F3406345B344F34B7
:1002F80066346D347D3407347F346F340034003411
:100308000034483400345334003477347C3439347E
:100318005E34793471346F34763406341E340034E4
:100328003834003454343F347334673450346D34C3
:1003380078343E340034003400346E3400343934B8
:1003480000340F340034083463345F347C34583458
:100358005E347B3471346F34743402341E340034A8
:100368000634003454345C347334673450346D3498
:1003780078341C340034003400346E34003439349A
:1003880030340F3400340034253463342534633476
:1003980025346334253463340D34003483310C231D
:1003A80081318B170B174101A401A50102304001CF
:1003B800EA006A084101A600A3014001E301E30A3B
:1003C800410125084001E500410124084001E400FD
:1003D800A630EA006A08E600A3308231852281311E
:1003E8000230410126060319F4292608031D042AB0
:1003F80024084001EA006A084101A200A001A10105
:100408000130A4070030A53D2508803A4001EA00E4
:1004180080306A02031D132A803041012402031C24
:10042800DA29803117284001DF0022184B2A0230D0
:10043800DE005D08860087015E0881005C08DE003A
:10044800200A860087015E0881005F08DE00200818
:10045800860087015E0881005D08DE002008023EF4
:10046800860087015E0881000330DE005E08A00771
:1004780020085C3A031D442A5930DE005E08A000BB
:10048800A21021082006031D502A2214502A5D08B4
:10049800860087018101810A5D0886008701023094
:1004A8000106031D080083316C234E010F14080058
:1004B8004001980199019A013F309200F030930071
:1004C800FF309400FF307E01CE00F030C3000730CB
:1004D800B800C401B901CF01BA01C501D001373054
:1004E800BB00F030C600FF30D10005307D01C500EB
:1004F80014307E0194001330950004307D01C6004D
:1005080008004001E9002218A62A6908E7006708E0
:10051800DC006308E8006808DD006508DF0064089F
:10052800DE0055308231AC22823155304001E7007F
:100538006708DC006608E8006808DD0001308231E1
:10054800172208006608860087018101810A0800D1
:100558004001E2005F08E1005E08E000E035E10DDF
:100568006208860087016008C03F6108C13F5D08D6
:10057800E0006208023E86008701600881005C088E
:10058800E0006208033E86008701600881000800D9
:1005980059304001DC005C08A1005930DC005C08DF
:1005A800A000A2142210A40143018F01283090005A
:1005B800920170308D004E010F108F10191499148C
:1005C8000800F700430111157008023E86008701F4
:1005D80001080319FA2A7708F6007008023E860017
:1005E800870101088600870176088100F301080069
:1005F8000430F6007608F1070130F202031D092BDA
:100608000430F6007608F3000800F301F30A080046
:1006180083311823833182315C228331833134233F
:1006280083318231CC2208004F019601970198014D
:1006380099019A019B019C019D01080025346334AE
:10064800253463342534633420340D3400342034A5
:100658002534633425346334253463340D3400344D
:10066800603051018D008F01910106309300920195
:1006780008002534633425346334203420340D34A1
:1006880000342034203425346334253463340D3465
:100698000034253463342034203420340D340034BD
:1006A800203420342034253463340D34003420348D
:1006B8002034203420340D340034640080010131AA
:1006C800890B622B00342034203420342034003449
:0E06D8007308031908006C2B4E018F100800E8
:020000040001F9
:0A000E00EC3FFF3F9F3FFF3FFF3F25
:00000001FF
