:020000040000FA
:1000000080313028003008007E1480314E01961A6D
:100010008C1E0E289E310F2680312E280B1F2E2875
:1000200099188F1C17289D31132580312E281918F7
:100030000F1C1E288E31AE2680312E2897188D1C5D
:1000400025289E31022680312E28991A8F1E2E28AF
:1000500043016B088A006A080A0080317E1009009B
:1000600080313228F830840087308500E730860000
:10007000003087000030FF0008309D31F6258031C8
:100080002F3084009D30850060308600013087006D
:100090000030FF0006309D31F6258031EE308400BF
:1000A000233085000230FE000430FF009D31EA2538
:1000B0008031F001F101F201F301F401F501F601E3
:1000C000C5308400003085002230FE000030FF0083
:1000D0009D31EA2580312030840001308500403098
:1000E000FE000030FF009D31EA258031A030840001
:1000F000013085004830FE000030FF009D31EA25C8
:10010000803120308400023085004430FE00003011
:10011000FF009D31EA258031A03084000230850047
:100120003230FE000030FF009D31EA258031203062
:100130008400033085004030FE000030FF009D3118
:10014000EA257E1040019231FE2A40014B08803999
:10015000D0005008D5004B35D0005008D700CA1B3E
:10016000571457080319C128570A031DBF28003028
:10017000CB000030CA000030C9000030C800CA17E8
:10018000C9280030CB000030CA000030C900003060
:10019000C8004F088039D0005008D5064F35D00030
:1001A0005008D600CE1B561456080319E428560AE8
:1001B000031DE2280030CF000030CE000030CD001B
:1001C0000030CC00CE17EC280030CF000030CE003D
:1001D0000030CD000030CC005608031D5708031D29
:1001E000FA280030CB000030CA000030C9000030CF
:1001F000C80008004808D0005008A0004E08903100
:100200003720803140012108E1002008E00060082B
:10021000D000D101D201D3015308DB005208DA002B
:100220005108D9005008D8006108D000D101D2018E
:10023000D3015308DF005208DE005108DD005008EA
:10024000DC004908D0005008A0004D08903137204C
:10025000803140012108E1002008E0006008D00062
:10026000D101D201D3015008D8075108D93D520815
:10027000DA3D5308DB3D6108D000D101D201D30142
:100280005008DC075108DD3D5208DE3D5308DF3DD4
:100290004A08D0005008A0004C0890313720803127
:1002A00040012108E1002008E0006008D000D101F1
:1002B000D201D3015008D8075108D93D5208DA3D80
:1002C0005308DB3D6108D000D101D201D3015008B1
:1002D000DC075108DD3D5208DE3D5308DF3D0830A4
:1002E000D835D90DDA0DDB0D890B70294908D000FE
:1002F0005008A0004C08903137208031400121087F
:10030000E1002008E0006008D8076108D93D00300E
:10031000DA3DDB3D4808D0005008A0004D08903180
:100320003720803140012108E1002008E00060080A
:10033000D8076108D93D0030DA3DDB3D0830D835BB
:10034000D90DDA0DDB0D890B9F294808D000500824
:10035000A0004C0890313720803140012108E10095
:100360002008E0006008D8076108D93D0030DA3D78
:10037000DB3D4908D0005008A0004E0890313720DE
:10038000803140012108E1002008E0006008DC071E
:100390006108DD3D0030DE3DDF3D4A08D0005008F9
:1003A000A0004D0890313720803140012108E10044
:1003B0002008E0006008DC076108DD3D0030DE3D1C
:1003C000DF3D4A08D0005008A0004E089031372089
:1003D000803140012108E1002008E0006008D000E1
:1003E0006108D100D201D3010830D035D10DD20D32
:1003F000D30D890BF5295008DC075108DD3D520863
:10040000DE3D5308DF3D5808D0005908D1005A0896
:10041000D2005B08D3001830D336D20CD10CD00CEC
:10042000890B0C2A5008DC075108DD3D5208DE3DDF
:100430005308DF3D0830D835D90DDA0DDB0D890BB7
:100440001B2A57085607D000D101D10D5008823E13
:10045000E000FF30513DE100DE1B432A0130DC3576
:10046000DD0DDE0DDF0D890B2F2ADB1B5C14013047
:10047000D835D90DDA0DDB0D890B382AFF30E007AE
:10048000FF30E13D2C2AD601DB1F5C2AFF305805E6
:10049000D000FF305905D100FF305A05D2007F301F
:1004A0005B05D300530852045104500403195C182F
:1004B0005A2A5C2AD601D60A56080319852A013021
:1004C000DC070030DD3D0030DE3D0030DF3D5F1CED
:1004D000852A5C08D0005D08D1005E08D2005F0864
:1004E000D3000130D400D337D20CD10CD00CD40BB4
:1004F000732A5308DF005208DE005108DD0050085F
:10050000DC000130E0070030E13D6108803AD000B6
:1005100080305002031D8E2AFF306002031C9A2A8D
:100520007F304001DF008030DE000030DD00003031
:10053000DC00C42A40016108803AD00080305002BB
:10054000031DA42A013060020318B12A00304001C3
:10055000DF000030DE000030DD000030DC00D501BF
:10056000C42A40016008D0005008D700FF30DC05E5
:10057000FF30DD057F30DE050030DF055718DE1760
:100580005736D0005008DF005508D0005008DF046F
:100590005F08CB005E08CA005D08C9005C08C8009F
:1005A00008004F304301DA000130DB004530DC0049
:1005B0000130DD005A30DE000230DF00E101DA30C8
:1005C0004001A00020084301E000D0304201CF00EC
:1005D0000130D000DA30D1000130D200C630D30073
:1005E0000130D400D601D60A4F304001A0002008C7
:1005F0004201D50045304301D0000130D1004F30D9
:10060000D2000130D300B230D4000130D500023026
:100610004001A00020084301D700D0304001A000D5
:1006200020084301D600DA304201C5000130C6007F
:10063000D030C7000130C800A830C9000130CA005E
:1006400003304001A00020084201CC0045304001A9
:10065000A00020084201CB004401DA01DB01DC01EB
:10066000DD01DE01DF01FD30E2000830E30004308F
:100670004001A00020084401E100DA304001A00060
:1006800020084401E00050304301C6000230C7009A
:10069000C830C8000230C900BE30CA000230CB00EA
:1006A00005304001A00020084301CD004F3040013B
:1006B000A00020084301CC0046304401D0000230A5
:1006C000D100C630D2000130D300B430D4000230A3
:1006D000D50006304001A00020084401D7004F306B
:1006E0004001A00020084401D600C830C6000230F6
:1006F000C7005030C8000230C900AA30CA0002301A
:10070000CB0007304001A00020084401CD004F304D
:100710004001A00020084401CC00C6304501C800BB
:100720000130C9004630CA000230CB00A030CC00F6
:100730000230CD0008304001A00020084501CF0064
:100740004F304001A00020084501CE00B2304301E7
:10075000BC000130BD00B230BE000130BF00C0019E
:10076000C1010E30C4001D30C50012304001A00090
:1007700020084301C300D0304001A00020084301FD
:10078000C200BC30B2000130B300BC30B400013054
:10079000B500B601B7010E30BA001D30BB001130F4
:1007A0004001A00020084301B900D0304001A00062
:1007B00020084301B8003C30A8000230A9002830CE
:1007C000AA000230AB00AC01AD01DE30B0001D303C
:1007D000B1000D304001A00020084301AF004530BA
:1007E0004001A00020084301AE0032304401BC00AB
:1007F0000230BD00A830BE000130BF00C001C10101
:10080000DE30C4001D30C5000E304001A0002008BD
:100810004401C30045304001A00020084401C2004B
:100820002830B2000230B3003C30B4000230B500D2
:10083000B601B701DE30BA001D30BB000F304001F9
:10084000A00020084401B90045304001A000200864
:100850004401B800A830A8000130A9003230AA0035
:100860000230AB00AC01AD01DE30B0001D30B10094
:1008700010304001A00020084401AF004530400185
:10088000A00020084401AE004501BE01BF01C00127
:10089000C101C201C3017D30C6001430C700093058
:1008A0004001A00020084501C5004F304001A000D4
:1008B00020084501C400B401B501B601B701B80173
:1008C000B9017D30BC001430BD000A304001A000E9
:1008D00020084501BB004F304001A0002008450121
:1008E000BA00AA01AB01AC01AD01AE01AF017D3090
:1008F000B2001430B3000B304001A00020084501C5
:10090000B1004F304001A00020084501B000A00117
:10091000A101A201A301A401A5017D30A80014300A
:10092000A9000C304001A00020084501A7004F306D
:100930004001A00020084501A6000800400135083C
:100940008039B6003608BF003535B6003608C60017
:10095000B41B461446080319BB2C460A031DB82CC9
:100960000030B5000030B4000030B3000030B200F9
:10097000B417B501C32C0030B5000030B40000300E
:10098000B3000030B20031088039B6003608BF0627
:100990003135B6003608C700B01B471447080319A5
:1009A000DF2C470A031DDC2C0030B1000030B00002
:1009B0000030AF000030AE00B017B101E72C0030BE
:1009C000B1000030B0000030AF000030AE003108A0
:1009D00030042F042E04031D062D0030B500003016
:1009E000B4000030B3000030B2008030B4047F3077
:1009F000B5043F08B6003608B5043508B100340820
:100A0000B0003308AF003208AE0008004608031DEE
:100A1000122D0030B1000030B0000030AF000030C7
:100A2000AE0008004608B600B7013708B90047080D
:100A30003602B800031CB90338087F3EC0000030FE
:100A4000393DC1003508BE003408BD003308BC0084
:100A50003208BB000030B5000030B4000030B300F5
:100A60000030B2000030C5000030C4000030C300C8
:100A70000030C200C7011A3047020318772D47081B
:100A80000319592D0130BB35BC0DBD0DBE0D890BB1
:100A9000432D0130B235B30DB40DB50D890B4A2D80
:100AA000C51B32140130C235C30DC40DC50D890BF1
:100AB000532D31083E02031D672D30083D02031DF2
:100AC000672D2F083C02031D672D2E083B02031CD7
:100AD000722D45172E08BB022F08BC3B3008BD3BCA
:100AE0003108BE3B0130B6003608C7073B2D3E0833
:100AF0003D043C043B04031D4214B41B942D0130FF
:100B0000B235B30DB40DB50D890B802DC51B321454
:100B10000130C235C30DC40DC50D890B892DFF30C1
:100B2000C007FF30C13D7D2DC701C51FAD2DFF3072
:100B30004205B600FF304305B700FF304405B8005A
:100B40007F304505B90039083804370436040319E5
:100B50003218AB2DAD2DC701C70A47080319D62D92
:100B60000130B2070030B33D0030B43D0030B53D38
:100B7000351CD62D3208B6003308B7003408B8004B
:100B80003508B9000130BA00B937B80CB70CB60C4B
:100B9000BA0BC42D3908B5003808B4003708B300C3
:100BA0003608B2000130C0070030C13D4108803A2C
:100BB000B60080303602031DDF2DFF304002031CDB
:100BC000EE2DFF304001C0000030C1000030B50004
:100BD0000030B4000030B3000030B20040014108E2
:100BE000803AB60080303602031DF82D01304002F5
:100BF0000318062E4001C001C1010030B5000030CD
:100C0000B4000030B3000030B200BF014001400822
:100C1000B6003608C600461C0F2EB417132E7F30C0
:100C2000B6003608B4054636B6003608B500F92CCD
:100C300041016D08031D08003708BA00BB01BC0163
:100C4000BD013D084001A30041013C084001A20054
:100C500041013B084001A10041013A084001A000C8
:100C6000013096312926863140012308B50022083B
:100C7000B4002108B3002008B2004330B1007F3037
:100C8000B0000030AF000030AE0084319E248631C9
:100C900040013108CF003008CE002F08CD002E08CB
:100CA000CC004230CB00FE30CA000030C90000301A
:100CB000C8008031A520863140014B08E5004A0874
:100CC000E4004908E3004808E2009431E124863159
:100CD000400163084101A100400162084101A000F8
:100CE0009F318827863141013808BA00BB01BC0119
:100CF000BD013D084001A30041013C084001A200A4
:100D000041013B084001A10041013A084001A00017
:100D1000013096312926863140012308B50022088A
:100D2000B4002108B3002008B2004330B1007F3086
:100D3000B0000030AF000030AE0084319E24863118
:100D400040013108CF003008CE002F08CD002E081A
:100D5000CC004230CB00FE30CA000030C900003069
:100D6000C8008031A520863140014B08E5004A08C3
:100D7000E4004908E3004808E2009431E1248631A8
:100D8000400163084101A100400162084101A00047
:100D90009F31A627863141013908BA00BB01BC0149
:100DA000BD013D084001A30041013C084001A200F3
:100DB00041013B084001A10041013A084001A00067
:100DC000013096312926863140012308B5002208DA
:100DD000B4002108B3002008B2004330B1007F30D6
:100DE000B0000030AF000030AE0084319E24863168
:100DF00040013108CF003008CE002F08CD002E086A
:100E0000CC004230CB00FE30CA000030C9000030B8
:100E1000C8008031A520863140014B08E5004A0812
:100E2000E4004908E3004808E2009431E1248631F7
:100E3000400163084101A100400162084101A00096
:100E40009F31C427863141013608BA00BB01BC017D
:100E5000BD013D084001A30041013C084001A20042
:100E600041013B084001A10041013A084001A000B6
:100E7000013096312926863140012308B500220829
:100E8000B4002108B3002008B2004330B1007F3025
:100E9000B0000030AF000030AE0084319E248631B7
:100EA00040013108CF003008CE002F08CD002E08B9
:100EB000CC004230CB00FE30CA000030C900003008
:100EC000C8008031A520863140014B08E5004A0862
:100ED000E4004908E3004808E2009431E124863147
:100EE000400163084101A100400162084101A000E6
:100EF0009F31E227080041016E08A400A501A60168
:100F0000A70127084001A300410126084001A200D3
:100F1000410125084001A100410124084001A00031
:100F2000013096312926873140012308B500220877
:100F3000B4002108B3002008B2004130B1001030E5
:100F4000B0000030AF000030AE0084319E24873105
:100F500040013108CF003008CE002F08CD002E0808
:100F6000CC004330CB007F30CA000030C9000030D5
:100F7000C8008031A520873140014B08E5004A08B0
:100F8000E4004908E3004808E2009431E124873195
:100F9000400162084101A80028084001ED006D08E9
:100FA0004101A400A501A601A70127084001A30053
:100FB000410126084001A200410125084001A1008D
:100FC000410124084001A00000309631292640014B
:100FD00023084101A300400122084101A200400171
:100FE00021084101A100400120084101A0000800A2
:100FF00064340034013400340534013401340534E0
:1010000040304001A50025084101E0004830400182
:10101000A50025084101DF0050304001A50025084A
:101020004101DE0058304001A50025084101DD00E6
:101030000E304001A0000030A1000230A5002508BC
:10104000A200410160089031172088310C30400126
:10105000A0000030A1000230A5002508A200410137
:101060005D089031172088310E304001A00000301B
:10107000A100A20141015E089031172088310E3095
:101080004001A0000030A100A201A20A41015F08B6
:101090009031172088319E31692608004101AD004A
:1010A0002D080319782887317B27883141012308CF
:1010B000B1002208B0002108AF002008AE003108BE
:1010C0004001E500410130084001E40041012F08E2
:1010D0004001E30041012E084001E2009431E12487
:1010E000883140016208EE006E084101B3007928A2
:1010F000B3012A080319A12887317B2788314101D0
:101100002308B1002208B0002108AF002008AE007B
:1011100031084001E500410130084001E40041018F
:101120002F084001E30041012E084001E200943104
:10113000E124883140016208EE006E084101B500EB
:10114000A228B50129080319CA2887317B278831CD
:1011500041012308B1002208B0002108AF00200897
:10116000AE0031084001E500410130084001E400D3
:1011700041012F084001E30041012E084001E20037
:101180009431E124883140016208EE006E0841018B
:10119000B400CB28B4012B080319F32887317B272F
:1011A000883141012308B1002208B0002108AF00B6
:1011B0002008AE0031084001E5004101300840013F
:1011C000E40041012F084001E30041012E084001E5
:1011D000E2009431E124883140016208EE006E089B
:1011E0004101B200F428B2013508AC003408AB006C
:1011F0003308AA003208A90008008E304101A0007F
:10120000A030A1009E31DB2688319D311625883122
:101210004101AA00AB012A084001B60041012B0898
:101220004001B7009631BF26883141015F089E31E9
:101230002A268831003A03196C299D3160258831AE
:1012400041015008400120024101AA00510840011B
:10125000213B4101AB002B086802031D31292A08FC
:10126000670203186C299E314826883150299D3128
:101270006025883141015008400120024101AA0047
:1012800051084001213B4101AB002B086802031DBE
:101290004B292A086702031874299E3139268831A0
:1012A0009D3160258831400121084101D100400174
:1012B00020084101D0006808803AAA0080302A0244
:1012C000031D642915306702031C0800FF3041012B
:1012D000E707FF30E83D080041015E089E312A26FD
:1012E0008831003A031D372941015D089E312A26C5
:1012F0008831003A0319822901304101E9000030A8
:10130000EA00080041015C08031994299E3148262F
:1013100088319D316025400121084201B50040011E
:1013200020084201B40008005B0803199A299E3185
:10133000392608005C08031D5B08031D08005E08D1
:101340009E312A268831003A031D080041015F08BA
:101350009E312A268831003A031D0800643041017D
:10136000E7000030E80008004C2A953147250800C6
:10137000803102208931003A0319D2294101A901A3
:10138000AA01AB01003088314E20893141012C087F
:10139000B9002B08B8002A08B7002908B600863122
:1013A000182608008C31E1240800803102208931A0
:1013B000003A0319EF294101A901AA01AB0100304C
:1013C00088314E20893141012C08B9002B08B80022
:1013D0002A08B7002908B6008631182608009D3172
:1013E0000C250800803102208931003A03190C2AAB
:1013F0004101A901AA01AB01003088314E20893199
:1014000041012C08B9002B08B8002A08B7002908A8
:10141000B6008631182608009D310F25080080315E
:1014200002208931003A0319292A4101A901AA01A0
:10143000AB01003088314E20893141012C08B900C0
:101440002B08B8002A08B7002908B60086311826EC
:1014500008009D310D250800803102208931003AB5
:101460000319462A4101A901AA01AB0100308831C4
:101470004E20893141012C08B9002B08B8002A08F8
:10148000B7002908B6008631182608009D310E25C0
:1014900008009D31DE2508009D3119258931410163
:1014A000C300C4014408003A0319572A6E2A4308AE
:1014B000003A0319B529013A0319B829033A031967
:1014C0002C2A013A0319492A073A0319D529013A66
:1014D0000319F229033A03190F2A6E2A080027304C
:1014E00040013702103003193602031C9A2A793062
:1014F000B8003808B00034309F316B278A3179301A
:101500004001B8003808B00035309F316B278A3170
:1015100079304001B8003808B00036309F316B2771
:101520008A3179304001B8003808B00037309F3137
:101530006B2708000A30A8000030A9003708AB006C
:101540003608AA00913138218A31400129088500E6
:1015500028088400103084079830853D0008B800C2
:101560003808B00037309F316B278A310A3040018C
:10157000A8000030A9000A30A0000030A100370800
:10158000A3003608A20092315C228A314001210872
:10159000AB002008AA00913138218A314001290886
:1015A000850028088400103084079830853D0008A5
:1015B000B8003808B00036309F316B278A310A30C6
:1015C0004001A8000030A9006430A0000030A10054
:1015D0003708A3003608A20092315C228A3140010C
:1015E0002108AB002008AA00913138218A3140013E
:1015F0002908850028088400103084079830853D2C
:101600000008B8003808B00035309F316B278A31A8
:101610000A304001A8000030A900E830A0000330E3
:10162000A1003708A3003608A20092315C228A315B
:1016300040012108AB002008AA00913138218A31ED
:10164000400129088500280884001030840798305C
:10165000853D0008B8003808B00034309F316B2752
:1016600008009D3160258B3142012E084001200287
:10167000A80042012F084001213BA9004201630854
:1016800040012902031D482B420162084001280243
:10169000031C08009D3160258B3140012108420167
:1016A000AF00400120084201AE0041015503031D77
:1016B0005F2B01304201AC070030AD3D662B42018B
:1016C000AC01AD011E30E2000030E30041015503E2
:1016D000031DAD2B5408031DAD2BD601D60A3230A5
:1016E0004201E2000030E3009D3160258B31420170
:1016F000320840012002AA00420133084001213B88
:10170000AB009D3160258B31400121084201B300BF
:10171000400120084201B200003040012B02963007
:1017200003192A0203189A2B90304201B0000130AD
:10173000B100AD2B2B08A1002A08A0006030A20048
:10174000EA30A30092315C228B3140012108420132
:10175000B100400120084201B0004101550840019C
:10176000A80028084101D400D50142012D08803A83
:101770004001A80080302802031DC12B0430420123
:101780002C02031CE02B01304201E4070030E53D50
:1017900065084001A100420164084001A0009D319C
:1017A0004E258B314201AC01AD019D3160254001D8
:1017B00021084201B300400120084201B2000800A4
:1017C0009D3160258B314201320840012002A80082
:1017D000420133084001213BA90003302902E930CE
:1017E00003192802031C080001304201E402003002
:1017F000E53B65084001A100420164084001A000EA
:101800009D314E25080041016D03031D0C2CDA307B
:10181000D2000130D300ED015F089E319F268C314C
:101820004101C2004208DC005E089E319F268C31D7
:101830004101C2004208DB0060089E319F268C31C6
:101840004101C2004208DA005D089E319F268C31BA
:101850004101C2004208D9005A080319382C520825
:1018600086005308870046310108D2000130742CED
:101870005C0803194B2C5208860053088700160099
:10188000010403194B2C5208860053088700403F7F
:10189000D200413F742C5B080319602C520886006B
:1018A000530887004231160001040319602C5208C6
:1018B0008600530887004231403FD200413F742CDC
:1018C00059080319B92C520886005308870044317F
:1018D000160001040319B92C52088600530887002A
:1018E0004431403FD200413FD300B92C5530A000D5
:1018F000A030A1009E31DB2608007330A000A0308C
:10190000A1009E31DB2608006130A000A030A100BC
:101910009E31DB2608005B30A000A030A1009E3184
:10192000DB2608004930A000A030A1009E31DB2654
:1019300008006D30A000A030A1009E31DB26080019
:101940004F30A000A030A1009E31DB260800673098
:10195000A000A030A1009E31DB26080052088600BE
:10196000530887004831413F8A00403F0A008C31CC
:101970000800520886005308870047310108C2005A
:10198000C3014308003A0319C62CAE2C4208003AA2
:101990000319762C013A03197D2C033A0319842C80
:1019A000013A03198B2C063A0319922C033A0319B6
:1019B000992C013A0319A02C0F3A0319A72CAE2C2D
:1019C00008009D3160258C31420128084001200229
:1019D0004101BE00420129084001213B4101BF00F5
:1019E00000303F02323003193E02031C08009D31D3
:1019F00060258C31400121084201A90040012008E6
:101A00004201A80040019A129D3172258C3141019A
:101A1000BE003E084001EF006F08031D9A166F08D4
:101A2000031D262D4101A901AA01AB010030883117
:101A30004E208C3141012C08B9002B08B8002A082F
:101A4000B7002908B60086311826080041014E0368
:101A50004F04031D692DA901512DA901492DA9018B
:101A6000A90AAA01AA0AAB01542DA901A90A402D6D
:101A7000A901A90A452DA901AA01AA0A522DA90165
:101A8000AA01AA0AAB014D2DA901AA014B2DA9015A
:101A9000A90AAA01AA0AAB01AB0A0130552DA90176
:101AA000A90AAA01AB01AB0A003088314E208C3163
:101AB00041012C08B9002B08B8002A08B7002908F2
:101AC000B6008631182601304101CE070030CF3DE7
:101AD000080002304E064F0403194F2D03304E0606
:101AE0004F0403192F2D04304E064F0403192D2DDA
:101AF00005304E064F0403192F2D06304E064F04B5
:101B00000319352D08304E064F040319382D0930BE
:101B10004E064F0403194F2D0A304E064F04031989
:101B20003B2D0B304E064F0403193F2D0C304E0653
:101B30004F040319442D0D304E064F040319472D51
:101B40000E304E064F0403194F2DA901A90AAA0110
:101B5000AA0AAB01AB0A003088314E208C3141011A
:101B60002C08B9002B08B8002A08B7002908B600CD
:101B70008631182601304101CE000030CF00080028
:101B80009D3160258D3140012108A7002008A60065
:101B900042013A0840012602A20042013B084001EE
:101BA000273BA300003023020A3003192202031C42
:101BB000080027084201BB00400126084201BA0084
:101BC0004001A5012508A2000230A235FF3E031DF9
:101BD000E52D2235403EA3002308A80028088600F2
:101BE00003308700403FA200413FA3002208860047
:101BF000230887000130A4002808023E8400033037
:101C00008500000A042EA435890B032E2408010543
:101C1000031D232E2808033E860003308700810120
:101C2000810A2808073E8600033087000108031D4B
:101C3000292E2808053E8600033087002608C03F6D
:101C40002708C13F292E2808033E8600033087005D
:101C500081012808033E8600033087000108031D28
:101C6000412E2808043E8600033087000103031D2F
:101C7000412E2808073E8600033087008101810A33
:101C8000972E2808033E8600033087000103031DBA
:101C9000782E2808043E8600033087000103031DC8
:101CA000782E2808053E860003308700403F260234
:101CB000A200413F273BA30000302302C930031993
:101CC0002202031C652E03306F2E2808073E860073
:101CD00003308700033001060319972E0230A2005B
:101CE0002808073E86000330870022088100972ECF
:101CF0002808033E8600033087000108031D972E45
:101D00002808043E8600033087000103031D972E38
:101D10002808073E86000330870003300106031DB4
:101D2000972E2808073E8600033087008101280887
:101D3000033E8600033087000108A2002808043E05
:101D4000860003308700220881000130A2002208AB
:101D5000A5070430250203180800E22D4E010F10DC
:101D60004301901FD32F90134101E5017108023EFA
:101D70008600013087000108860087018101810A01
:101D8000F1010800C71808004608F9007908F100B9
:101D900046088600013087000108F9007908E40050
:101DA00046088600013087000130413FF2000330D1
:101DB000F9007908C6074608603A031DE32E5D3036
:101DC000F9007908C6004710460845060319C714EC
:101DD000430111140230F90079084101E5000800BF
:101DE0007C2F4301111FFD2E0130F90079084101BC
:101DF000C90704309F31352708007608FA007508B6
:101E0000F900FA36F90C79088C00751C0D2F0B308F
:101E1000F90079084101E50008000330F90079086C
:101E20004101E50008004301111F1F2F0130F90097
:101E300079084101C90704309F3135270800911402
:101E40007608FA007508F9007A08F900FA010630F8
:101E50007905FB0000307A05FC00F0307B04F500CA
:101E600000307C04F60075144101E101E10AEA2E1C
:101E700061030319512F7208860001308700403F2B
:101E8000F500413FF60072088600013087000130FE
:101E9000433FE30072088600013087000130423F73
:101EA000E200750843018C00751C0D2F0530F90008
:101EB00079084101E50008004301111F6A2F013034
:101EC000F90079084101C9074301111305309F3119
:101ED0003527080001304101E202620A031D7F2F0D
:101EE0000430F9007908F2070130E402031D7C2F69
:101EF00000309F313527080043019114EA2E630812
:101F000086008701010843018C000130F90079083F
:101F10004101E30708004301111F992F0130F90027
:101F200079084101C90704309F3135274301111356
:101F3000080091150830F90079084101E500080012
:101F40000830F9007908E5004301911508004301C4
:101F50000C08F900410163088600870179088100B7
:101F60000130F9007908E3070130E2020319C02FBC
:101F7000430191120630F90079084101E500C42FB0
:101F8000430191169E315826430111160800003076
:101F90009F31352708000130F9007908C90706305C
:101FA0009F313527080041016508F900FA017A08D8
:101FB000003A0319DC2FCB2F7908003A0319C22EFF
:101FC000013A0319F02E033A0319382F013A031985
:101FD0005C2F073A0319C72F013A03198B2F033AD5
:101FE0000319A02F013A0319C72F0F3A0319A72F7E
:101FF000023A0319F12E013A0319132FCB2F0800CF
:10200000420165084001A100420164084001A000AE
:102010009D314E2590311C304001A0001D30A100A3
:102020009D31452590310F309D31572508004001E5
:10203000A40024088600033087002008C03F210840
:10204000C13F2208A3002408023E86000330870017
:10205000230881002408033E8600033087008101A5
:102060002408073E860003308700810108004001F4
:10207000A800A401A5012008A200A3012208A6002F
:102080002308A700281C48282608A4072708A53DE0
:102090000130A635A70D890B49280310A80C280884
:1020A000031D42282508A1002408A00008004001C3
:1020B000A6002308A5002208A400A435A50D260823
:1020C0008600013087002408C03F2508C13F210851
:1020D000A4002608023E8600013087002408810003
:1020E0002008A4002608033E86000130870024084B
:1020F000810008004001BA00043041015702031872
:1021000088280D3040013A06031D3A08031D8A282D
:102110004101D7010D3040013A06031908003A0881
:10212000B9003908B600410157089E317A260130BE
:102130004001B90039084101D70708009D31A825A1
:1021400090319131F52190319D319F2590319F3112
:102150004F2790319D31B22590319D31BD25903171
:102160009031E82090319D31D32590319D31C825A3
:1021700090319E311C2690319E31B32690319231A0
:10218000282208004001CA00C801C90148084A07BE
:10219000C40044088600033087000108C5004508D4
:1021A000C7004708031908004708C400C5014408D0
:1021B000BB004508BC004308C6004608BD0092317C
:1021C000C722903101304001C8070030C93DC62800
:1021D00041018C018D018E018F01920193019801C3
:1021E0009A019F0142018C018D018E018F019001A6
:1021F0009201543093005630940095019601970156
:102200009801D43091004E018D109714093040018F
:10221000A0001D30A1009D31452508004001AD0002
:1022200041014718312940012D08AB002B08A000BF
:102230002708AC002C08A1002908A3002808A20048
:10224000593090315720913159304001AB002B0863
:10225000A0002A08AC002C08A100013094312824E9
:10226000080040012A08860087018101810A0800D0
:1022700040012808290403196029AD01AD0AA91BF2
:102280004B290130A835A90D890B42290130AC003A
:102290002C08AD073F2929082B02031D51292808C6
:1022A0002A02031C57292808AA022908AB3B01303F
:1022B000A936A80C890B58290130AD02031D4B2902
:1022C0002B08A9002A08A80008004001E8006408BB
:1022D000EA006308E9004201A001A1014001690888
:1022E00084006A088500120003198B296930E60012
:1022F0006608DA006508E7006708DB0068089731C0
:102300005827913140015A084201A00740015B085B
:102310004201A13D6E29420121084001E400420131
:1023200020084001E30008004001D90042012208D2
:102330002304031DA32923084001D80042012208D9
:102340004001D700AC292208FF3E4001D700FF30F2
:102350004201233D4001D8005408D60056084601EA
:10236000A000A10120304001D6005608CB0058083B
:10237000CD005708CC0059089331D52340014C08B3
:10238000D5004B08D400080042019D1CC9291D122C
:102390001D166008610403191D19EA291908F700C0
:1023A000F8012B08FA002A08F900F935FA0DEE3089
:1023B000FB002330FC0079087B0786007A087C3D0F
:1023C00087007708C03F7808C13F0130AA07003076
:1023D000AB3DF229AA01AB01E001E1011908F700C8
:1023E0007708FD004E018F12080040019801990105
:1023F0009A013F309200F030930026309400FF3075
:102400007E01CE00E030C3000730B800C401B9013E
:10241000CF01BA01C501D0013730BB00F030C60092
:10242000FF30D10005307D01C50014307E019400DD
:102430000B30A3000C30A400133095000A30A60026
:102440000930A70004307D01C6000C30CB00080025
:102450004E01991291304001A0001230A1009D312F
:102460007B259231083042019F0090309D0004305E
:102470009E001F309B009C010A304001A0001D30CF
:10248000A1009D318D25923120304001A0001D30EA
:10249000A1009D319625923110304001A0001D30E1
:1024A000A1009D3184254201C401F401F3014101E1
:1024B000E6014E01991608004001A601A701200877
:1024C000210403198C2AA501A50AA11B712A013038
:1024D000A035A10D890B682A0130A4002408A507A6
:1024E000652A0130A635A70D890B722A210823021F
:1024F000031D7C2A20082202031C832A2008A20232
:102500002108A33B26140130A136A00C890B842A94
:102510000130A502031D712A2708A1002608A0008A
:1025200008007408A03E8600013087008101420146
:102530001D1DA62A7408A03E860001308700811464
:10254000430169088A0068080A00923142019D1C13
:10255000B52A7408A03E86000130870001154401A9
:1025600067088A0066080A0092317408A03E860057
:102570000130870001080319C42A440165088A0054
:1025800064080A00923108009F31052708004001C5
:102590003D08031D3D08031DD12A3B0890317A20D8
:1025A00008003D08033E8600870116000104031958
:1025B000F42A3D08033E86008701403FBE00413FAC
:1025C000BF003D0A86008701403FC000413FC10077
:1025D0004108803AC2003F08803A4202031DF22AB5
:1025E0003E0840020318080040013D0A86008701AA
:1025F0000130810741310318810A080090319E2083
:10260000923115304201EB004B30EA00BE30890BAD
:10261000072BEA0B072BEB0B072B00009D31352511
:1026200092318831002092319031002092319D31D9
:102630003D2592318231D12292318B170B179E3179
:10264000C72692319E318C2692319D316025923180
:10265000400121084201BD00400120084201BC00A8
:102660008D31C02592318C31032492318B3131234D
:1026700092318931B4219231302B4001AF01AC1F2E
:10268000482BAB09AC09AB0A0319AC0AAF01AF0A7E
:10269000AA1F4F2BA909AA09A90A0319AA0A2908DE
:1026A0002A040319762BAE01AE0AAA1B612B013056
:1026B000A935AA0D890B582B0130AD002D08AE07A6
:1026C000552B2A082C02031D672B29082B02031CFB
:1026D0006D2B2908AB022A08AC3B0130AA36A90CA5
:1026E000890B6E2B0130AE02031D612B2F080319DD
:1026F0007E2BAB09AC09AB0A0319AC0A2C08AA0063
:102700002B08A90008004001A601A11F8E2BA009DB
:10271000A109A00A0319A10AA601A60AA31F992BC1
:10272000A209A309A20A0319A30A0130A4002408DC
:10273000A606A701A801200821040319C82BA5019A
:10274000A50AA11BAD2B0130A035A10D890BA42B2F
:102750000130A4002408A507A12B0130A735A80D3E
:10276000890BAE2B21082302031DB82B200822025F
:10277000031CBF2B2008A2022108A33B2714013011
:10278000A136A00C890BC02B0130A502031DAD2B77
:1027900026080319D02BA709A809A70A0319A80A14
:1027A0002808A1002708A00008004001D30042012A
:1027B000261CE32B40015308CE004E08C3004B08F3
:1027C0009031C22093314001CD1BEB2B4D08D2003C
:1027D0004C08D100ED2BD101D201CF01D00150081E
:1027E000803ACE005208803A4E02031DF92B510860
:1027F0004F0203180D2C20304001BB000030BC00FC
:102800005308CE004E08BD009231C72293310130EB
:102810004001CF070030D03DEF2B42012618192C84
:1028200040015308CE004E08C3004B089031C2202F
:10283000933140014B08A0000330A1009F311D27B8
:10284000400151082007CB005208213DCC00080070
:102850004001A300410147186A2C02304001A20048
:10286000210886008701220881002008A20041017A
:10287000450A8600013087004001220881002308B4
:10288000A20041014508860001308700400122086E
:1028900081002108A20041014508023E8600013066
:1028A00087004001220881000330A2002208410174
:1028B000C5074508603A031D632C5D304001A20046
:1028C00022084101C500C71046084506031D702CAB
:1028D0004714702C40012108860087018101810A7C
:1028E000400121088600870102300106031D08000F
:1028F0009D3124254E010F140800A32C8230A00026
:10290000A030A1009E31DB2694318C31E12494313A
:10291000BF2C8A30A000A030A1009E31DB2694316C
:102920009D310C259431BF2C8630A000A0308C2C1A
:102930007E30A000A030A1009E31DB2694319D3175
:102940000D259431BF2C41015208860053088700A1
:1029500047310108C000C1014108003A0319B12CF8
:10296000BF2C4008093A03197E2C033A0319892C1D
:10297000013A0319942C073A0319982CBF2C4101F2
:102980006E089531B525943141015C080319D62CA8
:1029900009306E020318D12C0130C0004008EE0748
:1029A00008000930C0004008EE0008005B08031969
:1029B00008006E080319DF2C0130EE020800EE015A
:1029C000080003104001640D650DE6006608EC0088
:1029D0006C08031DF42C0030E5000030E4000030EA
:1029E000E3000030E20008006208E6006308E70048
:1029F0006408E8006508E9001F30E936E80CE70CD8
:102A0000E60C890BFD2C6608EA006A08EB00E41767
:102A1000FF30E205FF30E305FF30E4050030E50557
:102A20009630EC02EC1F272D6C08803A973E031C71
:102A3000EB2C0130E536E40CE30CE20C890B1A2D8B
:102A40000130E6006608EC070319382D192D2030F7
:102A50006C020318EB2C6C080319382D0130E23599
:102A6000E30DE40DE50D890B2F2D0130EC022B2D2C
:102A70006B0803190800E209E309E409E509E20A21
:102A80000319E30A0319E40A0319E50A08009D3152
:102A9000162595314101BE00BF01BE35BF0DEE3098
:102AA000C0002330C1003E08400786003F08413D7A
:102AB00087000108C20042084201E7009D31162547
:102AC00095314101BE00BF01BE35BF0DF030C000E1
:102AD0002330C1003E08400786003F08413D870083
:102AE0000108C20042084201E8009D3116259531D7
:102AF0004101BE00BF01BE35BF0DF230C000233022
:102B0000C1003E08400786003F08413D870001089C
:102B1000C20042084201E9009D311625953141016C
:102B2000BE00BF01BE35BF0DF430C0002330C10070
:102B30003E08400786003F08413D87000108C2006B
:102B400042084201E60069084101B90042016808F3
:102B50004101B800420167084101B700420166081F
:102B60004101B6008631182608004001B9006430E2
:102B70003902031CDE2D7930B6003608B00034303F
:102B80009F316B27953179304001B6003608B0008F
:102B900035309F316B27953179304001B6003608CA
:102BA000B00036309F316B27953179304001B60047
:102BB0003608B00037309F316B2708000A30A90073
:102BC0000030AA003908B600B7013608AB00370854
:102BD000AC0093313D23953140012A088500290836
:102BE0008400103084079830853D0008B80038080C
:102BF000B00037309F316B2795310A304001A90072
:102C00000030AA000A30A0000030A1003908B60048
:102C1000B7013608A2003708A3009331832395310A
:102C200040012108AC002008AB0093313D239531D1
:102C300040012A0885002908840010308407983054
:102C4000853D0008B8003808B00036309F316B274A
:102C500008004001A8002808031DA31F3F2E2009DB
:102C6000AA002109AB002209AC002309AD00AA0A81
:102C70000319AB0A0319AC0A0319AD0A472E23083E
:102C8000AD002208AC002108AB002008AA002308F0
:102C9000220421042004031D562E0030A30000301E
:102CA000A2000030A1000030A00008009630A4006F
:102CB0002408A900FE302D0503197D2E0130A40043
:102CC0002408A9070130AD36AC0CAB0CAA0C890B5B
:102CD000632E5A2E0130A4002408A9070130AA0748
:102CE0000030AB3D0030AC3D0030AD3D0130AD3685
:102CF000AC0CAB0CAA0C890B772EFF302D050319F9
:102D00008F2E6A2E02302902031C912E0130A90257
:102D10000130AA35AB0DAC0DAD0D890B892EAC1F62
:102D2000822E29189B2EFF30AA05FF30AB057F307D
:102D3000AC05FF30AD050310A90C2908A400A501BE
:102D4000A601A7011830A435A50DA60DA70D890B66
:102D5000A32E2408AA042508AB042608AC042708DF
:102D6000AD042808031DA31FB62EAD172D08A30020
:102D70002C08A2002B08A1002A08A000080003309C
:102D800040013702E83003193602031CEA2E79307D
:102D9000B8003808B00034309F316B279631793055
:102DA0004001B8003808B00035309F316B279631AC
:102DB00079304001B8003808B00036309F316B27B9
:102DC000963179304001B8003808B00037309F3173
:102DD0006B2708000A30A8000030A9003708AB00B4
:102DE0003608AA0091313821963140012908850022
:102DF00028088400103084079830853D0008B8000A
:102E00003808B00037309F316B2796310A304001C7
:102E1000A8000030A9000A30A0000030A100370847
:102E2000A3003608A20092315C22963140012108AD
:102E3000AB002008AA0091313821963140012908C1
:102E4000850028088400103084079830853D0008EC
:102E5000B8003808B00036309F316B2796310A3001
:102E60004001A8000030A9006430A0000030A1009B
:102E70003708A3003608A20092315C229631400147
:102E80002108AB002008AA00913138219631400179
:102E90002908850028088400103084079830853D73
:102EA0000008B8003808B00035309F316B270800A3
:102EB0004001E2005A0886008701403FDC00413FA4
:102EC000DD005C0884005D0885001200253A031DC2
:102ED000DD2F5A0886008701013081074131031830
:102EE000810A4201A201A301A601A701FF30A400AB
:102EF000FF30A50040015A0886008701403FDC00F2
:102F0000413FDD005C0884005D0885001200633AE3
:102F1000031DAB2F5A08860087010130810741311C
:102F20000318810A5B088600870101088400850177
:102F3000023081070008DC005C08E1006108DC0069
:102F40005C08D40062089131942140015508DB00EF
:102F50005408DA0008005A0886008701403FDC0068
:102F6000413FDD005C0884005D0885001200253AC1
:102F7000031DD22F5A088600870101308107413195
:102F80000318810A2530BB000030BC006208DC0059
:102F90005C08BD009231C72201304001DA000030E8
:102FA000DB0008005A0886008701013081074131A3
:102FB0000318810ADA01DB0108005A08860087013C
:102FC000403FDC00413FDD005C0884005D08850077
:102FD0000008DE00DF015E08BB005F08BC0062087D
:102FE000E0006008BD009231C722973140015A08C5
:102FF000860087010130810741310318810ACC2FF7
:10300000003482342134003400340034003402347B
:1030100039340F3400340034003440348034003408
:103020003F3406345B344F3466346D347D340734BA
:103030007F346F3400340034003448340034533467
:10304000003477347C3439345E34793471346F34FD
:10305000763406341E3400343834003454343F346B
:103060007334673450346D3478343E340034003473
:1030700000346E340034393400340F3400340834F2
:1030800063345F347C3458345E347B3471346F3451
:10309000743402341E3400340634003454345C3446
:1030A0007334673450346D3478341C340034003455
:1030B00000346E340034393430340F34003400348A
:103A120008000800080008000800080008009F319C
:103A2200052708004E018F100800410169080800AF
:103A32004101580808004101D501D50A0800420198
:103A42001D121D1608004101650803190800242DE6
:103A520001304201B8070030B93D0800013400349A
:103A62000A3400349034063429304001A0001D305D
:103A7200A1009D31692508004101CB01CC01CD0196
:103A8200CA01400194120800400121084201ED00E0
:103A9200400120084201EC000800400121084101D8
:103AA2008F004001200841018E0008004001A00063
:103AB200200841019F0042019117111408004201A0
:103AC20039084001A100420138084001A000080065
:103AD200400121084201EF00400120084201EE00AE
:103AE2000800410156080319792DD601013008005A
:103AF20000300800400121084301EB00400120088A
:103B02004301EA000800400121084401E5004001A8
:103B120020084401E4000800400121084301E900B3
:103B2200400120084301E800080040012108440147
:103B3200E700400120084401E6000800603051011E
:103B42008D008F01910106309300920108004F0110
:103B520096019701980199019A019B019C019D018F
:103B620008008C3046018E008D018C0144011E0834
:103B7200FC3901389E0008008C3046019200910108
:103B8200900144011E08F33904389E0008008C306D
:103B9200460196009501940144011E08CF39103860
:103BA2009E0008008C3046019A0099019801440158
:103BB2001E083F3940389E00080041014D08B900F7
:103BC2004C08B8004B08B7004A08B60086311826E0
:103BD20008006400800101310130FE020030FF3B29
:103BE2007F087E0403190034EB2DFE0012001E0034
:103BF2000130FE020030FF3B7F087E0403190034CF
:103C0200F72D4E018D1042016C086D040319080056
:103C12006D088A006C080A009E3108004E018C1261
:103C220042016E086F04031908006F088A006E08CB
:103C32000A009E3108000130450190008F01910178
:103C4200FF308D008C014E019010F03045018E0046
:103C520008004001A0002008073E860003308700CC
:103C620003300106031D372E013008000030080022
:103C7200410169036A04031D432E0030E90002304A
:103C8200EA0008000130E9020030EA3B0800023095
:103C920041016A066904031D532E0130E900003018
:103CA200EA0008000130E9070030EA3D080004306C
:103CB200F7007708F20701304101E402031D662E86
:103CC2000430F7007708E5000800E501E50A08007E
:103CD200400112157E013811391540011414941453
:103CE20014157E014E10CE104E114F14CF144F15E5
:103CF20008004001B8003608E03E840097300318FF
:103D0200013E85000008B7003708B0003808343E8D
:103D12009F316B270800C4304001A0001130A10080
:103D22009D317B259E3141016A084001B700410166
:103D320069084001B6008A316F2208004001A000E4
:103D42002008073E8600033087000103031DB12EC1
:103D52002008073E860003308700810101300800F9
:103D62000030080045304B019F00F9309D009C0156
:103D72004E018C1296160B304001A0001D30A1009E
:103D82009D31692580304B019E00080001309E3133
:103D9200F0269E3179304101A000A030A1009E3171
:103DA200DB269E3147304101A000A030A1009E31A8
:103DB200DB260800A2304001EB006B08EE00410157
:103DC20021084001E400410120084001E3006E3077
:103DD200EB006B08E50000309131652108004001DD
:103DE200B60036080319FE2EB001B00A24309F3106
:103DF2006B274201BE01BE0A0800B00124309F3188
:103E02006B274201BE01080042011908F70074083D
:103E1200203E860002308700770881000130F700DB
:103E22007708F407083074020318F4010130F70030
:103E320077084101E607080040012108A400200894
:103E4200A3002008840021088500120003192E2FE8
:103E52000130A0070030A13D222F23082002A0003C
:103E62002408213BA1000800F80043011115710844
:103E7200023E860001308700010803194C2F7808A2
:103E8200F7007108023E86000130870001088600B3
:103E92008701770881004101E50108005D3040019A
:103EA200A00020084101C6005D304001A0002008AA
:103EB2004101C500C7144710C90143018F012830D1
:103EC200900092014F308D004E010F108F10191487
:103ED200991408004001B4000230B1003108B50065
:103EE200A701A70A3408B100B2013108A8003208BC
:103EF200A9003530B3003308AA00303091310E21C9
:103F02009F31023040013506031D0800822F003028
:103F12004101210280300319200203180800FF30FA
:103F2200A0050330A10546010E1E9D2F063041015A
:103F3200A035A10D890B992F4101210846018D0061
:103F42004101200846018C00080000304101210295
:103F520080300319200203180800FF30A005033047
:103F6200A1054601121EBB2F06304101A035A10D4D
:103F7200890BB72F41012108460191004101200818
:103F820046019000080000304101210280300319EF
:103F9200200203180800FF30A0050330A1054601E6
:103FA200161ED92F06304101A035A10D890BD52F40
:103FB2004101210846019500410120084601940073
:103FC2000800003041012102803003192002031849
:103FD2000800FF30A0050330A10546011A1EF72F85
:103FE20006304101A035A10D890BF32F41012108B3
:103FF2004601990041012008460198000800253435
:1040020063342534633425346334253463340D3406
:104012000034253463342534633425346334203446
:104022000D3400342034253463342534633425348C
:1040320063340D34003448344534593459345934D6
:1040420059345934593400342534633425346334B3
:10405200203420340D3400342034203425346334A9
:10406200253463340D340034253463342034203451
:1040720020340D3400342034203420342534633489
:104082000D34003420342034203420340D340034F4
:1040920042342034203420340D340034433420346C
:1040A200203420340D34003450344334203420344E
:1040B2000D3400344C344534443420340D3400344F
:1040C20041344E34493420340D34003441344C34BC
:1040D2004C3420340D3400344634413444344534B5
:1040E2000D34003442344534413454340D340034F8
:1040F2002034203420342034003441342D340D3423
:10410200003442342D340D34003443342D340D3414
:10411200003446342D340D34003464340D3400340C
:020000040001F9
:0A000E00EC3FFF3F9F3FFF3FFF3F25
:00000001FF
