:020000040000FA
:1000000080313028003008007E1480314E01961A6D
:100010008C1E0E289F31482780312E280B1F2E283A
:1000200099188F1C17289E31592680312E281918AF
:100030000F1C1E288E31AE2680312E2897188D1C5D
:1000400025289F313B2780312E28991A8F1E2E2874
:1000500043016F088A006E080A0080317E10090093
:1000600080313228E33084009E308500E7308600FE
:10007000003087000030FF0009309F312F2780318A
:100080006B3084009E308500673086000130870029
:100090000030FF0005309F312F278031EE30840083
:1000A000233085000230FE000430FF009F312327FB
:1000B0008031F001F101F201F301F401F501F601E3
:1000C000A0308400003085002930FE000030FF00A1
:1000D0009F31232780312030840001308500473054
:1000E000FE000030FF009F3123278031A0308400C4
:1000F000013085004E30FE000030FF009F31232785
:10010000803120308400023085004430FE00003011
:10011000FF009F3123278031A0308400023085000A
:100120003E30FE000030FF009F3123278031203019
:100130008400033085002030FE000030FF009F3136
:1001400023277E1040019431532C40014B08803905
:10015000D0005008D5004B35D0005008DB00CA1B3A
:100160005B145B080319C1285B0A031DBF2800301C
:10017000CB000030CA000030C9000030C800CA17E8
:10018000C9280030CB000030CA000030C900003060
:10019000C8004F088039D0005008D5064F35D00030
:1001A0005008D600CE1B561456080319E428560AE8
:1001B000031DE2280030CF000030CE000030CD001B
:1001C0000030CC00CE17EC280030CF000030CE003D
:1001D0000030CD000030CC005608031D5B08031D25
:1001E000FA280030CB000030CA000030C9000030CF
:1001F000C80008004808D0005008A0004E089131FF
:100200008D21803140012108E1002008E0006008D4
:10021000D000D101D201D3015308DA005208D9002D
:100220005108D8005008D7006108D000D101D20190
:10023000D3015308DF005208DE005108DD005008EA
:10024000DC004908D0005008A0004D0891318D21F4
:10025000803140012108E1002008E0006008D00062
:10026000D101D201D3015008D7075108D83D520817
:10027000D93D5308DA3D6108D000D101D201D30144
:100280005008DC075108DD3D5208DE3D5308DF3DD4
:100290004A08D0005008A0004C0891318D218031CF
:1002A00040012108E1002008E0006008D000D101F1
:1002B000D201D3015008D7075108D83D5208D93D83
:1002C0005308DA3D6108D000D101D201D3015008B2
:1002D000DC075108DD3D5208DE3D5308DF3D0830A4
:1002E000D735D80DD90DDA0D890B70294908D00002
:1002F0005008A0004C0891318D2180314001210827
:10030000E1002008E0006008D7076108D83D003010
:10031000D93DDA3D4808D0005008A0004D08913181
:100320008D21803140012108E1002008E0006008B3
:10033000D7076108D83D0030D93DDA3D0830D735C0
:10034000D80DD90DDA0D890B9F294808D000500827
:10035000A0004C0891318D21803140012108E1003D
:100360002008E0006008D7076108D83D0030D93D7B
:10037000DA3D4908D0005008A0004E0891318D2187
:10038000803140012108E1002008E0006008DC071E
:100390006108DD3D0030DE3DDF3D4A08D0005008F9
:1003A000A0004D0891318D21803140012108E100EC
:1003B0002008E0006008DC076108DD3D0030DE3D1C
:1003C000DF3D4A08D0005008A0004E0891318D2131
:1003D000803140012108E1002008E0006008D000E1
:1003E0006108D100D201D3010830D035D10DD20D32
:1003F000D30D890BF5295008DC075108DD3D520863
:10040000DE3D5308DF3D5708D0005808D100590899
:10041000D2005A08D3001830D336D20CD10CD00CED
:10042000890B0C2A5008DC075108DD3D5208DE3DDF
:100430005308DF3D0830D735D80DD90DDA0D890BBB
:100440001B2A5B085607D000D101D10D5008823E0F
:10045000E000FF30513DE100DE1B432A0130DC3576
:10046000DD0DDE0DDF0D890B2F2ADA1B5C14013048
:10047000D735D80DD90DDA0D890B382AFF30E007B2
:10048000FF30E13D2C2AD601DA1F5C2AFF305705E8
:10049000D000FF305805D100FF305905D2007F3021
:1004A0005A05D300530852045104500403195C1830
:1004B0005A2A5C2AD601D60A56080319852A013021
:1004C000DC070030DD3D0030DE3D0030DF3D5F1CED
:1004D000852A5C08D0005D08D1005E08D2005F0864
:1004E000D3000130D400D337D20CD10CD00CD40BB4
:1004F000732A5308DF005208DE005108DD0050085F
:10050000DC000130E0070030E13D6108803AD000B6
:1005100080305002031D8E2AFF306002031C9A2A8D
:100520007F304001DF008030DE000030DD00003031
:10053000DC00C42A40016108803AD00080305002BB
:10054000031DA42A013060020318B12A00304001C3
:10055000DF000030DE000030DD000030DC00D501BF
:10056000C42A40016008D0005008DB00FF30DC05E1
:10057000FF30DD057F30DE050030DF055B18DE175C
:100580005B36D0005008DF005508D0005008DF046B
:100590005F08CB005E08CA005D08C9005C08C8009F
:1005A000080050304201DA000130DB00DC30DC00B2
:1005B0000130DD00D230DE000130DF00E1015A30D1
:1005C0004001A00020084201E0004630D000013088
:1005D000D1005A30D2000130D300C830D4000130ED
:1005E000D500D701D70A50304001A00020084201B1
:1005F000D600DC30C6000130C7005030C8000130E2
:10060000C900AA30CA000130CB0002304001A0006E
:1006100020084201CD0046304001A00020084201E0
:10062000CC005A304301DC000130DD004630DE00F2
:100630000130DF00A030E0000130E1000330400174
:10064000A00020084301E300DC304001A0002008A6
:100650004301E200D201D301D401D501D601D70173
:10066000B330DA000930DB0004304001A00020087C
:100670004301D9005A304001A00020084301D800AE
:10068000BE30C8000130C9005030CA000230CB0073
:100690004630CC000230CD0005304001A0002008DB
:1006A0004301CF0050304001A00020084301CE009C
:1006B0005A30BE000230BF00C830C0000130C10057
:1006C000D430C2000230C30006304001A000200830
:1006D0004301C50050304001A00020084301C40080
:1006E00050304401DA000230DB00BE30DC00013063
:1006F000DD00CA30DE000230DF0007304001A0001C
:1007000020084401E10050304001A00020084401CD
:10071000E000C830D0000130D1005A30D2000230A1
:10072000D300C030D4000230D50008304001A00012
:1007300020084401D70050304001A00020084401A7
:10074000D600AA304301B4000130B500AA30B6008B
:100750000130B700B801B9015330BC001E30BD00F4
:1007600012304001A00020084301BB004630400188
:10077000A00020084301BA00B430AA000130AB0049
:10078000B430AC000130AD00AE01AF015330B20067
:100790001E30B30011304001A00020084301B10019
:1007A00046304001A00020084301B0003C30A000CA
:1007B0000230A1002830A2000230A300A401A5014C
:1007C0001730A8001F30A9000D304001A0002008FC
:1007D0004301A70032304401BC000230BD00A0300C
:1007E000BE000130BF00C001C1011730C4001F307E
:1007F000C5000E304001A00020084401C30028308D
:10080000B2000230B3003C30B4000230B500B60193
:10081000B7011730BA001F30BB000F304001A000F5
:1008200020084401B900A030A8000130A9003230EE
:10083000AA000230AB00AC01AD011730B0001F3090
:10084000B10010304001A00020084401AF00C601F3
:10085000C701C801C901CA01CB01D530CE000C3097
:10086000CF0009304001A00020084401CD0045011F
:10087000D401D501D601D701D801D901D530DC008A
:100880000C30DD000A304001A00020084501DB00EB
:10089000CA01CB01CC01CD01CE01CF01D530D200B0
:1008A0000C30D3000B304001A00020084501D100DE
:1008B000C001C101C201C301C401C501D530C800D6
:1008C0000C30C9000C304001A00020084501C700D1
:1008D0000800400135088039B6003608BF003535BC
:1008E000B6003608C600B41B461446080319862C09
:1008F000460A031D832C0030B5000030B4000030E0
:10090000B3000030B200B417B5018E2C0030B50032
:100910000030B4000030B3000030B200310880393C
:10092000B6003608BF063135B6003608C700B01B22
:10093000471447080319AA2C470A031DA72C0030A7
:10094000B1000030B0000030AF000030AE00B01792
:10095000B101B22C0030B1000030B0000030AF0067
:100960000030AE00310830042F042E04031DD12CBA
:100970000030B5000030B4000030B3000030B200E9
:100980008030B4047F30B5043F08B6003608B504A3
:100990003508B1003408B0003308AF003208AE00AB
:1009A00008004608031DDD2C0030B1000030B00007
:1009B0000030AF000030AE0008004608B600B701B6
:1009C0003708B90047083602B800031CB9033808D5
:1009D0007F3EC0000030393DC1003508BE003408FC
:1009E000BD003308BC003208BB000030B500003049
:1009F000B4000030B3000030B2000030C500003059
:100A0000C4000030C3000030C200C7011A304702E2
:100A10000318422D47080319242D0130BB35BC0DA6
:100A2000BD0DBE0D890B0E2D0130B235B30DB40DC9
:100A3000B50D890B152DC51B32140130C235C30D00
:100A4000C40DC50D890B1E2D31083E02031D322D2C
:100A500030083D02031D322D2F083C02031D322DAC
:100A60002E083B02031C3D2D45172E08BB022F0804
:100A7000BC3B3008BD3B3108BE3B0130B6003608F8
:100A8000C707062D3E083D043C043B04031D4214E9
:100A9000B41B5F2D0130B235B30DB40DB50D890B0C
:100AA0004B2DC51B32140130C235C30DC40DC50D0D
:100AB000890B542DFF30C007FF30C13D482DC701C1
:100AC000C51F782DFF304205B600FF304305B70043
:100AD000FF304405B8007F304505B90039083804B7
:100AE0003704360403193218762D782DC701C70A4A
:100AF00047080319A12D0130B2070030B33D003083
:100B0000B43D0030B53D351CA12D3208B600330888
:100B1000B7003408B8003508B9000130BA00B93759
:100B2000B80CB70CB60CBA0B8F2D3908B5003808C5
:100B3000B4003708B3003608B2000130C0070030F7
:100B4000C13D4108803AB60080303602031DAA2D0F
:100B5000FF304002031CB92DFF304001C0000030BF
:100B6000C1000030B5000030B4000030B3000030E8
:100B7000B20040014108803AB60080303602031DC1
:100B8000C32D013040020318D12D4001C001C10125
:100B90000030B5000030B4000030B3000030B200C7
:100BA000BF0140014008B6003608C600461CDA2DD9
:100BB000B417DE2D7F30B6003608B4054636B600D1
:100BC0003608B500C42C41016F08031D0800530806
:100BD000D600D701D801D90159084001A30041012D
:100BE00058084001A200410157084001A1004101FD
:100BF00056084001A000013097316A278531400135
:100C00002308B5002208B4002108B3002008B20070
:100C10004330B1007F30B0000030AF000030AE0094
:100C200084316924853140013108CF003008CE007D
:100C30002F08CD002E08CC004230CB00FE30CA0079
:100C40000030C9000030C8008031A5208531400146
:100C50004B08E5004A08E4004908E3004808E200C0
:100C600088310B20853140016308EE006208ED00F9
:100C70009031F520853141015408D600D701D801C3
:100C8000D90159084001A300410158084001A200C0
:100C9000410157084001A100410156084001A00050
:100CA000013097316A27853140012308B5002208B9
:100CB000B4002108B3002008B2004330B1007F30F7
:100CC000B0000030AF000030AE00843169248531BF
:100CD00040013108CF003008CE002F08CD002E088B
:100CE000CC004230CB00FE30CA000030C9000030DA
:100CF000C8008031A520853140014B08E5004A0835
:100D0000E4004908E3004808E20088310B208531FF
:100D100040016308EE006208ED0091311321853136
:100D200041015508D600D701D801D9015908400121
:100D3000A300410158084001A200410157084001A9
:100D4000A100410156084001A000013097316A27F7
:100D5000853140012308B5002208B4002108B30002
:100D60002008B2004330B1007F30B0000030AF0047
:100D70000030AE0084316924853140013108CF0054
:100D80003008CE002F08CD002E08CC004230CB001A
:100D9000FE30CA000030C9000030C8008031A520F4
:100DA000853140014B08E5004A08E4004908E300AA
:100DB0004808E20088310B20853140016308EE00CD
:100DC0006208ED0091313121853141015208D60090
:100DD000D701D801D90159084001A30041015808A1
:100DE0004001A200410157084001A10041015608FD
:100DF0004001A000013097316A2785314001230866
:100E0000B5002208B4002108B3002008B200433026
:100E1000B1007F30B0000030AF000030AE00843150
:100E20006924853140013108CF003008CE002F08F9
:100E3000CD002E08CC004230CB00FE30CA0000307E
:100E4000C9000030C8008031A520853140014B0821
:100E5000E5004A08E4004908E3004808E200883158
:100E60000B20853140016308EE006208ED009131EE
:100E70004F21080027304001370210300319360295
:100E8000031C652F7930B8003808B0003430903139
:100E9000D820873179304001B8003808B0003530AB
:100EA0009031D820873179304001B8003808B0003F
:100EB00036309031D820873179304001B800380879
:100EC000B00037309031D82008000A30A800003038
:100ED000A9003708AB003608AA0092318E2287316C
:100EE00040012908850028088400103084079830C4
:100EF000853D0008B8003808B00037309031D82060
:100F000087310A304001A8000030A9000A30A00053
:100F10000030A1003708A3003608A2009331B123A6
:100F2000873140012108AB002008AA0092318E22AF
:100F30008731400129088500280884001030840783
:100F40009830853D0008B8003808B0003630903140
:100F5000D82087310A304001A8000030A900643051
:100F6000A0000030A1003708A3003608A20093318A
:100F7000B123873140012108AB002008AA0092313B
:100F80008E2287314001290885002808840010300E
:100F900084079830853D0008B8003808B000353027
:100FA0009031D82087310A304001A8000030A900D4
:100FB000E830A0000330A1003708A3003608A200E3
:100FC0009331B123873140012108AB002008AA00EA
:100FD00092318E228731400129088500280884003B
:100FE000103084079830853D0008B8003808B000FC
:100FF00034309031D820080042011D121D1608001F
:101000008C3046019A009901980144011E083F392D
:1010100040389E00080003104001640D650DE60095
:101020006608EC006C08031D1E280030E500003047
:10103000E4000030E3000030E20008006208E6004F
:101040006308E7006408E8006508E9001F30E93636
:10105000E80CE70CE60C890B27286608EA006A080A
:10106000EB00E417FF30E205FF30E305FF30E40555
:101070000030E5059630EC02EC1F51286C08803AF0
:10108000973E031C15280130E536E40CE30CE20C16
:10109000890B44280130E6006608EC070319622832
:1010A000432820306C02031815286C0803196228A5
:1010B0000130E235E30DE40DE50D890B59280130CF
:1010C000EC0255286B0803190800E209E309E4095A
:1010D000E509E20A0319E30A0319E40A0319E50A18
:1010E0000800033040013702E83003193602031CC0
:1010F0009C287930B8003808B00034309031D820BE
:10110000883179304001B8003808B000353090316E
:10111000D820883179304001B8003808B000363026
:101120009031D820883179304001B8003808B000BB
:1011300037309031D82008000A30A8000030A900CC
:101140003708AB003608AA0092318E228831400160
:101150002908850028088400103084079830853DD0
:101160000008B8003808B00037309031D8208831F6
:101170000A304001A8000030A9000A30A000003069
:10118000A1003708A3003608A2009331B1238831AB
:1011900040012108AB002008AA0092318E2288313C
:1011A0004001290885002808840010308407983001
:1011B000853D0008B8003808B00036309031D8209E
:1011C00088310A304001A8000030A9006430A00036
:1011D0000030A1003708A3003608A2009331B123E4
:1011E000883140012108AB002008AA0092318E22EC
:1011F00088314001290885002808840010308407C0
:101200009830853D0008B8003808B000353090317E
:10121000D82008004001E2005A0886008701403FBC
:10122000DC00413FDD005C0884005D0885001200A1
:10123000253A031D90295A0886008701013081074D
:1012400041310318810A4101A901AA014201AC01FF
:10125000AD01FF30AA00FF30AB0040015A08860004
:101260008701403FDC00413FDD005C0884005D08F1
:1012700085001200633A031D5E295A088600870123
:101280000130810741310318810A5B08860087011C
:10129000010884008501023081070008DC005C0839
:1012A000E1006108DC005C08D40062089231EA22A7
:1012B00040015508DB005408DA0008005A0886008F
:1012C0008701403FDC00413FDD005C0884005D0891
:1012D00085001200253A031D85295A0886008701DA
:1012E0000130810741310318810A2530BB000030ED
:1012F000BC006208DC005C08BD0094311C24013095
:101300004001DA000030DB0008005A08860087013F
:101310000130810741310318810ADA01DB0108003D
:101320005A0886008701403FDC00413FDD005C0831
:1013300084005D0885000008DE00DF015E08BB0058
:101340005F08BC006208E0006008BD0094311C2406
:10135000893140015A0886008701013081074131F7
:101360000318810A7F2982304101C900A030CA00D8
:1013700090311B2089319E315C2689314101D30097
:10138000D40153084001B600410154084001B700A0
:10139000883171208931410140089F3163278931AB
:1013A000003A0319222A9E319B26893141012D08DA
:1013B000400120024101D3002E084001213B4101A0
:1013C000D40054086A02031DE72953086902031870
:1013D000222A9F3181278931062A9E319B26893115
:1013E00041012D08400120024101D3002E08400197
:1013F000213B4101D40054086A02031D012A53080D
:10140000690203182A2A9F31722789319E319B264F
:101410008931400121084101AE004001200841010D
:10142000AD006A08803AD30080305302031D1A2AA7
:1014300015306902031C0800FF304101E907FF3045
:10144000EA3D080041013F089F3163278931003A96
:10145000031DED2941013E089F3163278931003A80
:101460000319382A01304101EB000030EC0008007C
:1014700041013D0803194A2A9F31812789319E3154
:101480009B26400121084201BB0040012008420187
:10149000BA0008003C080319502A9F31722708003F
:1014A0003D08031D3C08031D08003F089F316327CA
:1014B0008931003A031D0800410140089F3163272C
:1014C0008931003A031D080064304101E900003011
:1014D000EA000800022B9631202608008031022005
:1014E0008A31003A0319882A4101C901CA01CB0196
:1014F0000030963183268A3141014C08D5004B08D3
:10150000D4004A08D3004908D2008531E3250800F9
:101510008C31D5240800803102208A31003A031929
:10152000A52A4101C901CA01CB01003096318326A9
:101530008A3141014C08D5004B08D4004A08D30039
:101540004908D2008531E32508009E315526080060
:10155000803102208A31003A0319C22A4101C901AF
:10156000CA01CB010030963183268A3141014C08F3
:10157000D5004B08D4004A08D3004908D200853171
:10158000E32508009E3154260800803102208A316C
:10159000003A0319DF2A4101C901CA01CB01003019
:1015A000963183268A3141014C08D5004B08D4007E
:1015B0004A08D3004908D2008531E325080090315C
:1015C00000200800803102208A31003A0319FC2AE9
:1015D0004101C901CA01CB010030963183268A310D
:1015E00041014C08D5004B08D4004A08D3004908F3
:1015F000D2008531E32508009E31532608009F3133
:10160000172708009E315F268A314101E300E4017B
:101610006408003A03190D2B242B6308003A0319C0
:101620006B2A013A03196E2A033A0319E22A013A96
:101630000319FF2A073A03198B2A013A0319A82A2A
:10164000033A0319C52A242B08009E319B268B31AF
:101650004201340840012002A8004201350840013F
:10166000213BA90042016A0840012902031D3C2BCD
:101670004201690840012802031C08009E319B2694
:101680008B31400121084201B50040012008420190
:10169000B40041013203031D532B01304201B20754
:1016A0000030B33D5A2B4201B201B3011E30E900B4
:1016B0000030EA0041013203031DA12B3108031D54
:1016C000A12BB301B30A32304201E9000030EA0035
:1016D0009E319B268B314201380840012002AA002E
:1016E000420139084001213BAB009E319B268B31E2
:1016F000400121084201B900400120084201B80020
:10170000003040012B02963003192A0203188E2B59
:1017100090304201B6000130B700A12B2B08A10088
:101720002A08A0006030A200EA30A3009331B12360
:101730008B31400121084201B700400120084201DD
:10174000B600410132084001A80028084101B1005B
:10175000B20142013308803A4001A80080302802DB
:10176000031DB52B043042013202031CD42B01307F
:101770004101E7070030E83D68084001A100410150
:1017800067084001A0009E3189268B314201B201D9
:10179000B3019E319B26400121084201B90040015E
:1017A00020084201B80008009E319B268B3142017F
:1017B000380840012002A800420139084001213BBD
:1017C000A90003302902E93003192802031C08008C
:1017D00001304101E7020030E83B68084001A10008
:1017E000410167084001A0009E318926080041019F
:1017F0006F03031D002C5A30AF000130B000EF0121
:1018000040089F31D8278B314101DC005C08BD00C6
:101810003F089F31D8278B314101DC005C08BC00B8
:1018200041089F31D8278B314101DC005C08BB00A7
:101830003E089F31D8278B314101DC005C08BA009B
:101840003B0803192C2C2F088600300887004631EE
:101850000108AF000130682C3D0803193F2C2F0808
:101860008600300887001600010403193F2C2F085A
:10187000860030088700403FAF00413F682C3C089D
:101880000319542C2F0886003008870042311600B7
:1018900001040319542C2F088600300887004231B8
:1018A000403FAF00413F682C3A080319AD2C2F0888
:1018B0008600300887004431160001040319AD2C5E
:1018C0002F088600300887004431403FAF00413F79
:1018D000B000AD2C5530C900A030CA0090311B209B
:1018E00008007330C900A030CA0090311B200800E6
:1018F0006130C900A030CA0090311B2008005B3065
:10190000C900A030CA0090311B2008004930C9002E
:10191000A030CA0090311B2008006D30C900A030F3
:10192000CA0090311B2008004F30C900A030CA0007
:1019300090311B2008006730C900A030CA009031E8
:101940001B2008002F088600300887004831413FDF
:101950008A00403F0A008C3108002F0886003008BA
:10196000870047310108DC00DD015D08003A0319FA
:10197000BA2CA22C5C08003A03196A2C013A03190C
:10198000712C033A0319782C013A03197F2C063A7B
:101990000319862C033A03198D2C013A0319942C50
:1019A0000F3A03199B2CA22C08007E304101C9007C
:1019B000A030CA0090311B208C3105309631F626BC
:1019C0008C319E319B268C3142012E084001200231
:1019D0004101DA0042012F084001213B4101DB00B7
:1019E00000305B02323003195A02031C08009E319A
:1019F0009B268C31400121084201AF0040012008A4
:101A00004201AE0040019A129E31AD268C31410157
:101A1000DA005A084001EF006F08031D9A166F089C
:101A2000031D262D4101C901CA01CB0100309631A9
:101A300083268C3141014C08D5004B08D4004A085C
:101A4000D3004908D2008531E325080041012B036A
:101A50002C04031D692DC901512DC901492DC9014E
:101A6000C90ACA01CA0ACB01542DC901C90A402DAD
:101A7000C901C90A452DC901CA01CA0A522DC901A5
:101A8000CA01CA0ACB014D2DC901CA014B2DC9019A
:101A9000C90ACA01CA0ACB01CB0A0130552DC901B6
:101AA000C90ACA01CB01CB0A0030963183268C319A
:101AB00041014C08D5004B08D4004A08D30049081E
:101AC000D2008531E32501304101AB070030AC3D48
:101AD000080002302B062C0403194F2D03302B066F
:101AE0002C0403192F2D04302B062C0403192D2D43
:101AF00005302B062C0403192F2D06302B062C0441
:101B00000319352D08302B062C040319382D093004
:101B10002B062C0403194F2D0A302B062C04031915
:101B20003B2D0B302B062C0403193F2D0C302B06BC
:101B30002C040319442D0D302B062C040319472DBA
:101B40000E302B062C0403194F2DC901C90ACA01F6
:101B5000CA0ACB01CB0A0030963183268C31410171
:101B60004C08D5004B08D4004A08D3004908D200DD
:101B70008531E32501304101AB000030AC000800A5
:101B80009E319B268D3140012108A7002008A60028
:101B90004201400840012602A200420141084001E2
:101BA000273BA300003023020A3003192202031C42
:101BB000080027084201C100400126084201C00078
:101BC0004001A5012508A2000230A235FF3E031DF9
:101BD000E52D2235A03EA3002308A8002808860092
:101BE00002308700403FA200413FA3002208860048
:101BF000230887000130A4002808023E8400023038
:101C00008500000A042EA435890B032E2408010543
:101C1000031D232E2808033E860002308700810121
:101C2000810A2808073E8600023087000108031D4C
:101C3000292E2808053E8600023087002608C03F6E
:101C40002708C13F292E2808033E8600023087005E
:101C500081012808033E8600023087000108031D29
:101C6000412E2808043E8600023087000103031D30
:101C7000412E2808073E8600023087008101810A34
:101C8000972E2808033E8600023087000103031DBB
:101C9000782E2808043E8600023087000103031DC9
:101CA000782E2808053E860002308700403F260235
:101CB000A200413F273BA30000302302C930031993
:101CC0002202031C652E03306F2E2808073E860073
:101CD00002308700033001060319972E0230A2005C
:101CE0002808073E86000230870022088100972ED0
:101CF0002808033E8600023087000108031D972E46
:101D00002808043E8600023087000103031D972E39
:101D10002808073E86000230870003300106031DB5
:101D2000972E2808073E8600023087008101280888
:101D3000033E8600023087000108A2002808043E06
:101D4000860002308700220881000130A2002208AC
:101D5000A5070430250203180800E22D4E010F10DC
:101D60004301901FD32F90134101C6017108023E19
:101D70008600013087000108860087018101810A01
:101D8000F1010800A21808002108F9007908F10003
:101D900021088600013087000108F9007908C50094
:101DA00021088600013087000130413FF2000330F6
:101DB000F9007908A1072108673A031DE32E643072
:101DC000F9007908A1002210210820060319A214A5
:101DD000430111140230F90079084101C6000800DE
:101DE0007C2F4301111FFD2E0130F90079084101BC
:101DF000A40704309031A22008007608FA00750884
:101E0000F900FA36F90C79088C00751C0D2F0B308F
:101E1000F90079084101C60008000330F90079088B
:101E20004101C60008004301111F1F2F0130F900B6
:101E300079084101A40704309031A22008009114D0
:101E40007608FA007508F9007A08F900FA010630F8
:101E50007905FB0000307A05FC00F0307B04F500CA
:101E600000307C04F60075144101C201C20AEA2E5A
:101E700042030319512F7208860001308700403F4A
:101E8000F500413FF60072088600013087000130FE
:101E9000433FC40072088600013087000130423F92
:101EA000C300750843018C00751C0D2F0530F90027
:101EB00079084101C60008004301111F6A2F013053
:101EC000F90079084101A40743011113053090314D
:101ED000A220080001304101C302430A031D7F2FE5
:101EE0000430F9007908F2070130C502031D7C2F88
:101EF00000309031A220080043019114EA2E4408DA
:101F000086008701010843018C000130F90079083F
:101F10004101C40708004301111F992F0130F90046
:101F200079084101A40704309031A2204301111324
:101F3000080091150830F90079084101C600080031
:101F40000830F9007908C6004301911508004301E3
:101F50000C08F900410144088600870179088100D6
:101F60000130F9007908C4070130C3020319C02FFA
:101F7000430191120630F90079084101C600C42FCF
:101F8000430191169F31912743011116080000303B
:101F90009031A22008000130F9007908A40706302A
:101FA0009031A220080041014608F900FA017A08A0
:101FB000003A0319DC2FCB2F7908003A0319C22EFF
:101FC000013A0319F02E033A0319382F013A031985
:101FD0005C2F073A0319C72F013A03198B2F033AD5
:101FE0000319A02F013A0319C72F0F3A0319A72F7E
:101FF000023A0319F12E013A0319132FCB2F0800CF
:10200000080001304201BE070030BF3D080001302A
:1020100090313020903179304101C900A030CA00A0
:1020200090311B20903147304101C900A030CA00D7
:1020300090311B200800CB304001EB006B08EE0014
:1020400041014A084001E400410149084001E30020
:102050006E30EB006B08E50000309231BB220800C7
:102060004001B600360803193E28B001B00A2430FA
:102070009031D8204201C401C40A0800B0012430C4
:102080009031D8204201C401080000304001A30073
:102090000030A2000030A1008D30A0000030973148
:1020A0006A2740012308B1002208B0002108AF00D0
:1020B0002008AE000800410168084001A10041016C
:1020C00067084001A0009E318926903162304001AE
:1020D000A0001E30A1009E31802690310F309E312D
:1020E0009226080042011908F7007408203E860075
:1020F00002308700770881000130F7007708F40785
:10210000083074020318F4010130F7007708410128
:10211000C807080040012108A4002008A3002008E7
:10212000840021088500120003199B280130A007B4
:102130000030A13D8F2823082002A0002408213B65
:10214000A1000800F800430111157108023E860045
:102150000130870001080319B9287808F7007108D1
:10216000023E86000130870001088600870177085B
:1021700081004101C601080064304001A000200830
:102180004101A10064304001A00020084101A000ED
:10219000A2142210A40143018F0128309000920163
:1021A0004F308D004E010F108F1019149914080034
:1021B0004001B4000230B1003108B500A701A70A00
:1021C0003408B100B2013108A8003208A900353046
:1021D000B3003308AA0030309231642290310230CB
:1021E00040013506031D0800EF28003040016E0253
:1021F000803003196D0203180800FF30ED0503302D
:10220000EE0546010E1E0A2906304001ED35EE0DA1
:10221000890B062940016E0846018D0040016D08BA
:1022200046018C000800003040016E028030031926
:102230006D0203180800FF30ED050330EE0546017E
:10224000121E282906304001ED35EE0D890B242998
:1022500040016E084601910040016D084601900062
:102260000800003040016E02803003196D0203182F
:102270000800FF30ED050330EE054601161E462925
:1022800006304001ED35EE0D890B422940016E0804
:102290004601950040016D08460194000800003099
:1022A00040016E02803003196D0203180800FF30F0
:1022B000ED050330EE0546011A1E64290630400183
:1022C000ED35EE0D890B602940016E08460199003D
:1022D00040016D084601980008004001A400240850
:1022E0008600023087002008C03F2108C13F220835
:1022F000A3002408023E86000230870023088100E4
:102300002408033E86000230870081012408073E2E
:10231000860002308700810108004001A800A40166
:10232000A5012008A200A3012208A6002308A700F7
:10233000281C9E292608A4072708A53D0130A6359C
:10234000A70D890B9F290310A80C2808031D9829A5
:102350002508A1002408A00008004001A6002308C9
:10236000A5002208A400A435A50D2608860001308A
:1023700087002408C03F2508C13F2108A400260883
:10238000023E860001308700240881002008A40056
:102390002608033E860001308700240881000800DB
:1023A0004001BA000430410134020318DE290D3027
:1023B00040013A06031D3A08031DE0294101B4011A
:1023C0000D3040013A06031908003A08B9003908EF
:1023D000B600410134089F31B32701304001B900F4
:1023E00039084101B40708009E31EC269131933140
:1023F0007E2391319E31DA2691319031BC2091318A
:102400009E31F62691319F310127913192313E2242
:1024100091318831002091319F310C2791319F31CA
:10242000552791319F31EC27913193314B2308008F
:102430004001CA00C801C90148084A07C40044084D
:102440008600033087000108C5004508C70047081B
:10245000031908004708C400C5014408BB0045082B
:10246000BC004308C6004608BD0094311C249231CC
:1024700001304001C8070030C93D1C2A41018C01D0
:102480008D018E018F019201930198019A019F01A4
:1024900042018C018D018E018F0190019201543017
:1024A0009300563094009501960197019801D4301D
:1024B00091004E018D10971450304001A0001E3045
:1024C000A1009E31802608004001AD004101221884
:1024D000872A40012D08AB002B08A0002708AC007C
:1024E0002C08A1002908A3002808A200EA30913195
:1024F000AD219231EA304001AB002B08A0002A0840
:10250000AC002C08A10001309531CB25080040011A
:102510002A08860087018101810A080040012808F5
:1025200029040319B62AAD01AD0AA91BA12A01305D
:10253000A835A90D890B982A0130AC002C08AD07ED
:10254000952A29082B02031DA72A28082A02031C02
:10255000AD2A2808AA022908AB3B0130A936A80CED
:10256000890BAE2A0130AD02031DA12A2B08A90058
:102570002A08A80008004001E8006408EA0063088F
:10258000E9004201A801A9014001690884006A0824
:10259000850012000319E12A6930E6006608DA00B6
:1025A0006508E7006708DB00680889310A21923175
:1025B00040015A084201A80740015B084201A93DB9
:1025C000C42A420129084001E400420128084001D0
:1025D000E30008004001D900410129082A04031D35
:1025E000F92A2A084001D800410129084001D700F2
:1025F000022B2908FF3E4001D700FF3041012A3D50
:102600004001D8005408D60056084601A000A10198
:1026100020304001D6005608CB005808CD0057089E
:10262000CC0059089531782540014C08D5004B085D
:10263000D400080042019D1C1F2B1D121D166708A7
:10264000680403191D19402B1908F700F801310817
:10265000FA003008F900F935FA0DEE30FB002330AE
:10266000FC0079087B0786007A087C3D87007708A4
:10267000C03F7808C13F0130B0070030B13D482B62
:10268000B001B101E701E8011908F7007708FD0082
:102690004E018F1208004E019912E6304001A00051
:1026A0001330A1009E31B6269331083042019F00BD
:1026B00090309D0004309E001F309B009C015130E3
:1026C0004001A0001E30A1009E31C8269331FC308D
:1026D0004001A0000730A1009E31D1269331563031
:1026E0004001A0001E30A1009E31BF264101C7015C
:1026F000F401F301C8014E01991608004001980148
:1027000099019A013F309200F030930026309400F6
:10271000FF307E01CE00E030C3000730B800C401B6
:10272000B901CF01BA01C501D0013730BB00F0308B
:10273000C600FF30D10005307D01C50014307E0198
:1027400094000B30A3000C30A400133095000A3025
:10275000A6000930A70004307D01C6000C30CB0074
:1027600008004001A601A701200821040319E12B5C
:10277000A501A50AA11BC62B0130A035A10D890B0F
:10278000BD2B0130A4002408A507BA2B0130A635C3
:10279000A70D890BC72B21082302031DD12B20086D
:1027A0002202031CD82B2008A2022108A33B2614D6
:1027B0000130A136A00C890BD92B0130A502031DD5
:1027C000C62B2708A1002608A00008007408203E98
:1027D000860001308700810142011D1DFB2B74081A
:1027E000203E8600013087008114440169088A0078
:1027F00068080A00933142019D1C0A2C7408203E8F
:102800008600013087000115440167088A006608C8
:102810000A0094317408203E8600013087000108C8
:102820000319192C440165088A0064080A009431D0
:10283000080090317220080040013D08031D3D084A
:10284000031D262C3B089131D02108003D08033E92
:1028500086008701160001040319492C3D08033E38
:1028600086008701403FBE00413FBF003D0A860011
:102870008701403FC000413FC1004108803AC2008B
:102880003F08803A4202031D472C3E0840020318CD
:10289000080040013D0A860087010130810741316F
:1028A0000318810A08009131F42194311530410157
:1028B000E6004B30E500BE30890B5C2CE50B5C2C50
:1028C000E60B5C2C00009E31702694319431D824A4
:1028D000943190315B2094319E317826943182314D
:1028E000D12294318B170B179031072094319F31EF
:1028F000C52794319E319B26943140012108420125
:10290000C300400120084201C2008D31C02594312E
:102910008B31F72394318B31252394318A316A220C
:102920009431852C4001AF01AC1F9D2CAB09AC0943
:10293000AB0A0319AC0AAF01AF0AAA1FA42CA9095C
:10294000AA09A90A0319AA0A29082A040319CB2CDF
:10295000AE01AE0AAA1BB62C0130A935AA0D890B0F
:10296000AD2C0130AD002D08AE07AA2C2A082C0290
:10297000031DBC2C29082B02031CC22C2908AB0206
:102980002A08AC3B0130AA36A90C890BC32C0130B4
:10299000AE02031DB62C2F080319D32CAB09AC09CA
:1029A000AB0A0319AC0A2C08AA002B08A9000800DE
:1029B000A0304001A50025084101C100A830400118
:1029C000A50025084101C000B0304001A500250840
:1029D0004101BF00B8304001A50025084101BE00FB
:1029E0000E304001A0000030A1000230A5002508F3
:1029F000A2004101410891316D2194310C30400118
:102A0000A0000030A1000230A5002508A20041016D
:102A10003E0891316D2194310E304001A00000300C
:102A2000A100A20141013F0891316D2194310E3086
:102A30004001A0000030A100A201A20A410140080B
:102A400091316D2194319F31A22708004001A601E8
:102A5000A11F312DA009A109A00A0319A10AA601ED
:102A6000A60AA31F3C2DA209A309A20A0319A30ABF
:102A70000130A4002408A606A701A801200821040B
:102A800003196B2DA501A50AA11B502D0130A035FE
:102A9000A10D890B472D0130A4002408A507442D62
:102AA0000130A735A80D890B512D21082302031DE4
:102AB0005B2D20082202031C622D2008A20221089F
:102AC000A33B27140130A136A00C890B632D0130E4
:102AD000A502031D502D26080319732DA709A80967
:102AE000A70A0319A80A2808A1002708A0000800BF
:102AF0004001D30042012C1C862D40015308CE001A
:102B00004E08C3004B089231182295314001CD1B6D
:102B10008E2D4D08D2004C08D100902DD101D2014C
:102B2000CF01D0015008803ACE005208803A4E02C0
:102B3000031D9C2D51084F020318B02D2030400179
:102B4000BB000030BC005308CE004E08BD009431DD
:102B50001C24953101304001CF070030D03D922D2B
:102B600042012C18BC2D40015308CE004E08C30072
:102B70004B0892311822953140014B08A0000330D8
:102B8000A10090318A20400151082007CB00520853
:102B9000213DCC0008004001A300410122180D2E68
:102BA00002304001A200210886008701220881002E
:102BB0002008A2004101200A860001308700400160
:102BC000220881002308A20041012008860001306C
:102BD00087004001220881002108A200410120084D
:102BE000023E860001308700400122088100033048
:102BF000A20022084101A0072008673A031D062E03
:102C000064304001A20022084101A000A210210866
:102C10002006031D132E2214132E400121088600C6
:102C200087018101810A4001210886008701023065
:102C30000106031D08009E3166264E010F14080090
:102C40009E315C2696314101DA00DB01DA35DB0D7D
:102C5000EE30DC002330DD005A085C0786005B089C
:102C60005D3D87000108DE005E08E0009E315C26C5
:102C700096314101DA00DB01DA35DB0DF030DC00A2
:102C80002330DD005A085C0786005B085D3D870045
:102C90000108DE005E08E1009E315C2696314101AC
:102CA000DA00DB01DA35DB0DF230DC002330DD0049
:102CB0005A085C0786005B085D3D87000108DE005E
:102CC0005E08E2009E315C2696314101DA00DB01AC
:102CD000DA35DB0DF430DC002330DD005A085C0708
:102CE00086005B085D3D87000108DE005E08DF00AE
:102CF0006208D5006108D4006008D3005F08D200E4
:102D00008531E32508004101CD004D0803199E2EB1
:102D100090314520963140013108E5003008E4004B
:102D20002F08E3002E08E20088310B209631400185
:102D30006208ED006D084101CF009F2ECF014A08C7
:102D40000319B82E90314520963140013108E50035
:102D50003008E4002F08E3002E08E20088310B2041
:102D6000963140016208ED006D084101D100B92E95
:102D7000D10149080319D22E9031452096314001E6
:102D80003108E5003008E4002F08E3002E08E200D7
:102D900088310B20963140016208ED006D08410139
:102DA000D000D32ED0014B080319EC2E90314520D2
:102DB000963140013108E5003008E4002F08E300B7
:102DC0002E08E20088310B20963140016208ED00A8
:102DD0006D084101CE00ED2ECE015108CC00500807
:102DE000CB004F08CA004E08C90008004001B900D6
:102DF00064303902031C1F2F7930B6003608B0004A
:102E000034309031D820963179304001B600360800
:102E1000B00035309031D820963179304001B6007D
:102E20003608B00036309031D820963179304001E4
:102E3000B6003608B00037309031D82008000A308C
:102E4000A9000030AA003908B600B7013608AB0067
:102E50003708AC0094319224963140012A0885004D
:102E600029088400103084079830853D0008B80098
:102E70003808B00037309031D82096310A30400100
:102E8000A9000030AA000A30A0000030A1003908D3
:102E9000B600B7013608A2003708A30095312625F1
:102EA000963140012108AC002008AB0094319224F7
:102EB000963140012A0885002908840010308407D3
:102EC0009830853D0008B8003808B00036309031A1
:102ED000D82008004001A8002808031DA31F802F48
:102EE0002009AA002109AB002209AC002309AD008A
:102EF000AA0A0319AB0A0319AC0A0319AD0A882FF1
:102F00002308AD002208AC002108AB002008AA006D
:102F10002308220421042004031D972F0030A3005E
:102F20000030A2000030A1000030A0000800963060
:102F3000A4002408A900FE302D050319BE2F01307E
:102F4000A4002408A9070130AD36AC0CAB0CAA0CC8
:102F5000890BA42F9B2F0130A4002408A90701305E
:102F6000AA070030AB3D0030AC3D0030AD3D013034
:102F7000AD36AC0CAB0CAA0C890BB82FFF302D056D
:102F80000319D02FAB2F02302902031CD22F01309E
:102F9000A9020130AA35AB0DAC0DAD0D890BCA2FBE
:102FA000AC1FC32F2918DC2FFF30AA05FF30AB055B
:102FB0007F30AC05FF30AD050310A90C2908A40033
:102FC000A501A601A7011830A435A50DA60DA70DD2
:102FD000890BE42F2408AA042508AB042608AC04B6
:102FE0002708AD042808031DA31FF72FAD172D08D0
:102FF000A3002C08A2002B08A1002A08A0000800AA
:10300000003482342134003400340034003402347B
:1030100039340F3400340034003440348034003408
:103020003F3406345B344F3466346D347D340734BA
:103030007F346F3400340034003448340034533467
:10304000003477347C3439345E34793471346F34FD
:10305000763406341E3400343834003454343F346B
:103060007334673450346D3478343E340034003473
:1030700000346E340034393400340F3400340834F2
:1030800063345F347C3458345E347B3471346F3451
:10309000743402341E3400340634003454345C3446
:1030A0007334673450346D3478341C340034003455
:1030B00000346E340034393430340F34003400348A
:103CA0000800080008000800080008009031722091
:103CB00008004E018F10080041016B080800410107
:103CC000380808004101B201B20A08004101460863
:103CD00003190800662E013400340A340034053418
:103CE00001304001A0001030A1009E31A426080040
:103CF0004101A601A701A801A501400194120800F5
:103D0000400121084201ED00400120084201EC0081
:103D100008004001210841018F00400120084101B5
:103D20008E0008004001A000200841019F004201D0
:103D300091171114080042013F084001A1004201FF
:103D40003E084001A0000800400121084201EF00A8
:103D5000400120084201EE00080041013308031928
:103D6000B42EB301013008000030080040012108E2
:103D70004301EF00400120084301EE00080040012C
:103D800021084401E500400120084401E400080046
:103D9000400121084401E900400120084401E800F5
:103DA0000800400121084401E700400120084401C7
:103DB000E6000800603051018D008F01910106304E
:103DC00093009201080090340634643400340134C6
:103DD00000340534013401344F01960197019801F4
:103DE00099019A019B019C019D0108008C304601BC
:103DF0008E008D018C0144011E08FC3901389E00A3
:103E000008008C30460192009101900144011E0887
:103E1000F33904389E0008008C3046019600950165
:103E2000940144011E08CF3910389E00080041015A
:103E30002808D5002708D4002608D3002508D2007A
:103E40008531E32508006400800101310130FE0264
:103E50000030FF3B7F087E0403190034242FFE004E
:103E600012001E000130FE020030FF3B7F087E047E
:103E700003190034302F4E018D1042016C086D047F
:103E8000031908006D088A006C080A009F310800B9
:103E90004E018C1242016E086F04031908006F086E
:103EA0008A006E080A009F31080001304501900029
:103EB0008F019101FF308D008C014E019010F03088
:103EC00045018E0008004001A0002008073E860042
:103ED0000230870003300106031D702F01300800F7
:103EE0000030080041016B036C04031D7C2F00307F
:103EF000EB000230EC0008000130EB020030EC3B3C
:103F00000800023041016C066B04031D8C2F013048
:103F1000EB000030EC0008000130EB070030EC3D16
:103F200008000430F7007708F20701304101C502AC
:103F3000031D9F2F0430F7007708C6000800C60154
:103F4000C60A0800400112157E01381139154001DA
:103F50001414941414157E014E10CE104E114F14EB
:103F6000CF144F1508004001B8003608E03E840029
:103F700097300318013E85000008B7003708B000ED
:103F80003808343E9031D82008001A304001A00093
:103F90001330A1009E31B6269F3141016C084001CB
:103FA000B70041016B084001B60087313A2708008D
:103FB0004001A0002008073E860002308700010370
:103FC000031DEA2F2008073E86000230870081018A
:103FD000013008000030080045304B019F00F930E7
:103FE0009D009C014E018C12961652304001A0009B
:103FF0001E30A1009E31A42680304B019E00080097
:1040000025346334253463342534633425346334F0
:104010000D3400342534633425346334253463345B
:1040200020340D3400342034253463342534633493
:10403000253463340D34003448344534593459340C
:1040400059345934593459340034253463342534BF
:104050006334203420340D340034203420342534AB
:104060006334253463340D34003425346334203410
:10407000203420340D3400342034203420342534CE
:1040800063340D34003420342034203420340D3493
:10409000003442342034203420340D34003443348E
:1040A0002034203420340D34003450344334203450
:1040B00020340D3400344C344534443420340D3431
:1040C000003441344E34493420340D34003441340A
:1040D0004C344C3420340D340034463441344434B0
:1040E00045340D34003442344534413454340D34B5
:1040F00000342034203420342034003462342D3411
:0A4100000D34003464340D34003433
:020000040001F9
:0A000E00EC3FFF3F9F3FFF3FFF3F25
:00000001FF
