:020000040000FA
:1000000080313028080008007E1480314E01961A95
:100010008C1E0E289F31672780312E280B1F2E281B
:1000200099188F1C17289E317F2680312E28191889
:100030000F1C1E288B31E12380312E2897188D1C30
:1000400025289F315A2780312E28991A8F1E2E2855
:1000500042014F088A004E080A0080317E100900D4
:10006000803132280C3084009F308500E6308600D5
:10007000003087000030FF000A309F314E2780316A
:10008000903084009E30850050308600013087001B
:100090000030FF0004309F314E278031EE30840065
:1000A000233085000230FE000430FF009F314227DC
:1000B0008031F001F101F201F301F401F501F601E3
:1000C000A0308400003085003130FE000030FF0099
:1000D0009F31422780312030840001308500243058
:1000E000FE000030FF009F3142278031A0308400A5
:1000F000013085004030FE000030FF009F31422774
:100100007E1040019431992C9E31BA2680314201F3
:100110003408400120024101D1004201350840016C
:10012000213B4101D20000305202643003195102D8
:10013000031C08009E31BA2680314001210842018B
:10014000B500400120084201B4009E31D52680311F
:10015000003A031DC72800304001ED00EE00903149
:10016000F820803100304001ED00EE009131162181
:10017000803100304001ED00EE00913134218031BA
:1001800000304001ED00EE00913152210800700373
:100190007104031DF82B41016F08D100D201D30176
:1001A000D40154084001A300410153084001A200BA
:1001B000410152084001A100410151084001A00045
:1001C000013096311F26803140012308B5002208F6
:1001D000B4002108B3002008B2004130B100103053
:1001E000B0000030AF000030AE008E318626803186
:1001F00040013108CF003008CE002F08CD002E0876
:10020000CC004230CB00F030CA000030C9000030D2
:10021000C80085316E25803140014B08E5004A0851
:10022000E4004908E3004808E20087319A2780315A
:1002300040016308EE006208ED009031F820803143
:1002400000304001ED00EE00913116218031003088
:100250004001ED00EE008C2A00304001ED00EE0080
:10026000E22941016F08D100D201D301D401540821
:100270004001A300410153084001A200410152087E
:100280004001A100410151084001A0000130963118
:100290001F26803140012308B5002208B400210840
:1002A000B3002008B2004130B1001030B00000307F
:1002B000AF000030AE008E3186268031400131081B
:1002C000CF003008CE002F08CD002E08CC004230E1
:1002D000CB00F030CA000030C9000030C8008531C2
:1002E0006E25803140014B08E5004A08E4004908CA
:1002F000E3004808E20087319A2780314001630813
:10030000EE006208ED009031F820803100304001AD
:10031000ED00EE00372A00304001ED00EE00E62A45
:1003200041016F08D100D201D301D401540840012A
:10033000A300410153084001A200410152084001BD
:10034000A100410151084001A000013096311F2653
:10035000803140012308B5002208B4002108B30011
:100360002008B2004130B1001030B0000030AF00C2
:100370000030AE008E318626803140013108CF003A
:100380003008CE002F08CD002E08CC004230CB0024
:10039000F030CA000030C9000030C80085316E2539
:1003A000803140014B08E5004A08E4004908E300B9
:1003B0004808E20087319A27803140016308EE0047
:1003C0006208ED009031F820803141016F08D100C2
:1003D000D201D301D40154084001A30041015308C4
:1003E0004001A200410152084001A1004101510811
:1003F0004001A000013096311F26803140012308C2
:10040000B5002208B4002108B3002008B200413032
:10041000B1001030B0000030AF000030AE008E31BF
:100420008626803140013108CF003008CE002F08E9
:10043000CD002E08CC004230CB00F030CA00003096
:10044000C9000030C80085316E25803140014B085D
:10045000E5004A08E4004908E3004808E200873163
:100460009A27803140016308EE006208ED00913167
:100470001621803141016F08D100D201D301D4018E
:1004800054084001A300410153084001A20041016A
:1004900052084001A100410151084001A000013073
:1004A00096311F26803140012308B5002208B40090
:1004B0002108B3002008B2004130B1001030B00074
:1004C0000030AF000030AE008E3186268031400112
:1004D0003108CF003008CE002F08CD002E08CC0008
:1004E0004230CB00F030CA000030C9000030C800F4
:1004F00085316E25803140014B08E5004A08E40053
:100500004908E3004808E20087319A27803140011A
:100510006308EE006208ED00913134218031003033
:100520004001ED00EE00F12B41016F08D100D20136
:10053000D301D40154084001A300410153084001F4
:10054000A200410152084001A100410151084001AF
:10055000A000013096311F26803140012308B500EC
:100560002208B4002108B3002008B2004130B100D5
:100570001030B0000030AF000030AE008E31862663
:10058000803140013108CF003008CE002F08CD0067
:100590002E08CC004230CB00F030CA000030C90039
:1005A0000030C80085316E25803140014B08E500E0
:1005B0004A08E4004908E3004808E20087319A2726
:1005C000803140016308EE006208ED009031F820B0
:1005D000803100304001ED00EE00472B003040013B
:1005E000ED00EE009031F820803141016F08D1001C
:1005F000D201D301D40154084001A30041015308A2
:100600004001A200410152084001A10041015108EE
:100610004001A000013096311F268031400123089F
:10062000B5002208B4002108B3002008B200413010
:10063000B1001030B0000030AF000030AE008E319D
:100640008626803140013108CF003008CE002F08C7
:10065000CD002E08CC004230CB00F030CA00003074
:10066000C9000030C80085316E25803140014B083B
:10067000E5004A08E4004908E3004808E200873141
:100680009A27803140016308EE006208ED00913145
:100690001621803141016F08D100D201D301D4016C
:1006A00054084001A300410153084001A200410148
:1006B00052084001A100410151084001A000013051
:1006C00096311F26803140012308B5002208B4006E
:1006D0002108B3002008B2004130B1001030B00052
:1006E0000030AF000030AE008E31862680314001F0
:1006F0003108CF003008CE002F08CD002E08CC00E6
:100700004230CB00F030CA000030C9000030C800D1
:1007100085316E25803140014B08E5004A08E40030
:100720004908E3004808E20087319A2780314001F8
:100730006308EE006208ED009131342180314101FF
:100740006F08D100D201D301D40154084001A300A5
:10075000410153084001A200410152084001A1009B
:10076000410151084001A000013096311F2680311F
:1007700040012308B5002208B4002108B300200876
:10078000B2004130B1001030B0000030AF00003096
:10079000AE008E318626803140013108CF0030080E
:1007A000CE002F08CD002E08CC004230CB00F03018
:1007B000CA000030C9000030C80085316E25803184
:1007C00040014B08E5004A08E4004908E3004808F6
:1007D000E20087319A27803140016308EE00620809
:1007E000ED00913152210130F0070030F13D080059
:1007F00002307006710403192C290330700671044D
:100800000319312904307006710403198B2905304E
:1008100070067104031990290630700671040319DB
:10082000942A0830700671040319EE2A41016F08FA
:10083000D100D201D301D40154084001A3004101E9
:1008400053084001A200410152084001A1004101AA
:1008500051084001A000013096311F26803140012F
:100860002308B5002208B4002108B3002008B20014
:100870004130B1001030B0000030AF000030AE00A9
:100880008E318626803140013108CF003008CE00FD
:100890002F08CD002E08CC004230CB00F030CA002B
:1008A0000030C9000030C80085316E25803140011C
:1008B0004B08E5004A08E4004908E3004808E20064
:1008C00087319A27803140016308EE006208ED000D
:1008D0009031F820803141016F08D100D201D3015D
:1008E000D40154084001A300410153084001A20073
:1008F000410152084001A100410151084001A000FE
:10090000013096311F26803140012308B5002208AE
:10091000B4002108B3002008B2004130B10010300B
:10092000B0000030AF000030AE008E31862680313E
:1009300040013108CF003008CE002F08CD002E082E
:10094000CC004230CB00F030CA000030C90000308B
:10095000C80085316E25803140014B08E5004A080A
:10096000E4004908E3004808E20087319A27803113
:1009700040016308EE006208ED00913116218031DC
:1009800041016F08D100D201D301D40154084001C4
:10099000A300410153084001A20041015208400157
:1009A000A100410151084001A000013096311F26ED
:1009B000803140012308B5002208B4002108B300AB
:1009C0002008B2004130B1001030B0000030AF005C
:1009D0000030AE008E318626803140013108CF00D4
:1009E0003008CE002F08CD002E08CC004230CB00BE
:1009F000F030CA000030C9000030C80085316E25D3
:100A0000803140014B08E5004A08E4004908E30052
:100A10004808E20087319A27803140016308EE00E0
:100A20006208ED0091313421803141016F08D1001D
:100A3000D201D301D40154084001A300410153085D
:100A40004001A200410152084001A10041015108AA
:100A50004001A000013096311F268031400123085B
:100A6000B5002208B4002108B3002008B2004130CC
:100A7000B1001030B0000030AF000030AE008E3159
:100A80008626803140013108CF003008CE002F0883
:100A9000CD002E08CC004230CB00F030CA00003030
:100AA000C9000030C80085316E25803140014B08F7
:100AB000E5004A08E4004908E3004808E2008731FD
:100AC0009A27803140016308EE006208ED00913101
:100AD00052210130F0000030F100080040014B08C5
:100AE0008039D0005008D5004B35D0005008DB00CD
:100AF000CA1B5B145B0803198A2D5B0A031D882D32
:100B00000030CB000030CA000030C9000030C800FF
:100B1000CA17922D0030CB000030CA000030C90047
:100B20000030C8004F088039D0005008D5064F3536
:100B3000D0005008DA00CE1B5A145A080319AD2D04
:100B40005A0A031DAB2D0030CF000030CE0000301C
:100B5000CD000030CC00CE17B52D0030CF000030D6
:100B6000CE000030CD000030CC005A08031D5B08D9
:100B7000031DC32D0030CB000030CA000030C90077
:100B80000030C80008004808D0005008A0004E08F7
:100B900091319021853140012108E1002008E000D9
:100BA0006008D000D101D201D3015308D900520806
:100BB000D8005108D7005008D6006108D000D101F4
:100BC000D201D3015308DF005208DE005108DD00D6
:100BD0005008DC004908D0005008A0004D089131B1
:100BE0009021853140012108E1002008E0006008E3
:100BF000D000D101D201D3015008D6075108D73D0A
:100C00005208D83D5308D93D6108D000D101D20126
:100C1000D3015008DC075108DD3D5208DE3D530882
:100C2000DF3D4A08D0005008A0004C0891319021C7
:100C3000853140012108E1002008E0006008D00073
:100C4000D101D201D3015008D6075108D73D52082F
:100C5000D83D5308D93D6108D000D101D201D3015C
:100C60005008DC075108DD3D5208DE3D5308DF3DEA
:100C70000830D635D70DD80DD90D890B392E490836
:100C8000D0005008A0004C089131902185314001DE
:100C90002108E1002008E0006008D6076108D73D80
:100CA0000030D83DD93D4808D0005008A0004D087C
:100CB00091319021853140012108E1002008E000B8
:100CC0006008D6076108D73D0030D83DD93D0830CF
:100CD000D635D70DD80DD90D890B682E4808D00010
:100CE0005008A0004C089131902185314001210825
:100CF000E1002008E0006008D6076108D73D003019
:100D0000D83DD93D4908D0005008A0004E08913187
:100D10009021853140012108E1002008E0006008B1
:100D2000DC076108DD3D0030DE3DDF3D4A08D000D4
:100D30005008A0004D0891319021853140012108D3
:100D4000E1002008E0006008DC076108DD3D0030BC
:100D5000DE3DDF3D4A08D0005008A0004E0891312A
:100D60009021853140012108E1002008E000600861
:100D7000D0006108D100D201D3010830D035D10DA7
:100D8000D20DD30D890BBE2E5008DC075108DD3D76
:100D90005208DE3D5308DF3D5608D0005708D10009
:100DA0005808D2005908D3001830D336D20CD10CD1
:100DB000D00C890BD52E5008DC075108DD3D5208B8
:100DC000DE3D5308DF3D0830D635D70DD80DD90D9F
:100DD000890BE42E5B085A07D000D101D10D5008D1
:100DE000823EE000FF30513DE100DE1B0C2F013060
:100DF000DC35DD0DDE0DDF0D890BF82ED91B5C1403
:100E00000130D635D70DD80DD90D890B012FFF3004
:100E1000E007FF30E13DF52EDA01D91F252FFF3025
:100E20005605D000FF305705D100FF305805D200DD
:100E30007F305905D300530852045104500403195C
:100E40005C18232F252FDA01DA0A5A0803194E2FCE
:100E50000130DC070030DD3D0030DE3D0030DF3D9D
:100E60005F1C4E2F5C08D0005D08D1005E08D200E8
:100E70005F08D3000130D400D337D20CD10CD00C92
:100E8000D40B3C2F5308DF005208DE005108DD0070
:100E90005008DC000130E0070030E13D6108803A95
:100EA000D00080305002031D572FFF306002031C1A
:100EB000632F7F304001DF008030DE000030DD0036
:100EC0000030DC008D2F40016108803AD000803076
:100ED0005002031D6D2F0130600203187A2F00307D
:100EE0004001DF000030DE000030DD000030DC00BB
:100EF000D5018D2F40016008D0005008DB00FF3085
:100F0000DC05FF30DD057F30DE050030DF055B18D6
:100F1000DE175B36D0005008DF005508D0005008BF
:100F2000DF045F08CB005E08CA005D08C9005C08EA
:100F3000C800080003104001640D650DE600660856
:100F4000EC006C08031DAD2F0030E5000030E4001C
:100F50000030E3000030E20008006208E6006308A9
:100F6000E7006408E8006508E9001F30E936E80C8E
:100F7000E70CE60C890BB62F6608EA006A08EB005E
:100F8000E417FF30E205FF30E305FF30E4050030F1
:100F9000E5059630EC02EC1FE02F6C08803A973E96
:100FA000031CA42F0130E536E40CE30CE20C890BA2
:100FB000D32F0130E6006608EC070319F12FD22F7A
:100FC00020306C020318A42F6C080319F12F013094
:100FD000E235E30DE40DE50D890BE82F0130EC025D
:100FE000E42F6B0803190800E209E309E409E509A5
:100FF000E20A0319E30A0319E40A0319E50A0800DF
:10100000410167084001A100410166084001A000BC
:101010009E31A826883188304001A0001E30A100F2
:101020009E319F2688310F309E31B12608009E31B7
:10103000822688314101D900DA01D935DA0DEE3046
:10104000DB002330DC0059085B0786005A085C3D52
:1010500087000108DD005D08DF009E3182268831AF
:101060004101D900DA01D935DA0DF030DB00233047
:10107000DC0059085B0786005A085C3D87000108C0
:10108000DD005D08E0009E31822688314101D900F3
:10109000DA01D935DA0DF230DB002330DC005908F3
:1010A0005B0786005A085C3D87000108DD005D088B
:1010B000E1009E31822688314101D900DA01D9351B
:1010C000DA0DF430DB002330DC0059085B078600C2
:1010D0005A085C3D87000108DD005D08DE006108FC
:1010E000D4006008D3005F08D2005E08D1008D31C3
:1010F0002F25080027304001350210300319340233
:10110000031CA5287930B6003608AE003430903183
:10111000DB20883179304001B6003608AE0035302A
:101120009031DB20883179304001B6003608AE00BE
:1011300036309031DB20883179304001B6003608F6
:10114000AE0037309031DB2008000A30A8000030B4
:10115000A9003508AB003408AA009231D4228831A6
:101160004001290885002808840010308407983041
:10117000853D0008B6003608AE0037309031DB20E0
:1011800088310A304001A8000030A9000A30A000D0
:101190000030A1003508A3003408A2009331F823E1
:1011A000883140012108AB002008AA009231D422E6
:1011B0008831400129088500280884001030840700
:1011C0009830853D0008B6003608AE0036309031C4
:1011D000DB2088310A304001A8000030A9006430CB
:1011E000A0000030A1003508A3003408A20093310C
:1011F000F823883140012108AB002008AA00923171
:10120000D422883140012908850028088400103044
:1012100084079830853D0008B6003608AE003530AA
:101220009031DB2088310A304001A8000030A9004D
:10123000E830A0000330A1003508A3003408A20064
:101240009331F823883140012108AB002008AA001F
:101250009231D42288314001290885002808840071
:10126000103084079830853D0008B6003608AE007F
:1012700034309031DB2008009E31BA26893141019B
:10128000290840012002A80041012A084001213B11
:10129000A9004201530840012902031D53294201BC
:1012A000520840012802031C08009E31BA268931E9
:1012B000400121084101AA00400120084101A90084
:1012C0003803031D692901304201B8070030B93DD8
:1012D00070294201B801B9011430D2000030D300A6
:1012E00041013803031DB7293708031DB729B90188
:1012F000B90A64304201D2000030D3009E31BA26D0
:10130000893141012B0840012002AA0041012C082B
:101310004001213BAB009E31BA26893140012108B2
:101320004101AC00400120084101AB000030400108
:101330002B02963003192A020318A4299030420187
:10134000BA000130BB00B7292B08A1002A08A00071
:101350006030A200EA30A3009331F82389314001C4
:1013600021084201BB00400120084201BA004101AE
:1013700038084001A80028084101B700B80142011F
:101380003908803A4001A80080302802031DCB298B
:10139000043042013802031CEA2901304101E6070A
:1013A0000030E73D67084001A100410166084001A7
:1013B000A0009E31A82689314201B801B9019E31B1
:1013C000BA26400121084101AC004001200841013A
:1013D000AB0008009E31BA26893141012B0840013B
:1013E0002002A80041012C084001213BA900033044
:1013F0002902E93003192802031C080001304101C9
:10140000E6020030E73B67084001A10041016608A1
:101410004001A0009E31A82608009E31BA268A31DC
:1014200040012108A7002008A6004101330840011F
:101430002602A200410134084001273BA3000030EE
:1014400023020A3003192202031C08002708410165
:10145000B400400126084101B3004001A501250860
:10146000A2000230A235FF3E031D322A2235C03EC3
:10147000A3002308A8002808860001308700403F09
:10148000A200413FA3002208860023088700013004
:10149000A4002808023E840001308500000A512A79
:1014A000A435890B502A24080105031D702A280839
:1014B000033E8600013087008101810A2808073E2B
:1014C0008600013087000108031D762A2808053EA2
:1014D0008600013087002608C03F2708C13F762AD2
:1014E0002808033E86000130870081012808033E5A
:1014F0008600013087000108031D8E2A2808043E5B
:101500008600013087000103031D8E2A2808073E4C
:101510008600013087008101810ADB2A2808033E0A
:101520008600013087000103031DBC2A2808043E01
:101530008600013087000103031DBC2A2808053EF0
:10154000860001308700403F2602A200413F273B32
:10155000A30000302302C93003192202031CB22A5F
:101560000330B32A0230A2002808073E860001306B
:10157000870022088100DB2A2808033E860001300C
:1015800087000108031DDB2A2808043E860001307D
:1015900087000103031DDB2A2808073E860001306F
:1015A000870003300106031DDB2A2808073E86005A
:1015B0000130870081012808033E86000130870042
:1015C0000108A2002808043E860001308700220896
:1015D00081000130A2002208A5070430250203186B
:1015E00008002F2A4001EF01EF0A410144089F3112
:1015F000D8278A314101DB005B08BF0043089F31D7
:10160000D8278A314101DB005B08BE0045089F31C5
:10161000D8278A314101DB005B08BD0042089F31B9
:10162000D8278A314101DB005B08BC006E03031D33
:101630003D2B9E31BA268A314101350840012002F6
:101640004101DB0036084001213B4101DC00133041
:101650005C02883003195B0203183D2B9531C525C8
:101660008A3141013F08031D3A2B3E0803193D080A
:1016700003190800C101C10A08004108031D472BD6
:101680006E03031D472B0230DB005B08EC00EE010C
:101690003D08031941080319562B4008031D562B1A
:1016A000C101C10A9531C5258A31732B02306C0600
:1016B000031D5E2B9631B5268A316B2B6C08031DFA
:1016C000652B4001EF01EF0A732B6C03031D712B97
:1016D0009131D1218A314101DB005B084001EF00EB
:1016E000732B4001EF0140016F080319822B9E31DB
:1016F000BA268A31400121084101AE00400120088C
:101700004101AD009E31BA268A3141012D084001C8
:1017100020024101DB002E084001213B4101DC0099
:1017200013305C02883003195B02031CA92B0030C4
:1017300090311C208A319E31BA268A31400120081E
:10174000773E4101AD00EC304001213D4101AE004A
:10175000AD2B013090311C208A31023041016C06E2
:10176000031DCC2B4108031DCC2B6B084001B50099
:1017700041016A084001B40088317A208A31C92BBE
:101780004108031DCF2B5D30D100A030D200903135
:1017900031204101C00108006C080319C02B6C0303
:1017A000031D08004108031D08003530D100A0309A
:1017B000D2006F08DB00DC015B08D3005C08D400BA
:1017C000C72B4E010F104301901F022D90134101B2
:1017D000CB014908023E8600870101088600870187
:1017E0008101810AC9010800A21808002108F90036
:1017F0007908C9002108860087010108F9007908E5
:10180000CA00210886008701413FF2000330F90039
:101810007908A1072108D13A031D122CCE30F90016
:101820007908A1002210210820060319A2144301FF
:1018300011140230F90079084101CB000800AB2CEB
:101840004301111F2C2C0130F90079084101A40734
:10185000043090315E2008007608FA007508F9001F
:10186000FA36F90C79088C00751C3C2C0B30F90009
:1018700079084101CB0008000330F90079084101E3
:10188000CB0008004301111F4E2C0130F9007908EC
:101890004101A407043090315E20080091147608BD
:1018A000FA007508F9007A08F900FA01063079059E
:1018B000FB0000307A05FC00F0307B04F5000030BE
:1018C0007C04F60075144101C601C60A192C4603B2
:1018D0000319802C7208860001308700403FF50014
:1018E000413FF60072088600013087000130433F17
:1018F000C80072088600013087000130423FC700EF
:10190000750843018C00751C3C2C0530F9007908E2
:101910004101CB0008004301111F992C0130F9004F
:1019200079084101A40743011113053090315E206D
:10193000080001304101C702470A031DAE2C0430E4
:10194000F9007908F2070130CA02031DAB2C003000
:1019500090315E20080043019114192C480886003C
:101960008701010843018C000130F9007908410129
:10197000C80708004301111FC82C0130F90079087D
:101980004101A407043090315E2043011113080087
:1019900091150830F90079084101CB0008000830A2
:1019A000F9007908CB0043019115080043010C08A8
:1019B000F90041014808860087017908810001305B
:1019C000F9007908C8070130C7020319EF2C430159
:1019D00091120630F90079084101CB00F32C430144
:1019E00091169F3191274301111608000030903164
:1019F0005E2008000130F9007908A4070630903114
:101A00005E20080041014B08F900FA017A08003A0B
:101A100003190B2DFA2C7908003A0319F42B013A1B
:101A200003191F2C033A0319672C013A03198B2C55
:101A3000073A0319F62C013A0319BA2C033A031991
:101A4000CF2C013A0319F62C0F3A0319D62C023A7F
:101A50000319202C013A0319422CFA2C08004101E9
:101A60006E08031D08005208D500D601D701D80121
:101A700058084001A300410157084001A20041015C
:101A800056084001A100410155084001A000013065
:101A900096311F268D3140012308B5002208B4007D
:101AA0002108B3002008B2004330B1007F30B000FD
:101AB0000030AF000030AE008E3186268D314001FF
:101AC0003108CF003008CE002F08CD002E08CC0002
:101AD0004230CB00F030CA000030C9000030C800EE
:101AE00085316E258D3140014B08E5004A08E40040
:101AF0004908E3004808E20087319A278D31400108
:101B00006308EE006208ED009031F8208D3141014C
:101B10005308D500D601D701D80158084001A300C9
:101B2000410157084001A200410156084001A100AF
:101B3000410155084001A000013096311F268D312A
:101B400040012308B5002208B4002108B300200892
:101B5000B2004330B1007F30B0000030AF00003041
:101B6000AE008E3186268D3140013108CF0030081D
:101B7000CE002F08CD002E08CC004230CB00F03034
:101B8000CA000030C9000030C80085316E258D3193
:101B900040014B08E5004A08E4004908E300480812
:101BA000E20087319A278D3140016308EE00620818
:101BB000ED00913116218D3141015408D500D60137
:101BC000D701D80158084001A3004101570840013E
:101BD000A200410156084001A10041015508400101
:101BE000A000013096311F268D3140012308B50039
:101BF0002208B4002108B3002008B2004330B1002D
:101C00007F30B0000030AF000030AE008E3186264D
:101C10008D3140013108CF003008CE002F08CD00B3
:101C20002E08CC004230CB00F030CA000030C90092
:101C30000030C80085316E258D3140014B08E5002C
:101C40004A08E4004908E3004808E20087319A277F
:101C50008D3140016308EE006208ED0091313421BE
:101C60008D3141015108D500D601D701D80158085E
:101C70004001A300410157084001A200410156085C
:101C80004001A100410155084001A00001309631FA
:101C90001F268D3140012308B5002208B400210819
:101CA000B3002008B2004330B1007F30B0000030F4
:101CB000AF000030AE008E3186268D3140013108F4
:101CC000CF003008CE002F08CD002E08CC004230C7
:101CD000CB00F030CA000030C9000030C8008531A8
:101CE0006E258D3140014B08E5004A08E4004908A3
:101CF000E3004808E20087319A278D3140016308EC
:101D0000EE006208ED0091315221080040013508D3
:101D10008039B6003608BF003535B6003608C60033
:101D2000B41B461446080319A32E460A031DA02E11
:101D30000030B5000030B4000030B3000030B20015
:101D4000B417B501AB2E0030B5000030B400003040
:101D5000B3000030B20031088039B6003608BF0643
:101D60003135B6003608C700B01B471447080319C1
:101D7000C72E470A031DC42E0030B1000030B0004A
:101D80000030AF000030AE00B017B101CF2E0030F0
:101D9000B1000030B0000030AF000030AE003108BC
:101DA00030042F042E04031DEE2E0030B500003049
:101DB000B4000030B3000030B2008030B4047F3093
:101DC000B5043F08B6003608B5043508B10034083C
:101DD000B0003308AF003208AE0008004608031D0B
:101DE000FA2E0030B1000030B0000030AF000030FB
:101DF000AE0008004608B600B7013708B90047082A
:101E00003602B800031CB90338087F3EC00000301A
:101E1000393DC1003508BE003408BD003308BC00A0
:101E20003208BB000030B5000030B4000030B30011
:101E30000030B2000030C5000030C4000030C300E4
:101E40000030C200C7011A30470203185F2F47084D
:101E50000319412F0130BB35BC0DBD0DBE0D890BE3
:101E60002B2F0130B235B30DB40DB50D890B322FC8
:101E7000C51B32140130C235C30DC40DC50D890B0D
:101E80003B2F31083E02031D4F2F30083D02031D3A
:101E90004F2F2F083C02031D4F2F2E083B02031C1F
:101EA0005A2F45172E08BB022F08BC3B3008BD3BFC
:101EB0003108BE3B0130B6003608C707232F3E0865
:101EC0003D043C043B04031D4214B41B7C2F013031
:101ED000B235B30DB40DB50D890B682FC51B321487
:101EE0000130C235C30DC40DC50D890B712FFF30F4
:101EF000C007FF30C13D652FC701C51F952FFF30BB
:101F00004205B600FF304305B700FF304405B80076
:101F10007F304505B9003908380437043604031901
:101F20003218932F952FC701C70A47080319BE2FF0
:101F30000130B2070030B33D0030B43D0030B53D54
:101F4000351CBE2F3208B6003308B7003408B8007D
:101F50003508B9000130BA00B937B80CB70CB60C67
:101F6000BA0BAC2F3908B5003808B4003708B300F5
:101F70003608B2000130C0070030C13D4108803A48
:101F8000B60080303602031DC72FFF304002031C0D
:101F9000D62FFF304001C0000030C1000030B50036
:101FA0000030B4000030B3000030B20040014108FE
:101FB000803AB60080303602031DE02F0130400227
:101FC0000318EE2F4001C001C1010030B500003000
:101FD000B4000030B3000030B200BF01400140083F
:101FE000B6003608C600461CF72FB417FB2F7F300B
:101FF000B6003608B4054636B6003608B500E12E00
:1020000099304001A0001E30A1009E31C326080077
:10201000013090311C20903169304101D100A03055
:10202000D2009031312090314F304101D100A030A9
:10203000D2009031312008004001B4003408031967
:102040002A28AE01AE0A24309031DB204101BB01C9
:10205000BB0A0800AE0124309031DB204101BB01F6
:102060000800D3304001E9006908EC004101520842
:102070004001E200410151084001E1006C30E900FB
:102080006908E30000309331012308004201190878
:10209000F7007408283E8600013087007708810029
:1020A0000130F7007708F407083074020318F401D0
:1020B0000130F70077084101CD070800F80043011F
:1020C000111541014908023E8600870101080319E4
:1020D00074287808F7004908023E86008701010845
:1020E0008600870177088100CB01080041016A035F
:1020F0006B04031D80280030EA000230EB008428C6
:102100000130EA020030EB3B6B084001B5004101B1
:102110006A084001B40088317A2008004001210893
:10212000A4002008A30020088400210885001200D4
:1021300003199F280130A0070030A13D93282308F0
:102140002002A0002408213BA10008000230410128
:102150006B066A04031DB1280130EA000030EB0071
:10216000B5280130EA070030EB3D6B084001B500AF
:1021700041016A084001B40088317A200800CE305D
:102180004001A00020084101A100CE304001A00084
:1021900020084101A000A2142210A40143018F01D4
:1021A0002830900092014F308D004E010F108F109B
:1021B0001914991408004001B2000230AF002F0832
:1021C000B300A701A70A3208AF00B0012F08A8008A
:1021D0003008A9003330B1003108AA002E30923106
:1021E000AA229031023040013306031D0800F22874
:1021F000003040016E02793003196D0203180800A7
:10220000FF30ED050330EE0546010E1E0D290630A8
:102210004001ED35EE0D890B092940016E0846019C
:102220008D0040016D0846018C000800003040011F
:102230006E02793003196D0203180800FF30ED05B6
:102240000330EE054601121E2B2906304001ED3504
:10225000EE0D890B272940016E08460191004001CF
:102260006D08460190000800003040016E02793090
:1022700003196D0203180800FF30ED050330EE0569
:102280004601161E492906304001ED35EE0D890B39
:10229000452940016E084601950040016D08460140
:1022A00094000800003040016E02793003196D027D
:1022B00003180800FF30ED050330EE0546011A1E35
:1022C000672906304001ED35EE0D890B6329400189
:1022D0006E084601990040016D084601980008000B
:1022E0004001A40024088600013087002008C03F78
:1022F0002108C13F2208A3002408023E86000130C5
:102300008700230881002408033E860001308700EF
:1023100081012408073E8600013087008101080002
:102320004001A800A401A5012008A200A3012208E1
:10233000A6002308A700281CA1292608A40727080F
:10234000A53D0130A635A70D890BA2290310A80CC5
:102350002808031D9B292508A1002408A0000800C7
:10236000BA29883117200800803184200800803184
:10237000032008009E31852691314101E200E301EE
:102380006308003A0319C529D0296208003A0319E5
:10239000B729013A0319B429033A0319B129D029FD
:1023A000080041013F080319EB2909306F020318A7
:1023B000E02901304001A00020084101EF07E92990
:1023C00009304001A00020084101EF00E929013057
:1023D000EF02013008003E08031908006F08031DD2
:1023E000E729EF01E9294001A6002308A5002208FA
:1023F000A400A435A50D2608860001308700240816
:10240000C03F2508C13F2108A4002608023E8600DF
:1024100001308700240881002008A4002608033E1C
:102420008600013087002408810008004001B800C0
:10243000043041013A020318242A0D3040013806C5
:10244000031D3808031D262A4101BA010D30400141
:102450003806031908003808B7003708B4004101EE
:102460003A089F31B32701304001B70037084101D6
:10247000BA0708009F310227923194312D249231FE
:102480009E31F92692319031BF2092319F3116272B
:1024900092319F31212792319231842292319F31A2
:1024A000372792319F312C2792319F3174279231F7
:1024B0009F31EC2792319331912308004001C800ED
:1024C000C601C70146084807C2004208860001301D
:1024D00087000108C3004308C50045080319080028
:1024E0004508C200C3014208B9004308BA004108C8
:1024F000C4004408BB009431622492310130400191
:10250000C6070030C73D622A41018C018D018E0152
:102510008F019201930198019A019F0142018C0160
:102520008D018E018F01900192015430930056303D
:1025300094009501960197019801D43091004E01C5
:102540008D1097147A304001A0001E30A1009E31FA
:102550009F2608004001AD0041012218CD2A40010C
:102560002D08AB002B08A0002708AC002C08A10008
:102570002908A3002808A20040309131F3219231AC
:1025800040304001AB002B08A0002A08AC002C080A
:10259000A100013095312025080040012A0886005D
:1025A00087018101810A08004001280829040319D4
:1025B000FC2AAD01AD0AA91BE72A0130A835A90DF7
:1025C000890BDE2A0130AC002C08AD07DB2A290874
:1025D0002B02031DED2A28082A02031CF32A2808CF
:1025E000AA022908AB3B0130A936A80C890BF42AB2
:1025F0000130AD02031DE72A2B08A9002A08A80014
:1026000008004001E6006208E8006108E7004201B6
:10261000B001B1014001670884006808850012001C
:102620000319272B6730E4006408D8006308E5002D
:102630006508D9006608973157279331400158083B
:102640004201B007400159084201B13D0A2B420145
:1026500031084001E200420130084001E100080079
:102660004001D700410125082604031D3F2B260801
:102670004001D600410125084001D500482B25081E
:10268000FF3E4001D500FF304101263D4001D6000C
:102690005208D40054084301A000A101A030400119
:1026A000D4005408C9005608CB005508CA00570882
:1026B0009531722540014A08D3004908D20008002C
:1026C00042019D1C652B1D121D1650085104031953
:1026D0001D19862B1908F700F8013708FA0036088B
:1026E000F900F935FA0DEE30FB002330FC007908D3
:1026F0007B0786007A087C3D87007708C03F780812
:10270000C13F0130B6070030B73D8E2BB601B7018F
:10271000D001D1011908F7007708FD004E018F1292
:1027200008004E019912C4304001A0001330A100EE
:102730009E31CC269331083042019F0090309D009D
:1027400004309E001F309B009C017B304001A000A4
:102750001E30A1009E31E72693318C304001A0004D
:102760001E30A1009E31F02693317C304001A00044
:102770001E30A1009E31DE264101CC01F401F3019F
:10278000CD014E01991608007408203E86000130E4
:102790008700810142011D1DD82B7408203E860050
:1027A0000130870081144D088A004C080A009331DB
:1027B00042019D1CE62B7408203E860001308700F4
:1027C00001154B088A004A080A0093317408203E1C
:1027D00086000130870001080319F52B42014908E2
:1027E0008A0048080A00933108009031462008000A
:1027F0004001A501A601200821040319282CA701E6
:10280000A70AA11B0D2C0130A035A10D890B042CAA
:102810000130A4002408A707012C0130A535A60D1E
:10282000890B0E2C21082302031D182C20082202DC
:10283000031C1F2C2008A2022108A33B25140130F1
:10284000A136A00C890B202C0130A702031D0D2CF2
:102850002608A1002508A000080040019801990160
:102860009A013F309200F030930006309400FF3020
:102870007E01CE00E030C3000730B800C401B901CA
:10288000CF01BA01C501D0013730BB00F030C6001E
:10289000FF30D10005307D01C50014307E01940069
:1028A0000B30A3000C30A400133095000930A500B4
:1028B0000A30A6000930A70004307D01C6000C30A4
:1028C000CB00080040013B08031D3B08031D6C2C96
:1028D00039089231162208003B08033E8600870122
:1028E0001600010403198F2C3B08033E8600870164
:1028F000403FBC00413FBD003B0A86008701403F8E
:10290000BE00413FBF003F08803AC0003D08803A0A
:102910004002031D8D2C3C083E02031808004001B4
:102920003B0A860087010130810741310318810A83
:10293000080092313A22943115304101E5004B30C4
:10294000E400BE30890BA22CE40BA22CE50BA22CD8
:1029500000009031002094319431D2249431883198
:10296000002094318B170B179031082094319F3140
:10297000C52794319E31BA26943140012108410186
:10298000B600400120084101B5008A310D22943182
:102990008A31F222943189313C2194319131B02134
:1029A0009431C52CC0304001A50025084101C50067
:1029B000C8304001A50025084101C400D0304001C5
:1029C000A50025084101C300D8304001A500250815
:1029D0004101C2000E304001A0000030A1000230D1
:1029E000A5002508A20041014508913170219431CC
:1029F0000C304001A0000030A1000230A5002508E5
:102A0000A200410142089131702194310E30400101
:102A1000A0000030A100A2014101430891317021C2
:102A200094310E304001A0000030A100A201A20AA2
:102A3000410144089131702194319F31A22708004F
:102A40004001A300410122185F2D02304001A20085
:102A5000210886008701220881002008A200410188
:102A6000200A860087014001220881002308A20075
:102A700041012008860087014001220881002108C9
:102A8000A20041012008023E860087014001220881
:102A900081000330A20022084101A0072008D13A9A
:102AA000031D582DCE304001A20022084101A00094
:102AB000A21021082006031D652D2214652D40015A
:102AC0002108860087018101810A400121088600D2
:102AD000870102300106031D08009E3194264E0135
:102AE0000F1408004001D1004101271C802D400136
:102AF0005108CC004C08C100490892315E22953142
:102B00004001CB1B882D4B08D0004A08CF008A2DEE
:102B1000CF01D001CD01CE014E08803ACC00500843
:102B2000803A4C02031D962D4F084D020318AA2D22
:102B300020304001B9000030BA005108CC004C08E8
:102B4000BB0094316224953101304001CD07003043
:102B5000CE3D8C2D41012718B62D40015108CC00E7
:102B60004C08C100490892315E2295314001490864
:102B7000A0000130A10090318E2040014F082007B5
:102B8000C9005008213DCA00080041013F0803194F
:102B9000DB2D02306D020318D42D01304001ED0011
:102BA0006D084101ED07E52D02304001ED006D0893
:102BB0004101ED00E52D3E080319E52D6D080319CF
:102BC000E42D0130ED02E52DED013C0803190A2E3C
:102BD0006D084001ED006D084101EC00C101C0012C
:102BE000C00A080057304101D100A030D200903116
:102BF0003120080063304101D100A030D200903173
:102C00003120080051304101D100A030D200903174
:102C1000312008006D084001ED00EE016E08003A19
:102C20000319132E1E2E6D08003A0319F22D013AD6
:102C30000319FA2D033A0319022E1E2E0800400133
:102C4000A8002808031DA31F352E2009AA0021096A
:102C5000AB002209AC002309AD00AA0A0319AB0A94
:102C60000319AC0A0319AD0A3D2E2308AD00220852
:102C7000AC002108AB002008AA002308220421048C
:102C80002004031D4C2E0030A3000030A2000030B1
:102C9000A1000030A00008009630A4002408A9007C
:102CA000FE302D050319732E0130A4002408A90756
:102CB0000130AD36AC0CAB0CAA0C890B592E502E42
:102CC0000130A4002408A9070130AA070030AB3D59
:102CD0000030AC3D0030AD3D0130AD36AC0CAB0C3E
:102CE000AA0C890B6D2EFF302D050319852E602E41
:102CF00002302902031C872E0130A9020130AA35B7
:102D0000AB0DAC0DAD0D890B7F2EAC1F782E2918A5
:102D1000912EFF30AA05FF30AB057F30AC05FF30A8
:102D2000AD050310A90C2908A400A501A601A7015F
:102D30001830A435A50DA60DA70D890B992E2408D2
:102D4000AA042508AB042608AC042708AD0428080B
:102D5000031DA31FAC2EAD172D08A3002C08A20045
:102D60002B08A1002A08A0000800410144089F3157
:102D700082279631003A0319132F9E31BA269631D5
:102D800041012F0840012002B700410130084001F5
:102D9000213BB800380841016902031DD32E4001D0
:102DA0003708410168020318132F9031A62096318D
:102DB000F42E9E31BA26963141012F08400120029F
:102DC000B700410130084001213BB80038084101FB
:102DD0006902031DEF2E4001370841016802031804
:102DE0001B2F9031762096319E31BA2696314001C4
:102DF00021084101B000400120084101AF006908ED
:102E0000803A4001B70080303702031D0A2F153089
:102E100041016802031C112FFF304101E807FF3018
:102E2000E93D01300800410143089F318227963176
:102E3000003A031DD92E410142089F318227963165
:102E4000003A03192A2F01304101EA000030EB005B
:102E50000130080041013F080319322F9031A620AC
:102E60009631112F3E080319392F90317620963173
:102E7000112F3C08031D112F3F08031D3E08031DA1
:102E8000552F43089F3182279631003A031D552F55
:102E9000410144089F3182279631003A031D552F86
:102EA00064304101E8000030E900003008004001D2
:102EB000E000580886008701403FDA00413FDB0010
:102EC0005A0884005B0885001200253A031DDD2F97
:102ED0005808860087010130810741310318810AB3
:102EE0004101A501A601A701A801FF304201B200DE
:102EF000FF30B3004001580886008701403FDA00E8
:102F0000413FDB005A0884005B0885001200633AE9
:102F1000031DAB2F5808860087010130810741311E
:102F20000318810A59088600870101088400850179
:102F3000023081070008DA005A08DF005F08DA0073
:102F40005A08D20060089331302340015308D90059
:102F50005208D8000800580886008701403FDA0070
:102F6000413FDB005A0884005B0885001200253AC7
:102F7000031DD22F58088600870101308107413197
:102F80000318810A2530B9000030BA006008DA0061
:102F90005A08BB009431622401304001D80000304F
:102FA000D9000800580886008701013081074131A7
:102FB0000318810AD801D901080058088600870142
:102FC000403FDA00413FDB005A0884005B0885007F
:102FD0000008DC00DD015C08B9005D08BA0060088B
:102FE000DE005E08BB00943162249731400158082E
:102FF000860087010130810741310318810ACC2FF7
:10300000003482342134003400340034003402347B
:1030100039340F3400340034003440348034003408
:103020003F3406345B344F3466346D347D340734BA
:103030007F346F3400340034003448340034533467
:10304000003477347C3439345E34793471346F34FD
:10305000763406341E3400343834003454343F346B
:103060007334673450346D3478343E340034003473
:1030700000346E340034393400340F3400340834F2
:1030800063345F347C3458345E347B3471346F3451
:10309000743402341E3400340634003454345C3446
:1030A0007334673450346D3478341C340034003455
:1030B00000346E340034393430340F34003400348A
:103CF400080008009031462008004E018F1008008B
:103D040041016A08080041016C0808004101B8013A
:103D1400B80A080042011D121D16080001340034BF
:103D24000A34003441014B0803190800942E013071
:103D34004101B1070030B23D0800400121084201B1
:103D4400C500400120084201C400080040012108C8
:103D540041018F004001200841018E00080040010C
:103D6400A000200841019F0042019117111408008E
:103D7400410132084001A100410131084001A00085
:103D84000800400121084201C70040012008420107
:103D9400C6000800400121084201CF00400120086C
:103DA4004201CE000800410139080319DC2EB90193
:103DB4000130080000300800400121084201C90018
:103DC400400120084201C8000800400121084201C6
:103DD400CD00400120084201CC0008004001210828
:103DE4004201CB00400120084201CA0008006030B3
:103DF40051018D008F01910106309300920108005A
:103E04004F0196019701980199019A019B019C0128
:103E14009D010800903406346434003401340034C5
:103E240002340234013401348C3046018E008D0199
:103E34008C0144011E08FC3901389E0008008C30B6
:103E4400460192009101900144011E08F33904389F
:103E54009E0008008C3046019600950194014401AF
:103E64001E08CF3910389E0008008C3046019A0095
:103E74009901980144011E083F3940389E0008000A
:103E84006400800101310130FE020030FF3B7F08F5
:103E94007E0403190034432FFE0012001E0001307B
:103EA400FE020030FF3B7F087E04031900344F2FCD
:103EB4004E018D10420144084504031908004508C9
:103EC4008A0044080A009F3108004E018C12420106
:103ED400460847040319080047088A0046080A00F0
:103EE4009F3108000130450190008F019101FF309E
:103EF4008D008C014E019010D03045018E000800D9
:103F04004001A0002008073E8600013087000330EE
:103F14000106031D8F2F0130080000300800043013
:103F2400F7007708F20701304101CA02031D9F2FF1
:103F34000430F7007708CB000800CB01CB0A080057
:103F4400400112157E0138113915400114149414DE
:103F540014157E014E10CE104E114F14CF144F1570
:103F640008004001B6003408E03E8400973003188E
:103F7400013E85000008B5003508AE003608343E21
:103F84009031DB20080060304001A0001330A10014
:103F94009E31CC269F3141016B084001B50041019F
:103FA4006A084001B40088317A2008004001A0006A
:103FB4002008073E8600013087000103031DEA2F15
:103FC4002008073E86000130870081010130080087
:103FD4000030080045304B019F00F9309D009C01E2
:103FE4004E018C12961602304001A0000030A10050
:103FF4009E31C32680304B019E0008002534633473
:104004002534633425346334253463340D34003467
:1040140025346334253463342534633420340D3437
:104024000034203425346334253463342534633434
:104034000D340034483445345934593459345934DE
:1040440059345934003425346334253463342034EA
:1040540020340D34003420342034253463342534A2
:1040640063340D34003442342D3425347534203413
:1040740020340D3400342534633420342034203487
:104084000D340034203420342034253463340D348A
:10409400003420342034203420340D34003450349F
:1040A4004334203420340D34003441344E34493404
:1040B40020340D340034533445344C3431340D340D
:1040C400003442344534413454340D340034203403
:0840D4002034203420340034B4
:020000040001F9
:0A000E00EC3FFF3F9F3FFF3FFF3F25
:00000001FF
