:020000040000FA
:1000000080313028643400347E1480314E01961AD9
:100010008C1E0E289F317B2780312E280B1F2E2807
:1000200099188F1C17289E31A62680312E28191862
:100030000F1C1E288E31AE2680312E2897188D1C5D
:1000400025289F316E2780312E28991A8F1E2E2841
:10005000420163088A0062080A0080317E100900AC
:1000600080313228803102208031FC008031032031
:100070008031FD0041019E31B4268031EC009E317B
:10008000B5268031ED009E31B6268031EE009E31DE
:10009000B7268031EF0001308400883085004201AE
:1000A0001200E4001200E5001200E6001200E70072
:1000B0001200E8001200E900EE30840023308500D1
:1000C0000230FE000430FF009F3162278031F701CB
:1000D000F801F901FA01FB01A0308400003085002D
:1000E0002730FE000030FF009F3162278031203032
:1000F0008400013085003830FE000030FF009F3161
:1001000062278031A0308400013085004030FE003D
:100110000030FF009F3162277E1040019431D82CBF
:1001200040014B088039D0005008D5004B35D00035
:100130005008DB00CA1B5B145B080319AC285B0A80
:10014000031DAA280030CB000030CA000030C900CF
:100150000030C800CA17B4280030CB000030CA00F5
:100160000030C9000030C8004F088039D000500866
:10017000D5064F35D0005008D600CE1B5614560871
:100180000319CF28560A031DCD280030CF000030B8
:10019000CE000030CD000030CC00CE17D728003084
:1001A000CF000030CE000030CD000030CC0056082B
:1001B000031D5B08031DE5280030CB000030CA009A
:1001C0000030C9000030C80008004808D0005008BE
:1001D000A0004E089131B821803140012108E10092
:1001E0002008E0006008D000D101D201D3015308FB
:1001F000DA005208D9005108D8005008D700610829
:10020000D000D101D201D3015308DF005208DE0033
:100210005108DD005008DC004908D0005008A0005B
:100220004D089131B821803140012108E1002008BA
:10023000E0006008D000D101D201D3015008D707F7
:100240005108D83D5208D93D5308DA3D6108D00025
:10025000D101D201D3015008DC075108DD3D52081D
:10026000DE3D5308DF3D4A08D0005008A0004C088E
:100270009131B821803140012108E1002008E000DF
:100280006008D000D101D201D3015008D70751082E
:10029000D83D5208D93D5308DA3D6108D000D1015C
:1002A000D201D3015008DC075108DD3D5208DE3D84
:1002B0005308DF3D0830D735D80DD90DDA0D890B3D
:1002C0005B294908D0005008A0004C089131B821A2
:1002D000803140012108E1002008E0006008D707D4
:1002E0006108D83D0030D93DDA3D4808D0005008BB
:1002F000A0004D089131B821803140012108E10072
:100300002008E0006008D7076108D83D0030D93DDB
:10031000DA3D0830D735D80DD90DDA0D890B8A2989
:100320004808D0005008A0004C089131B821803115
:1003300040012108E1002008E0006008D7076108BB
:10034000D83D0030D93DDA3D4908D0005008A00022
:100350004E089131B821803140012108E100200888
:10036000E0006008DC076108DD3D0030DE3DDF3D78
:100370004A08D0005008A0004D089131B8218031C2
:1003800040012108E1002008E0006008DC07610866
:10039000DD3D0030DE3DDF3D4A08D0005008A000C2
:1003A0004E089131B821803140012108E100200838
:1003B000E0006008D0006108D100D201D30108300C
:1003C000D035D10DD20DD30D890BE0295008DC07B3
:1003D0005108DD3D5208DE3D5308DF3D5708D0008F
:1003E0005808D1005908D2005A08D3001830D33623
:1003F000D20CD10CD00C890BF7295008DC0751081E
:10040000DD3D5208DE3D5308DF3D0830D735D80DBD
:10041000D90DDA0D890B062A5B085607D000D101E9
:10042000D10D5008823EE000FF30513DE100DE1B5F
:100430002E2A0130DC35DD0DDE0DDF0D890B1A2A89
:10044000DA1B5C140130D735D80DD90DDA0D890BC4
:10045000232AFF30E007FF30E13D172AD601DA1FDB
:10046000472AFF305705D000FF305805D100FF3034
:100470005905D2007F305A05D30053085204510465
:10048000500403195C18452A472AD601D60A560893
:100490000319702A0130DC070030DD3D0030DE3DFD
:1004A0000030DF3D5F1C702A5C08D0005D08D10081
:1004B0005E08D2005F08D3000130D400D337D20CDD
:1004C000D10CD00CD40B5E2A5308DF005208DE009A
:1004D0005108DD005008DC000130E0070030E13D4C
:1004E0006108803AD00080305002031D792AFF3025
:1004F0006002031C852A7F304001DF008030DE006F
:100500000030DD000030DC00AF2A40016108803A95
:10051000D00080305002031D8F2A01306002031882
:100520009C2A00304001DF000030DE000030DD009A
:100530000030DC00D501AF2A40016008D00050082F
:10054000DB00FF30DC05FF30DD057F30DE050030ED
:10055000DF055B18DE175B36D0005008DF0055085A
:10056000D0005008DF045F08CB005E08CA005D08B9
:10057000C9005C08C80008004001EF01EF0A410112
:100580003D089F31EC2782314101D1005108B6006E
:100590003C089F31EC2782314101D1005108B50060
:1005A0003E089F31EC2782314101D1005108B4004F
:1005B0003B089F31EC2782314101D1005108B30043
:1005C0006E03031D082B9E31EE26823142014A083C
:1005D000400120024101D10042014B084001213B72
:1005E0004101D2001330520288300319510203181E
:1005F000082B88315C20823141013608031D052B10
:1006000035080319340803190800B801B80A0800AE
:100610003808031D0F2B6E03031D0F2BB901EE01CC
:1006200034080319380803191E2B3708031D1E2B25
:10063000B801B80A88315C208231532B3908031D78
:10064000252B8931702182314B2B02303906031D55
:100650002D2B4001EF01EF0A532B390303193C2BDB
:100660000430390603193C2B0530390603193C2B9D
:1006700006303906031D402B9731142782314B2B4E
:1006800003303906031D512B3708031D512B310848
:100690008B31602382314101D10051084001EF00CC
:1006A000532B4001EF0140016F080319622B9E316B
:1006B000EE268231400121084201C5004001200898
:1006C0004201C4009E31EE268231420144084001BD
:1006D00020024101D100420145084001213B410176
:1006E000D20013305202883003195102031C8A2BA6
:1006F000003090312B2082319E31EE268231400134
:100700002008773E4201C400EC304001213D420107
:10071000C5008E2B013090312B20823141013908E8
:10072000031D232C3808031D232C6D084001B50040
:1007300041016C084001B4001E2C3808031D262C12
:100740008130C700A030C800903140208231202C79
:100750003808031D2A2C3208031D2A2C7B30C700C1
:10076000A030C800903140208231202C3808031D71
:100770002D2C3208031D2D2C4D30C700A030C80091
:100780006F08D100D2015108C9005208CA00903147
:1007900040208231202C3808031D312C3208031DE3
:1007A000312C4530C700A030C8006F08D100D201FD
:1007B0005108C9005208CA00903140208231202CD3
:1007C0003808031D352C3208031D352C3D30C70079
:1007D000A030C8006F08D100D2015108C9005208EA
:1007E000CA00903140208231202C3808031D392C5A
:1007F0003208031D392C3530C700A030C8006F08FF
:10080000D100D2015108C9005208CA0090314020DD
:100810008231202C0030112C0130112C0230112C8F
:1008200003309231432282314101D100D20151087B
:100830004001B400410152084001B500873134271E
:100840004101B7010800320303199D2B023039061C
:100850000319A82B39030319B62B043039060319E1
:10086000CB2B053039060319E02B06303906031966
:10087000F52B03303906031D08003808031D080056
:100880003108D100D2015208003A0319482C202C1B
:100890005108003A03190A2C013A03190C2C033AA7
:1008A00003190E2C013A0319102C202C08004001CA
:1008B00035088039B6003608BF003535B600360831
:1008C000C600B41B461446080319742C460A031DBF
:1008D000712C0030B5000030B4000030B30000309F
:1008E000B200B417B5017C2C0030B5000030B40064
:1008F0000030B3000030B20031088039B60036084D
:10090000BF063135B6003608C700B01B471447088C
:100910000319982C470A031D952C0030B1000030B4
:10092000B0000030AF000030AE00B017B101A02C15
:100930000030B1000030B0000030AF000030AE0039
:10094000310830042F042E04031DBF2C0030B500E5
:100950000030B4000030B3000030B2008030B40486
:100960007F30B5043F08B6003608B5043508B1003D
:100970003408B0003308AF003208AE000800460863
:10098000031DCB2C0030B1000030B0000030AF00B0
:100990000030AE0008004608B600B7013708B900BD
:1009A00047083602B800031CB90338087F3EC00070
:1009B0000030393DC1003508BE003408BD003308A1
:1009C000BC003208BB000030B5000030B40000307D
:1009D000B3000030B2000030C5000030C400003069
:1009E000C3000030C200C7011A3047020318302D7F
:1009F00047080319122D0130BB35BC0DBD0DBE0DCE
:100A0000890BFC2C0130B235B30DB40DB50D890B3B
:100A1000032DC51B32140130C235C30DC40DC50DE5
:100A2000890B0C2D31083E02031D202D30083D029C
:100A3000031D202D2F083C02031D202D2E083B02F4
:100A4000031C2B2D45172E08BB022F08BC3B30087A
:100A5000BD3B3108BE3B0130B6003608C707F42C59
:100A60003E083D043C043B04031D4214B41B4D2DC1
:100A70000130B235B30DB40DB50D890B392DC51B41
:100A800032140130C235C30DC40DC50D890B422D82
:100A9000FF30C007FF30C13D362DC701C51F662D91
:100AA000FF304205B600FF304305B700FF30440574
:100AB000B8007F304505B9003908380437043604DA
:100AC00003193218642D662DC701C70A4708031998
:100AD0008F2D0130B2070030B33D0030B43D0030FF
:100AE000B53D351C8F2D3208B6003308B7003408E9
:100AF000B8003508B9000130BA00B937B80CB70CE6
:100B0000B60CBA0B7D2D3908B5003808B40037088B
:100B1000B3003608B2000130C0070030C13D4108C3
:100B2000803AB60080303602031D982DFF30400217
:100B3000031CA72DFF304001C0000030C100003071
:100B4000B5000030B4000030B3000030B200400106
:100B50004108803AB60080303602031DB12D0130C5
:100B600040020318BF2D4001C001C1010030B50093
:100B70000030B4000030B3000030B200BF014001CB
:100B80004008B6003608C600461CC82DB417CC2D48
:100B90007F30B6003608B4054636B6003608B500D4
:100BA000B22C41016E08031D08005E08E100E2015D
:100BB000E301E40164084001A3004101630840012E
:100BC000A200410162084001A10041016108400109
:100BD000A00001308831DA20853140012308B500BA
:100BE0002208B4002108B3002008B2004330B1004D
:100BF0007F30B0000030AF000030AE0084315724A9
:100C0000853140013108CF003008CE002F08CD00DB
:100C10002E08CC004230CB00FE30CA000030C900A4
:100C20000030C80080319020853140014B08E5003C
:100C30004A08E4004908E3004808E20096314026EB
:100C40008531400163084101C8004001620841014B
:100C5000C70091312021853141015F08E100E201A7
:100C6000E301E40164084001A3004101630840017D
:100C7000A200410162084001A10041016108400158
:100C8000A00001308831DA20853140012308B50009
:100C90002208B4002108B3002008B2004330B1009C
:100CA0007F30B0000030AF000030AE0084315724F8
:100CB000853140013108CF003008CE002F08CD002B
:100CC0002E08CC004230CB00FE30CA000030C900F4
:100CD0000030C80080319020853140014B08E5008C
:100CE0004A08E4004908E3004808E200963140263B
:100CF0008531400163084101C8004001620841019B
:100D0000C70091313E21853141016008E100E201D7
:100D1000E301E40164084001A300410163084001CC
:100D2000A200410162084001A100410161084001A7
:100D3000A00001308831DA20853140012308B50058
:100D40002208B4002108B3002008B2004330B100EB
:100D50007F30B0000030AF000030AE008431572447
:100D6000853140013108CF003008CE002F08CD007A
:100D70002E08CC004230CB00FE30CA000030C90043
:100D80000030C80080319020853140014B08E500DB
:100D90004A08E4004908E3004808E200963140268A
:100DA0008531400163084101C800400162084101EA
:100DB000C70091315C21853141015D08E100E2010C
:100DC000E301E40164084001A3004101630840011C
:100DD000A200410162084001A100410161084001F7
:100DE000A00001308831DA20853140012308B500A8
:100DF0002208B4002108B3002008B2004330B1003B
:100E00007F30B0000030AF000030AE008431572496
:100E1000853140013108CF003008CE002F08CD00C9
:100E20002E08CC004230CB00FE30CA000030C90092
:100E30000030C80080319020853140014B08E5002A
:100E40004A08E4004908E3004808E20096314026D9
:100E50008531400163084101C80040016208410139
:100E6000C70091317A210800273040013502103047
:100E700003193402031C5F2F7930B6003608AE0028
:100E8000343091310321873179304001B600360882
:100E9000AE00353091310321873179304001B60001
:100EA0003608AE0036309131032187317930400168
:100EB000B6003608AE0037309131032108000A3001
:100EC000A8000030A9003508AB003408AA00923110
:100ED000DF2287314001290885002808840010306E
:100EE00084079830853D0008B6003608AE003730DC
:100EF0009131032187310A304001A8000030A90058
:100F00000A30A0000030A1003508A3003408A20078
:100F100094313624873140012108AB002008AA0013
:100F20009231DF228731400129088500280884009A
:100F3000103084079830853D0008B6003608AE00B2
:100F400036309131032187310A304001A80000304A
:100F5000A9006430A0000030A1003508A3003408C7
:100F6000A20094313624873140012108AB002008CB
:100F7000AA009231DF228731400129088500280824
:100F80008400103084079830853D0008B60036088C
:100F9000AE0035309131032187310A304001A8007D
:100FA0000030A900E830A0000330A1003508A300FC
:100FB0003408A20094313624873140012108AB0067
:100FC0002008AA009231DF228731400129088500DC
:100FD00028088400103084079830853D0008B6004A
:100FE0003608AE0034309131032108004F019601DC
:100FF0009701980199019A019B019C019D010800AC
:101000000800013400340A340034903406344001BE
:10101000A30041012218492802304001A200210802
:1010200086008701220881002008A2004101200AD1
:101030008600013087004001220881002308A200B9
:10104000410120088600013087004001220881000C
:101050002108A20041012008023E860001308700DD
:101060004001220881000330A20022084101A007AC
:101070002008583A031D422855304001A20022089A
:101080004101A000A21021082006031D4F282214B0
:101090004F2840012108860087018101810A400113
:1010A00021088600870102300106031D08009E31D9
:1010B000B8264E010F140800043041013A06031906
:1010C000692805303A060319692806303A06031DD7
:1010D0006B28BA01BA0A36080319802803303A028D
:1010E0000318792801304001ED006D084101BA076D
:1010F0008A2803304001ED006D084101BA008A28BA
:10110000350803198A283A08031989280130BA02D8
:101110008A28BA0133080319BF283A084001ED00B4
:101120006D084101B900B801B701B70A0800753070
:101130004101C700A030C80090314020080087302E
:101140004101C700A030C80090314020080087301E
:101150004101C700A030C80090314020080069302C
:101160004101C700A030C8009031402008006F3016
:101170004101C700A030C8009031402008003A0863
:101180004001ED00EE016E08003A0319C828D92885
:101190006D08003A0319AF28013A03199F28033A52
:1011A00003199728013A0319B728073A0319A72802
:1011B000D92808004001A8002808031DA31FF02813
:1011C0002009AA002109AB002209AC002309AD00C7
:1011D000AA0A0319AB0A0319AC0A0319AD0AF828C5
:1011E0002308AD002208AC002108AB002008AA00AB
:1011F0002308220421042004031D07290030A30032
:101200000030A2000030A1000030A000080096309D
:10121000A4002408A900FE302D0503192E29013051
:10122000A4002408A9070130AD36AC0CAB0CAA0C05
:10123000890B14290B290130A4002408A9070130C7
:10124000AA070030AB3D0030AC3D0030AD3D013071
:10125000AD36AC0CAB0CAA0C890B2829FF302D0540
:10126000031940291B2902302902031C422901309D
:10127000A9020130AA35AB0DAC0DAD0D890B3A2991
:10128000AC1F332929184C29FF30AA05FF30AB05C4
:101290007F30AC05FF30AD050310A90C2908A40070
:1012A000A501A601A7011830A435A50DA60DA70D0F
:1012B000890B54292408AA042508AB042608AC0489
:1012C0002708AD042808031DA31F6729AD172D08A3
:1012D000A3002C08A2002B08A1002A08A0000800E7
:1012E00041013D089F3196278931003A0319C629EB
:1012F0009E31EE26893141012B0840012002B700C2
:1013000041012C084001213BB80038087D02031D33
:101310008B2937087C020318C6299031B420893103
:10132000A9299E31EE26893141012B084001200276
:10133000B70041012C084001213BB80038087D026C
:10134000031DA42937087C020318CE29903184207C
:1013500089319E31EE268931400121084101AC00DE
:10136000400120084101AB007D08803A4001B700F0
:1013700080303702031DBE2915307C02031CC429AE
:10138000FF30FC07FF30FD3D0130080041013C0803
:101390009F3196278931003A031D912941013B086D
:1013A0009F3196278931003A0319DD290130410127
:1013B000EC000030ED00013008004101360803194F
:1013C000E5299031B4208931C42935080319EC2965
:1013D000903184208931C4293308031DC42936087B
:1013E000031D3508031D072A3C089F3196278931C4
:1013F000003A031D072A41013D089F319627893194
:10140000003A031D072A6430FC000030FD00003064
:1014100008004001E000580886008701403FDA00DC
:10142000413FDB005A0884005B0885001200253A22
:10143000031D8E2A5808860087010130810741313B
:101440000318810A4201B201B301B601B701FF30AE
:10145000B400FF30B5004001580886008701403FC6
:10146000DA00413FDB005A0884005B088500120067
:10147000633A031D5C2A5808860087010130810702
:1014800041310318810A5908860087010108840048
:101490008501023081070008DA005A08DF005F0882
:1014A000DA005A08D200600893313B234001530808
:1014B000D9005208D8000800580886008701403F2C
:1014C000DA00413FDB005A0884005B088500120007
:1014D000253A031D832A58088600870101308107B9
:1014E00041310318810A2530B9000030BA00600884
:1014F000DA005A08BB009431A12401304001D80021
:101500000030D900080058088600870101308107A3
:1015100041310318810AD801D90108005808860012
:101520008701403FDA00413FDB005A0884005B0836
:1015300085000008DC00DD015C08B9005D08BA0028
:101540006008DE005E08BB009431A1248A314001AE
:101550005808860087010130810741310318810A4C
:101560007D2A4101D40054080319DB2A97318327CF
:101570008A3141014A08D8004908D7004808D600F6
:101580004708D50058084001E500410157084001CF
:10159000E400410156084001E300410155084001C3
:1015A000E200963140268A3140016208EE006E0862
:1015B0004101DA00DC2ADA0151080319042B9731C2
:1015C00083278A3141014A08D8004908D7004808D2
:1015D000D6004708D50058084001E50041015708EA
:1015E0004001E400410156084001E3004101550873
:1015F0004001E200963140268A3140016208EE0047
:101600006E084101DC00052BDC01500803192D2B6D
:10161000973183278A3141014A08D8004908D70009
:101620004808D6004708D50058084001E5004101A8
:1016300057084001E400410156084001E300410120
:1016400055084001E200963140268A314001620887
:10165000EE006E084101DB002E2BDB01520803195E
:10166000562B973183278A3141014A08D80049080F
:10167000D7004808D6004708D50058084001E500C3
:10168000410157084001E400410156084001E300D0
:10169000410155084001E200963140268A3140015F
:1016A0006208EE006E084101D900572BD9015C0891
:1016B000D3005B08D2005A08D1005908D0000800B6
:1016C0004001A50041013D089F3196278B31003A2A
:1016D0000319C52B9E31EE268B3141012B084001A9
:1016E0002002A30041012C084001213BA400240852
:1016F0007D02031D7D2B23087C020318C52B2508C2
:10170000953159258B319D2B9E31EE268B31410130
:101710002B0840012002A30041012C084001213B7D
:10172000A40024087D02031D972B23087C020318C4
:10173000CD2B250894316B248B319E31EE268B31D5
:10174000400121084101AC00400120084101AB00EB
:101750007D08803A4001A30080302302031DB22B94
:101760000B307C02031CC32BFF30FC07FF30FD3D18
:10177000C32B40012508953159258B31C32B4001DE
:10178000250894316B240130080041013C089F3149
:1017900096278B31003A031D842B41013608031D27
:1017A000B92B3508031DBF2B3308031DE72BFE2B78
:1017B0004101B101B10AC32B0230DF2B0330A3007A
:1017C00023084101B100C32B4101B101C32B4001EA
:1017D0002508A300A4012408003A0319F02BC32B09
:1017E0002308003A0319D82B013A0319DC2B033ADA
:1017F0000319DE2B013A0319E42BC32B3608031D12
:101800003508031D162C3C089F3196278B31003A72
:10181000031D162C41013D089F3196278B31003A5C
:10182000031D162C6430FC000030FD000030080061
:101830009E31EE268C3142013E0840012002A80074
:1018400042013F084001213BA900420167084001D5
:101850002902031D2F2C4201660840012802031CA7
:1018600008009E31EE268C31400121084201BF0064
:10187000400120084201BE0041012E03031D462CF9
:1018800001304201BC070030BD3D4D2C4201BC017E
:10189000BD011E30E6000030E70041012E03031DAC
:1018A000942C2D08031D942CAF01AF0A3230420155
:1018B000E6000030E7009E31EE268C3142014208FE
:1018C00040012002AA00420143084001213BAB0035
:1018D0009E31EE268C31400121084201C3004001B7
:1018E00020084201C200003040012B02963003194B
:1018F0002A020318812C90304201C0000130C1003F
:10190000942C2B08A1002A08A0006030A200EA3025
:10191000A300943136248C31400121084201C100DA
:10192000400120084201C00041012E084001A800EA
:1019300028084101AD00AE0142013D08803A400156
:10194000A80080302802031DA82C043042013C026C
:10195000031CC72C01304201E8070030E93D69084B
:101960004001A100420168084001A0009E31DC2630
:101970008C314201BC01BD019E31EE26400121089F
:101980004201C300400120084201C20008009E310C
:10199000EE268C314201420840012002A80042019B
:1019A00043084001213BA90003302902E930031913
:1019B0002802031C080001304201E8020030E93B24
:1019C00069084001A100420168084001A0009E3161
:1019D000DC2608009E31EE268C3142013808400199
:1019E00020024101E500420139084001213B41014B
:1019F000E60000306602323003196502031C08005D
:101A00009E31EE268C31400121084201B90040018F
:101A100020084201B80040019A129F3109278C31F9
:101A20004101E50065084001EF006F08031D9A16AB
:101A30006F08031D2F2D4101D001D101D2010030CB
:101A40008A31B1228C3141015308E0005208DF0095
:101A50005108DE005008DD008531D1250800410124
:101A600029032A04031D722DD0015A2DD001522DB5
:101A7000D001D00AD101D10AD2015D2DD001D00A06
:101A8000492DD001D00A4E2DD001D101D10A5B2DB4
:101A9000D001D101D10AD201562DD001D101542D4E
:101AA000D001D00AD101D10AD201D20A01305E2D73
:101AB000D001D00AD101D201D20A00308A31B1223C
:101AC0008C3141015308E0005208DF005108DE006C
:101AD0005008DD008531D12501304101A9070030D2
:101AE000AA3D0800023029062A040319582D0330A4
:101AF00029062A040319382D043029062A0403195B
:101B0000362D053029062A040319382D06302906FA
:101B10002A0403193E2D083029062A040319412DF1
:101B2000093029062A040319582D0A3029062A04E7
:101B30000319442D0B3029062A040319482D0C30B3
:101B400029062A0403194D2D0D3029062A040319EC
:101B5000502D0E3029062A040319582DD001D00A21
:101B6000D101D10AD201D20A00308A31B1228C319E
:101B700041015308E0005208DF005108DE00500820
:101B8000DD008531D12501304101A9000030AA00D6
:101B900008009E31EE268D3140012108A700200863
:101BA000A6004201480840012602A200420149085D
:101BB0004001273BA300003023020A300319220210
:101BC000031C080027084201C90040012608420101
:101BD000C8004001A5012508A2000230A235FF3E41
:101BE000031DEE2D2235C03EA3002308A8002808BF
:101BF000860001308700403FA200413FA300220839
:101C00008600230887000130A4002808023E8400D3
:101C100001308500000A0D2EA435890B0C2E2408F6
:101C20000105031D2C2E2808033E86000130870085
:101C30008101810A2808073E8600013087000108DB
:101C4000031D322E2808053E860001308700260835
:101C5000C03F2708C13F322E2808033E86000130CE
:101C6000870081012808033E8600013087000108B3
:101C7000031D4A2E2808043E860001308700010318
:101C8000031D4A2E2808073E860001308700810187
:101C9000810A972E2808033E860001308700010341
:101CA000031D782E2808043E8600013087000103BA
:101CB000031D782E2808053E860001308700403F2E
:101CC0002602A200413F273BA30000302302C93077
:101CD00003192202031C6E2E03306F2E0230A20065
:101CE0002808073E86000130870022088100972ED1
:101CF0002808033E8600013087000108031D972E47
:101D00002808043E8600013087000103031D972E3A
:101D10002808073E86000130870003300106031DB6
:101D2000972E2808073E8600013087008101280889
:101D3000033E8600013087000108A2002808043E07
:101D4000860001308700220881000130A2002208AD
:101D5000A5070430250203180800EB2D4E010F10D3
:101D60004301901FD32F90134101C4014208023E4A
:101D70008600013087000108860087018101810A01
:101D8000C2010800A21808002108F2007208C2006F
:101D900021088600013087000108F2007208C300A4
:101DA00021088600013087000130413FF7000330F1
:101DB000F2007208A1072108583A031DE32E55309E
:101DC000F2007208A1002210210820060319A214B3
:101DD000430111140230F20072084101C4000800EE
:101DE0007C2F4301111FFD2E0130F20072084101CA
:101DF000A40704309031CD2008007B08F3007A0856
:101E0000F200F336F20C72088C007A1C0D2F0B30A6
:101E1000F20072084101C40008000330F2007208A9
:101E20004101C40008004301111F1F2F0130F200BF
:101E300072084101A40704309031CD2008009114AC
:101E40007B08F3007A08F2007308F200F301063011
:101E50007205F40000307305F500F0307404FA00E8
:101E600000307504FB007A144101BF01BF0AEA2E5D
:101E70003F030319512F7708860001308700403F48
:101E8000FA00413FFB0077088600013087000130EF
:101E9000433FC10077088600013087000130423F90
:101EA000C0007A0843018C007A1C0D2F0530F20027
:101EB00072084101C40008004301111F6A2F01305C
:101EC000F20072084101A40743011113053090315B
:101ED000CD20080001304101C002400A031D7F2FC0
:101EE0000430F2007208F7070130C302031D7C2F93
:101EF00000309031CD20080043019114EA2E4108B2
:101F000086008701010843018C000130F20072084D
:101F10004101C10708004301111F992F0130F20050
:101F200072084101A40704309031CD204301111300
:101F3000080091150830F20072084101C400080041
:101F40000830F2007208C4004301911508004301F3
:101F50000C08F200410141088600870172088100E7
:101F60000130F2007208C1070130C0020319C02F0E
:101F7000430191120630F20072084101C400C42FDF
:101F8000430191169F31A527430111160800003027
:101F90009031CD2008000130F2007208A40706300D
:101FA0009031CD20080041014408F200F30173088C
:101FB000003A0319DC2FCB2F7208003A0319C22E06
:101FC000013A0319F02E033A0319382F013A031985
:101FD0005C2F073A0319C72F013A03198B2F033AD5
:101FE0000319A02F013A0319C72F0F3A0319A72F7E
:101FF000023A0319F12E013A0319132FCB2F0800CF
:1020000041013908080045304B019F00F9309D001F
:102010009C014E018C1296169E304001A0001E308D
:10202000A1009E31F72680304B019E000800013050
:1020300090312B2090318D304101C700A030C80075
:1020400090314020903167304101C700A030C80076
:102050009031402008004001B400340803193928A9
:10206000AE01AE0A2430913103214201CC01CC0AE9
:102070000800AE012430913103214201CC01080057
:10208000C9304001E9006908EC00410148084001FD
:10209000E200410147084001E1006C30E9006908B5
:1020A000E300003093310C2308004201690840012D
:1020B000A100420168084001A0009E31DC26903159
:1020C000AC304001A0001E30A1009E31D3269031DB
:1020D0000F309E31E526080042011908F00079080A
:1020E000283E860001308700700881000130F00032
:1020F0007008F907083079020318F9010130F0007F
:1021000070084101C607080041016C036D04031DFE
:102110008E280030EC000230ED0092280130EC02F5
:102120000030ED3B6D084001B50041016C084001F5
:10213000B40087313427080040012108A40020089A
:10214000A300200884002108850012000319AD288F
:102150000130A0070030A13DA12823082002A000E3
:102160002408213BA1000800023041016D066C04E7
:10217000031DBF280130EC000030ED00C328013002
:10218000EC070030ED3D6D084001B50041016C08E1
:102190004001B400873134270800F10043011115D4
:1021A00041014208023E8600013087000108031900
:1021B000E5287108F0004208023E860001308700E1
:1021C00001088600870170088100C40108005530AD
:1021D0004001A00020084101A10055304001A000AD
:1021E00020084101A000A2142210A40143018F0184
:1021F0002830900092014F308D004E010F108F104B
:102200001914991408004001B2000230AF002F08E1
:10221000B300A701A70A3208AF00B0012F08A80039
:102220003008A9003330B1003108AA002E309231B5
:10223000B5229131023040013306031D08001A29EE
:10224000003041014802803003194702031808009A
:10225000FF30C7050330C80546010E1E352906307C
:102260004101C735C80D890B312941014808460194
:102270008D004101470846018C00080000304101F3
:10228000480280300319470203180800FF30C705D1
:102290000330C8054601121E532906304101C735D7
:1022A000C80D890B4F2941014808460191004101A1
:1022B0004708460190000800003041014802803084
:1022C0000319470203180800FF30C7050330C8058B
:1022D0004601161E712906304101C735C80D890B0C
:1022E0006D29410148084601950041014708460112
:1022F0009400080000304101480280300319470271
:1023000003180800FF30C7050330C80546011A1E30
:102310008F2906304101C735C80D890B8B29410132
:102320004808460199004101470846019800080005
:102330004001A40024088600013087002008C03F27
:102340002108C13F2208A3002408023E8600013074
:102350008700230881002408033E8600013087009F
:1023600081012408073E86000130870081010800B2
:102370004001A800A401A5012008A200A301220891
:10238000A6002308A700281CC9292608A407270897
:10239000A53D0130A635A70D890BCA290310A80C4D
:1023A0002808031DC3292508A1002408A00008004F
:1023B0004001A6002308A5002208A400A435A50D0D
:1023C00026088600013087002408C03F2508C13F49
:1023D0002108A4002608023E860001308700240858
:1023E00081002008A4002608033E860001308700F3
:1023F0002408810008004001B80004304101300287
:102400000318092A0D3040013806031D3808031D42
:102410000B2A4101B0010D304001380603190800B4
:102420003808B7003708B400410130089F31C7278A
:1024300001304001B70037084101B007080087317B
:10244000F62792319331CF2392319F312D2792314C
:102450009031E72092319F31362792319F314127C9
:10246000923192318F2292319F31572792319F3191
:102470004C2792319F31882792319031032092313D
:1024800093319C2308004001A200522A41012608F2
:1024900008004101270808004101280808004101FF
:1024A000250808002208A000A1012108003A03190C
:1024B0005A2A682A2008003A0319462A013A0319C1
:1024C000492A033A03194C2A013A03194F2A682A68
:1024D00008004001C800C601C70146084807C200FD
:1024E00042088600013087000108C3004308C50088
:1024F0004508031908004508C200C3014208B90095
:102500004308BA004108C4004408BB009431A12428
:10251000923101304001C6070030C73D6D2A4101AC
:102520008C018D018E018F019201930198019A0116
:102530009F0142018C018D018E018F01900192015A
:1025400054309300563094009501960197019801FC
:10255000D43091004E018D1097149C304001A000A2
:102560001E30A1009E31D32608004001AD0041017C
:102570002218D82A40012D08AB002B08A0002708FC
:10258000AC002C08A1002908A3002808A2005130A3
:102590009131D821923151304001AB002B08A0007D
:1025A0002A08AC002C08A10001308831072008005F
:1025B00040012A08860087018101810A0800400144
:1025C000280829040319072BAD01AD0AA91BF22A1B
:1025D0000130A835A90D890BE92A0130AC002C087F
:1025E000AD07E62A29082B02031DF82A28082A022B
:1025F000031CFE2A2808AA022908AB3B0130A93691
:10260000A80C890BFF2A0130AD02031DF22A2B080A
:10261000A9002A08A80008004001E6006208E800B6
:102620006108E7004201B001B10140016708840080
:102630006808850012000319322B6730E400640833
:10264000D8006308E5006508D90066088A310922C8
:102650009331400158084201B00740015908420136
:10266000B13D152B420131084001E2004201300822
:102670004001E10008004001D70042013208330464
:10268000031D4A2B33084001D600420132084001A5
:10269000D500532B3208FF3E4001D500FF304201E8
:1026A000333D4001D6005208D40054084301A00035
:1026B000A101A0304001D4005408C9005608CB0045
:1026C0005508CA0057089531ED2540014A08D30046
:1026D0004908D200080042019D1C702B1D121D16D6
:1026E0006408650403191D19912B1908F000F10104
:1026F0003B08F3003A08F200F235F30DEE30F40037
:102700002330F5007208740786007308753D870052
:102710007008C03F7108C13F0130BA070030BB3DAF
:10272000992BBA01BB01E401E5011908F00070081A
:10273000F6004E018F1208004E019912023040013E
:10274000A0001430A1009F310027933108304201CE
:102750009F0090309D0004309E001F309B009C0124
:102760009D304001A0001E30A1009F311B279331F6
:10277000B0304001A0001E30A1009F3124279331CA
:10278000A3304001A0001E30A1009F31122741015B
:10279000C501F901F801C6014E0199160800400172
:1027A000980199019A013F309200F0309300263051
:1027B0009400FF307E01CE00E030C3000730B80047
:1027C000C401B901CF01BA01C501D0013730BB0046
:1027D000F030C600FF30D10005307D01C500143057
:1027E0007E0194000B30A3000C30A4001330950040
:1027F0000A30A6000930A70004307D01C6000C3065
:10280000CB0008007908203E860001308700810156
:1028100042011D1D162C7908203E860001308700DC
:10282000811461088A0060080A00943142019D1CED
:10283000242C7908203E86000130870001155F08AE
:102840008A005E080A0094317908203E8600013033
:10285000870001080319332C42015D088A005C08D7
:102860000A009431080090316C2008004001A50155
:10287000A601200821040319662CA701A70AA11BA1
:102880004B2C0130A035A10D890B422C0130A40046
:102890002408A7073F2C0130A535A60D890B4C2C29
:1028A00021082302031D562C20082202031C5D2C44
:1028B0002008A2022108A33B25140130A136A00C58
:1028C000890B5E2C0130A702031D4B2C2608A100AA
:1028D0002508A00008004001A2008A2C410126081A
:1028E000031908000130A602080041012708031956
:1028F00008000130A7020800410128080319080058
:102900000130A80208004101250803190800013020
:10291000A50208002208A000A1012108003A03191D
:10292000922CA02C2008003A03196E2C013A0319AE
:10293000752C033A03197C2C013A0319832CA02C23
:10294000080040013B08031D3B08031DAB2C390860
:102950009131FB2108003B08033E860087011600E9
:1029600001040319CE2C3B08033E86008701403F3B
:10297000BC00413FBD003B0A86008701403FBE00CE
:10298000413FBF003F08803AC0003D08803A400206
:10299000031DCC2C3C083E020318080040013B0AF2
:1029A000860087010130810741310318810A080040
:1029B00092311F22943115304201EF004B30EE006E
:1029C000BE30890BE12CEE0BE12CEF0BE12C00006B
:1029D0009E31C326943195319F25943190315520F5
:1029E00094319E31CB2694318B170B1790311720E1
:1029F00094319F31D92794319E31EE269431400194
:102A000021084201CB00400120084201CA008D315B
:102A1000C92594318231BC2294318C3118249431EF
:102A2000953114259431072D362D9631A6260800B0
:102A30008C31EA2408009E31A12608009E31A02690
:102A400008009E31A22608009E319F26080088318A
:102A50000020953141012808E0002708DF00260802
:102A6000DE002508DD008531D125080090310020E9
:102A700095314101EA00EB016B08003A0319412D41
:102A8000582D6A08003A0319152D013A0319182D1B
:102A9000033A0319242D013A0319272D073A031984
:102AA0001B2D013A03191E2D033A0319212D582D10
:102AB00008004001A200882D4101260A03190800E0
:102AC00001304001A00020084101A6070800410193
:102AD000270A0319080001304001A0002008410125
:102AE000A70708004101280A031908000130400126
:102AF000A00020084101A80708004101250A031988
:102B0000080001304001A00020084101A50708008D
:102B10002208A000A1012108003A0319902D9E2D42
:102B20002008003A03195C2D013A0319672D033A76
:102B30000319722D013A03197D2D9E2D0800C03016
:102B40004001A50025084101BE00C8304001A50094
:102B500025084101BD00D0304001A50025084101F4
:102B6000BC00D8304001A50025084101BB000E3053
:102B70004001A0000030A1000230A5002508A200FD
:102B800041013E089131982195310C304001A0005F
:102B90000030A1000230A5002508A20041013B0839
:102BA0009131982195310E304001A0000030A100F4
:102BB000A20141013C089131982195310E3040012C
:102BC000A0000030A100A201A20A41013D089131FC
:102BD000982195319F31B62708004001D10042016C
:102BE000361CFB2D40015108CC004C08C10049089F
:102BF0009231692295314001CB1B032E4B08D00046
:102C00004A08CF00052ECF01D001CD01CE014E08DC
:102C1000803ACC005008803A4C02031D112E4F0818
:102C20004D020318252E20304001B9000030BA00B3
:102C30005108CC004C08BB009431A12495310130DF
:102C40004001CD070030CE3D072E42013618312E0F
:102C500040015108CC004C08C1004908923169225A
:102C6000953140014908A0000130A10090319C201D
:102C700040014F082007C9005008213DCA00080044
:102C800003104001640D650DE6006608EC006C0859
:102C9000031D532E0030E5000030E4000030E30057
:102CA0000030E20008006208E6006308E7006408FC
:102CB000E8006508E9001F30E936E80CE70CE60C8F
:102CC000890B5C2E6608EA006A08EB00E417FF3007
:102CD000E205FF30E305FF30E4050030E5059630FE
:102CE000EC02EC1F862E6C08803A973E031C4A2E9D
:102CF0000130E536E40CE30CE20C890B792E01304F
:102D0000E6006608EC070319972E782E20306C0237
:102D100003184A2E6C080319972E0130E235E30D93
:102D2000E40DE50D890B8E2E0130EC028A2E6B0826
:102D300003190800E209E309E409E509E20A0319B5
:102D4000E30A0319E40A0319E50A08009E31A926DB
:102D500096314101E500E601E535E60DEE30E7008C
:102D60002330E8006508670786006608683D87002D
:102D70000108E90069084201EB009E31A92696315D
:102D80004101E500E601E535E60DF030E7002330CE
:102D9000E8006508670786006608683D8700010847
:102DA000E90069084201EC009E31A92696314101F3
:102DB000E500E601E535E60DF230E7002330E800F6
:102DC0006508670786006608683D87000108E90016
:102DD00069084201ED009E31A92696314101E500C6
:102DE000E601E535E60DF430E7002330E80065083C
:102DF000670786006608683D87000108E9006908E2
:102E00004201EA006D084101E00042016C08410105
:102E1000DF0042016B084101DE0042016A08410106
:102E2000DD008531D125080041013B089F319627FF
:102E30009731003A0319492F41013708031D492FE3
:102E40003208031D252F0130262F00304001A1003C
:102E500021084101B200B701B70A472F09306F02BC
:102E60000318392F01304001A10021084101EF076B
:102E7000472F09304001A10021084101EF00472FF1
:102E80006F080319462F0130EF02472FEF01013081
:102E9000080041013608031D2E2F3508031D402F61
:102EA000330803195E2F04303906031D5E2F0530E9
:102EB0004001A10021084101B900080033080319AD
:102EC0006B2F3903031D6B2F04304001A100210833
:102ED0004101B900080033080319792F053039067C
:102EE000031D792F06304001A10021084101B900DE
:102EF000080033080319080006303906031D0800CE
:102F0000B901B90A080041016F08CB00CC01CD011D
:102F1000CE014E084001A30041014D084001A2002E
:102F200041014C084001A10041014B084001A000B3
:102F300001308831DA20973140012308B50022089A
:102F4000B4002108B3002008B2004130B1001030B5
:102F5000B0000030AF000030AE008431572497310C
:102F600040013108CF003008CE002F08CD002E08D8
:102F7000CC004330CB007F30CA000030C9000030A5
:102F8000C80080319020973140014B08E5004A0885
:102F9000E4004908E3004808E200963140269731F2
:102FA000400162084101CF004F084001ED006D086B
:102FB0004101CB00CC01CD01CE014E084001A30060
:102FC00041014D084001A20041014C084001A1000F
:102FD00041014B084001A00000308831DA20400157
:102FE00023084101CA00400122084101C9004001F3
:102FF00021084101C800400120084101C700080024
:10300000003482342134003400340034003402347B
:1030100039340F3400340034003440348034003408
:103020003F3406345B344F3466346D347D340734BA
:103030007F346F3400340034003448340034533467
:10304000003477347C3439345E34793471346F34FD
:10305000763406341E3400343834003454343F346B
:103060007334673450346D3478343E340034003473
:1030700000346E340034393400340F3400340834F2
:1030800063345F347C3458345E347B3471346F3451
:10309000743402341E3400340634003454345C3446
:1030A0007334673450346D3478341C340034003455
:1030B00000346E340034393430340F34003400348A
:103D38000800080008000800080008000800903182
:103D48006C2008004E018F10080041016C08080023
:103D58004101AE01AE0A080042011D121D160800FD
:103D680001340034013401344101440803190800C6
:103D7800B82E01304201C6070030C73D0800BD30EB
:103D88004001A0001E30A1009E31F7260800410125
:103D9800A601A701A801A50140019412080040014D
:103DA80021084201D900400120084201D80008003A
:103DB8004001210841018F004001200841018E0087
:103DC80008004001A000200841019F00420191170E
:103DD80011140800420147084001A10042014608A9
:103DE8004001A0000800400121084201DB00400119
:103DF80020084201DA000800400121084201E300DE
:103E0800400120084201E200080041012F0803197F
:103E1800102FAF01013008000030080040012108D0
:103E28004201DD00400120084201DC000800400199
:103E380021084201E100400120084201E000080099
:103E4800400121084201DF00400120084201DE0054
:103E58000800603051018D008F01910106309300F8
:103E6800920108008C3046018E008D018C014401BE
:103E78001E08FC3901389E0008008C30460192006B
:103E88009101900144011E08F33904389E0008008E
:103E98008C30460196009501940144011E08CF39E3
:103EA80010389E0008008C3046019A00990198014C
:103EB80044011E083F3940389E0008006400800114
:103EC80001310130FE020030FF3B7F087E040319F8
:103ED8000034632F4E018D1042015808590403190C
:103EE800080059088A0058080A009F3108004E0146
:103EF8008C1242015A085B04031908005B088A0007
:103F08005A080A009F3108000130450190008F01CE
:103F18009101FF308D008C014E019010F030450169
:103F28008E0008004001A0002008073E86000130EE
:103F3800870003300106031DA32F0130080000305D
:103F480008000430F0007008F70701304101C3028F
:103F5800031DB32F0430F0007008C4000800C4012A
:103F6800C40A0800400112157E01381139154001B4
:103F78001414941414157E014E10CE104E114F14C3
:103F8800CF144F1508004001B6003408E03E840005
:103F980097300318013E85000008B5003508AE00CB
:103FA8003608343E9131032108006B304001A000EF
:103FB8001330A1009F3100279F3141016D08400156
:103FC800B50041016C084001B4008731342708006E
:103FD8004001A0002008073E860001308700010349
:103FE800031DFE2F2008073E86000130870081014F
:103FF8000130080000300800253463342534633468
:1040080025346334253463340D3400342534633463
:10401800253463342534633420340D34003420349B
:104028002534633425346334253463340D34003443
:104038004834453459345934593459345934593435
:1040480000342534633425346334203420340D346B
:1040580000342034203425346334253463340D345B
:10406800003441342D3425346434203420340D3464
:10407800003443342D3425346434203420340D3452
:10408800003446342D3425346434203420340D343F
:10409800003442342D3425347534203420340D3422
:1040A8000034253463342034203420340D34003473
:1040B800203420342034253463340D340034203443
:1040C8002034203420340D34003450344334203428
:1040D80020340D3400344C344534443420340D3409
:1040E800003441344E34493420340D3400345334D0
:1040F80045344C3431340D34003448344F344C3466
:1041080044340D34003442344534413454340D348D
:0C411800003420342034203420340034E3
:020000040001F9
:0A000E00EC3FFF3F9F3FFF3FFF3F25
:00000001FF
