:020000040000FA
:1000000080312828013400347E1480314E01961A44
:100010008C1E0E289731B327803126280B1F2628E7
:10002000991A8F1E1A2841015F088A005E080A008B
:100030008031262899188F1C212897311627803166
:10004000262819180F1C2628853191257E100900B5
:1000500080312A28803102208031FC008031032049
:100060008031FD004101973119278031E00097313F
:100070001A278031E10097311B278031E200973148
:100080001C278031E300EE308400233085000230ED
:10009000FE000430FF009731A7278031F701F801F7
:1000A000F901FA01FB014001EF01A03084000030AA
:1000B00085002A30FE000030FF009731A7278031ED
:1000C00020308400013085004030FE000030FF0009
:1000D0009731A7277E10400182319A2A40014B08B0
:1000E0008039D0005008D5004B35D0005008DB00D7
:1000F000CA1B5B145B0803198A285B0A031D882846
:100100000030CB000030CA000030C9000030C80009
:10011000CA1792280030CB000030CA000030C90056
:100120000030C8004F088039D0005008D5064F3540
:10013000D0005008DA00CE1B5A145A080319AD2813
:100140005A0A031DAB280030CF000030CE0000302B
:10015000CD000030CC00CE17B5280030CF000030E5
:10016000CE000030CD000030CC005A08031D5B08E3
:10017000031DC3280030CB000030CA000030C90086
:100180000030C80008004808D0005008A0004E0801
:100190008931BF21803140012108E1002008E000C1
:1001A0006008D000D101D201D3015308D900520810
:1001B000D8005108D7005008D6006108D000D101FE
:1001C000D201D3015308DF005208DE005108DD00E0
:1001D0005008DC004908D0005008A0004D088931C3
:1001E000BF21803140012108E1002008E0006008C3
:1001F000D000D101D201D3015008D6075108D73D14
:100200005208D83D5308D93D6108D000D101D20130
:10021000D3015008DC075108DD3D5208DE3D53088C
:10022000DF3D4A08D0005008A0004C088931BF21AA
:10023000803140012108E1002008E0006008D00082
:10024000D101D201D3015008D6075108D73D520839
:10025000D83D5308D93D6108D000D101D201D30166
:100260005008DC075108DD3D5208DE3D5308DF3DF4
:100270000830D635D70DD80DD90D890B3929490845
:10028000D0005008A0004C088931BF2180314001C6
:100290002108E1002008E0006008D6076108D73D8A
:1002A0000030D83DD93D4808D0005008A0004D0886
:1002B0008931BF21803140012108E1002008E000A0
:1002C0006008D6076108D73D0030D83DD93D0830D9
:1002D000D635D70DD80DD90D890B68294808D0001F
:1002E0005008A0004C088931BF218031400121080D
:1002F000E1002008E0006008D6076108D73D003023
:10030000D83DD93D4908D0005008A0004E08893199
:10031000BF21803140012108E1002008E000600891
:10032000DC076108DD3D0030DE3DDF3D4A08D000DE
:100330005008A0004D088931BF21803140012108BB
:10034000E1002008E0006008DC076108DD3D0030C6
:10035000DE3DDF3D4A08D0005008A0004E0889313C
:10036000BF21803140012108E1002008E000600841
:10037000D0006108D100D201D3010830D035D10DB1
:10038000D20DD30D890BBE295008DC075108DD3D85
:100390005208DE3D5308DF3D5608D0005708D10013
:1003A0005808D2005908D3001830D336D20CD10CDB
:1003B000D00C890BD5295008DC075108DD3D5208C7
:1003C000DE3D5308DF3D0830D635D70DD80DD90DA9
:1003D000890BE4295B085A07D000D101D10D5008E0
:1003E000823EE000FF30513DE100DE1B0C2A01306F
:1003F000DC35DD0DDE0DDF0D890BF829D91B5C1412
:100400000130D635D70DD80DD90D890B012AFF3013
:10041000E007FF30E13DF529DA01D91F252AFF3039
:100420005605D000FF305705D100FF305805D200E7
:100430007F305905D3005308520451045004031966
:100440005C18232A252ADA01DA0A5A0803194E2AE7
:100450000130DC070030DD3D0030DE3D0030DF3DA7
:100460005F1C4E2A5C08D0005D08D1005E08D200F7
:100470005F08D3000130D400D337D20CD10CD00C9C
:10048000D40B3C2A5308DF005208DE005108DD007F
:100490005008DC000130E0070030E13D6108803A9F
:1004A000D00080305002031D572AFF306002031C29
:1004B000632A7F304001DF008030DE000030DD0045
:1004C0000030DC008D2A40016108803AD000803085
:1004D0005002031D6D2A0130600203187A2A003091
:1004E0004001DF000030DE000030DD000030DC00C5
:1004F000D5018D2A40016008D0005008DB00FF3094
:10050000DC05FF30DD057F30DE050030DF055B18E0
:10051000DE175B36D0005008DF005508D0005008C9
:10052000DF045F08CB005E08CA005D08C9005C08F4
:10053000C80008008931DF21823106304101D50031
:100540001330D400AD30890BA32AD40BA32AD50BCA
:10055000A32A00329731282782318B31CD23823173
:100560008B170B1788314920823197313027823120
:100570008631DA2682318F311D278231EE308600B6
:10058000233087004231403F4101D400413FD50034
:1005900054084001A000410155084001A100890D07
:1005A000893B8909A200A30001308D311D258231CC
:1005B00040012308B5002208B4002108B300200838
:1005C000B2004330B1007F30B0000030AF000030E7
:1005D000AE0084311724823140013108CF00300849
:1005E000CE002F08CD002E08CC004230CB00BE300C
:1005F000CA000030C9000030C80080316E2082314E
:1006000040014B08E5004A08E4004908E3004808B7
:10061000E2008C31B724823140016308EE006208A9
:10062000ED00893107218231EE30860023308700CA
:100630004431403F4101D400413FD50054084001BE
:10064000A000410155084001A100890D893B89099D
:10065000A200A30001308D311D2582314001230805
:10066000B5002208B4002108B3002008B2004330CE
:10067000B1007F30B0000030AF000030AE008431F8
:100680001724823140013108CF003008CE002F08F6
:10069000CD002E08CC004230CB00BE30CA00003066
:1006A000C9000030C80080316E20823140014B0803
:1006B000E5004A08E4004908E3004808E2008C31FC
:1006C000B724823140016308EE006208ED008931F1
:1006D00025218231EE308600233087004631403FAD
:1006E0004101D400413FD50054084001A000410120
:1006F00055084001A100890D893B8909A200A3008A
:1007000001308D311D25823140012308B5002208BA
:10071000B4002108B3002008B2004330B1007F309C
:10072000B0000030AF000030AE00843117248231B9
:1007300040013108CF003008CE002F08CD002E0830
:10074000CC004230CB00BE30CA000030C9000030BF
:10075000C80080316E20823140014B08E5004A0814
:10076000E4004908E3004808E2008C31B7248231F4
:1007700040016308EE006208ED00893143218231B7
:10078000EE308600233087004831403F4101D400DD
:10079000413FD50054084001A000410155084001E7
:1007A000A100890D893B8909A200A30001308D3188
:1007B0001D25823140012308B5002208B40021081C
:1007C000B3002008B2004330B1007F30B0000030E9
:1007D000AF000030AE00843117248231400131086F
:1007E000CF003008CE002F08CD002E08CC004230BC
:1007F000CB00BE30CA000030C9000030C8008031D4
:100800006E20823140014B08E5004A08E4004908A7
:10081000E3004808E2008C31B724823140016308CC
:10082000EE006208ED00893161218231B82A400171
:1008300035088039B6003608BF003535B6003608B1
:10084000C600B41B461446080319342C460A031D7F
:10085000312C0030B5000030B4000030B30000305F
:10086000B200B417B5013C2C0030B5000030B40024
:100870000030B3000030B20031088039B6003608CD
:10088000BF063135B6003608C700B01B471447080D
:100890000319582C470A031D552C0030B1000030B5
:1008A000B0000030AF000030AE00B017B101602CD6
:1008B0000030B1000030B0000030AF000030AE00BA
:1008C000310830042F042E04031D7F2C0030B500A6
:1008D0000030B4000030B3000030B2008030B40407
:1008E0007F30B5043F08B6003608B5043508B100BE
:1008F0003408B0003308AF003208AE0008004608E4
:10090000031D8B2C0030B1000030B0000030AF0070
:100910000030AE0008004608B600B7013708B9003D
:1009200047083602B800031CB90338087F3EC000F0
:100930000030393DC1003508BE003408BD00330821
:10094000BC003208BB000030B5000030B4000030FD
:10095000B3000030B2000030C5000030C4000030E9
:10096000C3000030C200C7011A3047020318F02C40
:1009700047080319D22C0130BB35BC0DBD0DBE0D8F
:10098000890BBC2C0130B235B30DB40DB50D890BFC
:10099000C32CC51B32140130C235C30DC40DC50DA7
:1009A000890BCC2C31083E02031DE02C30083D029F
:1009B000031DE02C2F083C02031DE02C2E083B02F7
:1009C000031CEB2C45172E08BB022F08BC3B30083C
:1009D000BD3B3108BE3B0130B6003608C707B42C1A
:1009E0003E083D043C043B04031D4214B41B0D2D82
:1009F0000130B235B30DB40DB50D890BF92CC51B03
:100A000032140130C235C30DC40DC50D890B022D42
:100A1000FF30C007FF30C13DF62CC701C51F262D92
:100A2000FF304205B600FF304305B700FF304405F4
:100A3000B8007F304505B90039083804370436045A
:100A400003193218242D262DC701C70A4708031998
:100A50004F2D0130B2070030B33D0030B43D0030BF
:100A6000B53D351C4F2D3208B6003308B7003408A9
:100A7000B8003508B9000130BA00B937B80CB70C66
:100A8000B60CBA0B3D2D3908B5003808B40037084C
:100A9000B3003608B2000130C0070030C13D410844
:100AA000803AB60080303602031D582DFF304002D8
:100AB000031C672DFF304001C0000030C100003032
:100AC000B5000030B4000030B3000030B200400187
:100AD0004108803AB60080303602031D712D013086
:100AE000400203187F2D4001C001C1010030B50054
:100AF0000030B4000030B3000030B200BF0140014C
:100B00004008B6003608C600461C882DB4178C2D48
:100B10007F30B6003608B4054636B6003608B50054
:100B2000722C4E010F104301901FAD2E9013410106
:100B3000BC017708023E8600870101088600870114
:100B40008101810AF7010800A21808002108F200BB
:100B50007208F7002108860087010108F200720878
:100B6000BB00210886008701413FF8000330F200F6
:100B70007208A1072108CA3A031DC22DC730F2002E
:100B80007208A1002210210820060319A2144301B3
:100B900011140230F20072084101BC000800562E08
:100BA0004301111FDC2D0130F20072084101A4073E
:100BB000043088319D2008007B08F3007A08F20099
:100BC000F336F20C72088C007A1CEC2D0B30F2001C
:100BD00072084101BC0008000330F20072084101B4
:100BE000BC0008004301111FFE2D0130F200720805
:100BF0004101A407043088319D20080091147B082E
:100C0000F3007A08F2007308F200F301063072056F
:100C1000F40000307305F500F0307404FA00003081
:100C20007504FB007A144101B801B80AC92D3803D4
:100C300003192B2E780886008701403FFA00413FB8
:100C4000FB00780886008701433FBA0078088600D9
:100C50008701423FB9007A0843018C007A1CEC2DD1
:100C60000530F20072084101BC0008004301111F69
:100C7000442E0130F20072084101A4074301111310
:100C8000053088319D20080001304101B902390A40
:100C9000031D592E0430F2007208F8070130BB0220
:100CA000031D562E003088319D2008004301911409
:100CB000C92D3A0886008701010843018C000130E4
:100CC000F20072084101BA0708004301111F732E98
:100CD0000130F20072084101A407043088319D20E0
:100CE00043011113080091150830F2007208410108
:100CF000BC0008000830F2007208BC0043019115E6
:100D0000080043010C08F20041013A0886008701FF
:100D1000720881000130F2007208BA070130B9028E
:100D200003199A2E430191120630F2007208410114
:100D3000BC009E2E430191169731DE274301111608
:100D40000800003088319D2008000130F200720850
:100D5000A407063088319D20080041013C08F200BC
:100D6000F3017308003A0319B62EA52E7208003A53
:100D70000319A42D013A0319CF2D033A0319172E95
:100D8000013A0319362E073A0319A12E013A031925
:100D9000652E033A03197A2E013A0319A12E0F3A50
:100DA0000319812E023A0319D02D013A0319F22DAD
:100DB000A52E080097313827863140012108A70069
:100DC0002008A6004101330840012602A20041018B
:100DD00034084001273BA3000030230205300319EB
:100DE0002202031C080027084101B4004001260824
:100DF0004101B3004001A5012508A2000230A2353F
:100E0000FF3E031DFF2E2235403EA3002308A8000D
:100E10002808860001308700403FA200413FA30020
:100E200022088600230887000130A4002808023E1B
:100E3000840001308500000A1E2FA435890B1D2F68
:100E400024080105031D3D2F2808033E86000130BC
:100E500087008101810A2808073E8600013087004B
:100E60000108031D432F2808053E86000130870036
:100E70002608C03F2708C13F432F2808033E8600AD
:100E80000130870081012808033E86000130870079
:100E90000108031D5B2F2808043E860001308700EF
:100EA0000103031D5B2F2808073E860001308700E1
:100EB0008101810AA82F2808033E8600013087009F
:100EC0000103031D892F2808043E86000130870096
:100ED0000103031D892F2808053E86000130870085
:100EE000403F2602A200413F273BA30001302302DE
:100EF000F53003192202031C7F2F0330802F0230AC
:100F0000A2002808073E86000130870022088100E1
:100F1000A82F2808033E8600013087000108031D22
:100F2000A82F2808043E8600013087000103031D16
:100F3000A82F2808073E86000130870003300106ED
:100F4000031DA82F2808073E860001308700810175
:100F50002808033E8600013087000108A200280807
:100F6000043E860001308700220881000130A20083
:100F70002208A5070430250203180800FC2E4001B2
:100F80003B08031D3B08031DC92F39088A31002285
:100F900008003B08033E8600870116000104031980
:100FA000EC2F3B08033E86008701403FBC00413FD9
:100FB000BD003B0A86008701403FBE00413FBF00A5
:100FC0003F08803AC0003D08803A4002031DEA2FE6
:100FD0003C083E020318080040013B0A86008701D6
:100FE0000130810741310318810A08004F01960141
:100FF0009701980199019A019B019C019D010800AC
:101000004001A0002008073E860001308700033021
:101010000106031D0D2801300800003008004001C2
:10102000B6003408E03E84008F300318013E85008E
:101030000008B5003508AE003608343E8831EA2095
:1010400008004001A0002008073E8600013087000C
:101050000103031D33282008073E86000130870066
:101060008101013008000030080044304B019F002E
:101070007C309D009C014E018C129616153040016B
:10108000A0001730A1009731412780304B019E000E
:10109000080001309731CE27883140304101CA0025
:1010A0009830CB008831722088313E304101CA002F
:1010B0009830CB008831722008007C037D04031D2A
:1010C00066280030FC000230FD006A280130FC0276
:1010D0000030FD3B7D084001B5007C08B4008E3136
:1010E0005B260800CC304001E9006908EC004101B2
:1010F0004B084001E20041014A084001E1006C3028
:10110000E9006908E30000308A31CF22080002308C
:101110007D067C04031D91280130FC000030FD0099
:1011200095280130FC070030FD3D7D084001B500E9
:101130007C08B4008E315B260800F10043011115D4
:101140007708023E8600870101080319B22871085A
:10115000F0007708023E86008701010886008701BB
:10116000700881004101BC0108004001A40024086E
:10117000A2002208A300240886000130870001088D
:101180000319C7280130A2002208A407BB2823089E
:101190002402A000A101A01BA1030800C730400148
:1011A000A00020084101A100C7304001A000200894
:1011B0004101A000A2142210A40143018F01283094
:1011C0009000920113308D004E010F108F101914F2
:1011D000991408004001B2000230AF002F08B3009C
:1011E000A701A70A3208AF00B0012F08A8003008F5
:1011F000A9003330B1003108AA002E308A314A22CA
:101200008831023040013306031D08000129FF30F8
:101210004001ED050330EE0500306E026030031929
:101220006D020318080046010E1E1C2906304001FD
:10123000ED35EE0D890B182940016E0846018D0031
:1012400040016D0846018C000800FF304001ED05AB
:101250000330EE0500306E02603003196D02031892
:1012600008004601121E3A2906304001ED35EE0D08
:10127000890B362940016E084601910040016D0836
:10128000460190000800FF304001ED050330EE05F7
:1012900000306E02603003196D0203180800460129
:1012A000161E582906304001ED35EE0D890B5429E4
:1012B00040016E084601950040016D08460194000A
:1012C0000800FF304001ED050330EE0500306E02EE
:1012D000603003196D020318080046011A1E7629B2
:1012E00006304001ED35EE0D890B722940016E0884
:1012F0004601990040016D08460198000800400130
:10130000A40024088600013087002008C03F21087F
:10131000C13F2208A3002408023E86000130870056
:10132000230881002408033E8600013087008101E4
:101330002408073E86000130870081010800400133
:10134000A6002308A5002208A400A435A50D2608A0
:10135000860087012408C03F2508C13F2108A4005A
:101360002608023E86008701240881002008A40088
:101370002608033E860087012408810008004001FA
:10138000A800A401A5012008A200A3012208A6002C
:101390002308A700281CD0292608A4072708A53D54
:1013A0000130A635A70D890BD1290310A80C2808F8
:1013B000031DCA292508A1002408A00008008731C0
:1013C000F62789318B312E23893197316E27893168
:1013D0008831CE208931973177278931973183271A
:1013E000893197319B27893197318F2789319731FF
:1013F000C02789318831352089318A31A1220800FE
:101400004001B80004304101370203180E2A0D30A4
:1014100040013806031D3808031D102A4101B70199
:101420000D3040013806031908003808B7003708A6
:10143000B4004101370888310F2001304001B70066
:1014400037084101B70708004001C800C601C701BD
:1014500046084807C200420886000130870001089C
:10146000C3004308C5004508031908004508C20029
:10147000C3014208B9004308BA004108C400440847
:10148000BB008731BF278A3101304001C6070030D9
:10149000C73D282A4001AD00410122186D2A4001B4
:1014A0002D08AB002B08A0002708AC002C08A100D9
:1014B0002908A3002808A200C33089319F218A315E
:1014C000C3304001AB002B08A0002A08AC002C0858
:1014D000A10001308C316524080040012A088600F3
:1014E00087018101810A08004001280829040319A5
:1014F0009C2AAD01AD0AA91B872A0130A835A90D88
:10150000890B7E2A0130AC002C08AD077B2A290804
:101510002B02031D8D2A28082A02031C932A28085F
:10152000AA022908AB3B0130A936A80C890B942AE2
:101530000130AD02031D872A2B08A9002A08A80044
:1015400008004E01991296304001A0000B30A10016
:10155000973165278A31083042019F0090309D0005
:1015600004309E0007309B009C0100304001A00029
:101570000030A100973153278A3100304001A0008C
:101580000030A10097315C278A3100304001A00073
:101590000030A10097314A274E01991608004001FA
:1015A000E6006208E8006108E7004101A501A60124
:1015B0004001670884006808850012000319F52AB5
:1015C0006730E4006408D8006308E5006508D900C6
:1015D00066088D31B3258A31400158084101A507BD
:1015E000400159084101A63DD82A41012608400181
:1015F000E200410125084001E10008004001D70058
:10160000410127082804031D0D2B28084001D6009E
:10161000410127084001D500162B2708FF3E400155
:10162000D500FF304101283D4001D6005208D400CA
:1016300054084201A000A10120304001D400540808
:10164000C9005608CB005508CA0057088C3115242C
:1016500040014A08D3004908D2000800400198011F
:1016600099019A013F309200F030930026309400A7
:10167000FF307E01CE00E030C3000730B800C40167
:10168000B901CF01BA01C501D0013730BB00F0303C
:10169000C600FF30D10005307D01C50014307E0149
:1016A00094000B30A3000C30A400133095000A30D6
:1016B000A6000930A70004307D01C6000C30CB0025
:1016C00008004001A501A601200821040319912B5F
:1016D000A701A70AA11B762B0130A035A10D890B0C
:1016E0006D2B0130A4002408A7076A2B0130A53513
:1016F000A60D890B772B21082302031D812B2008BF
:101700002202031C882B2008A2022108A33B2514D7
:101710000130A136A00C890B892B0130A702031DD3
:10172000762B2608A1002508A000080042019D1C78
:101730009B2B1D121D16410162086304031DC02B63
:1017400042011D19C02B1908F000F10141013608B2
:10175000F3003508F200F235F30DEE30F4002330DB
:10176000F5007208740786007308753D87007008DD
:10177000C03F7108C13F0130B5070030B63DCA2BEC
:101780004101B501B601E201E30142011908F0008F
:101790007008F6004E018F12080040304001A5008D
:1017A00025084101BE0048304001A5002508EF0092
:1017B0005030A5002508F9005830A5002508410142
:1017C000BD000E304001A0000030A1000230A50095
:1017D0002508A20041013E0889317F218B310C3060
:1017E0004001A0000030A1000230A5002508A200A1
:1017F00041013D0889317F218B310E304001A0002D
:101800000030A100A201790889317F218B310E308F
:101810004001A0000030A100A201A20A6F08893196
:101820007F218B319731EF2708004001D100410122
:101830002B1C232C40015108CC004C08C100490846
:101840008A3124228C314001CB1B2B2C4B08D00039
:101850004A08CF002D2CCF01D001CD01CE014E087A
:10186000803ACC005008803A4C02031D392C4F08B6
:101870004D0203184D2C20304001B9000030BA0051
:101880005108CC004C08BB008731BF278C31013098
:101890004001CD070030CE3D2F2C41012B18592C93
:1018A00040015108CC004C08C10049088A3124226B
:1018B0008C31400149088831B52040014F0820078C
:1018C000C9005008213DCA0008004001A3004101A1
:1018D0002218A42C02304001A200210886008701B2
:1018E000220881002008A2004101200A8600870109
:1018F0004001220881002308A2004101200886003F
:1019000087014001220881002108A200410120082E
:10191000023E860087014001220881000330A200B8
:1019200022084101A0072008CA3A031D9D2CC73098
:101930004001A20022084101A000A21021082006B7
:10194000031DAA2C2214AA2C40012108860087011D
:101950008101810A400121088600870102300106C9
:10196000031D080097311D274E010F1408000310B6
:101970004001640D650DE6006608EC006C08031D6F
:10198000CA2C0030E5000030E4000030E3000030F5
:10199000E20008006208E6006308E7006408E80067
:1019A0006508E9001F30E936E80CE70CE60C890B06
:1019B000D32C6608EA006A08EB00E417FF30E20562
:1019C000FF30E305FF30E4050030E5059630EC021A
:1019D000EC1FFD2C6C08803A973E031CC12C013093
:1019E000E536E40CE30CE20C890BF02C0130E60048
:1019F0006608EC0703190E2DEF2C20306C0203183B
:101A0000C12C6C0803190E2D0130E235E30DE40DF5
:101A1000E50D890B052D0130EC02012D6B08031932
:101A20000800E209E309E409E509E20A0319E30A07
:101A30000319E40A0319E50A08004001A800280870
:101A4000031DA31F332D2009AA002109AB00220981
:101A5000AC002309AD00AA0A0319AB0A0319AC0AAA
:101A60000319AD0A3B2D2308AD002208AC00210864
:101A7000AB002008AA002308220421042004031D2F
:101A80004A2D0030A3000030A2000030A100003039
:101A9000A00008009630A4002408A900FE302D05FF
:101AA0000319712D0130A4002408A9070130AD36B7
:101AB000AC0CAB0CAA0C890B572D4E2D0130A40099
:101AC0002408A9070130AA070030AB3D0030AC3D27
:101AD0000030AD3D0130AD36AC0CAB0CAA0C890B1F
:101AE0006B2DFF302D050319832D5E2D0230290249
:101AF000031C852D0130A9020130AA35AB0DAC0DB8
:101B0000AD0D890B7D2DAC1F762D29188F2DFF3043
:101B1000AA05FF30AB057F30AC05FF30AD050310E3
:101B2000A90C2908A400A501A601A7011830A43515
:101B3000A50DA60DA70D890B972D2408AA0425082D
:101B4000AB042608AC042708AD042808031DA31F16
:101B5000AA2DAD172D08A3002C08A2002B08A10068
:101B60002A08A00008004001E0005808860087010C
:101B7000403FDA00413FDB005A0884005B088500E3
:101B80001200253A031D382E5808860087010130BF
:101B9000810741310318810A4101A701A801AB0166
:101BA000AC01FF30A900FF30AA00400158088600B0
:101BB0008701403FDA00413FDB005A0884005B08A0
:101BC00085001200633A031D062E5808860087011F
:101BD0000130810741310318810A590886008701C5
:101BE000010884008501023081070008DA005A08E4
:101BF000DF005F08DA005A08D20060088A31FE224E
:101C000040015308D9005208D8000800580886003F
:101C10008701403FDA00413FDB005A0884005B083F
:101C200085001200253A031D2D2E580886008701D5
:101C30000130810741310318810A2530B900003095
:101C4000BA006008DA005A08BB008731BF270130AC
:101C50004001D8000030D9000800580886008701EC
:101C60000130810741310318810AD801D9010800E8
:101C7000580886008701403FDA00413FDB005A08E0
:101C800084005B0885000008DC00DD015C08B90009
:101C90005D08BA006008DE005E08BB008731BF2720
:101CA0008D3140015808860087010130810741319C
:101CB0000318810A272E27304001350210300319FE
:101CC0003402031C862E7930B6003608AE0034305C
:101CD0008831EA208E3179304001B6003608AE00F6
:101CE00035308831EA208E3179304001B60036082F
:101CF000AE0036308831EA208E3179304001B600AE
:101D00003608AE0037308831EA2008000A30A800D3
:101D10000030A9003508AB003408AA008A317422CB
:101D20008E3140012908850028088400103084077E
:101D30009030853D0008B6003608AE003730883157
:101D4000EA208E310A304001A8000030A9000A3094
:101D5000A0000030A1003508A3003408A2008B3198
:101D600061238E3140012108AB002008AA008A318E
:101D700074228E3140012908850028088400103023
:101D800084079030853D0008B6003608AE00363036
:101D90008831EA208E310A304001A8000030A900C5
:101DA0006430A0000030A1003508A3003408A20070
:101DB0008B3161238E3140012108AB002008AA003D
:101DC0008A3174228E314001290885002808840058
:101DD000103084079030853D0008B6003608AE000C
:101DE00035308831EA208E310A304001A8000030B9
:101DF000A900E830A0000330A1003508A300340892
:101E0000A2008B3161238E3140012108AB002008F4
:101E1000AA008A3174228E314001290885002808E1
:101E20008400103084079030853D0008B6003608E5
:101E3000AE0034308831EA2008004001B901B90A07
:101E40006F08883121208F31003A0319362F8831ED
:101E500087208F31973138278F3140012108410188
:101E6000AE00400120084101AD00B42F790888314F
:101E700021208F31003A0319412F88315D208F31A5
:101E8000B42F40016F08883100208F31003A0319C8
:101E9000822F973138278F3141012F0840012002CE
:101EA000B700410130084001213BB800380841012A
:101EB0006102031D5F2F40013708410160020318D2
:101EC000822F883187208F31973138278F31400119
:101ED00021084101B000400120084101AF00610824
:101EE000803A4001B70080303702031D7A2F01305D
:101EF00041016002031CB42FFF304101E007FF30B5
:101F0000E13DB42F7908883100208F31003A031960
:101F1000A52F973138278F3141012F08400120022A
:101F2000B700410130084001213BB80038084101A9
:101F30006102031D9F2F4001370841016002031811
:101F4000A52F88315D208F31642F41013D088831F4
:101F500000208F31003A0319B22F0130FC0000300D
:101F6000FD00B42F4001B90140016F088831002005
:101F70008F31003A031DC82F7908883100208F3136
:101F8000003A031DC82F64304101E0000030E10039
:101F9000400139080319D72F973138278F31400175
:101FA00021084101AE00400120084101AD009731F8
:101FB00038278F3141012D0840012002B70041012F
:101FC0002E084001213BB800133038028830031935
:101FD0003702031CFC2F00309731CE278F31973109
:101FE000382740012008773E4101AD00EC30400128
:101FF000213D4101AE00080001309731CE27080095
:10200000003482342134003400340034003402348B
:1020100039340F3400340034003440348034003418
:102020003F3406345B344F3466346D347D340734CA
:102030007F346F3400340034003448340034533477
:10204000003477347C3439345E34793471346F340D
:10205000763406341E3400343834003454343F347B
:102060007334673450346D3478343E340034003483
:1020700000346E340034393400340F340034083402
:1020800063345F347C3458345E347B3471346F3461
:10209000743402341E3400340634003454345C3456
:1020A0007334673450346D3478341C340034003465
:1020B00000346E340034393430340F34003400349A
:102E2A0008004E018F100800643400340134003465
:102E3A0041013C08031908001D2F01304101B10767
:102E4A000030B23D080022304001A0001730A10036
:102E5A009731412708007D084001B5007C08B4007D
:102E6A008E315B260800410132084001A100410170
:102E7A0031084001A0000800400121084101D700A3
:102E8A00400120084101D600080040012108410103
:102E9A00D900400120084101D8000800400121085A
:102EAA004101DD00400120084101DC000800400129
:102EBA0021084101DB00400120084101DA00080035
:102ECA00400121084101DF00400120084101DE00E4
:102EDA000800623051018D008F0191010630930084
:102EEA00920108008C3046018E008D014F308C0013
:102EFA0044011E08FC3901389E0008008C30460146
:102F0A00920091014F30900044011E08F3390438B1
:102F1A009E0008008C304601960095014F309400BF
:102F2A0044011E08CF3910389E0008008C30460133
:102F3A009A0099014F30980044011E083F394038E1
:102F4A009E0008006400800101310130FE02003059
:102F5A00FF3B7F087E0403190034A82F4E018C1210
:102F6A004101560857040319080057088A005608F1
:102F7A000A00973108000130450190008F01910144
:102F8A00C7308D008C014E019010803045018E00B3
:102F9A0008004001B40034080319D92FAE01AE0A63
:102FAA0024308831EA200800AE0124308831EA2032
:102FBA0008000430F0007008F80701304101BB0234
:102FCA00031DEC2F0430F0007008BC000800BC019F
:102FDA00BC0A0800400112157E013811391540015A
:102FEA001414941414157E014E10CE104E114F1461
:102FFA00CF144F150800253463342534633425343F
:10300A006334253463340D34003425346334253471
:10301A0063342534633420340D34003420342534A9
:10302A00633425346334253463340D340034253451
:10303A00633425346334203420340D34003420348E
:10304A00203425346334253463340D340034253474
:10305A0063342034203420340D34003420342034B6
:10306A002034253463340D340034203420342034A1
:10307A0020340D34003420342034203420340034F9
:020000040001F9
:0A000E00EC3FFF3F9F3FFF3FFF3F25
:00000001FF
