:020000040000FA
:1000000080313028643400347E1480314E01961AD9
:100010008C1E0E289D310C2580312E280B1F2E287A
:1000200099188F1C17289C31202480312E281918EC
:100030000F1C1E288E31AE2680312E2897188D1C5D
:1000400025289C31FF2480312E28991A8F1E2E28B6
:10005000420166088A0065080A0080317E100900A6
:1000600080313228803102208031FC008031032031
:100070008031FD00F930840087308500EA30860049
:10008000003087000030FF0006309C31F3248031BF
:10009000383084009C30850067308600013087004E
:1000A0000030FF0006309C31F3248031EE308400B4
:1000B000233085000230FE000430FF009C31E7242D
:1000C0008031F701F801F901FA01FB01A030840049
:1000D000003085002530FE000030FF009C31E72411
:1000E000803120308400013085003B30FE0000303C
:1000F000FF009C31E7248031A0308400013085006E
:100100004030FE000030FF009C31E7247E104001AB
:1001100092318F2A40014B088039D0005008D50019
:100120004B35D0005008DB00CA1B5B145B08031979
:10013000A6285B0A031DA4280030CB000030CA00AB
:100140000030C9000030C800CA17AE280030CB000C
:100150000030CA000030C9000030C8004F088039A4
:10016000D0005008D5064F35D0005008D600CE1B21
:10017000561456080319C928560A031DC72800300B
:10018000CF000030CE000030CD000030CC00CE17C4
:10019000D1280030CF000030CE000030CD0000303C
:1001A000CC005608031D5B08031DDF280030CB0080
:1001B0000030CA000030C9000030C80008004808FC
:1001C000D0005008A0004E089F31292780314001FF
:1001D0002108E1002008E0006008D000D101D20130
:1001E000D3015308DA005208D9005108D80050084A
:1001F000D7006108D000D101D201D3015308DF003C
:100200005208DE005108DD005008DC004908D0002B
:100210005008A0004D089F31292780314001210856
:10022000E1002008E0006008D000D101D201D30134
:100230005008D7075108D83D5208D93D5308DA3D38
:100240006108D000D101D201D3015008DC07510868
:10025000DD3D5208DE3D5308DF3D4A08D00050081E
:10026000A0004C089F312927803140012108E1007E
:100270002008E0006008D000D101D201D30150086D
:10028000D7075108D83D5208D93D5308DA3D6108D7
:10029000D000D101D201D3015008DC075108DD3D67
:1002A0005208DE3D5308DF3D0830D735D80DD90D53
:1002B000DA0D890B55294908D0005008A0004C08D8
:1002C0009F312927803140012108E1002008E0000A
:1002D0006008D7076108D83D0030D93DDA3D4808AD
:1002E000D0005008A0004D089F31292780314001DF
:1002F0002108E1002008E0006008D7076108D83D28
:100300000030D93DDA3D0830D735D80DD90DDA0D9A
:10031000890B84294808D0005008A0004C089F3160
:100320002927803140012108E1002008E000600811
:10033000D7076108D83D0030D93DDA3D4908D000E3
:100340005008A0004E089F31292780314001210824
:10035000E1002008E0006008DC076108DD3D0030B6
:10036000DE3DDF3D4A08D0005008A0004D089F3117
:100370002927803140012108E1002008E0006008C1
:10038000DC076108DD3D0030DE3DDF3D4A08D0007E
:100390005008A0004E089F312927803140012108D4
:1003A000E1002008E0006008D0006108D100D2011F
:1003B000D3010830D035D10DD20DD30D890BDA29F8
:1003C0005008DC075108DD3D5208DE3D5308DF3D93
:1003D0005708D0005808D1005908D2005A08D30055
:1003E0001830D336D20CD10CD00C890BF12950081F
:1003F000DC075108DD3D5208DE3D5308DF3D083083
:10040000D735D80DD90DDA0D890B002A5B085607B0
:10041000D000D101D10D5008823EE000FF30513DA7
:10042000E100DE1B282A0130DC35DD0DDE0DDF0D9D
:10043000890B142ADA1B5C140130D735D80DD90D7D
:10044000DA0D890B1D2AFF30E007FF30E13D112A4C
:10045000D601DA1F412AFF305705D000FF3058057A
:10046000D100FF305905D2007F305A05D300530820
:1004700052045104500403195C183F2A412AD60142
:10048000D60A560803196A2A0130DC070030DD3D20
:100490000030DE3D0030DF3D5F1C6A2A5C08D00082
:1004A0005D08D1005E08D2005F08D3000130D4009F
:1004B000D337D20CD10CD00CD40B582A5308DF0000
:1004C0005208DE005108DD005008DC000130E00772
:1004D0000030E13D6108803AD00080305002031DB9
:1004E000732AFF306002031C7F2A7F304001DF0047
:1004F0008030DE000030DD000030DC00A92A400141
:100500006108803AD00080305002031D892A0130F2
:1005100060020318962A00304001DF000030DE0040
:100520000030DD000030DC00D501A92A4001600860
:10053000D0005008DB00FF30DC05FF30DD057F30E8
:10054000DE050030DF055B18DE175B36D000500893
:10055000DF005508D0005008DF045F08CB005E08BC
:10056000CA005D08C9005C08C80008004001EF012E
:10057000EF0A41013C089D317D2582314101D100C6
:100580005108B5003B089D317D2582314101D100E4
:100590005108B4003D089D317D2582314101D100D3
:1005A0005108B3003A089D317D2582314101D100C7
:1005B0005108B2006E03031D052B9C316924823162
:1005C00042014A08400120024101D10042014B088A
:1005D0004001213B4101D2001330520288300319FF
:1005E00051020318052B9531E2258231410135086E
:1005F000031DFF2A3408031933080319012BB7011F
:10060000B70A3208031D08000D2B3708031D0C2BF9
:100610006E03031D0C2BB801EE01330803193708D4
:1006200003191B2B3608031D1B2BB701B70A953185
:10063000E2258231502B3808031D222B9731672782
:100640008231482B02303806031D2A2B903143207B
:100650008231482B38030319392B0430380603192B
:10066000392B053038060319392B06303806031D9F
:100670003D2B953173258231482B03303806031DFD
:100680004E2B3608031D4E2B30088931CF21823185
:100690004101D10051084001EF00502B4001EF0112
:1006A00040016F0803195F2B9C316924823140019E
:1006B00021084201C500400120084201C4009C31CC
:1006C0006924823142014408400120024101D100E5
:1006D000420145084001213B4101D2001330520242
:1006E000883003195102031C872B00309D31B92536
:1006F00082319C316924823140012008773E4201D9
:10070000C400EC304001213D4201C5008B2B01307B
:100710009D31B925823141013808031D4F2C37081E
:10072000031D4F2C6B084001B70041016A084001CE
:10073000B6008A31872282314C2C3708031D522C97
:100740005B30C500A030C6009D31CE2582319C3182
:1007500069248231400121084201C500400120087E
:100760004201C4004C2C3708031D562C3108031DD0
:10077000562C7830C500A030C6009D31CE25823180
:1007800041016D08883104208231452C3708031D52
:10079000592C3108031D592C6F30C500A030C600FC
:1007A0009D31CE25823141016F088831042082318C
:1007B000452C3708031D5D2C3108031D5D2C753059
:1007C000C500A030C6009D31CE25823141016F08A1
:1007D000883104208231452C3708031D612C3108F3
:1007E000031D612C7230C500A030C6009D31CE259E
:1007F000823141016F08883104208231452C37084D
:10080000031D652C3108031D652C6C30C500A0301C
:10081000C6009D31CE25823141016F088831042008
:100820008231452C8430C500A030C6009D31CE25D4
:1008300082310030352C8030C500A030C6009D319B
:10084000CE2582310130352C7E30C500A030C60067
:100850009D31CE2582310230352C8230C500A0304A
:10086000C6009D31CE25823103309F31B4278231BD
:100870004101D100D20151084001B60041015208A6
:100880004001B70087316027823147304101C50000
:10089000A030C6009D31CE254101B60108003103CC
:1008A00003199D2B023038060319B32B38030319A3
:1008B000C62B043038060319D92B05303806031926
:1008C000EC2B063038060319FF2B03303806031DC6
:1008D00008003708031D08003008D100D201520873
:1008E000003A0319742C4C2C5108003A0319122CAD
:1008F000013A03191B2C033A0319242C013A03195A
:100900002D2C4C2C0800400135088039B6003608E3
:10091000BF003535B6003608C600B41B461446087D
:100920000319A02C460A031D9D2C0030B500003091
:10093000B4000030B3000030B200B417B501A82CE9
:100940000030B5000030B4000030B3000030B20019
:1009500031088039B6003608BF063135B600360892
:10096000C700B01B471447080319C42C470A031DCE
:10097000C12C0030B1000030B0000030AF000030BA
:10098000AE00B017B101CC2C0030B1000030B00087
:100990000030AF000030AE00310830042F042E04C8
:1009A000031DEB2C0030B5000030B4000030B30064
:1009B0000030B2008030B4047F30B5043F08B60088
:1009C0003608B5043508B1003408B0003308AF006C
:1009D0003208AE0008004608031DF72C0030B100B5
:1009E0000030B0000030AF000030AE000800460814
:1009F000B600B7013708B90047083602B800031C33
:100A0000B90338087F3EC0000030393DC1003508C9
:100A1000BE003408BD003308BC003208BB00003003
:100A2000B5000030B4000030B3000030B200003038
:100A3000C5000030C4000030C3000030C200C70150
:100A40001A30470203185C2D470803193E2D013068
:100A5000BB35BC0DBD0DBE0D890B282D0130B23547
:100A6000B30DB40DB50D890B2F2DC51B32140130FC
:100A7000C235C30DC40DC50D890B382D31083E029A
:100A8000031D4C2D30083D02031D4C2D2F083C0248
:100A9000031D4C2D2E083B02031C572D45172E0815
:100AA000BB022F08BC3B3008BD3B3108BE3B0130C8
:100AB000B6003608C707202D3E083D043C043B0421
:100AC000031D4214B41B792D0130B235B30DB40DA2
:100AD000B50D890B652DC51B32140130C235C30D10
:100AE000C40DC50D890B6E2DFF30C007FF30C13D11
:100AF000622DC701C51F922DFF304205B600FF30A1
:100B00004305B700FF304405B8007F304505B90004
:100B1000390838043704360403193218902D922D01
:100B2000C701C70A47080319BB2D0130B2070030BF
:100B3000B33D0030B43D0030B53D351CBB2D32080F
:100B4000B6003308B7003408B8003508B9000130E2
:100B5000BA00B937B80CB70CB60CBA0BA92D3908C6
:100B6000B5003808B4003708B3003608B2000130C9
:100B7000C0070030C13D4108803AB60080303602DF
:100B8000031DC42DFF304002031CD32DFF30400154
:100B9000C0000030C1000030B5000030B4000030AB
:100BA000B3000030B20040014108803AB600803006
:100BB0003602031DDD2D013040020318EB2D4001EC
:100BC000C001C1010030B5000030B4000030B300F6
:100BD0000030B200BF0140014008B6003608C60030
:100BE000461CF42DB417F82D7F30B6003608B40536
:100BF0004636B6003608B500DE2C41016E08031DEE
:100C000008005C08DF00E001E101E2016208400148
:100C1000A300410161084001A200410160084001B8
:100C2000A10041015F084001A00001309631D126AA
:100C3000853140012308B5002208B4002108B30023
:100C40002008B2004330B1007F30B0000030AF0068
:100C50000030AE0084318324853140013108CF005B
:100C60003008CE002F08CD002E08CC004230CB003B
:100C7000FE30CA000030C9000030C80080318A2030
:100C8000853140014B08E5004A08E4004908E300CB
:100C90004808E20094319F248531400163084101F6
:100CA000C600400162084101C5009E319126853190
:100CB00041015D08DF00E001E101E201620840015D
:100CC000A300410161084001A20041016008400108
:100CD000A10041015F084001A00001309631D126FA
:100CE000853140012308B5002208B4002108B30073
:100CF0002008B2004330B1007F30B0000030AF00B8
:100D00000030AE0084318324853140013108CF00AA
:100D10003008CE002F08CD002E08CC004230CB008A
:100D2000FE30CA000030C9000030C80080318A207F
:100D3000853140014B08E5004A08E4004908E3001A
:100D40004808E20094319F24853140016308410145
:100D5000C600400162084101C5009E31AF268531C1
:100D600041015E08DF00E001E101E20162084001AB
:100D7000A300410161084001A20041016008400157
:100D8000A10041015F084001A00001309631D12649
:100D9000853140012308B5002208B4002108B300C2
:100DA0002008B2004330B1007F30B0000030AF0007
:100DB0000030AE0084318324853140013108CF00FA
:100DC0003008CE002F08CD002E08CC004230CB00DA
:100DD000FE30CA000030C9000030C80080318A20CF
:100DE000853140014B08E5004A08E4004908E3006A
:100DF0004808E20094319F24853140016308410195
:100E0000C600400162084101C5009E31CD268531F2
:100E100041015B08DF00E001E101E20162084001FD
:100E2000A300410161084001A200410160084001A6
:100E3000A10041015F084001A00001309631D12698
:100E4000853140012308B5002208B4002108B30011
:100E50002008B2004330B1007F30B0000030AF0056
:100E60000030AE0084318324853140013108CF0049
:100E70003008CE002F08CD002E08CC004230CB0029
:100E8000FE30CA000030C9000030C80080318A201E
:100E9000853140014B08E5004A08E4004908E300B9
:100EA0004808E20094319F248531400163084101E4
:100EB000C600400162084101C5009E31EB260800D2
:100EC000033040013702E83003193602031C8B2F30
:100ED0007930B8003808B0003430903100208731C4
:100EE00079304001B8003808B0003530903100202A
:100EF000873179304001B8003808B0003630903181
:100F00000020873179304001B8003808B000373010
:100F10009031002008000A30A8000030A9003708EE
:100F2000AB003608AA00903195208731400129088E
:100F3000850028088400103084079830853D00081B
:100F4000B8003808B00037309031002087310A30BF
:100F50004001A8000030A9000A30A0000030A10024
:100F60003708A3003608A2009131ED2187314001F6
:100F70002108AB002008AA0090319520873140015C
:100F80002908850028088400103084079830853DA2
:100F90000008B8003808B0003630903100208731A2
:100FA0000A304001A8000030A9006430A0000030E1
:100FB000A1003708A3003608A2009131ED21873146
:100FC00040012108AB002008AA009031952087310C
:100FD00040012908850028088400103084079830D3
:100FE000853D0008B8003808B00035309031002049
:100FF000080001340034053401340134053408009C
:1010000042011D121D1608004001B900643039026A
:10101000031C2D287930B6003608B00034309031EA
:101020000020883179304001B6003608B0003530F4
:1010300090310020883179304001B6003608B00088
:10104000363090310020883179304001B6003608C2
:10105000B00037309031002008000A30A90000307D
:10106000AA003908B600B7013608AB003708AC0053
:1010700093311123883140012A0885002908840012
:10108000103084079830853D0008B8003808B0005B
:1010900037309031002088310A304001A9000030FB
:1010A000AA000A30A0000030A1003908B600B7013C
:1010B0003608A2003708A3009331A52388314001E8
:1010C0002108AC002008AB00933111238831400186
:1010D0002A08850029088400103084079830853D4F
:1010E0000008B8003808B000363090310020080001
:1010F0004001E2005A0886008701403FDC00413F82
:10110000DD005C0884005D0885001200253A031D9F
:10111000FD285A08860087010130810741310318F4
:10112000810A4201B201B301B601B701FF30B40038
:10113000FF30B50040015A0886008701403FDC00BF
:10114000413FDD005C0884005D0885001200633AC1
:10115000031DCB285A0886008701013081074131E1
:101160000318810A5B088600870101088400850155
:10117000023081070008DC005C08E1006108DC0047
:101180005C08D40062089031F12040015508DB0072
:101190005408DA0008005A0886008701403FDC0046
:1011A000413FDD005C0884005D0885001200253A9F
:1011B000031DF2285A08860087010130810741315A
:1011C0000318810A2530BB000030BC006208DC0037
:1011D0005C08BD009231582201304001DA00003035
:1011E000DB0008005A088600870101308107413181
:1011F0000318810ADA01DB0108005A08860087011A
:10120000403FDC00413FDD005C0884005D08850054
:101210000008DE00DF015E08BB005F08BC0062085A
:10122000E0006008BD0092315822883140015A0820
:10123000860087010130810741310318810AEC28BB
:101240004101D200520803194A29963154268931A6
:1012500041014808D6004708D5004608D400450893
:10126000D30056084001E500410155084001E40063
:10127000410154084001E300410153084001E200EC
:1012800094319F24893140016208EE006E084101CB
:10129000D8004B29D8014F080319732996315426D9
:1012A000893141014808D6004708D5004608D400D6
:1012B0004508D30056084001E500410155084001AA
:1012C000E400410154084001E3004101530840019A
:1012D000E20094319F24893140016208EE006E08DB
:1012E0004101DA007429DA014E0803199C2996316C
:1012F0005426893141014808D6004708D5004608E0
:10130000D4004508D30056084001E50041015508C6
:101310004001E400410154084001E3004101530849
:101320004001E20094319F24893140016208EE00BF
:101330006E084101D9009D29D90150080319C5291A
:1013400096315426893141014808D6004708D50016
:101350004608D4004508D30056084001E500410185
:1013600055084001E400410154084001E3004101F7
:1013700053084001E20094319F2489314001620802
:10138000EE006E084101D700C629D7015A08D100E6
:101390005908D0005808CF005708CE000800400177
:1013A000A50041013C089D3127258931003A0319E8
:1013B000342A9C316924893141012B0840012002E3
:1013C000A30041012C084001213BA40024087D0218
:1013D000031DEC2923087C020318342A25089231C6
:1013E000CB2289310C2A9C316924893141012B0897
:1013F00040012002A30041012C084001213BA40030
:1014000024087D02031D062A23087C0203183C2AB7
:1014100025089231222289319C3169248931400189
:1014200021084101AC00400120084101AB007D08CA
:10143000803A4001A30080302302031D212A0B3093
:101440007C02031C322AFF30FC07FF30FD3D322AAC
:10145000400125089231CB228931322A40012508EA
:10146000923122220130080041013B089D3127259D
:101470008931003A031DF32941013508031D282A4B
:101480003408031D2E2A3208031D562A6D2A4101F5
:10149000B001B00A322A02304E2A0330A3002308DA
:1014A0004101B000322A4101B001322A4001250831
:1014B000A300A4012408003A03195F2A322A230852
:1014C000003A0319472A013A03194B2A033A031930
:1014D0004D2A013A0319532A322A3508031D3408CC
:1014E000031D852A3B089D3127258931003A031DBC
:1014F000852A41013C089D3127258931003A031D89
:10150000852A6430FC000030FD00003008002730E0
:1015100040013702103003193602031CB22A793019
:10152000B8003808B0003430903100208A3179306A
:101530004001B8003808B0003530903100208A31C1
:1015400079304001B8003808B000363090310020C2
:101550008A3179304001B8003808B0003730903116
:10156000002008000A30A8000030A9003708AB00AE
:101570003608AA00903195208A314001290885005B
:1015800028088400103084079830853D0008B80092
:101590003808B0003730903100208A310A304001DD
:1015A000A8000030A9000A30A0000030A1003708D0
:1015B000A3003608A2009131ED218A3140012108B3
:1015C000AB002008AA00903195208A3140012908FB
:1015D000850028088400103084079830853D000875
:1015E000B8003808B0003630903100208A310A3017
:1015F0004001A8000030A9006430A0000030A10024
:101600003708A3003608A2009131ED218A3140014C
:101610002108AB002008AA00903195208A314001B2
:101620002908850028088400103084079830853DFB
:101630000008B8003808B0003530903100208A31F9
:101640000A304001A8000030A900E830A0000330B3
:10165000A1003708A3003608A2009131ED218A319C
:1016600040012108AB002008AA00903195208A3162
:10167000400129088500280884001030840798302C
:10168000853D0008B8003808B000343090310020A3
:101690000800E92B9531052508009C311B248B316E
:1016A000003A0319672B4101CE01CF01D001003070
:1016B000893120218B3141015108DE005008DD00C5
:1016C0004F08DC004E08DB008531FD2508008C3119
:1016D000E12408009C311B248B31003A0319842B30
:1016E0004101CE01CF01D0010030893120218B3161
:1016F00041015108DE005008DD004F08DC004E08B3
:10170000DB008531FD2508009C311A2408009C313E
:101710001B248B31003A0319A12B4101CE01CF01CB
:10172000D0010030893120218B3141015108DE0088
:101730005008DD004F08DC004E08DB008531FD2538
:1017400008009C31192408009C311B248B31003A7D
:101750000319BE2B4101CE01CF01D00100308931E8
:1017600020218B3141015108DE005008DD004F0877
:10177000DC004E08DB008531FD2508008731FF279E
:1017800008009C311B248B31003A0319DB2B4101EB
:10179000CE01CF01D0010030893120218B314101B0
:1017A0005108DE005008DD004F08DC004E08DB0069
:1017B0008531FD2508009C31182408002808DE002A
:1017C0002708DD002608DC002508DB008531FD2523
:1017D00008009C3126248B314101E800E9016908A9
:1017E000003A0319F42B0B2C6808003A03194A2B12
:1017F000013A03194D2B033A0319C12B013A03197E
:10180000DE2B073A03196A2B013A0319872B033A97
:101810000319A42B0B2C08009C3169248C31420144
:101820003E0840012002A80042013F084001213B40
:10183000A90042016A0840012902031D232C42012C
:10184000690840012802031C08009C3169248C317E
:10185000400121084201BF00400120084201BE00B2
:1018600041012D03031D3A2C01304201BC07003019
:10187000BD3D412C4201BC01BD011E30E9000030DC
:10188000EA0041012D03031D8A2C42014C08031D6F
:101890008A2C4101AE01AE0A32304201E90000302B
:1018A000EA009C3169248C31420142084001200247
:1018B000AA00420143084001213BAB009C3169244E
:1018C0008C31400121084201C3004001200842013F
:1018D000C200003040012B02963003192A0203187F
:1018E000772C90304201C0000130C1008A2C2B08B7
:1018F000A1002A08A0006030A200EA30A3009131C4
:10190000ED218C31400121084201C1004001200835
:101910004201C00041012D084001A80028084201F1
:10192000CC004101AD0142013D08803A4001A800D0
:1019300080302802031D9F2C043042013C02031C0E
:10194000BE2C01304201EB070030EC3D6C08400139
:10195000A10042016B084001A0009C3157248C314A
:101960004201BC01BD019C316924400121084201B2
:10197000C300400120084201C20008009C316924D4
:101980008C314201420840012002A8004201430874
:101990004001213BA90003302902E9300319280244
:1019A000031C080001304201EB020030EC3B6C08E4
:1019B0004001A10042016B084001A0009C31572466
:1019C00008009C3169248C31420138084001200212
:1019D0004101E300420139084001213B4101E4009B
:1019E00000306402323003196302031C08009C318A
:1019F00069248C31400121084201B90040012008CE
:101A00004201B80040019A129C3184248C3141017A
:101A1000E30063084001EF006F08031D9A166F088A
:101A2000031D262D4101CE01CF01D00100308931A7
:101A300020218C3141015108DE005008DD004F08A3
:101A4000DC004E08DB008531FD250800410129033B
:101A50002A04031D692DCE01512DCE01492DCE0141
:101A6000CE0ACF01CF0AD001542DCE01CE0A402D8F
:101A7000CE01CE0A452DCE01CF01CF0A522DCE0187
:101A8000CF01CF0AD0014D2DCE01CF014B2DCE017C
:101A9000CE0ACF01CF0AD001D00A0130552DCE0198
:101AA000CE0ACF01D001D00A0030893120218C31FB
:101AB00041015108DE005008DD004F08DC004E08EF
:101AC000DB008531FD2501304101A9070030AA3D29
:101AD0000800023029062A0403194F2D0330290675
:101AE0002A0403192F2D043029062A0403192D2D49
:101AF000053029062A0403192F2D063029062A0449
:101B00000319352D083029062A040319382D093008
:101B100029062A0403194F2D0A3029062A0403191D
:101B20003B2D0B3029062A0403193F2D0C302906C2
:101B30002A040319442D0D3029062A040319472DC0
:101B40000E3029062A0403194F2DCE01CE0ACF01EB
:101B5000CF0AD001D00A0030893120218C314101D7
:101B60005108DE005008DD004F08DC004E08DB00A5
:101B70008531FD2501304101A9000030AA0008008F
:101B80009C3169248D3140012108A7002008A6005E
:101B90004201480840012602A200420149084001D2
:101BA000273BA300003023020A3003192202031C42
:101BB000080027084201C900400126084201C80068
:101BC0004001A5012508A2000230A235FF3E031DF9
:101BD000E52D2235C03EA3002308A8002808860072
:101BE00001308700403FA200413FA3002208860049
:101BF000230887000130A4002808023E8400013039
:101C00008500000A042EA435890B032E2408010543
:101C1000031D232E2808033E860001308700810122
:101C2000810A2808073E8600013087000108031D4D
:101C3000292E2808053E8600013087002608C03F6F
:101C40002708C13F292E2808033E8600013087005F
:101C500081012808033E8600013087000108031D2A
:101C6000412E2808043E8600013087000103031D31
:101C7000412E2808073E8600013087008101810A35
:101C8000972E2808033E8600013087000103031DBC
:101C9000782E2808043E8600013087000103031DCA
:101CA000782E2808053E860001308700403F260236
:101CB000A200413F273BA30000302302C930031993
:101CC0002202031C652E03306F2E2808073E860073
:101CD00001308700033001060319972E0230A2005D
:101CE0002808073E86000130870022088100972ED1
:101CF0002808033E8600013087000108031D972E47
:101D00002808043E8600013087000103031D972E3A
:101D10002808073E86000130870003300106031DB6
:101D2000972E2808073E8600013087008101280889
:101D3000033E8600013087000108A2002808043E07
:101D4000860001308700220881000130A2002208AD
:101D5000A5070430250203180800E22D4E010F10DC
:101D60004301901FD32F90134101C3014108023E4C
:101D70008600013087000108860087018101810A01
:101D8000C1010800A21808002108F2007208C10071
:101D900021088600013087000108F2007208C200A5
:101DA00021088600013087000130413FF7000330F1
:101DB000F2007208A10721085B3A031DE32E583098
:101DC000F2007208A1002210210820060319A214B3
:101DD000430111140230F20072084101C3000800EF
:101DE0007C2F4301111FFD2E0130F20072084101CA
:101DF000A40704309E315B2608007B08F3007A08B4
:101E0000F200F336F20C72088C007A1C0D2F0B30A6
:101E1000F20072084101C30008000330F2007208AA
:101E20004101C30008004301111F1F2F0130F200C0
:101E300072084101A40704309E315B26080091140A
:101E40007B08F3007A08F2007308F200F301063011
:101E50007205F40000307305F500F0307404FA00E8
:101E600000307504FB007A144101BE01BE0AEA2E5F
:101E70003E030319512F7708860001308700403F49
:101E8000FA00413FFB0077088600013087000130EF
:101E9000433FC00077088600013087000130423F91
:101EA000BF007A0843018C007A1C0D2F0530F20028
:101EB00072084101C30008004301111F6A2F01305D
:101EC000F20072084101A4074301111305309E314D
:101ED0005B26080001304101BF023F0A031D7F2F2E
:101EE0000430F2007208F7070130C202031D7C2F94
:101EF00000309E315B26080043019114EA2E400811
:101F000086008701010843018C000130F20072084D
:101F10004101C00708004301111F992F0130F20051
:101F200072084101A40704309E315B26430111135E
:101F3000080091150830F20072084101C300080042
:101F40000830F2007208C3004301911508004301F4
:101F50000C08F200410140088600870172088100E8
:101F60000130F2007208C0070130BF020319C02F10
:101F7000430191120630F20072084101C300C42FE0
:101F8000430191169D31362543011116080000309A
:101F90009E315B2608000130F2007208A40706306B
:101FA0009E315B26080041014308F200F3017308EB
:101FB000003A0319DC2FCB2F7208003A0319C22E06
:101FC000013A0319F02E033A0319382F013A031985
:101FD0005C2F073A0319C72F013A03198B2F033AD5
:101FE0000319A02F013A0319C72F0F3A0319A72F7E
:101FF000023A0319F12E013A0319132FCB2F0800CF
:102000004001B4000230B1003108B500A701A70AB1
:102010003408B100B2013108A8003208A9003530F7
:10202000B3003308AA00303090316B209031023079
:1020300040013506031D0800172841018C018D0160
:102040008E018F019201930198019A019F01420133
:102050008C018D018E018F0190019201543093000B
:10206000563094009501960197019801D430910063
:102070004E018D10971415304001A0001C30A100B6
:102080009C314E24080041013208031D5C285E2863
:102090000A306D020318532801304001A0002008C7
:1020A0004101ED075C280A304001A00020084101F1
:1020B000ED005C280130ED02013008003508031DF9
:1020C000482834080319080002306D0203185A2802
:1020D000ED01ED0A5C284001AD00410122188E2877
:1020E00040012D08AB002B08A0002708AC002C08ED
:1020F000A1002908A3002808A20054309F314927D5
:10210000903154304001AB002B08A0002A08AC00ED
:102110002C08A100013094314A24080040012A080B
:10212000860087018101810A0800400128082904EE
:102130000319BD28AD01AD0AA91BA8280130A83597
:10214000A90D890B9F280130AC002C08AD079C28F5
:1021500029082B02031DAE2828082A02031CB428D4
:102160002808AA022908AB3B0130A936A80C890B24
:10217000B5280130AD02031DA8282B08A9002A08A4
:10218000A80008004001E8006408EA006308E900CC
:102190004201B001B1014001690884006A0885006C
:1021A00012000319E8286930E6006608DA006508BD
:1021B000E7006708DB00680888317820903140012B
:1021C0005A084201B00740015B084201B13DCB28EB
:1021D000420131084001E400420130084001E300BF
:1021E00008004001D900420132083304031D0029D0
:1021F00033084001D800420132084001D7000929C4
:102200003208FF3E4001D700FF304201333D40011C
:10221000D8005408D60056084301A000A101A03000
:102220004001D6005608CB005808CD005708CC0016
:1022300059089331F72340014C08D5004B08D400CE
:10224000080042019D1C26291D121D1667086804FE
:1022500003191D1947291908F000F1013B08F30083
:102260003A08F200F235F30DEE30F4002330F500B9
:102270007208740786007308753D87007008C03FB8
:102280007108C13F0130BA070030BB3D4F29BA0188
:10229000BB01E701E8011908F0007008F6004E01E3
:1022A0008F1208004001980199019A013F30920075
:1022B000F030930026309400FF307E01CE00E030F5
:1022C000C3000730B800C401B901CF01BA01C5018C
:1022D000D0013730BB00F030C600FF30D1000530F0
:1022E0007D01C50014307E0194000B30A3000C303A
:1022F000A400133095000A30A6000930A70004306E
:102300007D01C6000C30CB0008007908203E860015
:1023100001308700810142011D1D99297908203E65
:10232000860001308700811464088A0063080A006F
:10233000913142019D1CA7297908203E8600013079
:102340008700011562088A0061080A009131790846
:10235000203E86000130870001080319B62942019A
:1023600060088A005F080A00913108009D31FA2553
:1023700008004E01991285304001A0001130A100E3
:102380009C317B249131083042019F0090309D00A8
:1023900004309E001F309B009C0116304001A000BD
:1023A0001C30A1009C319624913100304001A000E6
:1023B0000830A1009C319F2491311D304001A000C4
:1023C0001C30A1009C318D244201CF01F901F8019C
:1023D0004101C4014E01991608004001A501A60162
:1023E0002008210403191D2AA701A70AA11B022AFC
:1023F0000130A035A10D890BF9290130A400240872
:10240000A707F6290130A535A60D890B032A210857
:102410002302031D0D2A20082202031C142A20086F
:10242000A2022108A33B25140130A136A00C890B80
:10243000152A0130A702031D022A2608A10025083B
:10244000A00008004001A200412A4101260803190A
:1024500008000130A60208004101270803190800FE
:102460000130A702080041012808031908000130C3
:10247000A802080041012508031908000130A5023F
:1024800008002208A000A1012108003A0319492AE6
:10249000572A2008003A0319252A013A03192C2A41
:1024A000033A0319332A013A03193A2A572A080032
:1024B00040013D08031D3D08031D622A3B089F3172
:1024C0006C2708003D08033E8600870116000104C2
:1024D0000319852A3D08033E86008701403FBE0060
:1024E000413FBF003D0A86008701403FC000413F99
:1024F000C1004108803AC2003F08803A4202031DF1
:10250000832A3E0840020318080040013D0A860065
:1025100087010130810741310318810A08009F318A
:102520009027923115304201EE004B30ED00BE3065
:10253000890B982AED0B982AEE0B982A00009C3103
:102540003E2492319331572392319D31E3259231CC
:102550009C31462492318B170B179D31A525923162
:102560009D316A2592319C316924923140012108C4
:102570004201CB00400120084201CA008D31C02534
:1025800092318231B62292318C310C2492318B31CE
:1025900049239231BE2A4001A200FA2A4101260AAB
:1025A0000319080001304001A00020084101A607DE
:1025B00008004101270A0319080001304001A0006A
:1025C00020084101A70708004101280A0319080053
:1025D00001304001A00020084101A8070800410186
:1025E000250A0319080001304001A000200841011C
:1025F000A50708002208A000A1012108003A03193C
:10260000022B102B2008003A0319CE2A013A031995
:10261000D92A033A0319E42A013A0319EF2A102BA5
:1026200008004001AF01AC1F1C2BAB09AC09AB0A81
:102630000319AC0AAF01AF0AAA1F232BA909AA09E3
:10264000A90A0319AA0A29082A0403194A2BAE0168
:10265000AE0AAA1B352B0130A935AA0D890B2C2BEC
:102660000130AD002D08AE07292B2A082C02031DCE
:102670003B2B29082B02031C412B2908AB022A08FB
:10268000AC3B0130AA36A90C890B422B0130AE02BB
:10269000031D352B2F080319522BAB09AC09AB0ACC
:1026A0000319AC0A2C08AA002B08A9000800C030A6
:1026B0004001A50025084101BD00C8304001A5002A
:1026C00025084101BC00D0304001A500250841018A
:1026D000BB00D8304001A50025084101BA000E30EA
:1026E0004001A0000030A1000230A5002508A20092
:1026F00041013D089F31092793310C304001A00072
:102700000030A1000230A5002508A20041013A08CE
:102710009F31092793310E304001A0000030A10005
:10272000A20141013B089F31092793310E3040013E
:10273000A0000030A100A201A20A41013C089F3183
:10274000092793319D31472508004001A601A11FAB
:10275000B02BA009A109A00A0319A10AA601A60A83
:10276000A31FBB2BA209A309A20A0319A30A0130C4
:10277000A4002408A606A701A80120082104031923
:10278000EA2BA501A50AA11BCF2B0130A035A10D75
:10279000890BC62B0130A4002408A507C32B0130E8
:1027A000A735A80D890BD02B21082302031DDA2B96
:1027B00020082202031CE12B2008A2022108A33BCF
:1027C00027140130A136A00C890BE22B0130A502A1
:1027D000031DCF2B26080319F22BA709A809A70A66
:1027E0000319A80A2808A1002708A0000800400132
:1027F000D3004201361C052C40015308CE004E0880
:10280000C3004B089F31DA2793314001CD1B0D2CBB
:102810004D08D2004C08D1000F2CD101D201CF01BC
:10282000D0015008803ACE005208803A4E02031D73
:102830001B2C51084F0203182F2C20304001BB00E5
:102840000030BC005308CE004E08BD009231582223
:10285000933101304001CF070030D03D112C4201AF
:1028600036183B2C40015308CE004E08C3004B08DD
:102870009F31DA27933140014B08A0000130A100BD
:102880009E312A26400151082007CB005208213DE5
:10289000CC0008004001A300410122188C2C02301A
:1028A0004001A2002108860087012208810020083B
:1028B000A2004101200A8600013087004001220861
:1028C00081002308A2004101200886000130870012
:1028D0004001220881002108A20041012008023E97
:1028E0008600013087004001220881000330A200E9
:1028F00022084101A00720085B3A031D852C5830AF
:102900004001A20022084101A000A21021082006D7
:10291000031D922C2214922C40012108860087016D
:102920008101810A400121088600870102300106E9
:10293000031D08009C312D244E010F1408000310C4
:102940004001640D650DE6006608EC006C08031D8F
:10295000B22C0030E5000030E4000030E30000302D
:10296000E20008006208E6006308E7006408E80087
:102970006508E9001F30E936E80CE70CE60C890B26
:10298000BB2C6608EA006A08EB00E417FF30E2059A
:10299000FF30E305FF30E4050030E5059630EC023A
:1029A000EC1FE52C6C08803A973E031CA92C0130E3
:1029B000E536E40CE30CE20C890BD82C0130E60080
:1029C0006608EC070319F62CD72C20306C0203188C
:1029D000A92C6C080319F62C0130E235E30DE40D47
:1029E000E50D890BED2C0130EC02E92C6B08031985
:1029F0000800E209E309E409E509E20A0319E30A28
:102A00000319E40A0319E50A08009C3123249531CF
:102A10004101E300E401E335E40DEE30E50023304D
:102A2000E6006308650786006408663D87000108C4
:102A3000E70067084301E1009C31232495314101FF
:102A4000E300E401E335E40DF030E5002330E60077
:102A50006308650786006408663D87000108E70093
:102A600067084301E2009C31232495314101E300D2
:102A7000E401E335E40DF230E5002330E6006308BD
:102A8000650786006408663D87000108E70067085F
:102A90004301E3009C31232495314101E300E4012B
:102AA000E335E40DF430E5002330E6006308650704
:102AB00086006408663D87000108E7006708430157
:102AC000E00063084101DE00430162084101DD00CE
:102AD000430161084101DC00430160084101DB0062
:102AE0008531FD25080041013A089D3127259531A2
:102AF000003A0319A82D41013608031DA82D3108FD
:102B0000031D842D0130852D00304001A1002108D6
:102B10004101B100B601B60AA62D09306F020318B3
:102B2000982D01304001A10021084101EF07A62D99
:102B300009304001A10021084101EF00A62D6F08D6
:102B40000319A52D0130EF02A62DEF010130080079
:102B500041013508031D8D2D3408031D9F2D3208BA
:102B60000319BD2D04303806031DBD2D053040016D
:102B7000A10021084101B800080032080319CA2D3C
:102B80003803031DCA2D04304001A1002108410172
:102B9000B800080032080319D82D05303806031D87
:102BA000D82D06304001A10021084101B8000800DD
:102BB00032080319080006303806031D0800B80162
:102BC000B80A08000430410139060319EF2D053019
:102BD00039060319EF2D06303906031DF12DB90111
:102BE000B90A35080319022E033039020318FD2DE6
:102BF0000130CF004F08B9070C2E0330CF004F082B
:102C0000B9000C2E340803190C2E390803190B2EA9
:102C10000130B9020C2EB901320803193A2E3908D5
:102C2000CF004F08B800B701B601B60A080055300A
:102C3000C500A030C6009D31CE2508006130C5001A
:102C4000A030C6009D31CE2508006130C500A030FF
:102C5000C6009D31CE2508004930C500A030C60011
:102C60009D31CE2508004F30C500A030C6009D31F3
:102C7000CE2508003908CF00D0015008003A0319CA
:102C8000422E532E4F08003A03192C2E013A0319F5
:102C90001E2E033A0319172E013A0319332E073A51
:102CA0000319252E532E080041016F08C900CA01DF
:102CB000CB01CC014C084001A30041014B0840016D
:102CC000A20041014A084001A10041014908400118
:102CD000A00001309631D126963140012308B5007D
:102CE0002208B4002108B3002008B2004130B1002E
:102CF0001030B0000030AF000030AE0084318324CB
:102D0000963140013108CF003008CE002F08CD00A9
:102D10002E08CC004330CB007F30CA000030C90001
:102D20000030C80080318A20963140014B08E50010
:102D30004A08E4004908E3004808E20094319F246F
:102D40009631400162084101CD004D084001ED007F
:102D50006D084101C900CA01CB01CC014C084001FA
:102D6000A30041014B084001A20041014A08400173
:102D7000A100410149084001A00000309631D12650
:102D8000400123084101C800400122084101C70059
:102D9000400121084101C600400120084101C50051
:102DA00008004001A8002808031DA31FE72E2009E2
:102DB000AA002109AB002209AC002309AD00AA0A30
:102DC0000319AB0A0319AC0A0319AD0AEF2E230845
:102DD000AD002208AC002108AB002008AA0023089F
:102DE000220421042004031DFE2E0030A300003025
:102DF000A2000030A1000030A00008009630A4001E
:102E00002408A900FE302D050319252F0130A40048
:102E10002408A9070130AD36AC0CAB0CAA0C890B09
:102E20000B2F022F0130A4002408A9070130AA07A4
:102E30000030AB3D0030AC3D0030AD3D0130AD3633
:102E4000AC0CAB0CAA0C890B1F2FFF302D050319FE
:102E5000372F122F02302902031C392F0130A9020B
:102E60000130AA35AB0DAC0DAD0D890B312FAC1F68
:102E70002A2F2918432FFF30AA05FF30AB057F30DA
:102E8000AC05FF30AD050310A90C2908A400A5016D
:102E9000A601A7011830A435A50DA60DA70D890B15
:102EA0004B2F2408AA042508AB042608AC042708E5
:102EB000AD042808031DA31F5E2FAD172D08A30026
:102EC0002C08A2002B08A1002A08A000080041013C
:102ED0003C089D3127259731003A0319BD2F9C31BD
:102EE0006924973141012B0840012002B9004101BA
:102EF0002C084001213BBA003A087D02031D822FB5
:102F000039087C020318BD2F9E3142269731A02F2D
:102F10009C316924973141012B0840012002B900FE
:102F200041012C084001213BBA003A087D02031DF3
:102F30009B2F39087C020318C52F9E31122697312A
:102F40009C3169249731400121084101AC004001C6
:102F500020084101AB007D08803A4001B900803073
:102F60003902031DB52F15307C02031CBB2FFF3027
:102F7000FC07FF30FD3D0130080041013B089D3159
:102F800027259731003A031D882F41013A089D31CA
:102F900027259731003A0319D42F01304101EA0067
:102FA0000030EB0001300800410135080319DC2F27
:102FB0009E3142269731BB2F34080319E32F9E31EF
:102FC00012269731BB2F3208031DBB2F3508031D76
:102FD0003408031DFE2F3B089D3127259731003A09
:102FE000031DFE2F41013C089D3127259731003AF2
:102FF000031DFE2F6430FC000030FD00003008008F
:10300000003482342134003400340034003402347B
:1030100039340F3400340034003440348034003408
:103020003F3406345B344F3466346D347D340734BA
:103030007F346F3400340034003448340034533467
:10304000003477347C3439345E34793471346F34FD
:10305000763406341E3400343834003454343F346B
:103060007334673450346D3478343E340034003473
:1030700000346E340034393400340F3400340834F2
:1030800063345F347C3458345E347B3471346F3451
:10309000743402341E3400340634003454345C3446
:1030A0007334673450346D3478341C340034003455
:1030B00000346E340034393430340F34003400348A
:10382A000800080008000800080008000030080026
:10383A009D31FA2508004E018F10080041016A08DF
:10384A0008004101380808004101AD01AD0A08002D
:10385A0041014308031908002D2C01304201C60713
:10386A000030C73D0800013400340A340034903473
:10387A00063432304001A0001C30A1009C31722471
:10388A0008004101A601A701A801A501400194125F
:10389A000800400121084201DC00400120084201E1
:1038AA00DB0008004001210841018F004001200887
:1038BA0041018E0008004001A000200841019F003C
:1038CA004201911711140800420147084001A10062
:1038DA00420146084001A0000800400121084201B7
:1038EA00DE00400120084201DD00080040012108F5
:1038FA004201E600400120084201E50008004101BA
:10390A002E0803198B2CAE01013008000030080084
:10391A00400121084201E000400120084201DF0085
:10392A000800400121084201E40040012008420148
:10393A00E3000800400121084201E200400120089A
:10394A004201E1000800603051018D008F019101B0
:10395A0006309300920108004F01960197019801E1
:10396A0099019A019B019C019D0108008C30460136
:10397A008E008D018C0144011E08FC3901389E001D
:10398A0008008C30460192009101900144011E0802
:10399A00F33904389E0008008C30460196009501E0
:1039AA00940144011E08CF3910389E0008008C305B
:1039BA0046019A009901980144011E083F3940388E
:1039CA009E0008006400800101310130FE020030CF
:1039DA00FF3B7F087E0403190034E82CFE00120026
:1039EA001E000130FE020030FF3B7F087E040319EF
:1039FA000034F42C4E018D1042015B085C0403195B
:103A0A0008005C088A005B080A009D3108004E0124
:103A1A008C1242015D085E04031908005E088A00E0
:103A2A005D080A009D3108000130450190008F01B0
:103A3A009101FF308D008C014E019010F03045014C
:103A4A008E0008004001A0002008073E86000130D1
:103A5A00870003300106031D342D013008000030B1
:103A6A0008000430F0007008F70701304101C20273
:103A7A00031D442D0430F0007008C3000800C30180
:103A8A00C30A0800400112157E0138113915400198
:103A9A001414941414157E014E10CE104E114F14A6
:103AAA00CF144F1508004001B8003608E03E8400E4
:103ABA0097300318013E85000008B7003708B000A8
:103ACA003808343E90310020080021304001A0001F
:103ADA001130A1009C317B249D3141016B084001CA
:103AEA00B70041016A084001B6008A3187220800FE
:103AFA004001A0002008073E86000130870001032C
:103B0A00031D8F2D2008073E8600013087008101A2
:103B1A00013008000030080045304B019F00F930A1
:103B2A009D009C014E018C12961617304001A00090
:103B3A001C30A1009C31722480304B019E00080089
:103B4A0001309D31B9259D3167304101C500A03052
:103B5A00C6009D31CE259D3147304101C500A030B8
:103B6A00C6009D31CE2508004001B600360803196B
:103B7A00C72DB001B00A2430903100204201CD0196
:103B8A00CD0A0800B0012430903100204201CD0155
:103B9A000800C7304001EB006B08EE0041014608FF
:103BAA004001E400410145084001E3006E30EB00AA
:103BBA006B08E50000309031C220080042016C0811
:103BCA004001A10042016B084001A0009C3157242A
:103BDA009D3129304001A0001C30A1009C314E24A7
:103BEA009D310F309C316024080042011908F00011
:103BFA007908283E8600013087007008810001306C
:103C0A00F0007008F907083079020318F901013049
:103C1A00F00070084101C407080041016A036B04FF
:103C2A00031D1C2E0030EA000230EB00202E01306A
:103C3A00EA020030EB3B6B084001B70041016A0819
:103C4A004001B6008A318722080040012108A400F9
:103C5A002008A30020088400210885001200031907
:103C6A003B2E0130A0070030A13D2F2E2308200251
:103C7A00A0002408213BA1000800023041016B0684
:103C8A006A04031D4D2E0130EA000030EB00512E6C
:103C9A000130EA070030EB3D6B084001B7004101F3
:103CAA006A084001B6008A3187220800F100430100
:103CBA00111541014108023E8600013087000108C2
:103CCA000319732E7108F0004108023E8600013084
:103CDA00870001088600870170088100C301080077
:103CEA0058304001A00020084101A100583040018D
:103CFA00A00020084101A000A2142210A40143013F
:103D0A008F012830900092014F308D004E010F1024
:103D1A008F101914991408000030410146028030AE
:103D2A000319450203180800FF30C5050330C6050C
:103D3A0046010E1EA62E06304101C535C60D890B59
:103D4A00A22E4101460846018D004101450846015F
:103D5A008C000800003041014602803003194502F8
:103D6A0003180800FF30C5050330C6054601121EB8
:103D7A00C42E06304101C535C60D890BC02E41013E
:103D8A004608460191004101450846019000080095
:103D9A000030410146028030031945020318080029
:103DAA00FF30C5050330C6054601161EE22E063051
:103DBA004101C535C60D890BDE2E41014608460173
:103DCA009500410145084601940008000030410170
:103DDA00460280300319450203180800FF30C50562
:103DEA000330C60546011A1E002F06304101C535AB
:103DFA00C60D890BFC2E4101460846019900410176
:103E0A0045084601980008004001A40024088600DD
:103E1A00013087002008C03F2108C13F2208A300C3
:103E2A002408023E86000130870023088100240806
:103E3A00033E86000130870081012408073E860080
:103E4A0001308700810108004001A800A401A501F2
:103E5A002008A200A3012208A6002308A700281C04
:103E6A003A2F2608A4072708A53D0130A635A70D35
:103E7A00890B3B2F0310A80C2808031D342F250893
:103E8A00A1002408A00008004001A6002308A500FC
:103E9A002208A400A435A50D260886000130870053
:103EAA002408C03F2508C13F2108A4002608023E75
:103EBA00860001308700240881002008A400260813
:103ECA00033E860001308700240881000800400173
:103EDA00BA00043041012F0203187A2F0D30400135
:103EEA003A06031D3A08031D7C2F4101AF010D302C
:103EFA0040013A06031908003A08B9003908B60021
:103F0A0041012F089D31582501304001B900390877
:103F1A004101AF0708009C31B1249F3191315221F0
:103F2A009F319C31A8249F319E3175269F319C3147
:103F3A00BB249F319C31C6249F3190311D209F3173
:103F4A009C31DC249F319C31D1249F319D3119252C
:103F5A009F319D3191259F319131B921080040014E
:103F6A00A200C32F410126080800410127080800C2
:103F7A004101280808004101250808002208A0007C
:103F8A00A1012108003A0319CB2FD92F2008003AA2
:103F9A000319B72F013A0319BA2F033A0319BD2F90
:103FAA00013A0319C02FD92F08004001CA00C801DD
:103FBA00C90148084A07C40044088600013087003E
:103FCA000108C5004508C700470803190800470843
:103FDA00C400C5014408BB004508BC004308C6002C
:103FEA004608BD00923158229F3101304001C8076E
:103FFA000030C93DDE2F253463342534633425343B
:10400A006334253463340D34003425346334253461
:10401A0063342534633420340D3400342034253499
:10402A00633425346334253463340D34003448341E
:10403A00453459345934593459345934593400347B
:10404A002534633425346334203420340D34003469
:10405A002034203425346334253463340D34003459
:10406A00253463342034203420340D340034203491
:10407A0020342034253463340D3400342034203481
:10408A00203420340D340034503443342034203466
:10409A000D3400344C344534443420340D34003467
:1040AA0041344E34493420340D34003448344F34CA
:1040BA004C3444340D34003442344534413454349D
:1040CA000D34003420342034203420340034413478
:1040DA002D34003442342D34003443342D3400342A
:1040EA0046342D34003441344E3400344234523490
:1040FA0000344234003447340034483400347234D3
:02410A0000347F
:020000040001F9
:0A000E00EC3FFF3F9F3FFF3FFF3F25
:00000001FF
