:020000040000FA
:1000000080311E28013400347E1480314E01961A4E
:100010008C1E0E288731F22780311C280B1F1C28CC
:1000200099188F1C17288E31B92680311C28191871
:100030000F1C1C2880314E207E10090080312028A2
:10004000803102208031ED00803103208031EE00CC
:1000500041018E31B7268031D2008E31B8268031F1
:10006000D300F001F101F201F301F401F5014001C7
:10007000EA01EB01EC01A0308400003085001F3064
:100080008E31C6268031203084000130850040301A
:100090008E31C6267E1040018F31E82F4E010F10A1
:1000A0004301901F60299013F3017008023E8600FF
:1000B00087010108860087018101810AF00108009B
:1000C0004101A21808002108F8007808F000210872
:1000D000860087010108F8007808F20021088600F0
:1000E0008701413FF1000330F8007808A10721089B
:1000F000BF3A031D7F28BC30F8007808A100221009
:10010000210820060319A214430111140230F8003B
:100110007808F30008000E29111F97280130F80015
:1001200078084101A40704308F31BA270800750808
:10013000F9007408F800F936F80C78088C00741C83
:10014000A6280B30F8007808F30008000330F80008
:100150007808F3000800111FB6280130F80078086D
:100160004101A40704308F31BA27080091147508A3
:10017000F9007408F8007908F800F90106307805EC
:10018000FA0000307905FB00F0307A04F40000300A
:100190007B04F50074144001EA01EA0A8628400154
:1001A0006A030319E428710886008701403FF400C0
:1001B000413FF500710886008701433FEC0071085C
:1001C00086008701423FEB00740843018C00741CD9
:1001D000A6280530F8007808F3000800111FFB2856
:1001E0000130F80078084101A407430111130530DC
:1001F0008F31BA27080001304001EB026B0A031D62
:1002000010290430F8007808F1070130F202031DCC
:100210000D2900308F31BA27080043019114862838
:100220006C0886008701010843018C000130F8004A
:1002300078084001EC070800111F29290130F80057
:1002400078084101A40704308F31BA274301111304
:10025000080091150830F8007808F300080008300D
:10026000F8007808F300911508000C08F800400128
:100270006C0886008701780881000130F800780852
:10028000EC070130EB0203194C29430191120630AF
:10029000F8007808F3005029430191168F311F2789
:1002A00043011116080000308F31BA2708000130D1
:1002B000F80078084101A40706308F31BA270800FA
:1002C0007308F800F9017908003A031968295729D9
:1002D0007808003A03196028013A03198B28033A79
:1002E0000319CF28013A0319EE28073A03195329B5
:1002F000013A03191C29033A03192F29013A03195A
:1003000053290F3A03193529023A03198C28013A67
:100310000319AB28572908008E31DC2681314001B2
:100320002108A7002008A60041012F08400126024D
:10033000A200410130084001273BA3000030230206
:10034000053003192202031C080027084101B000F0
:10035000400126084101AF004001A5012508A20087
:100360000230A235FF3E031DB1292235403EA300D5
:100370002308A8002808860001308700403FA2001B
:10038000413FA30022088600230887000130A40013
:100390002808023E840001308500000AD029A435D7
:1003A000890BCF2924080105031DEF292808033EE6
:1003B0008600013087008101810A2808073E8600F7
:1003C000013087000108031DF5292808053E860035
:1003D000013087002608C03F2708C13FF5292808BB
:1003E000033E86000130870081012808033E860015
:1003F000013087000108031D0D2A2808043E8600ED
:10040000013087000103031D0D2A2808073E8600DE
:10041000013087008101810A5A2A2808033E86009C
:10042000013087000103031D3B2A2808043E860093
:10043000013087000103031D3B2A2808053E860082
:1004400001308700403F2602A200413F273BA30026
:1004500001302302F53003192202031C312A033034
:10046000322A0230A2002808073E860001308700A9
:10047000220881005A2A2808033E8600013087009E
:100480000108031D5A2A2808043E8600013087000F
:100490000103031D5A2A2808073E86000130870001
:1004A00003300106031D5A2A2808073E8600013042
:1004B000870081012808033E86000130870001087B
:1004C000A2002808043E860001308700220881002F
:1004D0000130A2002208A5070430250203180800F5
:1004E000AE29273040013502103003193402031CB5
:1004F0009C2A7930B6003608AE0034308731A02708
:10050000823179304001B6003608AE00353087318F
:10051000A027823179304001B6003608AE0036306F
:100520008731A027823179304001B6003608AE000D
:1005300037308731A02708000A30A8000030A90012
:100540003508AB003408AA00863196268231400176
:1005500029088500280884008B3084078430853D75
:100560000008B6003608AE0037308731A027823148
:100570000A304001A8000030A9000A30A000003075
:10058000A1003508A3003408A2008631022682317A
:1005900040012108AB002008AA008631962682314E
:1005A000400129088500280884008B3084078430A6
:1005B000853D0008B6003608AE0036308731A027EA
:1005C00082310A304001A8000030A9006430A00048
:1005D0000030A1003508A3003408A20086310226AD
:1005E000823140012108AB002008AA0086319626FE
:1005F0008231400129088500280884008B30840757
:100600008430853D0008B6003608AE0035308731AD
:10061000A02782310A304001A8000030A900E8304C
:10062000A0000330A1003508A3003408A2008631E1
:100630000226823140012108AB002008AA00863141
:1006400096268231400129088500280884008B30D5
:1006500084078430853D0008B6003608AE0034308B
:100660008731A02708004001E00058088600870174
:10067000403FDA00413FDB005A0884005B088500F8
:100680001200253A031DB82B580886008701013057
:10069000810741310318810A4101A701A801AB017B
:1006A000AC01FF30A900FF30AA00400158088600C5
:1006B0008701403FDA00413FDB005A0884005B08B5
:1006C00085001200633A031D862B580886008701B7
:1006D0000130810741310318810A590886008701DA
:1006E000010884008501023081070008DA005A08F9
:1006F000DF005F08DA005A08D2006008863137262A
:1007000040015308D9005208D80008005808860054
:100710008701403FDA00413FDB005A0884005B0854
:1007200085001200253A031DAD2B5808860087016D
:100730000130810741310318810A2530B9000030AA
:10074000BA006008DA005A08BB008531CB250130B9
:100750004001D8000030D900080058088600870101
:100760000130810741310318810AD801D9010800FD
:10077000580886008701403FDA00413FDB005A08F5
:1007800084005B0885000008DC00DD015C08B9001E
:100790005D08BA006008DE005E08BB008531CB252D
:1007A00083314001580886008701013081074131BB
:1007B0000318810AA72B410151088F315227833139
:1007C000003A0319E72B8F31A4278331F22B410123
:1007D00050088F3152278331003A0319F22B8F31A1
:1007E0007A278331410151088F3101278331003A43
:1007F00003194F2C8E31DC26833141012D08400135
:100800002002B70041012E084001213BB800380802
:1008100041015302031D102C4001370841015202CF
:1008200003184F2C8F31A4278331312C8E31DC26D5
:10083000833141012D0840012002B70041012E08FB
:100840004001213BB800380841015302031D2C2C04
:1008500040013708410152020318572C8F317A2783
:1008600083318E31DC268331400121084101AE0005
:10087000400120084101AD005308803A4001B70013
:1008800080303702031D472C013041015202031C06
:100890000800FF304101D207FF30D33D080041017D
:1008A00050088F3101278331003A031D162C410176
:1008B0004E088F3101278331003A0319652C01302E
:1008C0004001ED000030EE000800410151088F3179
:1008D00001278331003A031D0800410150088F3180
:1008E00001278331003A031D080064304101D20022
:1008F0000030D30008000034823421340034003446
:1009000000340034023439340F34003400340034FD
:100910004034803400343F3406345B344F34663422
:100920006D347D3407347F346F3400340034003448
:10093000483400345334003477347C3439345E34F2
:10094000793471346F34763406341E3400343834DC
:10095000003454343F347334673450346D34783455
:100960003E340034003400346E3400343934003402
:100970000F340034083463345F347C3458345E34CC
:100980007B3471346F34743402341E3400340634D2
:10099000003454345C347334673450346D347834F8
:1009A0001C340034003400346E34003439343034B4
:1009B0000F34003400344001A300410122181A2DE5
:1009C00002304001A2002108860087012208810030
:1009D0002008A2004101200A860087014001220868
:1009E00081002308A2004101200886008701400100
:1009F000220881002108A20041012008023E860051
:100A000087014001220881000330A2002208410131
:100A1000A0072008BF3A031D132DBC304001A200DF
:100A200022084101A000A21021082006031D202D4C
:100A30002214202D40012108860087018101810AAE
:100A4000400121088600870102300106031D0800CD
:100A50008E31BC264E010F1408004001D100410127
:100A60002B1C3B2D40015108CC004C08C10049080B
:100A70008731162785314001CB1B432D4B08D00011
:100A80004A08CF00452DCF01D001CD01CE014E083F
:100A9000803ACC005008803A4C02031D512D4F087B
:100AA0004D020318652D20304001B9000030BA0016
:100AB0005108CC004C08BB008531CB258531013075
:100AC0004001CD070030CE3D472D41012B18712D3F
:100AD00040015108CC004C08C10049088731162755
:100AE0008531400149088731D92740014F08200747
:100AF000C9005008213DCA00080040304001A5004F
:100B000025084101CF0048304001A50025084101DA
:100B1000D10050304001A50025084101D0005830D7
:100B20004001A50025084101CE000E304001A00083
:100B30000030A1000230A5002508A20041014F08A5
:100B40008731802785310C304001A0000030A100A2
:100B50000230A5002508A20041014E0887318027F8
:100B600085310E304001A0000030A100A2014101FA
:100B700050088731802785310E304001A0000030B9
:100B8000A100A201A20A41015108873180278531C5
:100B90008F312F27080040013B08031D3B08031D30
:100BA000D52D390887313C2708003B08033E8600D5
:100BB0008701160001040319F82D3B08033E860047
:100BC0008701403FBC00413FBD003B0A86008701D2
:100BD000403FBE00413FBF003F08803AC0003D0893
:100BE000803A4002031DF62D3C083E02031808001F
:100BF00040013B0A8600870101308107413103181B
:100C0000810A08004001A601A70120082104031958
:100C1000322EA501A50AA11B172E0130A035A10D6A
:100C2000890B0E2E0130A4002408A5070B2E0130DD
:100C3000A635A70D890B182E21082302031D222E8D
:100C400020082202031C292E2008A2022108A33B0F
:100C500026140130A136A00C890B2A2E0130A502E2
:100C6000031D172E2708A1002608A0000800400138
:100C7000D700410127082804031D462E28084001FB
:100C8000D600410127084001D5004F2E2708FF3E1E
:100C90004001D500FF304101283D4001D6005208F7
:100CA000D40054084201A000A10120304001D4002A
:100CB0005408C9005608CB005508CA0057088531AA
:100CC0002D2540014A08D3004908D2000800400100
:100CD000E6006208E8006108E7004101A501A601FD
:100CE00040016708840068088500120003198D2EF2
:100CF0006730E4006408D8006308E5006508D9009F
:100D00006608833133238631400158084101A50725
:100D1000400159084101A63D702E410126084001BD
:100D2000E200410125084001E100080040012808D7
:100D300029040319BE2EAD01AD0AA91BA92E01304D
:100D4000A835A90D890BA02E0130AC002C08AD07E9
:100D50009D2E29082B02031DAF2E28082A02031CF2
:100D6000B52E2808AA022908AB3B0130A936A80CE9
:100D7000890BB62E0130AD02031DA92E2B08A90048
:100D80002A08A80008004001AD0041012218E62E03
:100D900040012D08AB002B08A0002708AC002C0850
:100DA000A1002908A3002808A200B83087316027D5
:100DB0008631B8304001AB002B08A0002A08AC00F7
:100DC0002C08A10001308431DB24080040012A08EE
:100DD000860087018101810A08004001980199017C
:100DE0009A013F309200F0309300FF309400FF30C2
:100DF0007E01CE00F030C3000730B800C401B90155
:100E0000CF01BA01C501D0013730BB00F030C600B8
:100E1000FF30D10005307D01C50014307E01940003
:100E20001330950004307D01C60008004001C80061
:100E3000C601C70146084807C200420886000130C3
:100E400087000108C3004308C500450803190800CE
:100E50004508C200C3014208B9004308BA0041086E
:100E6000C4004408BB008531CB25873101304001E7
:100E7000C6070030C73D1A2F4001B80004304101B9
:100E8000330203184A2F0D3040013806031D38087D
:100E9000031D4C2F4101B3010D30400138060319E9
:100EA00008003808B7003708B400410133088F3113
:100EB000402701304001B70037084101B30708005F
:100EC0004001A6002308A5002208A400A435A50D12
:100ED0002608860087012408C03F2508C13F210855
:100EE000A4002608023E860087012408810020080D
:100EF000A4002608033E860087012408810008001C
:100F00004001A40024088600013087002008C03F6B
:100F10002108C13F2208A3002408023E86000130B8
:100F20008700230881002408033E860001308700E3
:100F300081012408073E86000130870081010800F6
:100F40004001B2000230AF002F08B300A701A70A8A
:100F50003208AF00B0012F08A8003008A9003330D4
:100F6000B1003108AA002E308631C3268731023005
:100F700040013306031D0800B72FBC304001A0001C
:100F800020084101A100BC304001A000200841011F
:100F9000A000A2142210A40143018F012830900068
:100FA000920150308D004E010F108F1019149914BA
:100FB00008004001A4002408A2002208A30024087D
:100FC00086000130870001080319EB2F0130A200D1
:100FD0002208A407DF2F23082402A000A101A01BE0
:100FE000A10308004E018C1241014C084D04031965
:100FF00008004D088A004C080A00873108000800E4
:101D6E00643400344E018F10080073080319080004
:101D7E00BC2E01304101B1070030B23D08006400B5
:101D8E0080010131890BC72E0034C0304001A00004
:101D9E000E30A1008E31E526080040016E08B50018
:101DAE006D08B400823171220800410132084001F1
:101DBE00A100410131084001A000080040012108A6
:101DCE004101CD00400120084101CC0008006030E7
:101DDE0051018D008F019101063093009201080090
:101DEE004F0196019701980199019A019B019C015F
:101DFE009D0108004001A0002008073E860001302A
:101E0E00870003300106031D0E2F0130080000303D
:101E1E0008008E31F7268F318631ED268F318E31C7
:101E2E00EE268F318731BD278F318F31662708001F
:101E3E000430F6007608F1070130F202031D2C2F54
:101E4E000430F6007608F3000800F301F30A0800E8
:101E5E00400112157E0138113915400114149414E5
:101E6E0014157E014E10CE104E114F14CF144F1577
:101E7E0008004001B60034085B3E8400843003182D
:101E8E00013E85000008B5003508AE003608343E28
:101E9E008731A02708004001A0002008073E8600D9
:101EAE00013087000103031D642F2008073E8600C2
:101EBE0001308700810101300800003008004530F4
:101ECE004B019F00F9309D009C014E018C1296161D
:101EDE00FF304001A0000730A1008E31E526803092
:101EEE004B019E00080040016D036E04031D842FFC
:101EFE000030ED000230EE00882F0130ED02003090
:101F0E00EE3B6E08B5006D08B400823171220800F8
:101F1E00C1304001E90069084101CB004008400191
:101F2E00E20041013F084001E100CB30E9006908C1
:101F3E00E3000030863167260800023040016E064D
:101F4E006D04031DAF2F0130ED000030EE00B32FF6
:101F5E000130ED070030EE3D6E08B5006D08B4009F
:101F6E00823171220800F700430111157008023EFC
:101F7E008600870101080319CF2F7708F600700835
:101F8E00023E8600870101088600870176088100DF
:101F9E00F30108004001AE01AE0A24308731A027BC
:101FAE008F3140304101BF009030C0008F318F27FC
:101FBE008F313E304101BF009030C0008F318F27EE
:101FCE0008008F3110278F318E31CC268F3185311D
:101FDE007D258F318B170B178F31D1278F318E3196
:101FEE00D4268F3181318C218F318331DB238F3198
:101FFE00F92F253463342534633425346334253482
:10200E0063340D340034253463342534633425347D
:10201E00633420340D3400342034253463342534B5
:10202E006334253463340D3400342534633425345D
:10203E006334203420340D340034203420342534DD
:10204E006334253463340D34003425346334203442
:10205E00203420340D340034203420342034253400
:10206E0063340D34003420342034203420340D34C5
:0C207E000034203420342034203400349E
:020000040001F9
:0A000E00EC3FFF3F9F3FFF3FFF3F25
:00000001FF
