:020000040000FA
:1000000080313028080008007E1480314E01961A95
:100010008C1E0E289131FB2180312E280B1F2E289B
:1000200099188F1C172891310F2180312E2819180B
:100030000F1C1E2885318D2580312E2897188D1C88
:1000400025289131EE2180312E28991A8F1E2E28D5
:10005000420160088A005F080A0080317E100900B2
:1000600080313228A030840091308500E530860050
:10007000003087000030FF000A309131E2218031EA
:100080001C30840091308500673086000130870085
:100090000030FF0004309131E2218031EE308400E5
:1000A000233085000230FE000430FF009131D6215C
:1000B0008031F001F101F201F301F401F501F601E3
:1000C000C5308400003085002030FE000030FF0085
:1000D0009131D621803120308400013085003530C7
:1000E000FE000030FF009131D6218031A030840025
:1000F000013085004030FE000030FF009131D621F4
:100100007E1040019731262F40014B088039D000E6
:100110005008D5004B35D0005008DB00CA1B5B14DB
:100120005B080319A0285B0A031D9E280030CB0042
:100130000030CA000030C9000030C800CA17A82823
:100140000030CB000030CA000030C9000030C800C9
:100150004F088039D0005008D5064F35D0005008E0
:10016000D600CE1B561456080319C328560A031D81
:10017000C1280030CF000030CE000030CD0000306C
:10018000CC00CE17CB280030CF000030CE0000309E
:10019000CD000030CC005608031D5B08031DD92894
:1001A0000030CB000030CA000030C9000030C80069
:1001B00008004808D0005008A0004E088731DF270B
:1001C000803140012108E1002008E0006008D000F3
:1001D000D101D201D3015308DA005208D9005108E5
:1001E000D8005008D7006108D000D101D201D30156
:1001F0005308DF005208DE005108DD005008DC0023
:100200004908D0005008A0004D088731DF27803111
:1002100040012108E1002008E0006008D000D10181
:10022000D201D3015008D7075108D83D5208D93D13
:100230005308DA3D6108D000D101D201D301500842
:10024000DC075108DD3D5208DE3D5308DF3D4A081A
:10025000D0005008A0004C088731DF2780314001D2
:100260002108E1002008E0006008D000D101D2019F
:10027000D3015008D7075108D83D5208D93D53083B
:10028000DA3D6108D000D101D201D3015008DC076A
:100290005108DD3D5208DE3D5308DF3D0830D735BB
:1002A000D80DD90DDA0D890B4F294908D000500817
:1002B000A0004C088731DF27803140012108E10090
:1002C0002008E0006008D7076108D83D0030D93D1C
:1002D000DA3D4808D0005008A0004D088731DF27DC
:1002E000803140012108E1002008E0006008D707C4
:1002F0006108D83D0030D93DDA3D0830D735D80DFA
:10030000D90DDA0D890B7E294808D0005008A000CD
:100310004C088731DF27803140012108E1002008A7
:10032000E0006008D7076108D83D0030D93DDA3DCC
:100330004908D0005008A0004E088731DF278031DF
:1003400040012108E1002008E0006008DC076108A6
:10035000DD3D0030DE3DDF3D4A08D0005008A00002
:100360004D088731DF27803140012108E100200856
:10037000E0006008DC076108DD3D0030DE3DDF3D68
:100380004A08D0005008A0004E088731DF2780318E
:1003900040012108E1002008E0006008D000610869
:1003A000D100D201D3010830D035D10DD20DD30DFB
:1003B000890BD4295008DC075108DD3D5208DE3D89
:1003C0005308DF3D5708D0005808D1005908D20023
:1003D0005A08D3001830D336D20CD10CD00C890B6C
:1003E000EB295008DC075108DD3D5208DE3D53087B
:1003F000DF3D0830D735D80DD90DDA0D890BFA2934
:100400005B085607D000D101D10D5008823EE000B4
:10041000FF30513DE100DE1B222A0130DC35DD0DCD
:10042000DE0DDF0D890B0E2ADA1B5C140130D73587
:10043000D80DD90DDA0D890B172AFF30E007FF30F0
:10044000E13D0B2AD601DA1F3B2AFF305705D000C9
:10045000FF305805D100FF305905D2007F305A05D2
:10046000D300530852045104500403195C18392A6C
:100470003B2AD601D60A56080319642A0130DC0744
:100480000030DD3D0030DE3D0030DF3D5F1C642A82
:100490005C08D0005D08D1005E08D2005F08D30080
:1004A0000130D400D337D20CD10CD00CD40B522A4B
:1004B0005308DF005208DE005108DD005008DC0060
:1004C0000130E0070030E13D6108803AD000803023
:1004D0005002031D6D2AFF306002031C792A7F3011
:1004E0004001DF008030DE000030DD000030DC0045
:1004F000A32A40016108803AD00080305002031DD9
:10050000832A013060020318902A00304001DF0086
:100510000030DE000030DD000030DC00D501A32A11
:1005200040016008D0005008DB00FF30DC05FF30E0
:10053000DD057F30DE050030DF055B18DE175B363A
:10054000D0005008DF005508D0005008DF045F08D5
:10055000CB005E08CA005D08C9005C08C80008003E
:10056000400135088039B6003608BF003535B60081
:100570003608C600B41B461446080319CD2A460A9D
:10058000031DCA2A0030B5000030B4000030B300AB
:100590000030B200B417B501D52A0030B5000030E4
:1005A000B4000030B3000030B20031088039B6002A
:1005B0003608BF063135B6003608C700B01B4714F1
:1005C00047080319F12A470A031DEE2A0030B1003B
:1005D0000030B0000030AF000030AE00B017B10105
:1005E000F92A0030B1000030B0000030AF00003018
:1005F000AE00310830042F042E04031D182B0030E8
:10060000B5000030B4000030B3000030B2008030DC
:10061000B4047F30B5043F08B6003608B504350889
:10062000B1003408B0003308AF003208AE00080053
:100630004608031D242B0030B1000030B00000300C
:10064000AF000030AE0008004608B600B70137081A
:10065000B90047083602B800031CB90338087F3ECA
:10066000C0000030393DC1003508BE003408BD006F
:100670003308BC003208BB000030B5000030B400C5
:100680000030B3000030B2000030C5000030C400BC
:100690000030C3000030C200C7011A3047020318FF
:1006A000892B470803196B2B0130BB35BC0DBD0DE1
:1006B000BE0D890B552B0130B235B30DB40DB50D00
:1006C000890B5C2BC51B32140130C235C30DC40D20
:1006D000C50D890B652B31083E02031D792B3008AF
:1006E0003D02031D792B2F083C02031D792B2E0898
:1006F0003B02031C842B45172E08BB022F08BC3B72
:100700003008BD3B3108BE3B0130B6003608C70794
:100710004D2B3E083D043C043B04031D4214B41B16
:10072000A62B0130B235B30DB40DB50D890B922B4C
:10073000C51B32140130C235C30DC40DC50D890B64
:100740009B2BFF30C007FF30C13D8F2BC701C51F5A
:10075000BF2BFF304205B600FF304305B700FF3026
:100760004405B8007F304505B9003908380437041E
:10077000360403193218BD2BBF2BC701C70A47081F
:100780000319E82B0130B2070030B33D0030B43D0F
:100790000030B53D351CE82B3208B6003308B700F1
:1007A0003408B8003508B9000130BA00B937B80CC0
:1007B000B70CB60CBA0BD62B3908B5003808B40004
:1007C0003708B3003608B2000130C0070030C13D21
:1007D0004108803AB60080303602031DF12BFF300D
:1007E0004002031C002CFF304001C0000030C1005B
:1007F0000030B5000030B4000030B3000030B2006B
:1008000040014108803AB60080303602031D0A2CB0
:10081000013040020318182C4001C001C101003012
:10082000B5000030B4000030B3000030B200BF01AA
:1008300040014008B6003608C600461C212CB417FB
:10084000252C7F30B6003608B4054636B60036088B
:10085000B5000B2B41016D08031D08003708BA00D5
:10086000BB01BC01BD013D084001A30041013C08A2
:100870004001A20041013B084001A10041013A08AA
:100880004001A00001308A31262284314001230832
:10089000B5002208B4002108B3002008B20043309C
:1008A000B1007F30B0000030AF000030AE008231C8
:1008B000B022843140013108CF003008CE002F082B
:1008C000CD002E08CC004230CB00FE30CA000030F4
:1008D000C9000030C80080318420843140014B08B9
:1008E000E5004A08E4004908E3004808E2008831CE
:1008F0006A208431400163084101A100400162087F
:100900004101A00093318823843141013808BA00A5
:10091000BB01BC01BD013D084001A30041013C08F1
:100920004001A20041013B084001A10041013A08F9
:100930004001A00001308A31262284314001230881
:10094000B5002208B4002108B3002008B2004330EB
:10095000B1007F30B0000030AF000030AE00823117
:10096000B022843140013108CF003008CE002F087A
:10097000CD002E08CC004230CB00FE30CA00003043
:10098000C9000030C80080318420843140014B0808
:10099000E5004A08E4004908E3004808E20088311D
:1009A0006A208431400163084101A10040016208CE
:1009B0004101A0009331A623843141013908BA00D6
:1009C000BB01BC01BD013D084001A30041013C0841
:1009D0004001A20041013B084001A10041013A0849
:1009E0004001A00001308A312622843140012308D1
:1009F000B5002208B4002108B3002008B20043303B
:100A0000B1007F30B0000030AF000030AE00823166
:100A1000B022843140013108CF003008CE002F08C9
:100A2000CD002E08CC004230CB00FE30CA00003092
:100A3000C9000030C80080318420843140014B0857
:100A4000E5004A08E4004908E3004808E20088316C
:100A50006A208431400163084101A100400162081D
:100A60004101A0009331C423843141013608BA000A
:100A7000BB01BC01BD013D084001A30041013C0890
:100A80004001A20041013B084001A10041013A0898
:100A90004001A00001308A31262284314001230820
:100AA000B5002208B4002108B3002008B20043308A
:100AB000B1007F30B0000030AF000030AE008231B6
:100AC000B022843140013108CF003008CE002F0819
:100AD000CD002E08CC004230CB00FE30CA000030E2
:100AE000C9000030C80080318420843140014B08A7
:100AF000E5004A08E4004908E3004808E2008831BC
:100B00006A208431400163084101A100400162086C
:100B10004101A0009331E22308004E010F10430170
:100B2000901FB22E90134101E2017108023E86002F
:100B3000013087000108860087018101810AF101E7
:100B40000800C71808004608F9007908F1004608AF
:100B50008600013087000108F9007908E1004608A5
:100B60008600013087000130413FF2000330F90078
:100B70007908C6074608553A031DC22D5230F900C0
:100B80007908C6004710460845060319C7144301F3
:100B900011140230F90079084101E20008005B2ECF
:100BA0004301111FDC2D0130F90079084101C9070B
:100BB00004309331352308007608FA007508F900EF
:100BC000FA36F90C79088C00751CEC2D0B30F90005
:100BD00079084101E20008000330F9007908410179
:100BE000E20008004301111FFE2D0130F9007908D1
:100BF0004101C90704309331352308009114760868
:100C0000FA007508F9007A08F900FA01063079054A
:100C1000FB0000307A05FC00F0307B04F50000306A
:100C20007C04F60075144101DE01DE0AC92D5E0365
:100C30000319302E7208860001308700403FF5000E
:100C4000413FF60072088600013087000130433FC3
:100C5000E00072088600013087000130423FDF006B
:100C6000750843018C00751CEC2D0530F9007908DE
:100C70004101E20008004301111F492E0130F90033
:100C800079084101C9074301111305309331352318
:100C9000080001304101DF025F0A031D5E2E0430AF
:100CA000F9007908F2070130E102031D5B2E0030E4
:100CB00093313523080043019114C92D6008860043
:100CC0008701010843018C000130F90079084101D6
:100CD000E00708004301111F782E0130F900790860
:100CE0004101C90704309331352343011113080032
:100CF00091150830F90079084101E2000800083038
:100D0000F9007908E20043019115080043010C083D
:100D1000F9004101600886008701790881000130EF
:100D2000F9007908E0070130DF0203199F2E430123
:100D300091120630F90079084101E200A32E430127
:100D4000911692312522430111160800003093318B
:100D5000352308000130F9007908C90706309331BE
:100D60003523080041016208F900FA017A08003AC7
:100D70000319BB2EAA2E7908003A0319A12D013AB6
:100D80000319CF2D033A0319172E013A03193B2EED
:100D9000073A0319A62E013A03196A2E033A0319DA
:100DA0007F2E013A0319A62E0F3A0319862E023A16
:100DB0000319D02D013A0319F22DAA2E0800400183
:100DC000EF01EF0A41015C0892316C22863141014A
:100DD000AA002A08D7005B0892316C2286314101B3
:100DE000AA002A08D6005D0892316C2286314101A2
:100DF000AA002A08D5005A0892316C228631410196
:100E0000AA002A08D4006D03031D2B2F91314E2117
:100E1000863142014808400120024101AA004201F6
:100E200049084001213B4101AB0013302B028830BF
:100E300003192A0203182B2F8831D0208631410153
:100E40005708031D282F56080319550803190800D1
:100E5000D901D90A08005908031D352F6D03031D58
:100E6000352F0230AA002A08EB00ED0155080319BE
:100E700059080319442F5808031D442FD901D90AD2
:100E80008831D0208631652F02306B06031D4C2F30
:100E90008A31BC2286315D2F6B08031D532F400120
:100EA000EF01EF0A652F6B0303195A2F03306B060E
:100EB000031D632F9631ED2686314101AA002A08D1
:100EC0004001EF00652F4001EF0140016F08031959
:100ED000742F91314E218631400121084201C30017
:100EE000400120084201C20091314E218631420169
:100EF0004208400120024101AA004201430840018A
:100F0000213B4101AB0013302B02883003192A0228
:100F1000031C9C2F00309231A822863191314E2142
:100F2000863140012008773E4201C200EC3040018A
:100F3000213D4201C300A02F01309231A822863109
:100F4000023041016B06031DCE2F5908031DCE2F21
:100F50006A084001B500410169084001B4008C31C4
:100F6000B6248631CB2F5908031DD12F6530A00040
:100F70009830A100C92F5908031DD42F3530A00087
:100F80009830A1006E08AA00AB012A08A2002B0825
:100F9000A300883100204101D80108006B08031923
:100FA000B32F6B030319BB2F03306B06031D08001F
:100FB0005908031D08003D30A0009830C12F4001A2
:100FC000A800A401A5012008A200A3012208A600F0
:100FD0002308A700281CF02F2608A4072708A53DF2
:100FE0000130A635A70D890BF12F0310A80C280896
:100FF000031DEA2F2508A1002408A000080008000E
:10100000A2304001E9006908EC00410121084001DB
:10101000E200410120084001E1006C30E90069086C
:10102000E30000309531552508004001A30041013F
:101030004718572802304001A20021088600870186
:10104000220881002008A2004101450A86000130E3
:1010500087004001220881002308A20041014508C1
:101060008600013087004001220881002108A2008B
:1010700041014508023E86000130870040012208F8
:1010800081000330A20022084101C5074508553AF6
:10109000031D502852304001A20022084101C50022
:1010A000C71046084506031D5D2847145D2840010A
:1010B0002108860087018101810A400121088600FC
:1010C000870102300106031D0800913120214E01E5
:1010D0000F14080003104001640D650DE60066085A
:1010E000EC006C08031D7D280030E5000030E400B2
:1010F0000030E3000030E20008006208E600630808
:10110000E7006408E8006508E9001F30E936E80CEC
:10111000E70CE60C890B86286608EA006A08EB00F3
:10112000E417FF30E205FF30E305FF30E40500304F
:10113000E5059630EC02EC1FB0286C08803A973E2B
:10114000031C74280130E536E40CE30CE20C890B37
:10115000A3280130E6006608EC070319C128A2287D
:1011600020306C02031874286C080319C128013060
:10117000E235E30DE40DE50D890BB8280130EC02F2
:10118000B4286B0803190800E209E309E409E5093A
:10119000E20A0319E30A0319E40A0319E50A08003D
:1011A000033041016C06031DD728EC01EC0A5708F7
:1011B0000319EC2802306C020318E52801304001C5
:1011C000ED006D084101EC07F62802304001ED000A
:1011D0006D084101EC00F62856080319F6286C0842
:1011E0000319F5280130EC02F628EC015408031924
:1011F00023296C084001ED006D084101EB00D90185
:10120000D801D80A08005F304101A0009830A10041
:101210008831002008006B304101A0009830A10007
:101220008831002008006B304101A0009830A100F7
:1012300088310020080059304101A0009830A100F9
:101240008831002008006C084001ED00EE016E08B6
:10125000003A03192C293A296D08003A0319032989
:10126000013A03190B29033A03191B29013A0319FF
:1012700013293A2908009131122189314101BE0018
:10128000BF01BE35BF0DEE30C0002330C1003E08A7
:10129000400786003F08413D87000108C200420820
:1012A0004201E2009131122189314101BE00BF01AA
:1012B000BE35BF0DF030C0002330C1003E084007EE
:1012C00086003F08413D87000108C20042084201F4
:1012D000E3009131122189314101BE00BF01BE35C9
:1012E000BF0DF230C0002330C1003E084007860029
:1012F0003F08413D87000108C20042084201E40066
:101300009131122189314101BE00BF01BE35BF0DAF
:10131000F430C0002330C1003E08400786003F087B
:10132000413D87000108C20042084201E100640813
:101330004101B900420163084101B800420162085D
:101340004101B700420161084101B60084312A24FD
:10135000080041016E08A400A501A601A701270805
:101360004001A300410126084001A20041012508D7
:101370004001A100410124084001A00001308A3150
:101380002622893140012308B5002208B400210833
:10139000B3002008B2004130B1001030B00000307E
:1013A000AF000030AE008231B022893140013108F7
:1013B000CF003008CE002F08CD002E08CC004330DF
:1013C000CB007F30CA000030C9000030C800803137
:1013D0008420893140014B08E5004A08E4004908AF
:1013E000E3004808E20088316A2089314001620840
:1013F0004101A80028084001ED006D084101A4004A
:10140000A501A601A70127084001A3004101260864
:101410004001A200410125084001A100410124082A
:101420004001A00000308A312622400123084101FA
:10143000A300400122084101A2004001210841010E
:10144000A100400120084101A00008004001A800BF
:101450002808031DA31F3C2A2009AA002109AB006C
:101460002209AC002309AD00AA0A0319AB0A03192B
:10147000AC0A0319AD0A442A2308AD002208AC00C7
:101480002108AB002008AA0023082204210420041C
:10149000031D532A0030A3000030A2000030A10039
:1014A0000030A00008009630A4002408A900FE30F7
:1014B0002D0503197A2A0130A4002408A907013058
:1014C000AD36AC0CAB0CAA0C890B602A572A013044
:1014D000A4002408A9070130AA070030AB3D003062
:1014E000AC3D0030AD3D0130AD36AC0CAB0CAA0CC0
:1014F000890B742AFF302D0503198C2A672A0230C4
:101500002902031C8E2A0130A9020130AA35AB0D35
:10151000AC0DAD0D890B862AAC1F7F2A2918982A9D
:10152000FF30AA05FF30AB057F30AC05FF30AD05BD
:101530000310A90C2908A400A501A601A7011830D1
:10154000A435A50DA60DA70D890BA02A2408AA0471
:101550002508AB042608AC042708AD042808031DA1
:10156000A31FB32AAD172D08A3002C08A2002B0837
:10157000A1002A08A000080041015C08923116224F
:101580008A31003A03191A2B91314E218A314101D7
:101590004E0840012002B70041014F084001213BA5
:1015A000B800380841016802031DDA2A40013708F3
:1015B0004101670203181A2B93311C238A31FB2A3D
:1015C00091314E218A3141014E0840012002B7007D
:1015D00041014F084001213BB80038084101680231
:1015E000031DF62A40013708410167020318222B28
:1015F0009231EC228A3191314E218A314001210809
:101600004101CF00400120084101CE006808803A26
:101610004001B70080303702031D112B1530410106
:101620006702031C182BFF304101E707FF30E83D3C
:101630000130080041015B08923116228A31003ADC
:10164000031DE02A41015A08923116228A31003ADC
:101650000319312B01304101E9000030EA0001306B
:101660000800410157080319392B93311C238A3193
:10167000182B56080319402B9231EC228A31182B73
:101680005408031D182B5708031D5608031D5C2B17
:101690005B08923116228A31003A031D5C2B41010E
:1016A0005C08923116228A31003A031D5C2B6430AB
:1016B0004101E7000030E800003008004001E00090
:1016C000580886008701403FDA00413FDB005A0896
:1016D00084005B0885001200253A031DE42B58089E
:1016E000860087010130810741310318810A4101D9
:1016F000CA01CB014201B401B501FF30B200FF3095
:10170000B3004001580886008701403FDA00413F9E
:10171000DB005A0884005B0885001200633A031D51
:10172000B22B580886008701013081074131031828
:10173000810A59088600870101088400850102306A
:1017400081070008DA005A08DF005F08DA005A084B
:10175000D20060089531842540015308D900520811
:10176000D8000800580886008701403FDA00413F52
:10177000DB005A0884005B0885001200253A031D2F
:10178000D92B5808860087010130810741310318A1
:10179000810A2530B9000030BA006008DA005A0822
:1017A000BB009631B62601304001D8000030D90088
:1017B000080058088600870101308107413103186D
:1017C000810AD801D9010800580886008701403FE6
:1017D000DA00413FDB005A0884005B0885000008FE
:1017E000DC00DD015C08B9005D08BA006008DE00BD
:1017F0005E08BB009631B6268B3140015808860042
:1018000087010130810741310318810AD32B41013F
:10181000AD002D080319312C8931A9218C314101EA
:101820002308B1002208B0002108AF002008AE0054
:1018300031084001E500410130084001E400410168
:101840002F084001E30041012E084001E2008831E9
:101850006A208C3140016208EE006E084101B3003D
:10186000322CB3012A0803195A2C8931A9218C3151
:1018700041012308B1002208B0002108AF00200870
:10188000AE0031084001E500410130084001E400AC
:1018900041012F084001E30041012E084001E20010
:1018A00088316A208C3140016208EE006E084101E7
:1018B000B5005B2CB50129080319832C8931A921B6
:1018C0008C3141012308B1002208B0002108AF008B
:1018D0002008AE0031084001E50041013008400118
:1018E000E40041012F084001E30041012E084001BE
:1018F000E20088316A208C3140016208EE006E08F7
:101900004101B400842CB4012B080319AC2C89319B
:10191000A9218C3141012308B1002208B00021081F
:10192000AF002008AE0031084001E5004101300859
:101930004001E40041012F084001E30041012E086D
:101940004001E20088316A208C3140016208EE00DB
:101950006E084101B200AD2CB2013508AC0034086C
:10196000AB003308AA003208A90008002730400164
:101970003502103003193402031CE12C7930B60013
:101980003608AE00343093316B238C31793040010E
:10199000B6003608AE00353093316B238C31793088
:1019A0004001B6003608AE00363093316B238C31DF
:1019B00079304001B6003608AE00373093316B23E2
:1019C00008000A30A8000030A9003508AB00340830
:1019D000AA00953128258C31400129088500280866
:1019E0008400103084079030853D0008B60036082A
:1019F000AE00373093316B238C310A304001A800A0
:101A00000030A9000A30A0000030A1003508A30072
:101A10003408A20096314C268C3140012108AB00DD
:101A20002008AA00953128258C314001290885001D
:101A300028088400103084079030853D0008B600E7
:101A40003608AE00363093316B238C310A304001BA
:101A5000A8000030A9006430A0000030A1003508C3
:101A6000A3003408A20096314C268C314001210895
:101A7000AB002008AA00953128258C3140012908A7
:101A8000850028088400103084079030853D0008C8
:101A9000B6003608AE00353093316B238C310A30F6
:101AA0004001A8000030A900E830A0000330A100E8
:101AB0003508A3003408A20096314C268C31400131
:101AC0002108AB002008AA00953128258C3140015F
:101AD0002908850028088400103084079030853D4F
:101AE0000008B6003608AE00343093316B2308008E
:101AF00091314E218D3142013C0840012002A80065
:101B000042013D084001213BA90042016A08400111
:101B10002902031D8F2D4201690840012802031C80
:101B2000080091314E218D31400121084201BD0054
:101B3000400120084201BC007003031DA42D0130A8
:101B4000BA070030BB3DAA2DBA01BB010A30E9003B
:101B50000030EA007003031DF12D41015008031D00
:101B6000F12DD101D10A0F304201E9000030EA0025
:101B700091314E218D314201400840012002AA00DE
:101B8000420141084001213BAB0091314E218D3192
:101B9000400121084201C100400120084201C0006B
:101BA000003040012B02963003192A020318DE2D63
:101BB00090304201BE000130BF00F12D2B08A10082
:101BC0002A08A0006030A200EA30A30096314C261B
:101BD0008D31400121084201BF004001200842012F
:101BE000BE0070084001A80028084101D000F001A3
:101BF00042013B08803A4001A80080302802031DC2
:101C0000042E043042013A02031C232E013041010C
:101C1000E5070030E63D66084001A1004101650886
:101C20004001A00091313C218D314201BA01BB013C
:101C300091314E21400121084201C100400120089C
:101C40004201C000080091314E218D31420140080F
:101C500040012002A800420141084001213BA900A7
:101C600003302902E93003192802031C080001305F
:101C70004101E5020030E63B66084001A100410158
:101C800065084001A00091313C21080091314E21AE
:101C90008E3142013608400120024101BE0042015E
:101CA00037084001213B4101BF0000303F02323084
:101CB00003193E02031C080091314E218E31400170
:101CC00021084201B700400120084201B6009131CD
:101CD00069218E31003A031D812E4101A901AA011B
:101CE000AB0100308C3107248E3141012C08B90042
:101CF0002B08B8002A08B7002908B60084312A2426
:101D0000080041014C034D04031DC42EA901AC2E53
:101D1000A901A42EA901A90AAA01AA0AAB01AF2E02
:101D2000A901A90A9B2EA901A90AA02EA901AA010D
:101D3000AA0AAD2EA901AA01AA0AAB01A82EA901DF
:101D4000AA01A62EA901A90AAA01AA0AAB01AB0AF7
:101D50000130B02EA901A90AAA01AB01AB0A0030DB
:101D60008C3107248E3141012C08B9002B08B800B2
:101D70002A08B7002908B60084312A24013041011D
:101D8000CC070030CD3D080002304C064D0403194D
:101D9000AA2E03304C064D0403198A2E04304C063B
:101DA0004D040319882E05304C064D0403198A2E64
:101DB00006304C064D040319902E08304C064D0495
:101DC0000319932E09304C064D040319AA2E0A302C
:101DD0004C064D040319962E0B304C064D04031986
:101DE0009A2E0C304C064D0403199F2E0D304C06D4
:101DF0004D040319A22E0E304C064D040319AA2ED1
:101E0000A901A90AAA01AA0AAB01AB0A00308C31C8
:101E100007248E3141012C08B9002B08B8002A088C
:101E2000B7002908B60084312A2401304101CC00D2
:101E30000030CD00080091314E218F314001210842
:101E4000A7002008A6004201460840012602A20081
:101E5000420147084001273BA300003023020A301B
:101E600003192202031C080027084201C700400191
:101E700026084201C6004001A5012508A200023043
:101E8000A235FF3E031D402F2235C03EA30023088C
:101E9000A8002808860001308700403FA200413F8B
:101EA000A30022088600230887000130A400280828
:101EB000023E840001308500000A5F2FA435890BA3
:101EC0005E2F24080105031D7E2F2808033E86008F
:101ED000013087008101810A2808073E8600013011
:101EE00087000108031D842F2808053E8600013065
:101EF00087002608C03F2708C13F842F2808033EDB
:101F000086000130870081012808033E86000130E9
:101F100087000108031D9C2F2808043E860001301D
:101F200087000103031D9C2F2808073E860001300F
:101F300087008101810AE92F2808033E86000130CD
:101F400087000103031DCA2F2808043E86000130C4
:101F500087000103031DCA2F2808053E86000130B3
:101F60008700403F2602A200413F273BA3000030EC
:101F70002302C93003192202031CC02F0330C12FD2
:101F80000230A2002808073E8600013087002208A0
:101F90008100E92F2808033E8600013087000108F0
:101FA000031DE92F2808043E860001308700010345
:101FB000031DE92F2808073E860001308700033003
:101FC0000106031DE92F2808073E8600013087001F
:101FD00081012808033E8600013087000108A20025
:101FE0002808043E86000130870022088100013065
:101FF000A2002208A50704302502031808003D2F7F
:10200000003482342134003400340034003402348B
:1020100039340F3400340034003440348034003418
:102020003F3406345B344F3466346D347D340734CA
:102030007F346F3400340034003448340034533477
:10204000003477347C3439345E34793471346F340D
:10205000763406341E3400343834003454343F347B
:102060007334673450346D3478343E340034003483
:1020700000346E340034393400340F340034083402
:1020800063345F347C3458345E347B3471346F3461
:10209000743402341E3400340634003454345C3456
:1020A0007334673450346D3478341C340034003465
:1020B00000346E340034393430340F34003400349A
:10220E0008000800F001F00A08009231D4220800FC
:10221E004E018F10080041016908080041016B084A
:10222E00080042011D121D160800013400340A3444
:10223E0000344101620803190800202901304201CF
:10224E00C4070030C53D080025304001A000113004
:10225E00A100913157210800400121084201D6000A
:10226E00400120084201D50008004001210841012B
:10227E008F004001200841018E0008004001A0009F
:10228E00200841019F0042019117111408004201DC
:10229E0045084001A100420144084001A000080089
:1022AE00400121084201D800400120084201D70018
:1022BE000800400121084201E000400120084201CF
:1022CE00DF0008004101510803197029D1010130C6
:1022DE00080000300800400121084201DA004001E8
:1022EE0020084201D9000800400121084201DE0009
:1022FE00400120084201DD00080040012108420192
:10230E00DC00400120084201DB0008006030510172
:10231E008D008F01910106309300920108004F014C
:10232E0096019701980199019A019B019C019D01CB
:10233E00080090340634643400340134003402341E
:10234E000234013401348C3046018E008D018C0133
:10235E0044011E08FC3901389E0008008C304601ED
:10236E0092009101900144011E08F33904389E0039
:10237E0008008C30460196009501940144011E0818
:10238E00CF3910389E0008008C3046019A00990112
:10239E00980144011E083F3940389E000800640031
:1023AE00800101310130FE020030FF3B7F087E04C8
:1023BE0003190034D729FE0012001E000130FE0260
:1023CE000030FF3B7F087E0403190034E3294E01E1
:1023DE008D104201550856040319080056088A004C
:1023EE0055080A00913108004E018C12420157081F
:1023FE0058040319080058088A0057080A00923139
:10240E0008000130450190008F019101FF308D00D1
:10241E008C014E019010F03045018E0008004001F5
:10242E00A0002008073E8600013087000330010619
:10243E00031D232A01300800003008000430F70085
:10244E007708F20701304101E102031D332A0430FF
:10245E00F7007708E2000800E201E20A08004001F6
:10246E0012157E01381139154001141494141415E7
:10247E007E014E10CE104E114F14CF144F15080082
:10248E004001B6003408E03E84008F300318013E50
:10249E0085000008B5003508AE003608343E93318D
:1024AE006B230800B4304001A0001530A10091311B
:1024BE006021923141016A084001B500410169086D
:1024CE004001B4008C31B62408004001A000200861
:1024DE00073E8600013087000103031D7E2A200877
:1024EE00073E860001308700810101300800003070
:1024FE00080045304B019F00F9309D009C014E01B4
:10250E008C12961602304001A0000030A1009131CD
:10251E00572180304B019E00080001309231A822D5
:10252E00923171304101A0009830A1008831002015
:10253E00923157304101A0009830A100883100201F
:10254E0008004001B40034080319B62AAE01AE0AE1
:10255E00243093316B234101D301D30A0800AE011D
:10256E00243093316B234101D301080041016608E9
:10257E004001A100410165084001A00091313C21BC
:10258E00923109304001A0001130A1009131332168
:10259E0092310F3091314521080042011908F700A0
:1025AE007408283E860001308700770881000130CC
:1025BE00F7007708F407083074020318F4010130AD
:1025CE00F70077084101E4070800410169036A0436
:1025DE00031DF62A0030E9000230EA00FA2A013023
:1025EE00E9020030EA3B6A084001B5004101690882
:1025FE004001B4008C31B624080040012108A4002B
:10260E002008A30020088400210885001200031969
:10261E00152B0130A0070030A13D092B2308200205
:10262E00A0002408213BA1000800023041016A06E7
:10263E006904031D272B0130E9000030EA002B2B23
:10264E000130E9070030EA3D6A084001B50041015A
:10265E0069084001B4008C31B6240800F80043012B
:10266E0011157108023E860001308700010803191A
:10267E004C2B7808F7007108023E86000130870067
:10268E00010886008701770881004101E2010800F8
:10269E0052304001A00020084101C60052304001D6
:1026AE00A00020084101C500C7144710C90143010D
:1026BE008F012830900092014F308D004E010F1087
:1026CE008F101914991408004001B2000230AF00A7
:1026DE002F08B300A701A70A3208AF00B0012F08D8
:1026EE00A8003008A9003330B1003108AA002E30FE
:1026FE009431FE249331023040013306031D08004D
:10270E00822B003041012102803003192002031870
:10271E000800FF30A0050330A10546010E1E9D2BBB
:10272E0006304101A035A10D890B992B41012108DD
:10273E0046018D004101200846018C000800003042
:10274E004101210280300319200203180800FF30D6
:10275E00A0050330A1054601121EBB2B0630410118
:10276E00A035A10D890BB72B41012108460191001F
:10277E00410120084601900008000030410121026D
:10278E0080300319200203180800FF30A005033023
:10279E00A1054601161ED92B06304101A035A10D0B
:1027AE00890BD52B410121084601950041012008D6
:1027BE0046019400080000304101210280300319C7
:1027CE00200203180800FF30A0050330A1054601C2
:1027DE001A1EF72B06304101A035A10D890BF32BE4
:1027EE004101210846019900410120084601980047
:1027FE0008004001A400240886000130870020084C
:10280E00C03F2108C13F2208A3002408023E8600D3
:10281E0001308700230881002408033E8600013022
:10282E00870081012408073E860001308700810160
:10283E0008004001A6002308A5002208A400A43524
:10284E00A50D26088600013087002408C03F250804
:10285E00C13F2108A4002608023E860001308700F1
:10286E00240881002008A4002608033E86000130BB
:10287E0087002408810008004001B800043041019F
:10288E0052020318512C0D3040013806031D380832
:10289E00031D532C4101D2010D304001380603199E
:1028AE0008003808B7003708B400410152089231C9
:1028BE00472201304001B70037084101D207080016
:1028CE0091319621943196318126943191318D2119
:1028DE00943193314F2394319131AA219431913116
:1028EE00B52194319431B12494319131CB2194316D
:1028FE009131C0219431923108229431923180224B
:10290E0094319531E52508004001C800C601C70184
:10291E0046084807C20042088600013087000108B9
:10292E00C3004308C5004508031908004508C20046
:10293E00C3014208B9004308BA004108C400440864
:10294E00BB009631B626943101304001C6070030E7
:10295E00C73D8F2C41018C018D018E018F0192019B
:10296E00930198019A019F0142018C018D018E0104
:10297E008F019001920154309300563094009501CE
:10298E00960197019801D43091004E018D10971445
:10299E0007304001A0001130A10091313321080011
:1029AE00E42C89313B2108008E3146260800873100
:1029BE00FF27080080310320080091311521943142
:1029CE004101C300C4014408003A0319EF2CFD2C49
:1029DE004308003A0319E12C013A0319DB2C033AA0
:1029EE000319D82C013A0319DE2CFD2C08004001E6
:1029FE00AD0041014718212D40012D08AB002B08D9
:102A0E00A0002708AC002C08A1002908A300280864
:102A1E00A2004E309431202494314E304001AB0050
:102A2E002B08A0002A08AC002C08A1000130883128
:102A3E001520080040012A08860087018101810ABD
:102A4E0008004001280829040319502DAD01AD0AD4
:102A5E00A91B3B2D0130A835A90D890B322D013054
:102A6E00AC002C08AD072F2D29082B02031D412D7C
:102A7E0028082A02031C472D2808AA022908AB3B66
:102A8E000130A936A80C890B482D0130AD02031D6B
:102A9E003B2D2B08A9002A08A80008004001E600DB
:102AAE006208E8006108E7004201B001B10140018F
:102ABE006708840068088500120003197B2D6730B3
:102ACE00E4006408D8006308E5006508D9006608CC
:102ADE008B315E239531400158084201B007400109
:102AEE0059084201B13D5E2D420131084001E2001C
:102AFE00420130084001E10008004001D7004101C9
:102B0E004A084B04031D932D4B084001D60041018A
:102B1E004A084001D5009C2D4A08FF3E4001D500D1
:102B2E00FF3041014B3D4001D6005208D4005408FD
:102B3E004301A000A101A0304001D4005408C900F7
:102B4E005608CB005508CA0057089731AD274001EB
:102B5E004A08D3004908D200080042019D1CB92D35
:102B6E001D121D166708680403191D19DA2D1908A0
:102B7E00F700F8013908FA003808F900F935FA0DAE
:102B8E00EE30FB002330FC0079087B0786007A08C4
:102B9E007C3D87007708C03F7808C13F0130B807F9
:102BAE000030B93DE22DB801B901E701E80119087D
:102BBE00F7007708FD004E018F1208004E019912A2
:102BCE0018304001A0001630A100913160219531DE
:102BDE00083042019F0090309D0004309E001F304F
:102BEE009B009C0108304001A0001130A1009131E2
:102BFE007B21953118304001A0001130A100913198
:102C0E00842195310C304001A0001130A10091318A
:102C1E0072214101E301F401F301E4014E01991621
:102C2E0008007408203E86000130870081014201B1
:102C3E001D1D2C2E7408203E860001308700811445
:102C4E005E088A005D080A00963142019D1C3A2EEC
:102C5E007408203E86000130870001155C088A004A
:102C6E005B080A0096317408203E8600013087000A
:102C7E0001080319492E42015A088A0059080A0010
:102C8E00963108009231D42208004001A501A60118
:102C9E002008210403197C2EA701A70AA11B612E6F
:102CAE000130A035A10D890B582E0130A400240847
:102CBE00A707552E0130A535A60D890B622E2108CA
:102CCE002302031D6C2E20082202031C732E2008E3
:102CDE00A2022108A33B25140130A136A00C890BBA
:102CEE00742E0130A702031D612E2608A1002508AF
:102CFE00A00008004001980199019A013F3092000E
:102D0E00F030930006309400FF307E01CE00E030AC
:102D1E00C3000730B800C401B901CF01BA01C50123
:102D2E00D0013730BB00F030C600FF30D100053087
:102D3E007D01C50014307E0194000B30A3000C30D1
:102D4E00A400133095000930A5000A30A600093002
:102D5E00A70004307D01C6000C30CB0008004001F6
:102D6E003B08031D3B08031DC02E39089431432434
:102D7E0008003B08033E8600870116000104031974
:102D8E00E32E3B08033E86008701403FBC00413FD7
:102D9E00BD003B0A86008701403FBE00413FBF0099
:102DAE003F08803AC0003D08803A4002031DE12EE4
:102DBE003C083E020318080040013B0A86008701CA
:102DCE000130810741310318810A0800410157087B
:102DDE0003190C2F09306E020318FC2E013040012E
:102DEE00A00020084101EE070A2F09304001A00083
:102DFE0020084101EE000A2F6E080319092F013039
:102E0E00EE020A2FEE01013008005608031D032FB3
:102E1E0054080319192F03306B06031D192FEB01EC
:102E2E00EB0A08005408031908006B03031D080081
:102E3E0003304001A00020084101EB00080094314E
:102E4E006724973115304201E6004B30E500BE3065
:102E5E00890B2F2FE50B2F2FE60B2F2F0000913113
:102E6E002B21973197315F2797319231BD229731C0
:102E7E008B170B1792319422973192315922973139
:102E8E0091314E219731400121084201C900400184
:102E9E0020084201C8008F311B2797318631DF266B
:102EAE0097318D31782597319431D7249731522F20
:102EBE00C0304001A50025084101DD00C8304001A9
:102ECE00A50025084101DC00D0304001A5002508F1
:102EDE004101DB00D8304001A50025084101DA0090
:102EEE000E304001A0000030A1000230A5002508E0
:102EFE00A20041015D089431002497310C3040014D
:102F0E00A0000030A1000230A5002508A20041015A
:102F1E005A089431002497310E304001A000003041
:102F2E00A100A20141015B089431002497310E30BB
:102F3E004001A0000030A100A201A20A41015C08DC
:102F4E009431002497319231362208004001D1008D
:102F5E004201341CBB2F40015108CC004C08C1006B
:102F6E00490894318B2497314001CB1BC32F4B085A
:102F7E00D0004A08CF00C52FCF01D001CD01CE0120
:102F8E004E08803ACC005008803A4C02031DD12FD7
:102F9E004F084D020318E52F20304001B9000030D4
:102FAE00BA005108CC004C08BB009631B6269731BA
:102FBE0001304001CD070030CE3DC72F42013418FD
:102FCE00F12F40015108CC004C08C1004908943142
:102FDE008B24973140014908A0000130A1009331A4
:102FEE00042340014F082007C9005008213DCA00A4
:102FFE000800253463342534633425346334253492
:10300E0063340D340034253463342534633425346D
:10301E00633420340D3400342034253463342534A5
:10302E006334253463340D34003448344534593414
:10303E00593459345934593459340034253463349D
:10304E0025346334203420340D34003420342034BD
:10305E0025346334253463340D34003442342D3436
:10306E0025347534203420340D34003446342D3458
:10307E0025347534203420340D3400342534633433
:10308E002034203420340D340034203420342034C5
:10309E00253463340D34003420342034203420346D
:1030AE000D34003450344334203420340D34003485
:1030BE0041344E34493420340D34003453344534C5
:1030CE004C3431340D3400344234453441345434AC
:0E30DE000D34003420342034203420340034EB
:020000040001F9
:0A000E00EC3FFF3F9F3FFF3FFF3F25
:00000001FF
