:020000040000FA
:1000000080313028080008007E1480314E01961A95
:100010008C1E0E289C31672480312E280B1F2E2821
:1000200099188F1C17289B31732380312E2819189B
:100030000F1C1E288E31AE2680312E2897188D1C5D
:1000400025289C315A2480312E28991A8F1E2E285B
:10005000420166088A0065080A0080317E100900A6
:1000600080313228A03084009B308500E830860043
:10007000003087000030FF0008309C314E24803172
:10008000F9308400873085006730860001308700B2
:100090000030FF0006309C314E248031EE30840069
:1000A000233085000230FE000430FF009C314224E2
:1000B0008031F001F101F201F301F401F501F601E3
:1000C000C7308400003085002130FE000030FF0082
:1000D0009C31422480312030840001308500413041
:1000E000FE000030FF009C3142248031A0308400AB
:1000F000013085005030FE000030FF009C3142246A
:10010000803120308400023085004830FE0000300D
:10011000FF009C3142248031A030840002308500F1
:100120004030FE000030FF009C3142247E10400130
:100130009131B12940014B088039D0005008D500D9
:100140004B35D0005008DB00CA1B5B145B08031959
:10015000B6285B0A031DB4280030CB000030CA006B
:100160000030C9000030C800CA17BE280030CB00DC
:100170000030CA000030C9000030C8004F08803984
:10018000D0005008D5064F35D0005008D600CE1B01
:10019000561456080319D928560A031DD7280030CB
:1001A000CF000030CE000030CD000030CC00CE17A4
:1001B000E1280030CF000030CE000030CD0000300C
:1001C000CC005608031D5B08031DEF280030CB0050
:1001D0000030CA000030C9000030C80008004808DC
:1001E000D0005008A0004E089E31622680314001A8
:1001F0002108E1002008E0006008D000D101D20110
:10020000D3015308DA005208D9005108D800500829
:10021000D7006108D000D101D201D3015308DF001B
:100220005208DE005108DD005008DC004908D0000B
:100230005008A0004D089E316226803140012108FF
:10024000E1002008E0006008D000D101D201D30114
:100250005008D7075108D83D5208D93D5308DA3D18
:100260006108D000D101D201D3015008DC07510848
:10027000DD3D5208DE3D5308DF3D4A08D0005008FE
:10028000A0004C089E316226803140012108E10027
:100290002008E0006008D000D101D201D30150084D
:1002A000D7075108D83D5208D93D5308DA3D6108B7
:1002B000D000D101D201D3015008DC075108DD3D47
:1002C0005208DE3D5308DF3D0830D735D80DD90D33
:1002D000DA0D890B65294908D0005008A0004C08A8
:1002E0009E316226803140012108E1002008E000B3
:1002F0006008D7076108D83D0030D93DDA3D48088D
:10030000D0005008A0004D089E3162268031400187
:100310002108E1002008E0006008D7076108D83D07
:100320000030D93DDA3D0830D735D80DD90DDA0D7A
:10033000890B94294808D0005008A0004C089E3131
:100340006226803140012108E1002008E0006008B9
:10035000D7076108D83D0030D93DDA3D4908D000C3
:100360005008A0004E089E316226803140012108CD
:10037000E1002008E0006008DC076108DD3D003096
:10038000DE3DDF3D4A08D0005008A0004D089E31F8
:100390006226803140012108E1002008E000600869
:1003A000DC076108DD3D0030DE3DDF3D4A08D0005E
:1003B0005008A0004E089E3162268031400121087D
:1003C000E1002008E0006008D0006108D100D201FF
:1003D000D3010830D035D10DD20DD30D890BEA29C8
:1003E0005008DC075108DD3D5208DE3D5308DF3D73
:1003F0005708D0005808D1005908D2005A08D30035
:100400001830D336D20CD10CD00C890B012A5008ED
:10041000DC075108DD3D5208DE3D5308DF3D083062
:10042000D735D80DD90DDA0D890B102A5B08560780
:10043000D000D101D10D5008823EE000FF30513D87
:10044000E100DE1B382A0130DC35DD0DDE0DDF0D6D
:10045000890B242ADA1B5C140130D735D80DD90D4D
:10046000DA0D890B2D2AFF30E007FF30E13D212A0C
:10047000D601DA1F512AFF305705D000FF3058054A
:10048000D100FF305905D2007F305A05D300530800
:1004900052045104500403195C184F2A512AD60102
:1004A000D60A560803197A2A0130DC070030DD3DF0
:1004B0000030DE3D0030DF3D5F1C7A2A5C08D00052
:1004C0005D08D1005E08D2005F08D3000130D4007F
:1004D000D337D20CD10CD00CD40B682A5308DF00D0
:1004E0005208DE005108DD005008DC000130E00752
:1004F0000030E13D6108803AD00080305002031D99
:10050000832AFF306002031C8F2A7F304001DF0006
:100510008030DE000030DD000030DC00B92A400110
:100520006108803AD00080305002031D992A0130C2
:1005300060020318A62A00304001DF000030DE0010
:100540000030DD000030DC00D501B92A4001600830
:10055000D0005008DB00FF30DC05FF30DD057F30C8
:10056000DE050030DF055B18DE175B36D000500873
:10057000DF005508D0005008DF045F08CB005E089C
:10058000CA005D08C9005C08C80008004E30400180
:10059000A00020084201D60046304001A0002008FB
:1005A0004201D700D830D8000130D90041015508A8
:1005B0004201DD00410154084201DC00DB015630FC
:1005C0004001A00020084201DA00E0304001A00014
:1005D00020084201CE0056304001A0002008420110
:1005E000CF00D030D0000130D10041015508420188
:1005F000D500410154084201D400D301D30A4E3042
:100600004001A00020084201D20046304001A00075
:1006100020084301E0004E304001A00020084301C3
:10062000E100B030E2000130E30041015508430130
:10063000E700410154084301E60002304001A000F8
:1006400020084301E500E0304001A00020084301FC
:10065000E40056304001A00020084201C600E0300E
:100660004001A00020084201C700A830C8000130A6
:10067000C900410155084201CD0041015408420121
:10068000CC0003304001A00020084201CB004630DE
:100690004001A00020084201CA004301D801D9014D
:1006A000DA01DB015430DE001730DF000430400196
:1006B000A00020084301DD0056304001A0002008C2
:1006C0004301DC00C8304001A00020084301D000F5
:1006D000B8304001A00020084301D1006030D200B2
:1006E0000230D300410155084301D70041015408AD
:1006F0004301D60005304001A00020084301D50089
:100700004E304001A00020084301D400C030400119
:10071000A00020084301C800D0304001A0002008FC
:100720004301C9005830CA000230CB0041015508CE
:100730004301CF00410154084301CE00063040017F
:10074000A00020084301CD004E304001A000200849
:100750004301CC00B8304001A00020084301C00094
:10076000C8304001A00020084301C1005030C20041
:100770000230C300410155084301C700410154083C
:100780004301C60007304001A00020084301C50016
:100790004E304001A00020084301C400D030400189
:1007A000A00020084301B800C0304001A00020088C
:1007B0004301B9004830BA000230BB00410155087E
:1007C0004301BF00410154084301BE00083040010D
:1007D000A00020084301BD004E304001A0002008C9
:1007E0004301BC004401C001C101B030C20001306E
:1007F000C3008B30C6001530C70012304001A00086
:1008000020084401C500E0304001A0002008440158
:10081000C4004301B001B1014030B2000230B30066
:100820008B30B6001530B70011304001A000200811
:100830004301B500E0304001A00020084301B400AE
:10084000A801A9013830AA000230AB00AF30AE00D9
:100850000C30AF000D304001A00020084301AD0076
:1008600046304001A00020084301AC004401B8011B
:10087000B9013030BA000230BB00AF30BE000C30DE
:10088000BF000E304001A00020084401BD004630EA
:100890004001A00020084401BC00B001B101283093
:1008A000B2000230B300AF30B6000C30B7000F30EA
:1008B0004001A00020084401B50046304001A000DE
:1008C00020084401B400A801A901A830AA00013001
:1008D000AB00AF30AE000C30AF0010304001A000D4
:1008E00020084401AD0046304001A000200844012A
:1008F000AC00E001E101E201E301D030E600133099
:10090000E70009304001A00020084401E5004E3016
:100910004001A00020084401E400D801D901DA0117
:10092000DB01D030DE001330DF000A304001A000D0
:1009300020084401DD004E304001A00020084401A1
:10094000DC00D001D101D201D301D030D600133068
:10095000D7000B304001A00020084401D5004E30E4
:100960004001A00020084401D400C801C901CA0107
:10097000CB01D030CE001330CF000C304001A000AE
:1009800020084401CD004E304001A0002008440161
:10099000CC000800400135088039B6003608BF0099
:1009A0003535B6003608C600B41B46144608031990
:1009B000E72C460A031DE42C0030B5000030B400DB
:1009C0000030B3000030B200B417B501EF2C003096
:1009D000B5000030B4000030B3000030B200310880
:1009E0008039B6003608BF063135B6003608C70074
:1009F000B01B4714470803190B2D470A031D082D88
:100A00000030B1000030B0000030AF000030AE0068
:100A1000B017B101132D0030B1000030B00000302C
:100A2000AF000030AE00310830042F042E04031D47
:100A3000322D0030B5000030B4000030B30000307B
:100A4000B2008030B4047F30B5043F08B6003608E9
:100A5000B5043508B1003408B0003308AF003208DF
:100A6000AE0008004608031D3E2D0030B1000030E6
:100A7000B0000030AF000030AE0008004608B600FD
:100A8000B7013708B90047083602B800031CB9039C
:100A900038087F3EC0000030393DC1003508BE0037
:100AA0003408BD003308BC003208BB000030B5007C
:100AB0000030B4000030B3000030B2000030C50098
:100AC0000030C4000030C3000030C200C7011A303B
:100AD00047020318A32D47080319852D0130BB35A4
:100AE000BC0DBD0DBE0D890B6F2D0130B235B30DA0
:100AF000B40DB50D890B762DC51B32140130C235EE
:100B0000C30DC40DC50D890B7F2D31083E02031D99
:100B1000932D30083D02031D932D2F083C02031D29
:100B2000932D2E083B02031C9E2D45172E08BB0259
:100B30002F08BC3B3008BD3B3108BE3B0130B6003E
:100B40003608C707672D3E083D043C043B04031DDF
:100B50004214B41BC02D0130B235B30DB40DB50D28
:100B6000890BAC2DC51B32140130C235C30DC40D29
:100B7000C50D890BB52DFF30C007FF30C13DA92D34
:100B8000C701C51FD92DFF304205B600FF30430510
:100B9000B700FF304405B8007F304505B90039087B
:100BA00038043704360403193218D72DD92DC7015C
:100BB000C70A47080319022E0130B2070030B33DBF
:100BC0000030B43D0030B53D351C022E3208B60071
:100BD0003308B7003408B8003508B9000130BA004E
:100BE000B937B80CB70CB60CBA0BF02D3908B500F4
:100BF0003808B4003708B3003608B2000130C00727
:100C00000030C13D4108803AB60080303602031DF5
:100C10000B2EFF304002031C1A2EFF304001C00093
:100C20000030C1000030B5000030B4000030B30027
:100C30000030B20040014108803AB60080303602F0
:100C4000031D242E013040020318322E4001C00142
:100C5000C1010030B5000030B4000030B3000030F6
:100C6000B200BF0140014008B6003608C600461C6D
:100C70003B2EB4173F2E7F30B6003608B4054636FB
:100C8000B6003608B500252D41013708BA00BB0172
:100C9000BC01BD013D084001A30041013C084001E9
:100CA000A20041013B084001A10041013A08400176
:100CB000A000013096311626863140012308B50088
:100CC0002208B4002108B3002008B2004330B1006C
:100CD0007F30B0000030AF000030AE008431CA2455
:100CE000863140013108CF003008CE002F08CD00FA
:100CF0002E08CC004230CB00FE30CA000030C900C4
:100D00000030C80080319A20863140014B08E50050
:100D10004A08E4004908E3004808E200943134241A
:100D20008631400163084101A10040016208410190
:100D3000A0009D31CA25863141013808BA00BB01A7
:100D4000BC01BD013D084001A30041013C08400138
:100D5000A20041013B084001A10041013A084001C5
:100D6000A000013096311626863140012308B500D7
:100D70002208B4002108B3002008B2004330B100BB
:100D80007F30B0000030AF000030AE008431CA24A4
:100D9000863140013108CF003008CE002F08CD0049
:100DA0002E08CC004230CB00FE30CA000030C90013
:100DB0000030C80080319A20863140014B08E500A0
:100DC0004A08E4004908E3004808E200943134246A
:100DD0008631400163084101A100400162084101E0
:100DE000A0009D31E825863141013908BA00BB01D8
:100DF000BC01BD013D084001A30041013C08400188
:100E0000A20041013B084001A10041013A08400114
:100E1000A000013096311626863140012308B50026
:100E20002208B4002108B3002008B2004330B1000A
:100E30007F30B0000030AF000030AE008431CA24F3
:100E4000863140013108CF003008CE002F08CD0098
:100E50002E08CC004230CB00FE30CA000030C90062
:100E60000030C80080319A20863140014B08E500EF
:100E70004A08E4004908E3004808E20094313424B9
:100E80008631400163084101A1004001620841012F
:100E9000A0009E310626863141013608BA00BB010A
:100EA000BC01BD013D084001A30041013C084001D7
:100EB000A20041013B084001A10041013A08400164
:100EC000A000013096311626863140012308B50076
:100ED0002208B4002108B3002008B2004330B1005A
:100EE0007F30B0000030AF000030AE008431CA2443
:100EF000863140013108CF003008CE002F08CD00E8
:100F00002E08CC004230CB00FE30CA000030C900B1
:100F10000030C80080319A20863140014B08E5003E
:100F20004A08E4004908E3004808E2009431342408
:100F30008631400163084101A1004001620841017E
:100F4000A0009E31242608004001A3004101491859
:100F5000E62F02304001A200210886008701220806
:100F600081002008A2004101470A86000130870065
:100F70004001220881002308A200410147088600A1
:100F8000013087004001220881002108A2004101B0
:100F90004708023E86000130870040012208810098
:100FA0000330A20022084101C7074708613A031D28
:100FB000DF2F5E304001A20022084101C700C910A6
:100FC00048084706031DEC2F4914EC2F4001210867
:100FD000860087018101810A40012108860087017E
:100FE00002300106031D08009B317D234E010F14C2
:100FF0000800013400340A34003490340634080008
:101000008C3046019A009901980144011E083F392D
:1010100040389E000800033040013702E8300319D1
:101020003602031C36287930B8003808B000343056
:101030009D31AD25883179304001B8003808B000C5
:1010400035309D31AD25883179304001B800380800
:10105000B00036309D31AD25883179304001B8007F
:101060003808B00037309D31AD2508000A30A8009F
:101070000030A9003708AB003608AA009F31A4272A
:101080008831400129088500280884001030840731
:101090009830853D0008B8003808B00037309D31E1
:1010A000AD2588310A304001A8000030A9000A307F
:1010B000A0000030A1003708A3003608A20090313C
:1010C000A320883140012108AB002008AA009F31ED
:1010D000A4278831400129088500280884001030A1
:1010E00084079830853D0008B8003808B0003630D5
:1010F0009D31AD2588310A304001A8000030A9009B
:101100006430A0000030A1003708A3003608A20018
:101110009031A320883140012108AB002008AA00AB
:101120009F31A427883140012908850028088400C0
:10113000103084079830853D0008B8003808B000AA
:1011400035309D31AD2508004101AD002D08031952
:10115000CE2895310E25883141012308B10022089F
:10116000B0002108AF002008AE0031084001E500C2
:10117000410130084001E40041012F084001E30033
:1011800041012E084001E2009431342488314001AD
:101190006208EE006E084101B300CF28B3012A08AF
:1011A0000319F72895310E25883141012308B10034
:1011B0002208B0002108AF002008AE00310840012D
:1011C000E500410130084001E40041012F084001E1
:1011D000E30041012E084001E200943134248831BB
:1011E00040016208EE006E084101B500F828B50123
:1011F00029080319202995310E258831410123083A
:10120000B1002208B0002108AF002008AE0031086C
:101210004001E500410130084001E40041012F0890
:101220004001E30041012E084001E20094313424E2
:10123000883140016208EE006E084101B4002129A6
:10124000B4012B080319492995310E258831410134
:101250002308B1002208B0002108AF002008AE002A
:1012600031084001E500410130084001E40041013E
:101270002F084001E30041012E084001E2009431B3
:101280003424883140016208EE006E084101B2004A
:101290004A29B2013508AC003408AB003308AA0073
:1012A0003208A90008002730400137021030031926
:1012B0003602031C7E297930B8003808B00034307B
:1012C0009D31AD25893179304001B8003808B00032
:1012D00035309D31AD25893179304001B80038086D
:1012E000B00036309D31AD25893179304001B800EC
:1012F0003808B00037309D31AD2508000A30A8000D
:101300000030A9003708AB003608AA009F31A42797
:10131000893140012908850028088400103084079D
:101320009830853D0008B8003808B00037309D314E
:10133000AD2589310A304001A8000030A9000A30EB
:10134000A0000030A1003708A3003608A2009031A9
:10135000A320893140012108AB002008AA009F3159
:10136000A42789314001290885002808840010300D
:1013700084079830853D0008B8003808B000363042
:101380009D31AD2589310A304001A8000030A90007
:101390006430A0000030A1003708A3003608A20086
:1013A0009031A320893140012108AB002008AA0018
:1013B0009F31A4278931400129088500280884002D
:1013C000103084079830853D0008B8003808B00018
:1013D00035309D31AD2589310A304001A8000030FB
:1013E000A900E830A0000330A1003708A3003608A8
:1013F000A2009031A320893140012108AB002008D0
:10140000AA009F31A42789314001290885002808B6
:101410008400103084079830853D0008B8003808F3
:10142000B00034309D31AD2508009B31C3238A3193
:1014300042012E0840012002A80042012F0840016D
:10144000213BA90042016A0840012902031D2C2A00
:101450004201690840012802031C08009B31C32394
:101460008A31400121084201AF00400120084201B9
:10147000AE007003031D412A0130AC070030AD3DC2
:10148000472AAC01AD011E30E9000030EA007003CC
:10149000031D8E2A3C08031D8E2A4101D801D80A5B
:1014A00032304201E9000030EA009B31C3238A3127
:1014B0004201320840012002AA00420133084001E3
:1014C000213BAB009B31C3238A31400121084201FB
:1014D000B300400120084201B200003040012B025D
:1014E000963003192A0203187B2A90304201B0007B
:1014F0000130B1008E2A2B08A1002A08A00060301C
:10150000A200EA30A3009031A3208A3140012108D3
:101510004201B100400120084201B00070084001C2
:10152000A80028084201BC00F0012D08803A4001C3
:10153000A80080302802031DA02A043042012C029A
:10154000031CBF2A01304201EB070030EC3D6C0860
:101550004001A10042016B084001A0009B31B12372
:101560008A314201AC01AD019B31C3234001210806
:101570004201B300400120084201B20008009B3143
:10158000C3238A314201320840012002A8004201EF
:1015900033084001213BA90003302902E930031937
:1015A0002802031C080001304201EB020030EC3B32
:1015B0006C084001A10042016B084001A0009B3172
:1015C000B12308009B31C3238A314201280840011E
:1015D00020024101BE00420129084001213B410196
:1015E000BF0000303F02323003193E02031C0800E6
:1015F0009B31C3238A31400121084201A9004001E7
:1016000020084201A80040019A129B31D5238A315B
:101610004101BE003E084001EF006F08031D9A160D
:101620006F08031D272B4101A901AA01AB0100305E
:101630008831A4208A3141012C08B9002B08B80058
:101640002A08B7002908B60086314426080041015F
:1016500050035104031D6A2BA901522BA9014A2BE7
:10166000A901A90AAA01AA0AAB01552BA901A90A35
:10167000412BA901A90A462BA901AA01AA0A532BA9
:10168000A901AA01AA0AAB014E2BA901AA014C2B60
:10169000A901A90AAA01AA0AAB01AB0A0130562B7B
:1016A000A901A90AAA01AB01AB0A00308831A42024
:1016B0008A3141012C08B9002B08B8002A08B7006C
:1016C0002908B6008631442601304101D007003098
:1016D000D13D08000230500651040319502B03304D
:1016E000500651040319302B0430500651040319DD
:1016F0002E2B0530500651040319302B06305006AE
:1017000051040319362B0830500651040319392BA4
:101710000930500651040319502B0A305006510469
:1017200003193C2B0B30500651040319402B0C308D
:10173000500651040319452B0D305006510403196E
:10174000482B0E30500651040319502BA901A90A49
:10175000AA01AA0AAB01AB0A00308831A4208A3161
:1017600041012C08B9002B08B8002A08B700290845
:10177000B6008631442601304101D0000030D1004E
:1017800008009B31C3238B3140012108A7002008AA
:10179000A6004201380840012602A2004201390891
:1017A0004001273BA300003023020A300319220224
:1017B000031C080027084201B90040012608420125
:1017C000B8004001A5012508A2000230A235FF3E65
:1017D000031DE62B2235C03EA3002308A8002808DD
:1017E000860002308700403FA200413FA30022084C
:1017F0008600230887000130A4002808023E8400E8
:1018000002308500000A052CA435890B042C24081D
:101810000105031D242C2808033E860002308700A2
:101820008101810A2808073E8600023087000108EE
:10183000031D2A2C2808053E860002308700260852
:10184000C03F2708C13F2A2C2808033E86000230EB
:10185000870081012808033E8600023087000108C6
:10186000031D422C2808043E860002308700010335
:10187000031D422C2808073E8600023087008101A4
:10188000810A982C2808033E860002308700010355
:10189000031D792C2808043E8600023087000103CE
:1018A000031D792C2808053E860002308700403F42
:1018B0002602A200413F273BA30000302302C9308B
:1018C00003192202031C662C0330702C2808073EE3
:1018D000860002308700033001060319982C02307D
:1018E000A2002808073E86000230870022088100F7
:1018F000982C2808033E8600023087000108031D4B
:10190000982C2808043E8600023087000103031D3E
:10191000982C2808073E8600023087000330010615
:10192000031D982C2808073E86000230870081019D
:101930002808033E8600023087000108A20028081C
:10194000043E860002308700220881000130A20098
:101950002208A5070430250203180800E32B9C3158
:1019600036248C310B2D9330A000A030A1009D3186
:1019700006258C3141014D08BE00BF013E084001E3
:10198000B60041013F084001B70088310B208C317F
:10199000272D9C30A000A030A1009D3106258C3160
:1019A00041014E08BE00BF013E084001B6004101A2
:1019B0003F084001B70088310B208C31272D99302A
:1019C000A000A030A1009D3106258C3141014F08B7
:1019D000BE00BF013E084001B60041013F08400182
:1019E000B70088310B208C31272D9F30A000A0300C
:1019F000A1009D3106258C3141014C08BE00BF017C
:101A00003E084001B60041013F084001B70088315F
:101A10000B208C31272D410156088600570887007E
:101A200045310108BE00BF013F08003A0319192DD6
:101A3000272D3E080D3A0319B32C033A0319C92C7C
:101A4000013A0319DF2C1F3A0319F52C272D410108
:101A500060089C3174248C31003A03197E2D9B312F
:101A6000C3238C3141015208400120024101BE00D4
:101A700053084001213B4101BF003F086902031D9B
:101A8000432D3E08680203187E2D923133228C319B
:101A9000622D9B31C3238C31410152084001200249
:101AA0004101BE0053084001213B4101BF003F08F6
:101AB0006902031D5D2D3E0868020318862D9131D1
:101AC0007A218C319B31C3238C31400121084101A3
:101AD000D300400120084101D2006908803ABE00CD
:101AE00080303E02031D762D0B306802031C080077
:101AF000FF304101E807FF30E93D080041015F0880
:101B00009C3174248C31003A031D492D41015D083C
:101B100003198D2D9231332208005C080319932D8F
:101B200091317A2108005D08031D5C08031D08003F
:101B30005F089C3174248C31003A031D0800410178
:101B400060089C3174248C31003A031D0800643015
:101B50004101E8000030E900080041016E03031D67
:101B6000B62D5630D6000130D700EE0160089C310A
:101B7000CA248D314401E80068084101DD005F0896
:101B80009C31CA248D314401E80068084101DC0021
:101B900061089C31CA248D314401E8006808410184
:101BA000DB005E089C31CA248D314401E8006808DE
:101BB0004101DA005B080319E52D56088600570835
:101BC000870044310108D600F72D5D080319FA2D6E
:101BD000560886005708870001080319FA2D560891
:101BE0008600570887000108D600FF39031D013021
:101BF000D700852E5C080319112E56088600570859
:101C00008700413101080319112E56088600570834
:101C1000870041310108D600FF39031D0130D7008C
:101C2000852E5A080319852E560886005708870006
:101C30004231160001040319852E56088600570804
:101C400087004231403FD600413FD700560886000A
:101C5000570887004631403FD400413FD500852ECC
:101C600055304101A000A030A1009D31062508009B
:101C700073304101A000A030A1009D31062508006D
:101C800061304101A000A030A1009D31062508006F
:101C90005B304101A000A030A1009D310625080065
:101CA00049304101A000A030A1009D310625080067
:101CB0006D304101A000A030A1009D310625080033
:101CC0004F304101A000A030A1009D310625080041
:101CD00067304101A000A030A1009D310625080019
:101CE0004101560886005708870046311600010456
:101CF0000319080056088600570887004631413FFF
:101D00008A00403F0A008E310800560886005708B6
:101D10008700453101084401E800E9016908003AFB
:101D20000319932E702E6808003A0319302E013AD9
:101D30000319382E033A0319402E013A0319482E8D
:101D4000063A0319502E033A0319582E013A031983
:101D5000602E0F3A0319682E702E08004E010F10E6
:101D60004301901FD32F90134101E6017108023EF9
:101D70008600013087000108860087018101810A01
:101D8000F1010800C91808004808F9007908F100B5
:101D900048088600013087000108F9007908E5004D
:101DA00048088600013087000130413FF2000330CF
:101DB000F9007908C8074808613A031DE32E5E3030
:101DC000F9007908C8004910480847060319C914E2
:101DD000430111140230F90079084101E6000800BE
:101DE0007C2F4301111FFD2E0130F90079084101BC
:101DF000CB0704309D31772508007608FA00750876
:101E0000F900FA36F90C79088C00751C0D2F0B308F
:101E1000F90079084101E60008000330F90079086B
:101E20004101E60008004301111F1F2F0130F90096
:101E300079084101CB0704309D31772508009114C2
:101E40007608FA007508F9007A08F900FA010630F8
:101E50007905FB0000307A05FC00F0307B04F500CA
:101E600000307C04F60075144101E201E20AEA2E1A
:101E700062030319512F7208860001308700403F2A
:101E8000F500413FF60072088600013087000130FE
:101E9000433FE40072088600013087000130423F72
:101EA000E300750843018C00751C0D2F0530F90007
:101EB00079084101E60008004301111F6A2F013033
:101EC000F90079084101CB074301111305309D3119
:101ED0007725080001304101E302630A031D7F2FCB
:101EE0000430F9007908F2070130E502031D7C2F68
:101EF00000309D317725080043019114EA2E6408D3
:101F000086008701010843018C000130F90079083F
:101F10004101E40708004301111F992F0130F90026
:101F200079084101CB0704309D3177254301111316
:101F3000080091150830F90079084101E600080011
:101F40000830F9007908E6004301911508004301C3
:101F50000C08F900410164088600870179088100B6
:101F60000130F9007908E4070130E3020319C02FBA
:101F7000430191120630F90079084101E600C42FAF
:101F8000430191169C31832443011116080000304F
:101F90009D31772508000130F9007908CB0706301C
:101FA0009D317725080041016608F900FA017A0899
:101FB000003A0319DC2FCB2F7908003A0319C22EFF
:101FC000013A0319F02E033A0319382F013A031985
:101FD0005C2F073A0319C72F013A03198B2F033AD5
:101FE0000319A02F013A0319C72F0F3A0319A72F7E
:101FF000023A0319F12E013A0319132FCB2F0800CF
:102000000130450190008F019101FF308D008C015E
:102010004E019010F03045018E0008004001D900BB
:10202000420122082304031D1D2823084001D80073
:10203000420122084001D70026282208FF3E400125
:10204000D700FF304201233D4001D8005408D6009C
:1020500056084501A000A101A0304001D600560855
:10206000CB005808CD005708CC00590893311A23EB
:1020700040014C08D5004B08D400080042019D1CCB
:1020800043281D121D166708680403191D196428CA
:102090001908F700F8012B08FA002A08F900F935A9
:1020A000FA0DEE30FB002330FC0079087B07860038
:1020B0007A087C3D87007708C03F7808C13F01302F
:1020C000AA070030AB3D6C28AA01AB01E701E8018B
:1020D0001908F7007708FD004E018F1208004E0125
:1020E00099120D304001A0001130A1009B31DE2378
:1020F0009031083042019F0090309D0004309E00D6
:102100001F309B009C016B304001A0001B30A100E0
:102110009B31F023903179304001A0001B30A100A9
:102120009B31F923903170304001A0001B30A10099
:102130009B31E7234201C501F401F3014101E701AD
:102140004E01991608004001A601A70120082104AC
:102150000319D328A501A50AA11BB8280130A03571
:10216000A10D890BAF280130A4002408A507AC28D5
:102170000130A635A70D890BB92821082302031DBC
:10218000C32820082202031CCA282008A202210812
:10219000A33B26140130A136A00C890BCB280130BB
:1021A000A502031DB8282708A1002608A0000800E2
:1021B0004001980199019A013F309200F03093005C
:1021C00006309400FF307E01CE00E030C3000730BF
:1021D000B800C401B901CF01BA01C501D00137303F
:1021E000BB00F030C600FF30D10005307D01C500D6
:1021F00014307E0194000B30A3000C30A400133087
:1022000095000930A5000A30A6000930A700043067
:102210007D01C6000C30CB0008007408A03E86008B
:1022200001308700810142011D1D22297408A03E52
:10223000860001308700811444016D088A006C0813
:102240000A00913142019D1C31297408A03E86008C
:10225000013087000115450163088A0062080A0001
:1022600091317408A03E86000130870001080319EF
:102270004029450161088A0060080A009131080080
:102280009D314725080040013D08031D3D08031D01
:102290004D293B089E31E62608003D08033E860096
:1022A000870116000104031970293D08033E8600CA
:1022B0008701403FBE00413FBF003D0A86008701C5
:1022C000403FC000413FC1004108803AC2003F0882
:1022D000803A4202031D6E293E084002031808009E
:1022E00040013D0A86008701013081074131031812
:1022F000810A0800972941014D080319080001309F
:10230000CD02080041014E08031908000130CE0239
:10231000080041014F08031908000130CF020800EE
:1023200041014C08031908000130CC0208009B3120
:10233000902391314001A000A1012108003A031926
:10234000A229B02920080D3A03197B29033A031961
:102350008229013A031989291F3A03199029B029C2
:1023600008009F310A27913115304401EB004B30B2
:10237000EA00BE30890BBA29EA0BBA29EB0BBA295D
:1023800000009B318823913192317A2291319D3125
:10239000302591319B31982391318231C622913180
:1023A0008B170B179C31F22491319C31B72491315A
:1023B0009B31C3239131400121084201BB00400100
:1023C00020084201BA008B31C12391318D31AD25F6
:1023D00091318A3115229131E3294001AF01AC1FBF
:1023E000F829AB09AC09AB0A0319AC0AAF01AF0A73
:1023F000AA1FFF29A909AA09A90A0319AA0A2908D3
:102400002A040319262AAE01AE0AAA1B112A01309A
:10241000A935AA0D890B082A0130AD002D08AE0799
:10242000052A2A082C02031D172A29082B02031C3F
:102430001D2A2908AB022A08AC3B0130AA36A90C98
:10244000890B1E2A0130AE02031D112A2F08031921
:102450002E2AAB09AC09AB0A0319AC0A2C08AA0056
:102460002B08A9000800602A41014D0A0319080041
:1024700001304001A00020084101CD0708004101C2
:102480004E0A0319080001304001A0002008410154
:10249000CE07080041014F0A03190800013040012E
:1024A000A00020084101CF07080041014C0A031990
:1024B000080001304001A00020084101CC070800BD
:1024C0009B31902392314001A000A1012108003AE4
:1024D00003196B2A792A20080D3A0319342A033A82
:1024E00003193F2A013A03194A2A1F3A0319552AA8
:1024F000792A0800C0304001A50025084101E1000B
:10250000C8304001A50025084101E000D03040015D
:10251000A50025084101DF00D8304001A5002508AD
:102520004101DE000E304001A0000030A100023069
:10253000A5002508A200410161089E314226923182
:102540000C304001A0000030A1000230A500250899
:10255000A20041015E089E31422692310E304001B8
:10256000A0000030A100A20141015F089E31422677
:1025700092310E304001A0000030A100A201A20A59
:10258000410160089E31422692319C31942408001A
:102590004001A601A11FD32AA009A109A00A03197D
:1025A000A10AA601A60AA31FDE2AA209A309A20A5C
:1025B0000319A30A0130A4002408A606A701A80154
:1025C0002008210403190D2BA501A50AA11BF22A3D
:1025D0000130A035A10D890BE92A0130A40024089F
:1025E000A507E62A0130A735A80D890BF32A210893
:1025F0002302031DFD2A20082202031C042B2008AD
:10260000A2022108A33B27140130A136A00C890B9C
:10261000052B0130A502031DF22A26080319152BEC
:10262000A709A809A70A0319A80A2808A1002708CA
:10263000A00008004001D3004201261C282B4001C5
:102640005308CE004E08C3004B089F312E2793310C
:102650004001CD1B302B4D08D2004C08D100322B4D
:10266000D101D201CF01D0015008803ACE005208EA
:10267000803A4E02031D3E2B51084F020318522B85
:1026800020304001BB000030BC005308CE004E0893
:10269000BD0091314321933101304001CF0700301B
:1026A000D03D342B420126185E2B40015308CE004A
:1026B0004E08C3004B089F312E27933140014B0831
:1026C000A0000230A1009D315F2540015108200784
:1026D000CB005208213DCC0008009B31762393317A
:1026E0004101BE00BF01BE35BF0DEE30C00023303A
:1026F000C1003E08400786003F08413D87000108B1
:10270000C2004208C4009B31762393314101BE00D0
:10271000BF01BE35BF0DF030C0002330C1003E0800
:10272000400786003F08413D87000108C20042087B
:10273000C5009B31762393314101BE00BF01BE35F8
:10274000BF0DF230C0002330C1003E0840078600B4
:102750003F08413D87000108C2004208C6009B3186
:10276000762393314101BE00BF01BE35BF0DF43069
:10277000C0002330C1003E08400786003F08413DAD
:1027800087000108C2004208C3004608B900450896
:10279000B8004408B7004308B60086314426080054
:1027A000F62B8230A000A030A1009D310625933188
:1027B0008A31E2229331122C8A30A000A030A1008D
:1027C0009D3106259331803103209331122C8630C0
:1027D000A000A030DF2B7E30A000A030A1009D31F2
:1027E000062593318731FF279331122C410156087A
:1027F00086005708870045310108C000C101410823
:10280000003A0319042C122C4008093A0319D12B61
:10281000033A0319DC2B013A0319E72B073A031992
:10282000EB2B122C41016F0894319A249331410112
:102830005D080319292C09306F020318242C01307C
:10284000C0004008EF0708000930C0004008EF0052
:1028500008005C08031908006F080319322C0130C6
:10286000EF020800EF01080003104001640D650D40
:10287000E6006608EC006C08031D472C0030E500FC
:102880000030E4000030E3000030E200080062089D
:10289000E6006308E7006408E8006508E9001F3007
:1028A000E936E80CE70CE60C890B502C6608EA00C8
:1028B0006A08EB00E417FF30E205FF30E305FF3064
:1028C000E4050030E5059630EC02EC1F7A2C6C082C
:1028D000803A973E031C3E2C0130E536E40CE30CB5
:1028E000E20C890B6D2C0130E6006608EC07031939
:1028F0008B2C6C2C20306C0203183E2C6C080319B6
:102900008B2C0130E235E30DE40DE50D890B822CB3
:102910000130EC027E2C6B0803190800E209E30980
:10292000E409E509E20A0319E30A0319E40A0319B1
:10293000E50A08004001B90064303902031CC32CC9
:102940007930B6003608B00034309D31AD25943171
:1029500079304001B6003608B00035309D31AD25E4
:10296000943179304001B6003608B00036309D31E0
:10297000AD25943179304001B6003608B0003730CB
:102980009D31AD2508000A30A9000030AA003908A1
:10299000B600B7013608AB003708AC009131ED2125
:1029A000943140012A0885002908840010308407EA
:1029B0009830853D0008B8003808B00037309D31A8
:1029C000AD2594310A304001A9000030AA000A3038
:1029D000A0000030A1003908B600B7013608A200F7
:1029E0003708A3009231C822943140012108AC007D
:1029F0002008AB009131ED21943140012A08850077
:102A000029088400103084079830853D0008B800FC
:102A10003808B00036309D31AD25080041016F08FF
:102A2000A400A501A601A70127084001A3004101B8
:102A300026084001A200410125084001A1004101F2
:102A400024084001A000013096311626953140013E
:102A50002308B5002208B4002108B3002008B20002
:102A60004130B1001030B0000030AF000030AE0097
:102A70008431CA24953140013108CF003008CE009E
:102A80002F08CD002E08CC004330CB007F30CA0089
:102A90000030C9000030C80080319A2095314001D3
:102AA0004B08E5004A08E4004908E3004808E20052
:102AB000943134249531400162084101A80028086E
:102AC0004001ED006D084101A400A501A601A70188
:102AD00027084001A300410126084001A20041014E
:102AE00025084001A100410124084001A000003058
:102AF00096311626400123084101A3004001220817
:102B00004101A200400121084101A100400120082B
:102B10004101A000080080310220953141015D088B
:102B20000319AD2D5608860057088700453112302D
:102B30000106031DAD2D0A306D020318A62D0130CC
:102B40004001EF006F084101ED07F42D0A3040010C
:102B5000EF006F084101ED00F42D5C080319C32D4F
:102B60005608860057088700453112300106031DBC
:102B7000C32D02306D02031CC02D0130ED02F42D77
:102B8000ED01ED0AF42D5D080319E12D56088600CC
:102B900057088700453111300106031DE12D0A3029
:102BA0006C020318DA2D01304001EF006F0841017B
:102BB000EC07F42D0A304001EF006F084101EC00F2
:102BC000F42D5C080319F42D560886005708870079
:102BD000453111300106031DF42D6C080319F32D46
:102BE0000130EC02F42DEC015608860057088700EE
:102BF000453112300106031D072E8E30A000A03093
:102C0000A1009D310625953141016D08102E9230AD
:102C1000A000A030A1009D310625953141016C082E
:102C200094319A2495318031022008004001A80097
:102C30002808031DA31F2C2E2009AA002109AB0080
:102C40002209AC002309AD00AA0A0319AB0A031933
:102C5000AC0A0319AD0A342E2308AD002208AC00DB
:102C60002108AB002008AA00230822042104200424
:102C7000031D432E0030A3000030A2000030A1004D
:102C80000030A00008009630A4002408A900FE30FF
:102C90002D0503196A2E0130A4002408A90701306C
:102CA000AD36AC0CAB0CAA0C890B502E472E013064
:102CB000A4002408A9070130AA070030AB3D00306A
:102CC000AC3D0030AD3D0130AD36AC0CAB0CAA0CC8
:102CD000890B642EFF302D0503197C2E572E0230F0
:102CE0002902031C7E2E0130A9020130AA35AB0D4A
:102CF000AC0DAD0D890B762EAC1F6F2E2918882ECA
:102D0000FF30AA05FF30AB057F30AC05FF30AD05C5
:102D10000310A90C2908A400A501A601A7011830D9
:102D2000A435A50DA60DA70D890B902E2408AA0485
:102D30002508AB042608AC042708AD042808031DA9
:102D4000A31FA32EAD172D08A3002C08A2002B084B
:102D5000A1002A08A00008004001E2005A088600ED
:102D60008701403FDC00413FDD005C0884005D08D6
:102D700085001200253A031D312F5A08860087016D
:102D80000130810741310318810A4201A201A301E8
:102D9000A601A701FF30A400FF30A50040015A089A
:102DA00086008701403FDC00413FDD005C08840075
:102DB0005D0885001200633A031DFF2E5A08860045
:102DC00087010130810741310318810A5B088600C1
:102DD0008701010884008501023081070008DC00BA
:102DE0005C08E1006108DC005C08D40062089031F6
:102DF0000E2040015508DB005408DA0008005A088C
:102E000086008701403FDC00413FDD005C08840014
:102E10005D0885001200253A031D262F5A088600FA
:102E200087010130810741310318810A2530BB0039
:102E30000030BC006208DC005C08BD009131432119
:102E400001304001DA000030DB0008005A0886003B
:102E500087010130810741310318810ADA01DB0162
:102E600008005A0886008701403FDC00413FDD0032
:102E70005C0884005D0885000008DE00DF015E0854
:102E8000BB005F08BC006208E0006008BD00913133
:102E90004321963140015A0886008701013081079D
:102EA00041310318810A202F93316D23973141015D
:102EB00060089C3174249731003A03199A2F9B3192
:102EC000C323973141015208400120024201ED0025
:102ED000410153084001213B4201EE006E084101CF
:102EE0006902031D772F42016D0841016802031832
:102EF0009A2F9E31A22697319B31C32397314001EF
:102F000021084101D300400120084101D200690895
:102F1000803A4201ED0080306D02031D922F153082
:102F200041016802031C0800FF304101E807FF303F
:102F3000E93D080041015F089C3174249731003A53
:102F40000319C02F9B31C32397314101520840011F
:102F500020024201ED00410153084001213B4201A2
:102F6000EE006E0841016902031DBA2F42016D088F
:102F7000410168020318C02F9E31822697317C2FB1
:102F800041015E089C3174249731003A0319CE2F19
:102F900001304101EA000030EB00080041015D080A
:102FA0000319E02F9E31A22697319B31C3234001A4
:102FB00021084201B500400120084201B400080088
:102FC0005C080319E62F9E31822608005D08031D68
:102FD0005C08031D08005F089C3174249731003A97
:102FE000031D0800410160089C3174249731003AA8
:102FF000031D080064304101E8000030E9000800CA
:10300000003482342134003400340034003402347B
:1030100039340F3400340034003440348034003408
:103020003F3406345B344F3466346D347D340734BA
:103030007F346F3400340034003448340034533467
:10304000003477347C3439345E34793471346F34FD
:10305000763406341E3400343834003454343F346B
:103060007334673450346D3478343E340034003473
:1030700000346E340034393400340F3400340834F2
:1030800063345F347C3458345E347B3471346F3451
:10309000743402341E3400340634003454345C3446
:1030A0007334673450346D3478341C340034003455
:1030B00000346E340034393430340F34003400348A
:1036D400080008000800F001F00A08009D314725A1
:1036E40008004E018F10080041016A0808004201D9
:1036F4001D121D16080041016608031908007D2BE0
:1037040001304201B6070030B73D08008230400165
:10371400A0001B30A1009B31CC23080041015608B6
:103724008600570887004531010808004101CD0192
:10373400CE01CF01CC01400194120800643400345E
:1037440001340034053401340134053440012108C6
:103754004201E200400120084201E100080040016A
:10376400210841018F004001200841018E0008001A
:103774004001A000200841019F004201911711144B
:103784000800420137084001A10042013608400107
:10379400A0000800400121084201E4004001200883
:1037A4004201E3000800410158080319DC2BD80149
:1037B4000130080000300800400121084201E60001
:1037C400400120084201E5000800400121084501AC
:1037D400E100400120084501E00008004001210803
:1037E4004401ED00400120084401EC0008004001C0
:1037F40021084501E300400120084501E2000800DA
:10380400603051018D008F019101063093009201C7
:1038140008004F0196019701980199019A019B01B3
:103824009C019D0108008C3046018E008D018C01A5
:1038340044011E08FC3901389E0008008C30460102
:1038440092009101900144011E08F33904389E004E
:1038540008008C30460196009501940144011E082D
:10386400CF3910389E00080041014F08B9004E08B6
:10387400B8004D08B7004C08B6008631442608004D
:103884006400800101310130FE020030FF3B7F08FB
:103894007E0403190034432CFE0012001E00013084
:1038A400FE020030FF3B7F087E04031900344F2CD6
:1038B4004E018D1042016108620403190800620878
:1038C4008A0061080A009C3108004E018C124201F2
:1038D400630864040319080064088A0063080A0082
:1038E4009C3108004001A0002008073E86000230F9
:1038F400870003300106031D812C013008000030CD
:1039040008000430F7007708F20701304101E502AE
:10391400031D912C0430F7007708E6000800E60147
:10392400E60A0800400112157E01381139154001DC
:103934001414941414157E014E10CE104E114F140D
:10394400CF144F1508004001B8003608E03E84004B
:1039540097300318013E85000008B7003708B0000F
:103964003808343E9D31AD2508003E304001A000AA
:103974001030A1009B31DE239C3141016B084001D2
:10398400B70041016A084001B6008931532108009B
:103994004001A0002008073E860002308700010392
:1039A400031DDC2C2008073E8600023087008101BD
:1039B400013008000030080045304B019F00F93009
:1039C4009D009C014E018C1296166C304001A000A3
:1039D4001B30A1009B31CC2380304B019E0008009A
:1039E40001309D311B259C3179304101A000A0306C
:1039F400A1009D3106259C3147304101A000A03033
:103A0400A1009D3106250800A2304001EB006B089F
:103A1400EE00410121084001E40041012008400179
:103A2400E3006E30EB006B08E50000309F31D127D6
:103A340008004001B60036080319292DB001B00A68
:103A440024309D31AD254201BD01BD0A0800B001FD
:103A540024309D31AD254201BD01080042016C08AE
:103A64004001A10042016B084001A0009B31B12339
:103A74009D316D304001A0001B30A1009B31A82373
:103A84009D310F309B31BA23080042011908F70019
:103A94007408203E860002308700770881000130D8
:103AA400F7007708F407083074020318F4010130B2
:103AB400F70077084101E707080040012108A40046
:103AC4002008A3002008840021088500120003199F
:103AD400702D0130A0070030A13D642D2308200281
:103AE400A0002408213BA1000800F800430111159F
:103AF4007108023E860001308700010803198E2DEB
:103B04007808F7007108023E86000130870001083A
:103B140086008701770881004101E60108005E30D4
:103B24004001A00020084101C8005E304001A0000F
:103B340020084101C700C9144910CB0143018F017A
:103B44002830900092014F308D004E010F108F10DD
:103B54001914991408004001B4000230B10031086E
:103B6400B500A701A70A3408B100B2013108A800C2
:103B74003208A9003530B3003308AA0030309F3131
:103B84007A279D31023040013506031D0800C42DFB
:103B9400003041012102803003192002031808007B
:103BA400FF30A0050330A10546010E1EDF2D0630AF
:103BB4004101A035A10D890BDB2D410121084601EE
:103BC4008D004101200846018C00080000304101AD
:103BD400210280300319200203180800FF30A005D9
:103BE4000330A1054601121EFD2D06304101A0350A
:103BF400A10D890BF92D41012108460191004101D4
:103C04002008460190000800003041012102803064
:103C14000319200203180800FF30A0050330A10592
:103C24004601161E1B2E06304101A035A10D890B3D
:103C3400172E410121084601950041012008460143
:103C44009400080000304101210280300319200251
:103C540003180800FF30A0050330A10546011A1E11
:103C6400392E06304101A035A10D890B352E4101B5
:103C740021084601990041012008460198000800E6
:103C84004001A40024088600023087002008C03FB9
:103C94002108C13F2208A3002408023E8600023006
:103CA4008700230881002408033E86000230870031
:103CB40081012408073E8600023087008101080044
:103CC4004001A800A401A5012008A200A301220824
:103CD400A6002308A700281C732E2608A40727087B
:103CE400A53D0130A635A70D890B742E0310A80C31
:103CF4002808031D6D2E2508A1002408A000080033
:103D040041016A036B04031D8C2E0030EA0002306B
:103D1400EB00902E0130EA020030EB3B9630A0001D
:103D2400A030A1009D3106259E3141016B08400160
:103D3400B70041016A084001B60088310B20080031
:103D4400023041016B066A04031DAD2E0130EA0006
:103D54000030EB00B12E0130EA070030EB3D963025
:103D6400A000A030A1009D3106259E3141016B08C1
:103D74004001B70041016A084001B60088310B20B8
:103D840008004001A6002308A5002208A400A435C9
:103D9400A50D26088600013087002408C03F2508A9
:103DA400C13F2108A4002608023E86000130870096
:103DB400240881002008A4002608033E8600013060
:103DC40087002408810008004001BA000430410142
:103DD40059020318F42E0D3040013A06031D3A0827
:103DE400031DF62E4101D9010D3040013A06031995
:103DF40008003A08B9003908B600410159089C3155
:103E0400A52401304001B90039084101D90708004F
:103E14009C310B249F319031D8209F319C31022456
:103E24009F319D3191259F319C3115249F319C31C7
:103E340020249F319F3154279F31883100209F31A6
:103E44009C312B249F31903100209F319C31DE2402
:103E54009F3190316F2008004001CA00C801C90198
:103E640048084A07C4004408860002308700010855
:103E7400C5004508C7004708031908004708C400DF
:103E8400C5014408BB004508BC004308C6004608F9
:103E9400BD00913143219F3101304001C8070030FA
:103EA400C93D322F41018C018D018E018F01920198
:103EB400930198019A019F0142018C018D018E01A9
:103EC4008F01900192015430930056309400950173
:103ED400960197019801D43091004E018D109714EA
:103EE4006A304001A0001B30A1009B31A8230800C8
:103EF4004001AD00410149189D2F40012D08AB0040
:103F04002B08A0002708AC002C08A1002908A30056
:103F14002808A200EC309E31C3269F31EC304001CA
:103F2400AB002B08A0002A08AC002C08A10001302B
:103F34008731A427080040012A08860087018101EF
:103F4400810A08004001280829040319CC2FAD0177
:103F5400AD0AA91BB72F0130A835A90D890BAE2FC7
:103F64000130AC002C08AD07AB2F29082B02031D30
:103F7400BD2F28082A02031CC32F2808AA022908D7
:103F8400AB3B0130A936A80C890BC42F0130AD021C
:103F9400031DB72F2B08A9002A08A8000800400118
:103FA400E8006408EA006308E9004201A001A101F5
:103FB4004001690884006A08850012000319F72F7C
:103FC4006930E6006608DA006508E7006708DB0088
:103FD40068089631AC269F3140015A084201A00777
:103FE40040015B084201A13DDA2F42012108400152
:103FF400E400420120084001E30008002534633452
:104004002534633425346334253463340D34003467
:1040140025346334253463342534633420340D3437
:104024000034203425346334253463342534633434
:104034000D340034483445345934593459345934DE
:1040440059345934003425346334253463342034EA
:1040540020340D34003420342034253463342534A2
:1040640063340D3400342534633420342034203454
:104074000D340034203420342034253463340D349A
:10408400003420342034203420340D3400344234BD
:104094002034203420340D3400344334203420348C
:1040A40020340D34003450344334203420340D345F
:1040B40000344C344534443420340D340034413419
:1040C4004E34493420340D34003441344C344C34AF
:1040D40020340D34003446344134443445340D34F2
:1040E400003442344534413454340D3400342034E3
:1040F400203420342034003441342D340D34003441
:1041040042342D340D34003443342D340D34003412
:1041140046342D340D34003441346E340D340034BF
:10412400423472340D34003464340D340034623457
:104134000D34003467340D34003468340D340034E5
:020000040001F9
:0A000E00EC3FFF3F9F3FFF3FFF3F25
:00000001FF
