:020000040000FA
:1000000080313028080008007E1480314E01961A95
:100010008C1E0E288A31E72280312E280B1F2E28B5
:1000200099188F1C17288931F42180312E2819182E
:100030000F1C1E288031772080312E2897188D1CA8
:1000400025288A31DA2280312E28991A8F1E2E28EF
:1000500042015F088A005E080A0080317E100900B4
:1000600080313228813084008A308500D430860087
:10007000003087000030FF000A308A31CE22803104
:10008000EE308400233085000230FE000430FF0093
:100090008A31C2228031F001F101F201F301F40151
:1000A000F501F601EF01A030840000308500343006
:1000B000FE000030FF008A31C222803120308400EF
:1000C000013085003830FE000030FF008A31C22246
:1000D0008031A0308400013085002030FE000030E7
:1000E000FF008A31C2227E1040018E317A2E4E01ED
:1000F0000F104301901F982990134101CE014B0826
:10010000023E860087010108860087018101810A7D
:10011000CB010800A21808002108F9007908CB00DB
:100120002108860087010108F9007908CD0021081F
:1001300086008701413FCC000330F9007908A10710
:100140002108D43A031DA828D130F9007908A1006C
:100150002210210820060319A214430111140230B1
:10016000F90079084101CE00080041294301111F1F
:10017000C2280130F90079084101A40704308B310D
:10018000C22308007608FA007508F900FA36F90C5F
:1001900079088C00751CD2280B30F90079084101D0
:1001A000CE0008000330F90079084101CE000800B4
:1001B0004301111FE4280130F90079084101A40727
:1001C00004308B31C223080091147608FA007508B8
:1001D000F9007A08F900FA0106307905FB000030D1
:1001E0007A05FC00F0307B04F50000307C04F6005A
:1001F00075144101C801C80AAF284803031916291C
:100200004C08860001308700403FF500413FF60072
:100210004C088600013087000130433FCA004C087B
:100220008600013087000130423FC9007508430154
:100230008C00751CD2280530F90079084101CE00E8
:1002400008004301111F2F290130F90079084101ED
:10025000A4074301111305308B31C223080001307C
:100260004101C902490A031D44290430F9007908F3
:10027000CC070130CD02031D412900308B31C22350
:10028000080043019114AF284A088600870101083D
:1002900043018C000130F90079084101CA070800C8
:1002A0004301111F5E290130F90079084101A407BB
:1002B00004308B31C223430111130800911508301B
:1002C000F90079084101CE0008000830F9007908EA
:1002D000CE0043019115080043010C08F9004101CB
:1002E0004A0886008701790881000130F900790801
:1002F000CA070130C902031985294301911206304A
:10030000F90079084101CE008929430191168B310A
:10031000112343011116080000308B31C22308005D
:100320000130F9007908A40706308B31C223080098
:1003300041014E08F900FA017A08003A0319A1298F
:1003400090297908003A03198A28013A0319B52837
:10035000033A0319FD28013A03192129073A031921
:100360008C29013A03195029033A03196529013AE6
:1003700003198C290F3A03196C29023A0319B6287C
:10038000013A0319D828902908008A312F22813197
:1003900041012D0840012002A20041012E08400128
:1003A000213BA30000302302643003192202031C06
:1003B00008008A312F228131400121084101AE001D
:1003C000400120084101AD008A314A228131003AC2
:1003D000031D062A00304001A000A1008C317524C5
:1003E000813100304001A000A1008C319324813183
:1003F00000304001A000A1008C31B12481310030D7
:100400004001A000A1008C31CF24080070037104CA
:10041000031D7C2A78304001A0000030A1008C31FF
:100420007524813100304001A000A1008C3193245B
:10043000813100304001A000452A00304001A00079
:10044000352A78304001A0000030A1008C3175249D
:10045000813100304001A0003D2A00304001A00061
:10046000512A78304001A0000030A1008C31752461
:10047000813178304001A0000030A1008C319324FC
:10048000813178304001A0000030A1008C31B124CE
:10049000813100304001A000742A78304001A00072
:1004A0000030A1008C317524813100304001A00062
:1004B000642A00304001A000A1008C3175248131F4
:1004C00078304001A0000030A1008C3193248131AC
:1004D00078304001A0000030A1008C31B12481317E
:1004E00078304001A0000030A1008C31CF240130D1
:1004F000F0070030F13D0800023070067104031966
:100500001D2A0330700671040319212A0430700675
:10051000710403192D2A0530700671040319312A5C
:1005200006307006710403194D2A083070067104F4
:100530000319592A78304001A0000030A1008C3105
:100540007524813178304001A0000030A1008C3149
:100550009324813178304001A0000030A1008C311B
:10056000B124813178304001A0000030A1008C31ED
:10057000CF240130F0000030F10008008A312F2232
:10058000823140012108A7002008A60041013F0850
:1005900040012602A200410140084001273BA30080
:1005A00000302302053003192202031C080027082B
:1005B0004101C000400126084101BF004001A501E2
:1005C0002508A2000230A235FF3E031DE32A223592
:1005D000303EA3002308A8002808860001308700C9
:1005E000403FA200413FA300220886002308870065
:1005F0000130A4002808023E840001308500000A72
:10060000022BA435890B012B24080105031D212B86
:100610002808033E8600013087008101810A2808EE
:10062000073E8600013087000108031D272B28089C
:10063000053E8600013087002608C03F2708C13FDD
:10064000272B2808033E86000130870081012808F7
:10065000033E8600013087000108031D3F2B280858
:10066000043E8600013087000103031D3F2B28084C
:10067000073E8600013087008101810A8C2B280803
:10068000033E8600013087000103031D6D2B2808FF
:10069000043E8600013087000103031D6D2B2808EE
:1006A000053E860001308700403F2602A200413F00
:1006B000273BA30001302302F53003192202031C5B
:1006C000632B0330642B0230A2002808073E86000B
:1006D00001308700220881008C2B2808033E860009
:1006E000013087000108031D8C2B2808043E86007A
:1006F000013087000103031D8C2B2808073E86006C
:100700000130870003300106031D8C2B2808073EAB
:1007100086000130870081012808033E86000130F1
:1007200087000108A2002808043E860001308700E7
:10073000220881000130A2002208A507043025020A
:1007400003180800E02A4001B901B90A73088B3187
:1007500045238331003A0319BC2B8C312324833188
:100760008A312F228331400121084101BA00400122
:1007700020084101B9003A2C72088B31452383319E
:10078000003A0319C72B8B31DA2383313A2C7308D3
:100790008B3102238331003A0319072C8A312F222F
:1007A000833141013B0840012002B70041013C0870
:1007B0004001213BB800380841015B02031DE42BD6
:1007C0004001370841015A020318072C8C312324B9
:1007D00083318A312F228331400121084101BC003D
:1007E000400120084101BB005B08803A4001B7008E
:1007F00080303702031DFF2B013041015A02031CD8
:100800003A2CFF304101DA07FF30DB3D3A2C720809
:100810008B3102238331003A03192A2C8A312F228B
:10082000833141013B0840012002B70041013C08EF
:100830004001213BB800380841015B02031D242C14
:100840004001370841015A0203182A2C8B31DA2360
:100850008331E92B410146088B3102238331003A71
:100860000319382C01304101DC000030DD003A2C46
:100870004001B90173088B3102238331003A031D13
:100880004D2C72088B3102238331003A031D4D2C0D
:1008900064304101DA000030DB00400139080319FF
:1008A0005C2C8A312F228331400121084101BA009A
:1008B000400120084101B9008A312F2283314101D2
:1008C000390840012002B70041013A084001213BAC
:1008D000B80013303802883003193702031C812C0A
:1008E00000308B31812383318A312F22400120084F
:1008F000773E4101B900EC304001213D4101BA0091
:10090000080001308B31812308008A312F22843185
:100910004101330840012002A80041013408400190
:10092000213BA9004101570840012902031D9C2CCD
:100930004101560840012802031C08008A312F2279
:100940008431400121084101B400400120084101E7
:10095000B3004203031DB12C0130B1070030B23D9A
:10096000B72CB101B2011430D6000030D7004203D9
:10097000031DFC2C4108031DFC2CC301C30A643079
:10098000D6000030D7008A312F2284314101370848
:1009900040012002AA00410138084001213BAB0080
:1009A0008A312F228431400121084101B8004001E1
:1009B00020084101B700003040012B029630031996
:1009C0002A020318E92C90304101B5000130B6002D
:1009D000FC2C2B08A1002A08A0006030A200EA30FD
:1009E000A3008E31AB268431400121084101B600BD
:1009F000400120084101B50042084001A800280834
:100A00004101C100C2013208803A4001A800803093
:100A10002802031D0E2D043041013102031C2D2D2F
:100A200001304101D8070030D93D59084001A100EB
:100A3000410158084001A0008A311D228431410142
:100A4000B101B2018A312F22400121084101B800D1
:100A5000400120084101B70008008A312F2284316B
:100A60004101370840012002A80041013808400137
:100A7000213BA90003302902E93003192802031C95
:100A8000080001304101D8020030D93B590840012B
:100A9000A100410158084001A0008A311D22080030
:100AA000273040013502103003193402031C7B2D1E
:100AB0007930B6003608AE0034308C315824853198
:100AC00079304001B6003608AE0035308C315824FC
:100AD000853179304001B6003608AE0036308C31B1
:100AE0005824853179304001B6003608AE003730E1
:100AF0008C31582408000A30A8000030A9003508BD
:100B0000AB003408AA008D31EE258531400129085B
:100B1000850028088400CA3084078630853D000897
:100B2000B6003608AE0037308C31582485310A3093
:100B30004001A8000030A9000A30A0000030A10048
:100B40003508A3003408A2008E31AB268531400160
:100B50002108AB002008AA008D31EE258531400127
:100B60002908850028088400CA3084078630853D1E
:100B70000008B6003608AE0036308C315824853176
:100B80000A304001A8000030A9006430A000003005
:100B9000A1003508A3003408A2008E31AB268531B0
:100BA00040012108AB002008AA008D31EE258531D7
:100BB00040012908850028088400CA30840786304F
:100BC000853D0008B6003608AE0035308C3158241B
:100BD00085310A304001A8000030A900E830A000AB
:100BE0000330A1003508A3003408A2008E31AB26E3
:100BF000853140012108AB002008AA008D31EE2587
:100C0000853140012908850028088400CA308407FE
:100C10008630853D0008B6003608AE0034308C3191
:100C2000582408004001E000580886008701403F32
:100C3000DA00413FDB005A0884005B08850012009F
:100C4000253A031D972E5808860087010130810739
:100C500041310318810A4101A701A801AB01AC0190
:100C6000FF30A900FF30AA00400158088600870124
:100C7000403FDA00413FDB005A0884005B088500F2
:100C80001200633A031D652E580886008701013063
:100C9000810741310318810A59088600870101083C
:100CA00084008501023081070008DA005A08DF005D
:100CB0005F08DA005A08D20060088E314A264001E7
:100CC0005308D9005208D800080058088600870148
:100CD000403FDA00413FDB005A0884005B08850092
:100CE0001200253A031D8C2E58088600870101301A
:100CF000810741310318810A2530B9000030BA005C
:100D00006008DA005A08BB008F31812701304001AA
:100D1000D8000030D900080058088600870101304B
:100D2000810741310318810AD801D9010800580808
:100D300086008701403FDA00413FDB005A0884000B
:100D40005B0885000008DC00DD015C08B9005D0877
:100D5000BA006008DE005E08BB008F318127863153
:100D6000400158088600870101308107413103188E
:100D7000810A862E00348234213400340034003459
:100D80000034023439340F34003400340034403439
:100D9000803400343F3406345B344F3466346D3471
:100DA0007D3407347F346F340034003400344834E9
:100DB00000345334003477347C3439345E3479343D
:100DC00071346F34763406341E34003438340034D1
:100DD00054343F347334673450346D3478343E3493
:100DE0000034003400346E340034393400340F34AD
:100DF0000034083463345F347C3458345E347B34DC
:100E000071346F34743402341E34003406340034C8
:100E100054345C347334673450346D3478341C3457
:100E20000034003400346E340034393430340F343C
:100E3000003400344001D10041012B1C282F400117
:100E40005108CC004C08C10049088D319E258731DE
:100E50004001CB1B302F4B08D0004A08CF00322F67
:100E6000CF01D001CD01CE014E08803ACC00500810
:100E7000803A4C02031D3E2F4F084D020318522F9B
:100E800020304001B9000030BA005108CC004C08B5
:100E9000BB008F318127873101304001CD07003001
:100EA000CE3D342F41012B185E2F40015108CC005C
:100EB0004C08C10049088D319E2587314001490801
:100EC000A0000130A1008B31F22340014F08200720
:100ED000C9005008213DCA0008004001A30041019B
:100EE0002218AC2F02304001A200210886008701A1
:100EF000220881002008A2004101200A8600870103
:100F00004001220881002308A20041012008860038
:100F100087014001220881002108A2004101200828
:100F2000023E860087014001220881000330A200B2
:100F300022084101A0072008D43A031DA52FD13073
:100F40004001A20022084101A000A21021082006B1
:100F5000031DB22F2214B22F400121088600870101
:100F60008101810A400121088600870102300106C3
:100F7000031D08008931FF214E010F1408004001B4
:100F80006F08203E860001308700810142011D1D4F
:100F9000D62F40016F08203E860001308700811463
:100FA00042015D088A005C080A00873142019D1CED
:100FB000E62F40016F08203E8600013087000115B2
:100FC00042015B088A005A080A00873140016F0815
:100FD000203E86000130870001080319F62F4201E8
:100FE00059088A0058080A00873108008C310A2401
:100FF000080001304101BD070030BE3D0800080077
:1013E2008C310A2408004E018F1008004101C2010D
:1013F200C20A080042011D121D16080041014E08D2
:1014020003190800FF29F9304001A0000730A100AC
:101412008A31382208004A304001A0000F30A10072
:101422008A3141220800400121084101E9004001BE
:1014320020084101E80008004001210841018F0015
:101442004001200841018E0008004001A000200850
:1014520041019F00420191171114080041013E0809
:101462004001A10041013D084001A00008004001E7
:1014720021084101EB00400120084101EA00080077
:10148200400121084201DF00400120084201DE0044
:101492000800410143080319512AC3010130080021
:1014A20000300800400121084201D9004001200813
:1014B2004201D8000800400121084201DD0040013C
:1014C20020084201DC000800400121084201DB0043
:1014D200400120084201DA000800603051018D000D
:1014E2008F01910106309300920108004F0196018D
:1014F2009701980199019A019B019C019D010800A5
:10150200013400340A340034903406346434003434
:101512000134003441015D084001B50041015C081D
:101522004001B4008531502508008C3046018E0000
:101532008D018C0144011E08FC3901389E0008000F
:101542008C30460192009101900144011E08F3394A
:1015520004389E0008008C304601960095019401E3
:1015620044011E08CF3910389E0008008C30460115
:101572009A009901980144011E083F3940389E00A3
:1015820008006400800101310130FE020030FF3B9F
:101592007F087E0403190034C32AFE0012001E00D5
:1015A2000130FE020030FF3B7F087E040319003445
:1015B200CF2A4E018D104101680869040319080001
:1015C20069088A0068080A008A3108004E018C12F4
:1015D20041016A086B04031908006B088A006A0853
:1015E2000A008A3108000130450190008F01910103
:1015F200FF308D008C014E019010D03045018E00DD
:1016020008004001A0002008073E86000130870044
:1016120003300106031D0F2B0130080000300800C3
:101622000430F70077084101CC070130CD02031DD9
:101632001F2B0430F7007708CE000800CE01CE0A37
:101642000800400112157E013811391540011414A9
:10165200941414157E014E10CE104E114F14CF1457
:101662004F1508004001B60034089A3E84008630C7
:101672000318013E85000008B5003508AE003608A3
:10168200343E8C31582408004001A0002008073E57
:101692008600013087000103031D572B2008073EF7
:1016A2008600013087008101013008000030080007
:1016B20045304B019F00F9309D009C014E018C1278
:1016C2009616FF304001A0000730A1008A3138226F
:1016D20080304B019E00080001308B3181238B3119
:1016E20049304101DE009030DF008B3196238B318F
:1016F20047304101DE009030DF008B319623080035
:101702004001B400340803198F2BAE01AE0A243015
:101712008C3158244101C501C50A0800AE012430AC
:101722008C3158244101C5010800E0304001E90034
:101732006908EC0041015F084001E20041015E08D6
:101742004001E1006C30E9006908E30000308E31AD
:101752001B260800410159084001A1004101580817
:101762004001A0008A311D228B31F7304001A000D8
:101772000930A1008A3114228B310F308A3126229E
:101782000800F8004301111541014B08023E860092
:10179200870101080319D82B7808F7004B08023E8D
:1017A2008600870101088600870177088100CE0143
:1017B200080041015C035D04031DE42B0030DC00E2
:1017C2000230DD00E82B0130DC020030DD3B5D0839
:1017D2004001B50041015C084001B400853150254B
:1017E200080040012108A4002008A300200884006A
:1017F2002108850012000319032C0130A0070030D4
:10180200A13DF72B23082002A0002408213BA100C0
:10181200080042011908F70040016F08283E8600BF
:1018220001308700770881000130F7007708EF0761
:1018320008306F020318EF010130F7007708410109
:10184200D0070800023041015D065C04031D2E2C06
:101852000130DC000030DD00322C0130DC070030CA
:10186200DD3D5D084001B50041015C084001B40066
:10187200853150250800D1304001A00020084101E7
:10188200A100D1304001A00020084101A000A21413
:101892002210A40143018F012830900092014F30A1
:1018A2008D004E010F108F10191499140800400179
:1018B200B2000230AF002F08B300A701A70A320816
:1018C200AF00B0012F08A8003008A9003330B100E2
:1018D2003108AA002E308D31C4258C3102304001EE
:1018E2003306031D08006F2C0030400121027930BD
:1018F2000319200203180800FF30A0050330A105D8
:1019020046010E1E8A2C06304001A035A10D890B1E
:10191200862C4001210846018D0040012008460125
:101922008C000800003040012102793003192002A6
:1019320003180800FF30A0050330A1054601121E5E
:10194200A82C06304001A035A10D890BA42C400122
:10195200210846019100400120084601900008003C
:1019620000304001210279300319200203180800D7
:10197200FF30A0050330A1054601161EC62C063015
:101982004001A035A10D890BC22C4001210846015E
:1019920095004001200846019400080000304001F3
:1019A200210279300319200203180800FF30A00534
:1019B2000330A10546011A1EE42C06304001A03571
:1019C200A10D890BE02C400121084601990040013C
:1019D20020084601980008004001A400240886005F
:1019E200013087002008C03F2108C13F2208A30020
:1019F2002408023E86000130870023088100240863
:101A0200033E86000130870081012408073E8600DC
:101A120001308700810108004001A6002308A500CB
:101A22002208A400A435A50D2608860001308700EF
:101A32002408C03F2508C13F2108A4002608023E11
:101A4200860001308700240881002008A4002608AF
:101A5200033E8600013087002408810008008A3195
:101A620077228D318F3115278D318A316E228D315A
:101A72008C313C248D318A3196228D318A31A122DA
:101A82008D318D3178258D318A31B7228D318A3170
:101A9200AC228D318A31F4228D318B3159238D3133
:101AA2008E31E02608004001B800043041014402B2
:101AB2000318622D0D3040013806031D3808031D3E
:101AC200642D4101C4010D3040013806031908009C
:101AD2003808B7003708B400410144088B3133237A
:101AE20001304001B70037084101C4070800410135
:101AF2008C018D018E018F019201930198019A014F
:101B02009F0142018C018D018E018F019001920192
:101B12005430930056309400950196019701980134
:101B2200D43091004E018D10971402304001A00074
:101B32000030A1008A31142208004001C600C7010A
:101B4200C80147084607C2004208860001308700E4
:101B52000108C3004308C5004508031908004508E9
:101B6200C200C3014208B9004308BA004108C400D8
:101B72004408BB008F3181278D3101304001C707F6
:101B82000030C83DA22D4001AD0041012218E72DD1
:101B920040012D08AB002B08A0002708AC002C0840
:101BA200A1002908A3002808A20054308D310D2578
:101BB2008D3154304001AB002B08A0002A08AC0044
:101BC2002C08A100013087316D27080040012A0846
:101BD200860087018101810A080040012808290442
:101BE2000319162EAD01AD0AA91B012E0130A8352D
:101BF200A90D890BF82D0130AC002C08AD07F52D8D
:101C020029082B02031D072E28082A02031C0D2E69
:101C12002808AA022908AB3B0130A936A80C890B77
:101C22000E2E0130AD02031D012E2B08A9002A0839
:101C3200A80008004001E6006208E8006108E70029
:101C42004101A501A60140016708840068088500DA
:101C520012000319412E6730E4006408D8006308BB
:101C6200E5006508D9006608863112268E314001EA
:101C720058084101A507400159084101A63D242EFB
:101C8200410126084001E200410125084001E1002E
:101C920008004001D500410127082804031D592EE0
:101CA20028084001D700410127084001D600622ED2
:101CB2002708FF3E4001D600FF304101283D400188
:101CC200D7005208D40054084301A000A101A0305B
:101CD2004001D4005408C9005708CB005608CA0076
:101CE200550887311A2740014A08D3004908D20013
:101CF20008008D3130258E3115304001EE004B3019
:101D0200ED00BE30890B832EED0B832EEE0B832E5E
:101D120000008A3104228E318F31B8278E318A3108
:101D22000C228E318B170B178B316D238E318A313A
:101D32008B228E318B31AB238E318231BE228E319A
:101D42008331A3238E31843185248E318131C521A3
:101D52008E319E2E4001A501A601200821040319FF
:101D6200DB2EA701A70AA11BC02E0130A035A10DB1
:101D7200890BB72E0130A4002408A707B42E013026
:101D8200A535A60D890BC12E21082302031DCB2EDA
:101D920020082202031CD22E2008A2022108A33B03
:101DA20025140130A136A00C890BD32E0130A702D5
:101DB200031DC02E2608A1002508A00008004E0120
:101DC2009912BF304001A0000730A1008A314122A0
:101DD2008E31083042019F0090309D0004309E00F9
:101DE2001F309B009C0103304001A0000030A10085
:101DF2008A315C228E31FB304001A0000930A10003
:101E02008A3165228E31F1304001A0000930A100F3
:101E12008A3153224101CF014001EF01F401410116
:101E2200D0014E01991608004001980199019A01CA
:101E32003F309200F030930006309400FF307E0174
:101E4200CE00E030C3000730B800C401B901CF01B1
:101E5200BA01C501D0013730BB00F030C600FF30F7
:101E6200D10005307D01C50014307E0194000B3095
:101E7200A3000C30A400133095000930A5000A30ED
:101E8200A6000930A70004307D01C6000C30CB004B
:101E9200080042019D1C4F2F1D121D1641015408BE
:101EA2005504031D742F42011D19742F1908F700E0
:101EB200F80141013008FA002F08F900F935FA0D4E
:101EC200EE30FB002330FC0079087B0786007A089D
:101ED2007C3D87007708C03F7808C13F0130AF07DB
:101EE2000030B03D7E2F4101AF01B001D401D501D8
:101EF20042011908F7007708FD004E018F12080011
:101F020040013B08031D3B08031D8B2F39088D310F
:101F1200542508003B08033E860087011600010491
:101F22000319AE2F3B08033E86008701403FBC00E9
:101F3200413FBD003B0A86008701403FBE00413F52
:101F4200BF003F08803AC0003D08803A4002031DAE
:101F5200AC2F3C083E020318080040013B0A8600F1
:101F620087010130810741310318810A08003030AE
:101F72004001A50025084101C70038304001A500F5
:101F82002508F3004030A5002508F2004830A500DE
:101F920025084101C6000E304001A0000030A1001A
:101FA2000230A5002508A200410147088C31ED242A
:101FB2008F310C304001A0000030A1000230A5009A
:101FC2002508A200410146088C31ED248F310E30E4
:101FD2004001A0000030A100A20172088C31ED2462
:101FE2008F310E304001A0000030A100A201A20AF0
:101FF20073088C31ED248F318B3122230800253474
:1020020063342534633425346334253463340D3426
:102012000034253463342534633425346334203466
:102022000D340034203425346334253463342534AC
:1020320063340D34003448344534593459345934F6
:1020420059345934593400342534633425346334D3
:10205200203420340D3400342034203425346334C9
:10206200253463340D340034253463342034203471
:1020720020340D34003420342034203425346334A9
:102082000D34003420342034203420340D34003414
:0A20920020342034203420340034C0
:020000040001F9
:0A000E00EC3FFF3F9F3FFF3FFF3F25
:00000001FF
