:020000040000FA
:1000000080311E28013400347E1480314E01961A4E
:100010008C1E0E288E31EC2680311C280B1F1C28CC
:1000200099188F1C17288E31A32680311C28191887
:100030000F1C1C2880314C207E10090080312028A4
:10004000803102208031FA00803103208031FB00B2
:1000500041018E31A1268031D3008E31A22680311C
:10006000D400F601F701F801F9014001ED01EE01BC
:10007000EF01A03084000030850025308E31B1269C
:100080008031203084000130850040308E31B1262F
:100090007E1040018731412F4E010F104301901F08
:1000A0006B2990134001EF017608023E860087011C
:1000B0000108860087018101810AF60108004101DB
:1000C000A21808002108F2007208F6002108860034
:1000D00087010108F2007208B90021088600870133
:1000E000413FF7000330F2007208A1072108C53A2A
:1000F000031D7E28C230F2007208A10022102108E0
:1001000020060319A214430111140230F2007208F0
:100110004001EF00080013294301111F9828013006
:10012000F20072084101A40704308F31CC27080087
:100130007908F3007808F200F336F20C72088C00AC
:10014000781CA8280B30F20072084001EF0008006C
:100150000330F20072084001EF0008004301111F54
:10016000BA280130F20072084101A40704308F312F
:10017000CC27080091147908F3007808F20073087E
:10018000F200F30106307205F40000307305F5004B
:10019000F0307404F80000307504F900781441015F
:1001A000B601B60A8528410136030319E828770805
:1001B00086008701403FF800413FF900770886003C
:1001C0008701433FB800770886008701423FB700A8
:1001D000780843018C00781CA8280530F2007208CA
:1001E0004001EF0008004301111F01290130F20016
:1001F00072084101A4074301111305308F31CC2748
:10020000080001304101B702370A031D16290430E6
:10021000F2007208F7070130B902031D13290030FC
:100220008F31CC27080043019114852838088600B7
:100230008701010843018C000130F200720841017E
:10024000B80708004301111F30290130F20072087D
:100250004101A40704308F31CC274301111308005A
:1002600091150830F20072084001EF0008000830D4
:10027000F2007208EF0043019115080043010C08D9
:10028000F2004101380886008701720881000130C0
:10029000F2007208B8070130B70203195729430169
:1002A00091120630F20072084001EF005B29430111
:1002B00091168F313A2743011116080000308F3113
:1002C000CC2708000130F20072084101A407063073
:1002D0008F31CC27080040016F08F200F30173084A
:1002E000003A0319742962297208003A03195F2839
:1002F000013A03198B28033A0319D328013A031949
:10030000F328073A03195E29013A03192229033A0F
:1003100003193729013A03195E290F3A03193E29B7
:10032000023A03198C28013A0319AE286229080001
:100330008E31C726813140012108A7002008A60080
:1003400041012F0840012602A2004101300840016E
:10035000273BA30000302302053003192202031CAF
:10036000080027084101B000400126084101AF0004
:100370004001A5012508A2000230A235FF3E031D61
:10038000BD292235403EA3002308A8002808860086
:1003900001308700403FA200413FA30022088600B1
:1003A000230887000130A4002808023E84000130A1
:1003B0008500000ADC29A435890BDB292408010506
:1003C000031DFB292808033E8600013087008101B8
:1003D000810A2808073E8600013087000108031DB6
:1003E000012A2808053E8600013087002608C03F04
:1003F0002708C13F012A2808033E860001308700F4
:1004000081012808033E8600013087000108031D92
:10041000192A2808043E8600013087000103031DC5
:10042000192A2808073E8600013087008101810AC9
:10043000662A2808033E8600013087000103031D59
:10044000472A2808043E8600013087000103031D67
:10045000472A2808053E860001308700403F2602D3
:10046000A200413F273BA30001302302F5300319CE
:100470002202031C3D2A03303E2A0230A200280833
:10048000073E86000130870022088100662A28087E
:10049000033E8600013087000108031D662A2808F4
:1004A000043E8600013087000103031D662A2808E8
:1004B000073E86000130870003300106031D662ACF
:1004C0002808073E86000130870081012808033E86
:1004D0008600013087000108A2002808043E86003B
:1004E00001308700220881000130A2002208A50700
:1004F0000430250203180800BA29273040013502CC
:10050000103003193402031CA82A7930B6003608CB
:10051000AE0034308731CA27823179304001B600CD
:100520003608AE0035308731CA2782317930400134
:10053000B6003608AE0036308731CA2782317930AE
:100540004001B6003608AE0037308731CA270800B0
:100550000A30A8000030A9003508AB003408AA0012
:1005600086319B26823140012908850028088400B5
:10057000963084078430853D0008B6003608AE000A
:1005800037308731CA2782310A304001A800003055
:10059000A9000A30A0000030A1003508A3003408EB
:1005A000A20086310726823140012108AB002008D5
:1005B000AA0086319B26823140012908850028083F
:1005C0008400963084078430853D0008B6003608E4
:1005D000AE0036308731CA2782310A304001A80088
:1005E0000030A9006430A0000030A1003508A3004D
:1005F0003408A20086310726823140012108AB0071
:100600002008AA0086319B268231400129088500F6
:1006100028088400963084078430853D0008B600A1
:100620003608AE0035308731CA2782310A304001A2
:10063000A8000030A900E830A0000330A100350870
:10064000A3003408A2008631072682314001210828
:10065000AB002008AA0086319B2682314001290880
:10066000850028088400963084078430853D000882
:10067000B6003608AE0034308731CA270800400182
:10068000E000580886008701403FDA00413FDB0068
:100690005A0884005B0885001200253A031DC42B0C
:1006A0005808860087010130810741310318810A0B
:1006B0004101A701A801AB01AC01FF30A900FF3047
:1006C000AA004001580886008701403FDA00413FF8
:1006D000DB005A0884005B0885001200633A031DA2
:1006E000922B580886008701013081074131031899
:1006F000810A5908860087010108840085010230BB
:1007000081070008DA005A08DF005F08DA005A089B
:10071000D200600886313C2640015308D9005208B7
:10072000D8000800580886008701403FDA00413FA2
:10073000DB005A0884005B0885001200253A031D7F
:10074000B92B580886008701013081074131031811
:10075000810A2530B9000030BA006008DA005A0872
:10076000BB008531D02501304001D8000030D900D0
:1007700008005808860087010130810741310318BD
:10078000810AD801D9010800580886008701403F36
:10079000DA00413FDB005A0884005B08850000084E
:1007A000DC00DD015C08B9005D08BA006008DE000D
:1007B0005E08BB008531D025833140015808860092
:1007C00087010130810741310318810AB32B4001B1
:1007D0006E088F314D278331003A0319F32B8F3187
:1007E0009F278331FE2B40016D088F314D278331C8
:1007F000003A0319FE2B8F317527833140016E08B3
:100800008E31F9268331003A03195B2C8E31C726CD
:10081000833141012D0840012002B70041012E081B
:100820004001213BB800380841015402031D1C2C33
:10083000400137084101530203185B2C8F319F2779
:1008400083313D2C8E31C726833141012D08400173
:100850002002B70041012E084001213BB8003808B2
:1008600041015402031D382C400137084101530255
:100870000318632C8F31752783318E31C72683315E
:10088000400121084101AE00400120084101AD00B6
:100890005408803A4001B70080303702031D532CC2
:1008A000013041015302031C0800FF304101D3070E
:1008B000FF30D43D080040016D088E31F9268331A8
:1008C000003A031D222C410134088E31F926833170
:1008D000003A0319702C0130FA000030FB000800C8
:1008E00040016E088E31F9268331003A031D08005D
:1008F00040016D088E31F9268331003A031D08004E
:1009000064304101D3000030D40008000034823448
:1009100021340034003400340034023439340F34CC
:100920000034003400344034803400343F34063422
:100930005B344F3466346D347D3407347F346F3428
:1009400000340034003448340034533400347734F5
:100950007C3439345E34793471346F34763406340F
:100960001E3400343834003454343F347334673424
:1009700050346D3478343E340034003400346E34F6
:100980000034393400340F340034083463345F34B5
:100990007C3458345E347B3471346F3474340234B4
:1009A0001E3400340634003454345C3473346734F9
:1009B00050346D3478341C340034003400346E34D8
:1009C0000034393430340F34003400344001A30093
:1009D00041012218252D02304001A2002108860085
:1009E0008701220881002008A2004101200A860018
:1009F00087014001220881002308A200410120084C
:100A0000860087014001220881002108A2004101DF
:100A10002008023E86008701400122088100033041
:100A2000A20022084101A0072008C53A031D1E2D7F
:100A3000C2304001A20022084101A000A2102108FA
:100A40002006031D2B2D22142B2D4001210886008A
:100A500087018101810A4001210886008701023057
:100A60000106031D08008E31A6264E010F14080052
:100A70004001D10041012B1C462D40015108CC0002
:100A80004C08C100490887311B2785314001CB1B29
:100A90004E2D4B08D0004A08CF00502DCF01D00179
:100AA000CD01CE014E08803ACC005008803A4C026D
:100AB000031D5C2D4F084D020318702D203040019E
:100AC000B9000030BA005108CC004C08BB00853199
:100AD000D025853101304001CD070030CE3D522D6B
:100AE00041012B187C2D40015108CC004C08C1005D
:100AF000490887311B278531400149088731E7279D
:100B000040014F082007C9005008213DCA000800D5
:100B100040304001A50025084101B50048304001A2
:100B2000A5002508EE005030A5002508ED0058303E
:100B3000A50025084101B4000E304001A00000309E
:100B4000A1000230A5002508A20041013508873127
:100B5000AA2785310C304001A0000030A1000230EE
:100B6000A5002508A200410134088731AA27853154
:100B70000E304001A0000030A100A2016D088731B5
:100B8000AA2785310E304001A0000030A100A2014B
:100B9000A20A6E088731AA2785318F3117270800EE
:100BA00040013B08031D3B08031DDA2D390887313E
:100BB000662708003B08033E8600870116000104F3
:100BC0000319FD2D3B08033E86008701403FBC0012
:100BD000413FBD003B0A86008701403FBE00413FC8
:100BE000BF003F08803AC0003D08803A4002031D24
:100BF000FB2D3C083E020318080040013B0A86001A
:100C000087010130810741310318810A0800400142
:100C1000A601A701200821040319372EA501A50A62
:100C2000A11B1C2E0130A035A10D890B132E013004
:100C3000A4002408A507102E0130A635A70D890BA6
:100C40001D2E21082302031D272E20082202031C2B
:100C50002E2E2008A2022108A33B26140130A13623
:100C6000A00C890B2F2E0130A502031D1C2E270876
:100C7000A1002608A00008004001D7004101270874
:100C80002804031D4B2E28084001D60041012708E7
:100C90004001D500542E2708FF3E4001D500FF300B
:100CA0004101283D4001D6005208D40054084201B9
:100CB000A000A10120304001D4005408C90056080A
:100CC000CB005508CA0057088531382540014A082D
:100CD000D3004908D20008004001E6006208E8009D
:100CE0006108E7004101A501A601400167088400F1
:100CF0006808850012000319922E6730E40064082A
:100D0000D8006308E5006508D900660883313F23F1
:100D10008631400158084101A507400159084101A9
:100D2000A63D752E410126084001E200410125083B
:100D30004001E10008004001280829040319C32EDE
:100D4000AD01AD0AA91BAE2E0130A835A90D890B46
:100D5000A52E0130AC002C08AD07A22E29082B02CD
:100D6000031DB42E28082A02031CBA2E2808AA0242
:100D70002908AB3B0130A936A80C890BBB2E0130EA
:100D8000AD02031DAE2E2B08A9002A08A8000800FA
:100D90004001AD0041012218EB2E40012D08AB00AF
:100DA0002B08A0002708AC002C08A1002908A300EC
:100DB0002808A200BE3087318A278631BE30400124
:100DC000AB002B08A0002A08AC002C08A1000130C1
:100DD0008431E624080040012A0886008701810149
:100DE000810A08004001980199019A013F30920060
:100DF000F0309300FF309400FF307E01CE00F030E1
:100E0000C3000730B800C401B901CF01BA01C50160
:100E1000D0013730BB00F030C600FF30D1000530C4
:100E20007D01C50014307E0194001330950004301C
:100E30007D01C60008004001C800C601C701460880
:100E40004807C20042088600013087000108C3003D
:100E50004308C5004508031908004508C200C3013E
:100E60004208B9004308BA004108C4004408BB0066
:100E70008531D025873101304001C6070030C73D9C
:100E80001F2F8F310827873115304101D0004B309B
:100E9000CF00BE30890B4A2FCF0B4A2FD00B4A2FE1
:100EA00000008E31B72687318531882587318B1731
:100EB0000B178F31B52787318E31BF2687318131AE
:100EC000982187318331E72387315F2F4001B800B4
:100ED0000430410133020318742F0D3040013806ED
:100EE000031D3808031D762F4101B3010D30400169
:100EF0003806031908003808B7003708B400410164
:100F000033088F31282701304001B70037084101ED
:100F1000B30708004001A6002308A5002208A4008A
:100F2000A435A50D2608860087012408C03F2508A2
:100F3000C13F2108A4002608023E8600870124083C
:100F400081002008A4002608033E860087012408AB
:100F5000810008004001A4002408860001308700B9
:100F60002008C03F2108C13F2208A3002408023EF8
:100F7000860001308700230881002408033E860094
:100F80000130870081012408073E86000130870078
:100F9000810108004001B2000230AF002F08B30009
:100FA000A701A70A3208AF00B0012F08A800300837
:100FB000A9003330B1003108AA002E308631C8268E
:100FC0008731023040013306031D0800E12F400144
:100FD000A4002408A2002208A300240886000130EF
:100FE000870001080319F92F0130A2002208A40785
:100FF000ED2F23082402A000A101A01BA1030800DB
:101D40000800643400344E018F10080040016F0811
:101D500003190800A62E01304101B1070030B23D41
:101D60000800640080010131890BB22E0034AB30D1
:101D70004001A0000E30A1008E31D02608007B0863
:101D80004001B5007A08B40082317D22080041018B
:101D900032084001A100410131084001A0000800C3
:101DA000400121084101D200400120084101D10039
:101DB0000800603051018D008F01910106309300C1
:101DC000920108004F0196019701980199019A012B
:101DD0009B019C019D0108004E018C12410151089C
:101DE00052040319080052088A0051080A008E3173
:101DF00008004001A0002008073E8600013087004F
:101E000003300106031D062F0130080000300800D2
:101E10008E31E2268F318631F2268F318E31D926EE
:101E20008F318F31E4278F318F31612708004001D6
:101E300012157E013811391540011414941414152B
:101E40007E014E10CE104E114F14CF144F150800C6
:101E50004001B6003408663E840084300318013E19
:101E600085000008B5003508AE003608343E8731DD
:101E7000CA2708000430F0007008F707013041015C
:101E8000B902031D492F0430F00070084001EF0033
:101E900008004001EF01EF0A08004001A0002008FF
:101EA000073E8600013087000103031D5F2F2008D5
:101EB000073E8600013087008101013008000030B4
:101EC000080045304B019F00F9309D009C014E01F8
:101ED0008C129616A0304001A0000E30A1008E3169
:101EE000D02680304B019E0008007A037B04031D3E
:101EF0007E2F0030FA000230FB00822F0130FA0200
:101F00000030FB3B7B084001B5007A08B400823109
:101F10007D220800C7304001E9006908EC0041015A
:101F200046084001E200410145084001E1006C30F3
:101F3000E9006908E300003086316C2608000230B1
:101F40007B067A04031DA92F0130FA000030FB0044
:101F5000AD2F0130FA070030FB3D7B084001B50092
:101F60007A08B40082317D2208004001AE01AE0A39
:101F700024308731CA278F3140304101C50090306D
:101F8000C6008F318A278F313E304101C500903025
:101F9000C6008F318A270800F10043011115760829
:101FA000023E8600870101080319E12F7108F00045
:101FB0007608023E860087010108860087017008C6
:101FC00081004001EF010800C2304001A00020085C
:101FD0004101A100C2304001A00020084101A00041
:101FE000A2142210A40143018F0128309000920115
:101FF00050308D004E010F108F10191499140800E5
:102000002534633425346334253463342534633410
:102010000D3400342534633425346334253463347B
:1020200020340D34003420342534633425346334B3
:10203000253463340D34003425346334253463345B
:10204000203420340D3400342034203425346334DB
:10205000253463340D340034253463342034203483
:1020600020340D34003420342034203425346334BB
:102070000D34003420342034203420340D34003426
:0A20800020342034203420340034D2
:020000040001F9
:0A000E00EC3FFF3F9F3FFF3FFF3F25
:00000001FF
