:020000040000FA
:1000000080313028643400347E1480314E01961AD9
:100010008C1E0E289F31292780312E280B1F2E2859
:1000200099188F1C17289E31572680312E281918B1
:100030000F1C1E288E31AE2680312E2897188D1C5D
:1000400025289F311C2780312E28991A8F1E2E2893
:10005000420163088A0062080A0080317E100900AC
:1000600080313228803102208031FC008031032031
:100070008031FD0041019E316B268031EC009E31C4
:100080006C268031ED009E316D268031EE009E3170
:100090006E268031EF00FA308400873085004201FF
:1000A0001200E4001200E5001200E6001200E70072
:1000B0001200E8001200E900EE30840023308500D1
:1000C0000230FE000430FF009F3110278031F7011D
:1000D000F801F901FA01FB01A0308400003085002D
:1000E0002730FE000030FF009F3110278031203084
:1000F0008400013085003830FE000030FF009F3161
:1001000010278031A0308400013085004030FE008F
:100110000030FF009F3110277E10400188310B28EE
:1001200040014B088039D0005008D5004B35D00035
:100130005008DB00CA1B5B145B080319AC285B0A80
:10014000031DAA280030CB000030CA000030C900CF
:100150000030C800CA17B4280030CB000030CA00F5
:100160000030C9000030C8004F088039D000500866
:10017000D5064F35D0005008D600CE1B5614560871
:100180000319CF28560A031DCD280030CF000030B8
:10019000CE000030CD000030CC00CE17D728003084
:1001A000CF000030CE000030CD000030CC0056082B
:1001B000031D5B08031DE5280030CB000030CA009A
:1001C0000030C9000030C80008004808D0005008BE
:1001D000A0004E0891316321803140012108E100E7
:1001E0002008E0006008D000D101D201D3015308FB
:1001F000DA005208D9005108D8005008D700610829
:10020000D000D101D201D3015308DF005208DE0033
:100210005108DD005008DC004908D0005008A0005B
:100220004D0891316321803140012108E10020080F
:10023000E0006008D000D101D201D3015008D707F7
:100240005108D83D5208D93D5308DA3D6108D00025
:10025000D101D201D3015008DC075108DD3D52081D
:10026000DE3D5308DF3D4A08D0005008A0004C088E
:1002700091316321803140012108E1002008E00034
:100280006008D000D101D201D3015008D70751082E
:10029000D83D5208D93D5308DA3D6108D000D1015C
:1002A000D201D3015008DC075108DD3D5208DE3D84
:1002B0005308DF3D0830D735D80DD90DDA0D890B3D
:1002C0005B294908D0005008A0004C0891316321F7
:1002D000803140012108E1002008E0006008D707D4
:1002E0006108D83D0030D93DDA3D4808D0005008BB
:1002F000A0004D0891316321803140012108E100C7
:100300002008E0006008D7076108D83D0030D93DDB
:10031000DA3D0830D735D80DD90DDA0D890B8A2989
:100320004808D0005008A0004C089131632180316A
:1003300040012108E1002008E0006008D7076108BB
:10034000D83D0030D93DDA3D4908D0005008A00022
:100350004E0891316321803140012108E1002008DD
:10036000E0006008DC076108DD3D0030DE3DDF3D78
:100370004A08D0005008A0004D0891316321803117
:1003800040012108E1002008E0006008DC07610866
:10039000DD3D0030DE3DDF3D4A08D0005008A000C2
:1003A0004E0891316321803140012108E10020088D
:1003B000E0006008D0006108D100D201D30108300C
:1003C000D035D10DD20DD30D890BE0295008DC07B3
:1003D0005108DD3D5208DE3D5308DF3D5708D0008F
:1003E0005808D1005908D2005A08D3001830D33623
:1003F000D20CD10CD00C890BF7295008DC0751081E
:10040000DD3D5208DE3D5308DF3D0830D735D80DBD
:10041000D90DDA0D890B062A5B085607D000D101E9
:10042000D10D5008823EE000FF30513DE100DE1B5F
:100430002E2A0130DC35DD0DDE0DDF0D890B1A2A89
:10044000DA1B5C140130D735D80DD90DDA0D890BC4
:10045000232AFF30E007FF30E13D172AD601DA1FDB
:10046000472AFF305705D000FF305805D100FF3034
:100470005905D2007F305A05D30053085204510465
:10048000500403195C18452A472AD601D60A560893
:100490000319702A0130DC070030DD3D0030DE3DFD
:1004A0000030DF3D5F1C702A5C08D0005D08D10081
:1004B0005E08D2005F08D3000130D400D337D20CDD
:1004C000D10CD00CD40B5E2A5308DF005208DE009A
:1004D0005108DD005008DC000130E0070030E13D4C
:1004E0006108803AD00080305002031D792AFF3025
:1004F0006002031C852A7F304001DF008030DE006F
:100500000030DD000030DC00AF2A40016108803A95
:10051000D00080305002031D8F2A01306002031882
:100520009C2A00304001DF000030DE000030DD009A
:100530000030DC00D501AF2A40016008D00050082F
:10054000DB00FF30DC05FF30DD057F30DE050030ED
:10055000DF055B18DE175B36D0005008DF0055085A
:10056000D0005008DF045F08CB005E08CA005D08B9
:10057000C9005C08C80008004001EF01EF0A410112
:100580003D089F319A2782314101D1005108B600C0
:100590003C089F319A2782314101D1005108B500B2
:1005A0003E089F319A2782314101D1005108B400A1
:1005B0003B089F319A2782314101D1005108B30095
:1005C0006E03031D082B9E319D26823142014A088D
:1005D000400120024101D10042014B084001213B72
:1005E0004101D2001330520288300319510203181E
:1005F000082B97318227823141013608031D052BD4
:1006000035080319340803190800B801B80A0800AE
:100610003808031D0F2B6E03031D0F2BB901EE01CC
:1006200034080319380803191E2B3708031D1E2B25
:10063000B801B80A973182278231532B3908031D3C
:10064000252B8831DA2082314B2B02303906031DED
:100650002D2B4001EF01EF0A532B390303193C2BDB
:100660000430390603193C2B0530390603193C2B9D
:1006700006303906031D402B9631952682314B2BCF
:1006800003303906031D512B3708031D512B310848
:100690008B317D2382314101D10051084001EF00AF
:1006A000532B4001EF0140016F080319622B9E316B
:1006B0009D268231400121084201C50040012008E9
:1006C0004201C4009E319D2682314201440840010E
:1006D00020024101D100420145084001213B410176
:1006E000D20013305202883003195102031C8A2BA6
:1006F00000309F31D62782319E319D2682314001C4
:100700002008773E4201C400EC304001213D420107
:10071000C5008E2B01309F31D62782314101390827
:10072000031D142C3808031D142C6D084001B5005E
:1007300041016C084001B4000F2C3808031D182C2F
:100740007B30C700A030C8009F31EB278231112CCD
:10075000320803191B2C8C30C700A030C8009F3111
:10076000EB278231112C3808031D1E2C4D30C70099
:10077000A030C8006F08D100D2015108C90052084A
:10078000CA009F31EB278231112C3808031D222C1F
:100790004530C700A030C8006F08D100D201510811
:1007A000C9005208CA009F31EB278231112C38084A
:1007B000031D262C3D30C700A030C8006F08D100B3
:1007C000D2015108C9005208CA009F31EB2782317B
:1007D000112C3808031D2A2C3530C700A030C80062
:1007E0006F08D100D2015108C9005208CA009F31D8
:1007F000EB278231112C0030022C0130022C023008
:10080000022C03309131EE2182314101D100D2011D
:1008100051084001B400410152084001B5008C313B
:1008200035244101B70108000230390603199D2B18
:1008300039030319A82B39030319B32B04303906E4
:100840000319C52B053039060319D72B0630390695
:100850000319E92B03303906031D08003808031D6E
:1008600008003108D100D2015208003A0319392C8E
:10087000112C5108003A0319FB2B013A0319FD2BE7
:10088000033A0319FF2B013A0319012C112C08001C
:10089000400135088039B6003608BF003535B6004E
:1008A0003608C600B41B461446080319652C460AD0
:1008B000031D622C0030B5000030B4000030B300DE
:1008C0000030B200B417B5016D2C0030B500003017
:1008D000B4000030B3000030B20031088039B600F7
:1008E0003608BF063135B6003608C700B01B4714BE
:1008F00047080319892C470A031D862C0030B100D4
:100900000030B0000030AF000030AE00B017B101D1
:10091000912C0030B1000030B0000030AF0000304A
:10092000AE00310830042F042E04031DB02C00301B
:10093000B5000030B4000030B3000030B2008030A9
:10094000B4047F30B5043F08B6003608B504350856
:10095000B1003408B0003308AF003208AE00080020
:100960004608031DBC2C0030B1000030B000003040
:10097000AF000030AE0008004608B600B7013708E7
:10098000B90047083602B800031CB90338087F3E97
:10099000C0000030393DC1003508BE003408BD003C
:1009A0003308BC003208BB000030B5000030B40092
:1009B0000030B3000030B2000030C5000030C40089
:1009C0000030C3000030C200C7011A3047020318CC
:1009D000212D47080319032D0130BB35BC0DBD0D7A
:1009E000BE0D890BED2C0130B235B30DB40DB50D34
:1009F000890BF42CC51B32140130C235C30DC40D54
:100A0000C50D890BFD2C31083E02031D112D300848
:100A10003D02031D112D2F083C02031D112D2E0830
:100A20003B02031C1C2D45172E08BB022F08BC3BA4
:100A30003008BD3B3108BE3B0130B6003608C70761
:100A4000E52C3E083D043C043B04031D4214B41B4A
:100A50003E2D0130B235B30DB40DB50D890B2A2DE5
:100A6000C51B32140130C235C30DC40DC50D890B31
:100A7000332DFF30C007FF30C13D272DC701C51FF3
:100A8000572DFF304205B600FF304305B700FF3059
:100A90004405B8007F304505B900390838043704EB
:100AA000360403193218552D572DC701C70A4708B8
:100AB0000319802D0130B2070030B33D0030B43D42
:100AC0000030B53D351C802D3208B6003308B70024
:100AD0003408B8003508B9000130BA00B937B80C8D
:100AE000B70CB60CBA0B6E2D3908B5003808B40037
:100AF0003708B3003608B2000130C0070030C13DEE
:100B00004108803AB60080303602031D892DFF303F
:100B10004002031C982DFF304001C0000030C1008E
:100B20000030B5000030B4000030B3000030B20037
:100B300040014108803AB60080303602031DA22DE4
:100B4000013040020318B02D4001C001C101003046
:100B5000B5000030B4000030B3000030B200BF0177
:100B600040014008B6003608C600461CB92DB4172F
:100B7000BD2D7F30B6003608B4054636B6003608BF
:100B8000B500A32C41016E08031D08005E08E100BA
:100B9000E201E301E40164084001A30041016308AC
:100BA0004001A200410162084001A1004101610829
:100BB0004001A000013088314420853140012308E4
:100BC000B5002208B4002108B3002008B200433069
:100BD000B1007F30B0000030AF000030AE00843193
:100BE0004824853140013108CF003008CE002F085D
:100BF000CD002E08CC004230CB00FE30CA000030C1
:100C0000C9000030C80080319020853140014B0878
:100C1000E5004A08E4004908E3004808E20095318D
:100C2000C1258531400163084101C80040016208C7
:100C30004101C7009031CB20853141015F08E100BF
:100C4000E201E301E40164084001A30041016308FB
:100C50004001A200410162084001A1004101610878
:100C60004001A00001308831442085314001230833
:100C7000B5002208B4002108B3002008B2004330B8
:100C8000B1007F30B0000030AF000030AE008431E2
:100C90004824853140013108CF003008CE002F08AC
:100CA000CD002E08CC004230CB00FE30CA00003010
:100CB000C9000030C80080319020853140014B08C8
:100CC000E5004A08E4004908E3004808E2009531DD
:100CD000C1258531400163084101C8004001620817
:100CE0004101C7009031E920853141016008E100F0
:100CF000E201E301E40164084001A300410163084B
:100D00004001A200410162084001A10041016108C7
:100D10004001A00001308831442085314001230882
:100D2000B5002208B4002108B3002008B200433007
:100D3000B1007F30B0000030AF000030AE00843131
:100D40004824853140013108CF003008CE002F08FB
:100D5000CD002E08CC004230CB00FE30CA0000305F
:100D6000C9000030C80080319020853140014B0817
:100D7000E5004A08E4004908E3004808E20095312C
:100D8000C1258531400163084101C8004001620866
:100D90004101C70091310721853141015D08E10022
:100DA000E201E301E40164084001A300410163089A
:100DB0004001A200410162084001A1004101610817
:100DC0004001A000013088314420853140012308D2
:100DD000B5002208B4002108B3002008B200433057
:100DE000B1007F30B0000030AF000030AE00843181
:100DF0004824853140013108CF003008CE002F084B
:100E0000CD002E08CC004230CB00FE30CA000030AE
:100E1000C9000030C80080319020853140014B0866
:100E2000E5004A08E4004908E3004808E20095317B
:100E3000C1258531400163084101C80040016208B5
:100E40004101C7009131252108009E319D2687313F
:100E500042013808400120024101E5004201390801
:100E60004001213B4101E6000030660232300319A7
:100E70006502031C08009E319D2687314001210830
:100E80004201B900400120084201B8009E31B82655
:100E90008731003A031D602F4101D001D101D201F9
:100EA00000308A311B22873141015308E00052088B
:100EB000DF005108DE005008DD008531C225080042
:100EC000410129032A04031DA32FD0018B2FD00138
:100ED000832FD001D00AD101D10AD2018E2FD001A7
:100EE000D00A7A2FD001D00A7F2FD001D101D10AA8
:100EF0008C2FD001D101D10AD201872FD001D1018D
:100F0000852FD001D00AD101D10AD201D20A0130F5
:100F10008F2FD001D00AD101D201D20A00308A31FC
:100F20001B22873141015308E0005208DF005108BD
:100F3000DE005008DD008531C22501304101A907DE
:100F40000030AA3D0800023029062A040319892F1F
:100F5000033029062A040319692F043029062A04BC
:100F60000319672F053029062A040319692F063053
:100F700029062A0403196F2F083029062A040319A9
:100F8000722F093029062A040319892F0A302906ED
:100F90002A040319752F0B3029062A040319792F07
:100FA0000C3029062A0403197E2F0D3029062A0445
:100FB0000319812F0E3029062A040319892FD00125
:100FC000D00AD101D10AD201D20A00308A311B22C3
:100FD000873141015308E0005208DF005108DE006C
:100FE0005008DD008531C22501304101A9000030E3
:100FF000AA000800013400340A3400349034063466
:101000008C3046019A009901980144011E083F392D
:1010100040389E0008009131CA21883115304201C4
:10102000EF004B30EE00BE30890B1428EE0B142875
:10103000EF0B142800009E317A2688319431CB249E
:1010400088319031002088318B170B179F31C227D0
:1010500088319F31872788319E319D268831400114
:1010600021084201CB00400120084201CA008D3115
:10107000C92588318231BC2288318C31F7248831EE
:101080008A31CA22883137284001A8002808031D68
:10109000A31F5A282009AA002109AB002209AC008D
:1010A0002309AD00AA0A0319AB0A0319AC0A0319F4
:1010B000AD0A62282308AD002208AC002108AB006D
:1010C0002008AA002308220421042004031D7128FB
:1010D0000030A3000030A2000030A1000030A000CA
:1010E00008009630A4002408A900FE302D0503193D
:1010F00098280130A4002408A9070130AD36AC0CB3
:10110000AB0CAA0C890B7E2875280130A40024089A
:10111000A9070130AA070030AB3D0030AC3D0030DC
:10112000AD3D0130AD36AC0CAB0CAA0C890B92284E
:10113000FF302D050319AA28852802302902031C37
:10114000AC280130A9020130AA35AB0DAC0DAD0DB4
:10115000890BA428AC1F9D282918B628FF30AA05A2
:10116000FF30AB057F30AC05FF30AD050310A90C97
:101170002908A400A501A601A7011830A435A50DD2
:10118000A60DA70D890BBE282408AA042508AB04C8
:101190002608AC042708AD042808031DA31FD12886
:1011A000AD172D08A3002C08A2002B08A1002A08C7
:1011B000A000080041013D089F3144278831003AD2
:1011C000031930299E319D26883141012B084001A9
:1011D0002002B70041012C084001213BB80038082B
:1011E0007D02031DF52837087C0203183029903151
:1011F0005F20883113299E319D26883141012B08BB
:1012000040012002B70041012C084001213BB800F9
:1012100038087D02031D0E2937087C02031838297F
:1012200090312F2088319E319D2688314001210840
:101230004101AC00400120084101AB007D08803A2B
:101240004001B70080303702031D282915307C0289
:10125000031C2E29FF30FC07FF30FD3D0130080044
:1012600041013C089F3144278831003A031DFB2887
:1012700041013B089F3144278831003A031947292F
:1012800001304101EC000030ED0001300800410167
:10129000360803194F2990315F2088312E293508EF
:1012A0000319562990312F2088312E293308031D28
:1012B0002E293608031D3508031D71293C089F316E
:1012C00044278831003A031D712941013D089F31AF
:1012D00044278831003A031D71296430FC00003036
:1012E000FD00003008004001E0005808860087013A
:1012F000403FDA00413FDB005A0884005B0885006C
:101300001200253A031DF82958088600870101308C
:10131000810741310318810A4201B201B301B601CC
:10132000B701FF30B400FF30B50040015808860017
:101330008701403FDA00413FDB005A0884005B0828
:1013400085001200633A031DC629580886008701EC
:101350000130810741310318810A5908860087014D
:10136000010884008501023081070008DA005A086C
:10137000DF005F08DA005A08D20060089231E622E6
:1013800040015308D9005208D800080058088600C8
:101390008701403FDA00413FDB005A0884005B08C8
:1013A00085001200253A031DED29580886008701A3
:1013B0000130810741310318810A2530B90000301E
:1013C000BA006008DA005A08BB0094314E2401309C
:1013D0004001D8000030D900080058088600870175
:1013E0000130810741310318810AD801D901080071
:1013F000580886008701403FDA00413FDB005A0869
:1014000084005B0885000008DC00DD015C08B90091
:101410005D08BA006008DE005E08BB0094314E240F
:101420008931400158088600870101308107413128
:101430000318810AE7294101D40054080319452AF9
:10144000973105278A3141014A08D8004908D70059
:101450004808D6004708D50058084001E50041017A
:1014600057084001E400410156084001E3004101F2
:1014700055084001E2009531C1258A3140016208DA
:10148000EE006E084101DA00462ADA01510803191C
:101490006E2A973105278A3141014A08D800490848
:1014A000D7004808D6004708D50058084001E50095
:1014B000410157084001E400410156084001E300A2
:1014C000410155084001E2009531C1258A314001B2
:1014D0006208EE006E084101DC006F2ADC01500852
:1014E0000319972A973105278A3141014A08D80004
:1014F0004908D7004808D6004708D50058084001D9
:10150000E500410157084001E4004101560840014F
:10151000E300410155084001E2009531C1258A31BF
:1015200040016208EE006E084101DB00982ADB01F1
:1015300052080319C02A973105278A3141014A0808
:10154000D8004908D7004808D6004708D5005808F1
:101550004001E500410157084001E40041015608FF
:101560004001E300410155084001E2009531C125E9
:101570008A3140016208EE006E084101D900C12A9B
:10158000D9015C08D3005B08D2005A08D100590881
:10159000D00008005A2B9631272608009E315D2680
:1015A0008A31003A0319E82A4101D001D101D20160
:1015B00000308A311B228A3141015308E000520871
:1015C000DF005108DE005008DD008531C22508002B
:1015D0008731252708009E315D268A31003A03199C
:1015E000052B4101D001D101D20100308A311B22EB
:1015F0008A3141015308E0005208DF005108DE0043
:101600005008DD008531C22508009E3151260800B2
:101610009E315D268A31003A0319222B4101D00107
:10162000D101D20100308A311B228A314101530895
:10163000E0005208DF005108DE005008DD0085316F
:10164000C2258A319E31502608009E315D268A319E
:10165000003A03193F2B4101D001D101D2010030E2
:101660008A311B228A3141015308E0005208DF0011
:101670005108DE005008DD008531C22508009E318A
:10168000522608009E315D268A31003A031D08006B
:101690009E314F2608009E3153268A314101280889
:1016A000E0002708DF002608DE002508DD00853180
:1016B000C22508009E3160268A314101EA00EB0113
:1016C0006B08003A0319652B7C2B6A08003A031952
:1016D000CB2A013A0319CE2A033A0319422B013AC5
:1016E00003194B2B073A0319EB2A013A0319082B6C
:1016F000033A0319252B7C2B08004001A50041016A
:101700003D089F3144278B31003A0319E22B9E316B
:101710009D268B3141012B0840012002A30041018D
:101720002C084001213BA40024087D02031D9A2BB4
:1017300023087C020318E22B2508943185248B3181
:10174000BA2B9E319D268B3141012B08400120028E
:10175000A30041012C084001213BA40024087D0284
:10176000031DB42B23087C020318EA2B25089431AF
:1017700018248B319E319D268B3140012108410177
:10178000AC00400120084101AB007D08803A4001D7
:10179000A30080302302031DCF2B0B307C02031CDF
:1017A000E02BFF30FC07FF30FD3DE02B400125081A
:1017B000943185248B31E02B400125089431182485
:1017C0000130080041013C089F3144278B31003A29
:1017D000031DA12B41013608031DD62B3508031D1F
:1017E000DC2B3308031D042C1B2C4101B101B10A71
:1017F000E02B0230FC2B0330A30023084101B10091
:10180000E02B4101B101E02B40012508A300A40118
:101810002408003A03190D2CE02B2308003A031981
:10182000F52B013A0319F92B033A0319FB2B013A63
:101830000319012CE02B3608031D3508031D332C3A
:101840003C089F3144278B31003A031D332C410162
:101850003D089F3144278B31003A031D332C6430FF
:10186000FC000030FD000030080027304001350248
:10187000103003193402031C602C7930B60036088E
:10188000AE0034309031AE208C3179304001B6005A
:101890003608AE0035309031AE208C3179304001C1
:1018A000B6003608AE0036309031AE208C3179303B
:1018B0004001B6003608AE0037309031AE20080047
:1018C0000A30A8000030A9003508AB003408AA008F
:1018D00092318A228C314001290885002808840031
:1018E000103084079830853D0008B6003608AE00F9
:1018F00037309031AE208C310A304001A8000030E2
:10190000A9000A30A0000030A1003508A300340867
:10191000A2009331AE238C3140012108AB00200896
:10192000AA0092318A228C314001290885002808BA
:101930008400103084079830853D0008B6003608D2
:10194000AE0036309031AE208C310A304001A80014
:101950000030A9006430A0000030A1003508A300C9
:101960003408A2009331AE238C3140012108AB0032
:101970002008AA0092318A228C3140012908850072
:1019800028088400103084079830853D0008B60090
:101990003608AE0035309031AE208C310A3040012F
:1019A000A8000030A900E830A0000330A1003508ED
:1019B000A3003408A2009331AE238C3140012108EA
:1019C000AB002008AA0092318A228C3140012908FC
:1019D000850028088400103084079830853D000871
:1019E000B6003608AE0034309031AE2008009E318B
:1019F0009D268C3142013E0840012002A800420190
:101A00003F084001213BA90042016708400129022B
:101A1000031D0E2D4201660840012802031C080028
:101A20009E319D268C31400121084201BF004001BA
:101A300020084201BE0041012E03031D252D013067
:101A40004201BC070030BD3D2C2D4201BC01BD014F
:101A50001E30E6000030E70041012E03031D732D08
:101A60002D08031D732DAF01AF0A0F304201E600B0
:101A70000030E7009E319D268C3142014208400132
:101A80002002AA00420143084001213BAB009E31E5
:101A90009D268C31400121084201C30040012008ED
:101AA0004201C200003040012B02963003192A0285
:101AB0000318602D90304201C0000130C100732D29
:101AC0002B08A1002A08A0006030A200EA30A30081
:101AD0009331AE238C31400121084201C100400105
:101AE00020084201C00041012E084001A80028083A
:101AF0004101AD00AE0142013D08803A4001A8001D
:101B000080302802031D872D043042013C02031C53
:101B1000A62D01304201E8070030E93D6908400187
:101B2000A100420168084001A0009E318B268C3143
:101B30004201BC01BD019E319D26400121084201A8
:101B4000C300400120084201C20008009E319D26CA
:101B50008C314201420840012002A80042014308A2
:101B60004001213BA90003302902E9300319280272
:101B7000031C080001304201E8020030E93B69081B
:101B80004001A100420168084001A0009E318B265F
:101B900008009E319D268D3140012108A7002008B4
:101BA000A6004201480840012602A200420149085D
:101BB0004001273BA300003023020A300319220210
:101BC000031C080027084201C90040012608420101
:101BD000C8004001A5012508A2000230A235FF3E41
:101BE000031DEE2D2235C03EA3002308A8002808BF
:101BF000860001308700403FA200413FA300220839
:101C00008600230887000130A4002808023E8400D3
:101C100001308500000A0D2EA435890B0C2E2408F6
:101C20000105031D2C2E2808033E86000130870085
:101C30008101810A2808073E8600013087000108DB
:101C4000031D322E2808053E860001308700260835
:101C5000C03F2708C13F322E2808033E86000130CE
:101C6000870081012808033E8600013087000108B3
:101C7000031D4A2E2808043E860001308700010318
:101C8000031D4A2E2808073E860001308700810187
:101C9000810A972E2808033E860001308700010341
:101CA000031D782E2808043E8600013087000103BA
:101CB000031D782E2808053E860001308700403F2E
:101CC0002602A200413F273BA30000302302C93077
:101CD00003192202031C6E2E03306F2E0230A20065
:101CE0002808073E86000130870022088100972ED1
:101CF0002808033E8600013087000108031D972E47
:101D00002808043E8600013087000103031D972E3A
:101D10002808073E86000130870003300106031DB6
:101D2000972E2808073E8600013087008101280889
:101D3000033E8600013087000108A2002808043E07
:101D4000860001308700220881000130A2002208AD
:101D5000A5070430250203180800EB2D4E010F10D3
:101D60004301901FD32F90134101C4014208023E4A
:101D70008600013087000108860087018101810A01
:101D8000C2010800A21808002108F2007208C2006F
:101D900021088600013087000108F2007208C300A4
:101DA00021088600013087000130413FF7000330F1
:101DB000F2007208A1072108583A031DE32E55309E
:101DC000F2007208A1002210210820060319A214B3
:101DD000430111140230F20072084101C4000800EE
:101DE0007C2F4301111FFD2E0130F20072084101CA
:101DF000A40704309031782008007B08F3007A08AB
:101E0000F200F336F20C72088C007A1C0D2F0B30A6
:101E1000F20072084101C40008000330F2007208A9
:101E20004101C40008004301111F1F2F0130F200BF
:101E300072084101A4070430903178200800911401
:101E40007B08F3007A08F2007308F200F301063011
:101E50007205F40000307305F500F0307404FA00E8
:101E600000307504FB007A144101BF01BF0AEA2E5D
:101E70003F030319512F7708860001308700403F48
:101E8000FA00413FFB0077088600013087000130EF
:101E9000433FC10077088600013087000130423F90
:101EA000C0007A0843018C007A1C0D2F0530F20027
:101EB00072084101C40008004301111F6A2F01305C
:101EC000F20072084101A40743011113053090315B
:101ED0007820080001304101C002400A031D7F2F15
:101EE0000430F2007208F7070130C302031D7C2F93
:101EF000003090317820080043019114EA2E410807
:101F000086008701010843018C000130F20072084D
:101F10004101C10708004301111F992F0130F20050
:101F200072084101A4070430903178204301111355
:101F3000080091150830F20072084101C400080041
:101F40000830F2007208C4004301911508004301F3
:101F50000C08F200410141088600870172088100E7
:101F60000130F2007208C1070130C0020319C02F0E
:101F7000430191120630F20072084101C400C42FDF
:101F8000430191169F315327430111160800003079
:101F90009031782008000130F2007208A407063062
:101FA00090317820080041014408F200F3017308E1
:101FB000003A0319DC2FCB2F7208003A0319C22E06
:101FC000013A0319F02E033A0319382F013A031985
:101FD0005C2F073A0319C72F013A03198B2F033AD5
:101FE0000319A02F013A0319C72F0F3A0319A72F7E
:101FF000023A0319F12E013A0319132FCB2F0800CF
:10200000420169084001A100420168084001A000A6
:102010009E318B26903163304001A0001E30A1001C
:102020009E31822690310F309E3194260800420165
:102030001908F0007908283E8600013087007008F2
:1020400081000130F0007008F907083079020318A8
:10205000F9010130F00070084101C6070800410194
:102060006C036D04031D39280030EC000230ED00D4
:102070003D280130EC020030ED3B6D084001B50019
:1020800041016C084001B4008C3135240800400146
:102090002108A4002008A30020088400210885004E
:1020A0001200031958280130A0070030A13D4C2828
:1020B00023082002A0002408213BA10008000230D0
:1020C00041016D066C04031D6A280130EC000030EC
:1020D000ED006E280130EC070030ED3D6D08400149
:1020E000B50041016C084001B4008C313524080072
:1020F000F1004301111541014208023E8600013002
:1021000087000108031990287108F0004208023E78
:102110008600013087000108860087017008810071
:10212000C401080055304001A00020084101A10071
:1021300055304001A00020084101A000A214221047
:10214000A40143018F012830900092014F308D008F
:102150004E010F108F101914991408004001B2009D
:102160000230AF002F08B300A701A70A3208AF0062
:10217000B0012F08A8003008A9003330B1003108A1
:10218000AA002E3092316022903102304001330695
:10219000031D0800C52800304101480280300319A2
:1021A000470203180800FF30C7050330C805460181
:1021B0000E1EE02806304101C735C80D890BDC280A
:1021C0004101480846018D004101470846018C0045
:1021D000080000304101480280300319470203180B
:1021E0000800FF30C7050330C8054601121EFE284F
:1021F00006304101C735C80D890BFA28410148084E
:102200004601910041014708460190000800003056
:102210004101480280300319470203180800FF30CB
:10222000C7050330C8054601161E1C2906304101AA
:10223000C735C80D890B182941014808460195008A
:10224000410147084601940008000030410148025E
:1022500080300319470203180800FF30C705033018
:10226000C80546011A1E3A2906304101C735C80D76
:10227000890B362941014808460199004101470868
:102280004601980008004001A4002408860001309F
:1022900087002008C03F2108C13F2208A30024086E
:1022A000023E860001308700230881002408033E97
:1022B00086000130870081012408073E8600013036
:1022C0008700810108004001A800A401A5012008A1
:1022D000A200A3012208A6002308A700281C742935
:1022E0002608A4072708A53D0130A635A70D890BB0
:1022F00075290310A80C2808031D6E292508A100C4
:102300002408A00008004001A6002308A500220818
:10231000A400A435A50D26088600013087002408F6
:10232000C03F2508C13F2108A4002608023E8600C0
:1023300001308700240881002008A4002608033EFD
:102340008600013087002408810008004001B800A1
:102350000430410130020318B4290D304001380621
:10236000031D3808031DB6294101B0010D3040019D
:102370003806031908003808B7003708B4004101CF
:1023800030089F31752701304001B70037084101FF
:10239000B00708009E31E52691319331E323913156
:1023A0009E31DC2691319031922091319E31EF2681
:1023B00091319E31FA26913192313A229131883110
:1023C000002091319F31052791319F31362791317E
:1023D0009F31AE2791319331472308004001A2007D
:1023E000FD29410126080800410127080800410194
:1023F000280808004101250808002208A000A101C2
:102400002108003A0319052A132A2008003A031963
:10241000F129013A0319F429033A0319F729013A7A
:102420000319FA29132A08004001C800C601C70190
:1024300046084807C20042088600013087000108AC
:10244000C3004308C5004508031908004508C20039
:10245000C3014208B9004308BA004108C400440857
:10246000BB0094314E24923101304001C607003048
:10247000C73D182A41018C018D018E018F01920107
:10248000930198019A019F0142018C018D018E01F7
:102490008F019001920154309300563094009501C1
:1024A000960197019801D43091004E018D10971438
:1024B0004C304001A0001E30A1009E318226080051
:1024C0004001AD0041012218832A40012D08AB00D4
:1024D0002B08A0002708AC002C08A1002908A300A5
:1024E0002808A200513091318321923151304001AE
:1024F000AB002B08A0002A08AC002C08A10001307A
:1025000095316C25080040012A0886008701810169
:10251000810A08004001280829040319B22AAD01E4
:10252000AD0AA91B9D2A0130A835A90D890B942A53
:102530000130AC002C08AD07912A29082B02031D9D
:10254000A32A28082A02031CA92A2808AA02290863
:10255000AB3B0130A936A80C890BAA2A0130AD0289
:10256000031D9D2A2B08A9002A08A8000800400185
:10257000E6006208E8006108E7004201B001B1012D
:102580004001670884006808850012000319DD2AED
:102590006730E4006408D8006308E5006508D900E6
:1025A0006608893173219231400158084201B00711
:1025B000400159084201B13DC02A420131084001A1
:1025C000E200420130084001E10008004001D7006C
:1025D000420132083304031DF52A33084001D600B6
:1025E000420132084001D500FE2A3208FF3E400178
:1025F000D500FF304201333D4001D6005208D400DF
:1026000054084301A000A101A0304001D4005408A7
:10261000C9005608CB005508CA005708953119253E
:1026200040014A08D3004908D200080042019D1C1D
:102630001B2B1D121D166408650403191D193C2B64
:102640001908F000F1013B08F3003A08F200F235F6
:10265000F30DEE30F4002330F500720874078600A5
:102660007308753D87007008C03F7108C13F013095
:10267000BA070030BB3D442BBA01BB01E401E501C0
:102680001908F0007008F6004E018F1208004E0184
:1026900099127A304001A0001330A1009E31AF267C
:1026A0009331083042019F0090309D0004309E001D
:1026B0001F309B009C014D304001A0001E30A10046
:1026C0009E31CA26933167304001A0001E30A10020
:1026D0009E31D326933154304001A0001E30A1001A
:1026E0009E31C1264101C501F901F801C6014E0123
:1026F000991608007908203E860001308700810184
:1027000042011D1D8E2B7908203E86000130870076
:10271000811461088A0060080A00933142019D1CFF
:102720009C2B7908203E86000130870001155F0848
:102730008A005E080A0093317908203E8600013045
:10274000870001080319AB2B42015D088A005C0871
:102750000A00933108009031172008004001A501BC
:10276000A601200821040319DE2BA701A70AA11B3B
:10277000C32B0130A035A10D890BBA2B0130A40069
:102780002408A707B72B0130A535A60D890BC42B4C
:1027900021082302031DCE2B20082202031CD52B67
:1027A0002008A2022108A33B25140130A136A00C69
:1027B000890BD62B0130A702031DC32B2608A100CD
:1027C0002508A00008004001980199019A013F30B6
:1027D0009200F030930006309400FF307E01CE006E
:1027E000E030C3000730B800C401B901CF01BA011D
:1027F000C501D0013730BB00F030C600FF30D1003A
:1028000005307D01C50014307E0194000B30A3001B
:102810000C30A400133095000930A5000A30A60042
:102820000930A70004307D01C6000C30CB00080041
:102830004001A200372C410126080319080001308D
:10284000A602080041012708031908000130A70269
:10285000080041012808031908000130A8020800F7
:1028600041012508031908000130A50208002208CB
:10287000A000A1012108003A03193F2C4D2C20088B
:10288000003A03191B2C013A0319222C033A0319AD
:10289000292C013A0319302C4D2C080040013B082B
:1028A000031D3B08031D582C39089131A62108004F
:1028B0003B08033E860087011600010403197B2CA8
:1028C0003B08033E86008701403FBC00413FBD00FE
:1028D0003B0A86008701403FBE00413FBF003F08E2
:1028E000803AC0003D08803A4002031D792C3C0824
:1028F0003E020318080040013B0A860087010130B0
:10290000810741310318810A08004001A200B42C5C
:102910004101260A0319080001304001A0002008E7
:102920004101A60708004101270A031908000130E8
:102930004001A00020084101A70708004101280A22
:102940000319080001304001A00020084101A80738
:1029500008004101250A0319080001304001A000C8
:1029600020084101A50708002208A000A1012108B4
:10297000003A0319BC2CCA2C2008003A0319882CF1
:10298000013A0319932C033A03199E2C013A0319B7
:10299000A92CCA2C0800C0304001A500250841011F
:1029A000BE00C8304001A50025084101BD00D0305F
:1029B0004001A50025084101BC00D8304001A50018
:1029C00025084101BB000E304001A0000030A100ED
:1029D0000230A5002508A20041013E0891314321A3
:1029E00094310C304001A0000030A1000230A5005D
:1029F0002508A20041013B089131432194310E305A
:102A00004001A0000030A100A20141013C08913129
:102A1000432194310E304001A0000030A100A201FA
:102A2000A20A41013D089131432194319F3164272D
:102A300008004001D1004201361C272D40015108F9
:102A4000CC004C08C1004908923114229531400154
:102A5000CB1B2F2D4B08D0004A08CF00312DCF01C2
:102A6000D001CD01CE014E08803ACC005008803A0A
:102A70004C02031D3D2D4F084D020318512D2030EF
:102A80004001B9000030BA005108CC004C08BB002E
:102A900094314E24953101304001CD070030CE3DB8
:102AA000332D420136185D2D40015108CC004C08F1
:102AB000C100490892311422953140014908A00013
:102AC0000130A1009031472040014F082007C90084
:102AD0005008213DCA0008004001A300410122180E
:102AE000AE2D02304001A200210886008701220895
:102AF00081002008A2004101200A860001308700E1
:102B00004001220881002308A2004101200886001C
:102B1000013087004001220881002108A200410104
:102B20002008023E86000130870040012208810013
:102B30000330A20022084101A0072008583A031DD3
:102B4000A72D55304001A20022084101A000A2108B
:102B500021082006031DB42D2214B42D40012108A4
:102B6000860087018101810A4001210886008701D2
:102B700002300106031D08009E316F264E010F141E
:102B8000080003104001640D650DE6006608EC00C6
:102B90006C08031DD42D0030E5000030E400003047
:102BA000E3000030E20008006208E6006308E70086
:102BB0006408E8006508E9001F30E936E80CE70C16
:102BC000E60C890BDD2D6608EA006A08EB00E417C5
:102BD000FF30E205FF30E305FF30E4050030E50596
:102BE0009630EC02EC1F072E6C08803A973E031CCF
:102BF000CB2D0130E536E40CE30CE20C890BFA2D09
:102C00000130E6006608EC070319182EF92D203074
:102C10006C020318CB2D6C080319182E0130E23515
:102C2000E30DE40DE50D890B0F2E0130EC020B2EA8
:102C30006B0803190800E209E309E409E509E20A5F
:102C40000319E30A0319E40A0319E50A08009E318F
:102C50005A2696314101E500E601E535E60DEE30F4
:102C6000E7002330E8006508670786006608683DCE
:102C700087000108E90069084201EB009E315A26ED
:102C800096314101E500E601E535E60DF030E7005B
:102C90002330E8006508670786006608683D8700FE
:102CA0000108E90069084201EC009E315A2696317C
:102CB0004101E500E601E535E60DF230E70023309D
:102CC000E8006508670786006608683D8700010818
:102CD000E90069084201ED009E315A269631410112
:102CE000E500E601E535E60DF430E7002330E800C5
:102CF0006508670786006608683D87000108E900E7
:102D000069084201EA006D084101E00042016C08D7
:102D10004101DF0042016B084101DE0042016A0807
:102D20004101DD008531C225080041013B089F318A
:102D300044279631003A0319AE2E41013708031D8E
:102D4000AE2E3208031DA62E0130A72E0030400102
:102D5000A10021084101B200B701B70A41013608BC
:102D60000319CD2E09306F020318BD2E013040012A
:102D7000A10021084101EF07CB2E09304001A1003D
:102D800021084101EF00CB2E6F080319CA2E013034
:102D9000EF02CB2EEF01013008003508031DC42ED1
:102DA00033080319E02E04303906031DE02E0530E8
:102DB0004001A10021084101B9004001A201080021
:102DC00033080319ED2E3903031DED2E04304001A5
:102DD000A10021084101B900080033080319FB2EA6
:102DE00005303906031DFB2E06304001A1002108E5
:102DF0004101B900080033080319080006303906FC
:102E0000031D0800B901B90A080041016F08CB0091
:102E1000CC01CD01CE014E084001A30041014D0877
:102E20004001A20041014C084001A10041014B08B2
:102E30004001A0000130883144209731400123082F
:102E4000B5002208B4002108B3002008B2004130C8
:102E5000B1001030B0000030AF000030AE0084315F
:102E60004824973140013108CF003008CE002F08A8
:102E7000CD002E08CC004330CB007F30CA0000309C
:102E8000C9000030C80080319020973140014B08C4
:102E9000E5004A08E4004908E3004808E2009531EB
:102EA000C1259731400162084101CF004F08400120
:102EB000ED006D084101CB00CC01CD01CE014E08E3
:102EC0004001A30041014D084001A20041014C080E
:102ED0004001A10041014B084001A00000308831B1
:102EE0004420400123084101CA0040012208410159
:102EF000C900400121084101C800400120084101EA
:102F0000C7000800043041013A0603198F2F05302D
:102F10003A0603198F2F06303A06031D912FBA0186
:102F2000BA0A36080319A62F03303A0203189F2F56
:102F300001304001ED006D084101BA07B02F0330A8
:102F40004001ED006D084101BA00B02F35080319AA
:102F5000B02F3A080319AF2F0130BA02B02FBA01CF
:102F600033080319E52F3A084001ED006D084101CF
:102F7000B900B801B701B70A080075304101C700B0
:102F8000A030C8009F31EB27080081304101C70005
:102F9000A030C8009F31EB27080081304101C700F5
:102FA000A030C8009F31EB27080069304101C700FD
:102FB000A030C8009F31EB2708006F304101C700E7
:102FC000A030C8009F31EB2708003A084001ED000F
:102FD000EE016E08003A0319EE2FFF2F6D08003A3C
:102FE0000319D52F013A0319C52F033A0319BD2F31
:102FF000013A0319DD2F073A0319CD2FFF2F0800DF
:10300000003482342134003400340034003402347B
:1030100039340F3400340034003440348034003408
:103020003F3406345B344F3466346D347D340734BA
:103030007F346F3400340034003448340034533467
:10304000003477347C3439345E34793471346F34FD
:10305000763406341E3400343834003454343F346B
:103060007334673450346D3478343E340034003473
:1030700000346E340034393400340F3400340834F2
:1030800063345F347C3458345E347B3471346F3451
:10309000743402341E3400340634003454345C3446
:1030A0007334673450346D3478341C340034003455
:1030B00000346E340034393430340F34003400348A
:103C980008000800080008000800080008000800DC
:103CA8009031172008004E018F10080041016C0860
:103CB80008004101320808004101390808004101A3
:103CC800AE01AE0A080042011D121D16080001349B
:103CD80000340134013441014408031908006F2EEF
:103CE80001304201C6070030C73D0800743040016A
:103CF800A0001E30A1009E31A62608004001210820
:103D08004201D900400120084201D80008004001C2
:103D1800210841018F004001200841018E00080060
:103D28004001A000200841019F0042019117111491
:103D38000800420147084001A1004201460840012D
:103D4800A0000800400121084201DB0040012008D2
:103D58004201DA000800400121084201E300400165
:103D680020084201E200080041012F080319BF2E74
:103D7800AF0101300800003008004001210842016D
:103D8800DD00400120084201DC0008004001210854
:103D98004201E100400120084201E0000800400122
:103DA80021084201DF00400120084201DE0008002E
:103DB800603051018D008F0191010630930092010E
:103DC80008004F0196019701980199019A019B01FA
:103DD8009C019D0108008C3046018E008D018C01EC
:103DE80044011E08FC3901389E0008008C30460149
:103DF80092009101900144011E08F33904389E0095
:103E080008008C30460196009501940144011E0873
:103E1800CF3910389E00080064008001013101305C
:103E2800FE020030FF3B7F087E0403190034112F87
:103E38004E018D1042015808590403190800590809
:103E48008A0058080A009F3108004E018C1242016E
:103E58005A085B04031908005B088A005A080A001C
:103E68009F3108000130450190008F019101FF301A
:103E78008D008C014E019010F03045018E00080035
:103E88004001A0002008073E86000130870003306B
:103E98000106031D512F01300800003008000430CE
:103EA800F0007008F70701304101C302031D612FBC
:103EB8000430F0007008C4000800C401C40A0800F7
:103EC800400112157E01381139154001141494145B
:103ED80014157E014E10CE104E114F14CF144F15ED
:103EE80008004001B6003408E03E8400973003180B
:103EF800013E85000008B5003508AE003608343E9E
:103F08009031AE20080016304001A0001330A10007
:103F18009E31AF269F3141016D084001B500410136
:103F28006C084001B4008C31352408004001A00021
:103F38002008073E8600013087000103031DAC2FCF
:103F48002008073E86000130870081010130080003
:103F58000030080045304B019F00F9309D009C015E
:103F68004E018C1296164E304001A0001E30A10062
:103F78009E31A62680304B019E00080001309F31FB
:103F8800D6279F3187304101C700A030C8009F3134
:103F9800EB279F3167304101C700A030C8009F312F
:103FA800EB2708004001B40034080319E42FAE01E0
:103FB800AE0A24309031AE204201CC01CC0A080070
:103FC800AE0124309031AE204201CC010800C93046
:103FD8004001E9006908EC00410148084001E2009D
:103FE800410147084001E1006C30E9006908E3003D
:103FF80000309231B7220800253463342534633405
:1040080025346334253463340D3400342534633463
:10401800253463342534633420340D34003420349B
:104028002534633425346334253463340D34003443
:104038004834453459345934593459345934593435
:1040480000342534633425346334203420340D346B
:1040580000342034203425346334253463340D345B
:10406800003441342D3425346434203420340D3464
:10407800003443342D3425346434203420340D3452
:10408800003446342D3425346434203420340D343F
:10409800003442342D3425347534203420340D3422
:1040A8000034253463342034203420340D34003473
:1040B800203420342034253463340D340034203443
:1040C8002034203420340D34003450344334203428
:1040D80020340D3400344C344534443420340D3409
:1040E800003441344E34493420340D3400345334D0
:1040F80045344C3431340D34003442344534413481
:1041080054340D3400342034203420342034003426
:0A41180048344F344C344434003472
:020000040001F9
:0A000E00EC3FFF3F9F3FFF3FFF3F25
:00000001FF
