:020000040000FA
:1000000080312F28013400347E1480314E01961A3D
:100010008C1E0E288931F22180312D280B1F2D28AE
:1000200097188D1C17288931E52180312D28991AC0
:100030008F1E212842014F088A004E080A00803195
:100040002D2899188F1C282889310C2180312D28C2
:1000500019180F1C2D28833105237E1009008031CB
:1000600031282D3084008930850041011200E800DC
:100070001200E9001200EA001200EB001200EC008E
:100080001200ED001200EE001200EF00420180317C
:1000900002208031D000803103208031D100EE3049
:1000A0008400233085000230FE000430FF008931D7
:1000B000D9218031F001F101F201F301F401F501E0
:1000C000F6014001EF01A0308400003085002630A9
:1000D000FE000030FF008931D921803120308400BA
:1000E000013085002430FE000030FF008931D92125
:1000F0008031A0308400013085004030FE000030A7
:10010000FF008931D9217E1040018E31772E9C303D
:100110004101C6009030C70040016D0884006E08A0
:10012000850000084101D000D1015008C8005108E5
:10013000C9008A31A12280310B304101D100263023
:10014000D0005D30890BA228D00BA228D10BA228A9
:1001500000328D304101C6009030C70040016D086B
:1001600084006E08850000084101D000D1015008CC
:10017000C8005108C90040016E084101D300400188
:100180006D084101D2000130520784005308031862
:10019000530A85000008D400D5015408CA00550848
:1001A000CB008A31A12280310B304101D1002630B1
:1001B000D0005D30890BDA28D00BDA28D10BDA2891
:1001C000003273304101C6009030C70040016D0815
:1001D00084006E08850000084101D000D10150085C
:1001E000C8005108C90040016E084101D300400118
:1001F0006D084101D20001305207840053080318F2
:10020000530A85000008D400D5015408CA005508D7
:10021000CB0040016E084101D70040016D0841014B
:10022000D60002305607840057080318570A850085
:100230000008D800D9015808CC005908CD008A31EF
:10024000A12280310B304101D1002630D0005D3039
:10025000890B2829D00B2829D10B282900324101EC
:10026000E401E50140016E08A1006D08A0008A319B
:10027000FD22803140012008FD3E4101D000FF30C9
:100280004001213D4101D10051086502031D4A2969
:10029000500864020318BF296030C6009030C700C0
:1002A00040016D0841016407840040016E0841016E
:1002B000653D85000008D000D1015008C8005108F4
:1002C000C900640840016D074101D2006508400182
:1002D0006E3D4101D30001305207840053080318DA
:1002E000530A85000008D400D5015408CA005508F7
:1002F000CB00640840016D074101D600650840014C
:100300006E3D4101D700023056078400570803189C
:10031000570A85000008D800D9015808CC005908B0
:10032000CD00640840016D074101DA006508400115
:100330006E3D4101DB0003305A0784005B0803185F
:100340005B0A85000008DC00DD015C08CE005D086A
:10035000CF008A31A12280310B304101D1002630FB
:10036000D0005D30890BB229D00BB229D10BB22954
:10037000003201304101E4070030E53D32294001FF
:100380006E08A1006D08A0008A31FD228031400175
:1003900020086D074101D000400121086E3D410158
:1003A000D100FD3050078400FF30513D850000082A
:1003B000D200D3015208E2005308E30040016E0866
:1003C000A1006D08A0008A31FD2280314001200883
:1003D0006D074101D000400121086E3D4101D1006F
:1003E000FE3050078400FF30513D85000008D200E8
:1003F000D3015208E0005308E10040016E08A1005B
:100400006D08A0008A31FD228031400120086D076F
:100410004101D000400121086E3D4101D100FF3073
:1004200050078400FF30513D85000008D200D30101
:100430005208DE005308DF006A30C6009030C70063
:100440006308C9006208C8006108CB006008CA00E0
:100450005F08CD005E08CC008A31A12280310B30CC
:100460004101D1002630D0005D30890B352AD00BF8
:10047000352AD10B352A003240016E08A1006D08E3
:10048000A0008A31FD228031400120086D07410122
:10049000D000400121086E3D4101D100FE305007DF
:1004A0008400FF30513D85000008D200D30152087E
:1004B000E2005308E30040016E08A1006D08A000AF
:1004C0008A31FD228031400120086D074101D000B2
:1004D000400121086E3D4101D100FF3050078400EA
:1004E000FF30513D85000008D200D3015208E000E2
:1004F0005308E1008530C6009030C7006308C9008A
:100500006208C8006108CB006008CA008A31A122D5
:1005100080310B304101D1002630D0005D30890B95
:100520008F2AD00B8F2AD10B8F2A003240016E0800
:10053000A1006D08A0008A31FD2280314001200811
:100540006D074101D000400121086E3D4101D100FD
:10055000FF3050078400FF30513D85000008D20075
:10056000D3015208E2005308E3009530C6009030F2
:10057000C7006308C9006208C8008A31A12280311F
:100580000B304101D1002630D0005D30890BC62AE6
:10059000D00BC62AD10BC62A003240016E08A1003A
:1005A0006D08A0008A31FD228031400120086D07CE
:1005B0004101D000400121086E3D4101D100FF30D2
:1005C00050078400FF30513D85000008D200D30160
:1005D0005208E2005308E300A330C6009030C70081
:1005E0006308C9006208C8008A31A12280310B303B
:1005F0004101D1002630D0005D30890BFD2AD00B9F
:10060000FD2AD10BFD2A003208004E010F104301D4
:10061000901F262C90134101C0017208023E8600F3
:1006200087010108860087018101810AF201080023
:10063000A21808002108F9007908F20021088600B4
:1006400087010108F9007908BF00210886008701A9
:10065000413FF3000330F9007908A1072108C63AA9
:10066000031D362BC330F9007908A10022102108A0
:1006700020060319A214430111140230F90079086D
:100680004101C0000800CF2B4301111F502B013046
:10069000F90079084101A40704308A31CD2208000D
:1006A0007608FA007508F900FA36F90C79088C001A
:1006B000751C602B0B30F90079084101C00008005F
:1006C0000330F90079084101C00008004301111FFF
:1006D000722B0130F90079084101A40704308A31F6
:1006E000CD22080091147608FA007508F9007A08FE
:1006F000F900FA0106307905FB0000307A05FC00AC
:10070000F0307B04F50000307C04F60075144101E4
:10071000BC01BC0A3D2B3C030319A42B73088600C3
:1007200001308700403FF500413FF6007308860026
:10073000013087000130433FBE007308860001305E
:1007400087000130423FBD00750843018C00751CD5
:10075000602B0530F90079084101C0000800430111
:10076000111FBD2B0130F90079084101A407430195
:10077000111305308A31CD22080001304101BD023C
:100780003D0A031DD22B0430F9007908F30701302C
:10079000BF02031DCF2B00308A31CD220800430158
:1007A00091143D2B3E0886008701010843018C000F
:1007B0000130F90079084101BE0708004301111F0B
:1007C000EC2B0130F90079084101A40704308A318B
:1007D000CD2243011113080091150830F900790862
:1007E0004101C00008000830F9007908C000430149
:1007F0009115080043010C08F90041013E088600EC
:100800008701790881000130F9007908BE070130BD
:10081000BD020319132C430191120630F900790827
:100820004101C000172C430191168A311C2243015B
:100830001116080000308A31CD2208000130F9007D
:100840007908A40706308A31CD220800410140080A
:10085000F900FA017A08003A03192F2C1E2C7908A6
:10086000003A0319182B013A0319432B033A0319D1
:100870008B2B013A0319AF2B073A03191A2C013AB3
:100880000319DE2B033A0319F32B013A03191A2C2F
:100890000F3A0319FA2B023A0319442B013A0319B0
:1008A000662B1E2C0800893150218431400121081B
:1008B000A7002008A6004101330840012602A2003B
:1008C000410134084001273BA300003023020530DA
:1008D00003192202031C080027084101B40040014B
:1008E00026084101B3004001A5012508A2000230FD
:1008F000A235FF3E031D782C2235C03EA3002308FD
:10090000A8002808860001308700403FA200413F30
:10091000A30022088600230887000130A4002808CD
:10092000023E840001308500000A972CA435890B13
:10093000962C24080105031DB62C2808033E8600CA
:10094000013087008101810A2808073E86000130B6
:1009500087000108031DBC2C2808053E86000130D5
:1009600087002608C03F2708C13FBC2C2808033E4B
:1009700086000130870081012808033E860001308F
:1009800087000108031DD42C2808043E860001308E
:1009900087000103031DD42C2808073E8600013080
:1009A00087008101810A212D2808033E860001303D
:1009B00087000103031D022D2808043E8600013034
:1009C00087000103031D022D2808053E8600013023
:1009D0008700403F2602A200413F273BA300013091
:1009E0002302F53003192202031CF82C0330F92CE2
:1009F0000230A2002808073E860001308700220846
:100A00008100212D2808033E86000130870001085F
:100A1000031D212D2808043E8600013087000103B4
:100A2000031D212D2808073E860001308700033072
:100A30000106031D212D2808073E8600013087008E
:100A400081012808033E8600013087000108A200CA
:100A50002808043E8600013087002208810001300A
:100A6000A2002208A5070430250203180800752CEF
:100A70004001B901B90A71088A3150228531003A22
:100A80000319512D8B312E23853189315021853128
:100A9000400121084101AE00400120084101AD00A4
:100AA000CF2D70088A3150228531003A03195C2D10
:100AB0008A31E5228531CF2D71088A310D228531A9
:100AC000003A03199C2D89315021853141012F08AD
:100AD00040012002B700410130084001213BB8002D
:100AE000380841016D02031D792D4001370841018D
:100AF0006C0203189C2D8B312E23853189315021B6
:100B00008531400121084101B00040012008410128
:100B1000AF006D08803A4001B70080303702031DF6
:100B2000942D013041016C02031CCF2DFF30410197
:100B3000EC07FF30ED3DCF2D70088A310D22853155
:100B4000003A0319BF2D89315021853141012F0809
:100B500040012002B700410130084001213BB800AC
:100B6000380841016D02031DB92D400137084101CC
:100B70006C020318BF2D8A31E52285317E2D41019B
:100B80003A088A310D228531003A0319CD2D013002
:100B90004101EE000030EF00CF2D4001B901710896
:100BA0008A310D228531003A031DE22D70088A3109
:100BB0000D228531003A031DE22D64304101EC0025
:100BC0000030ED00400139080319F12D8931502121
:100BD0008531400121084101AE004001200841015A
:100BE000AD0089315021853141012D08400120029D
:100BF000B70041012E084001213BB80013303802F4
:100C0000883003193702031C162E00308A318C22DB
:100C100085318931502140012008773E4101AD00E6
:100C2000EC304001213D4101AE00080001308A3125
:100C30008C22080089315021863141012908400168
:100C40002002A80041012A084001213BA9004101DE
:100C5000690840012902031D312E41016808400145
:100C60002802031C080089315021863140012108E7
:100C70004101AA00400120084101A9003603031DDB
:100C8000472E01304201B8070030B93D4F2E4201D6
:100C9000B801B90114304101E8000030E900410118
:100CA0003603031D952E3508031D952EB701B70A8F
:100CB0006430E8000030E90089315021863141017B
:100CC0002B0840012002AA0041012C084001213BD1
:100CD000AB00893150218631400121084101AC002F
:100CE000400120084101AB00003040012B0296304A
:100CF00003192A020318822E90304201BA000130F3
:100D0000BB00952E2B08A1002A08A0006030A2008D
:100D1000EA30A3008D319C25863140012108420133
:100D2000BB00400120084201BA00410136084001E1
:100D3000A80028084101B500B60142013908803AEF
:100D40004001A80080302802031DA92E0430420172
:100D50003802031CC82E01304101EA070030EB3D88
:100D60006B084001A10041016A084001A0008931DF
:100D70003E2186314201B801B9018931502140013B
:100D800021084101AC00400120084101AB000800EE
:100D900089315021863141012B0840012002A800F1
:100DA00041012C084001213BA90003302902E93010
:100DB00003192802031C080001304101EA02003037
:100DC000EB3B6B084001A10041016A084001A00013
:100DD00089313E21080027304001350210300319C7
:100DE0003402031C162F7930B6003608AE003430BA
:100DF0008B316323863179304001B6003608AE006E
:100E000035308B316323863179304001B6003608A6
:100E1000AE0036308B316323863179304001B60025
:100E20003608AE0037308B31632308000A30A80043
:100E30000030A9003508AB003408AA008C31AC247E
:100E40008631400129088500280884001030840775
:100E50009030853D0008B6003608AE0037308B3143
:100E6000632386310A304001A8000030A9000A300F
:100E7000A0000030A1003508A3003408A2008D3185
:100E80009C25863140012108AB002008AA008C3146
:100E9000AC248631400129088500280884001030E0
:100EA00084079030853D0008B6003608AE00363025
:100EB0008B31632386310A304001A8000030A9003D
:100EC0006430A0000030A1003508A3003408A2005F
:100ED0008D319C25863140012108AB002008AA00F5
:100EE0008C31AC2486314001290885002808840013
:100EF000103084079030853D0008B6003608AE00FB
:100F000035308B31632386310A304001A800003030
:100F1000A900E830A0000330A1003508A300340880
:100F2000A2008D319C25863140012108AB002008AC
:100F3000AA008C31AC24863140012908850028089C
:100F40008400103084079030853D0008B6003608D4
:100F5000AE0034308B31632308004001D1004101E1
:100F6000271CBB2F40015108CC004C08C100490888
:100F70008C31312487314001CB1BC32F4B08D0006B
:100F80004A08CF00C52FCF01D001CD01CE014E08B8
:100F9000803ACC005008803A4C02031DD12F4F08F4
:100FA0004D020318E52F20304001B9000030BA008F
:100FB0005108CC004C08BB008E3106268731013029
:100FC0004001CD070030CE3DC72F41012718F12F3A
:100FD00040015108CC004C08C10049088C31312433
:100FE000873140014908A0000130A1008A31FD226B
:100FF00040014F082007C9005008213DCA000800E1
:10120C000800080008008B31152308004E018F10D0
:10121C0008004001941208004101B601B60A08000A
:10122C0042011D121D160800410140080319080057
:10123C001A2901304101B1070030B23D08001F30BE
:10124C004001A0000930A1008931592108000A345D
:10125C0000349034063464340034013400344001DA
:10126C0021084201C500400120084201C4000800C9
:10127C004001210841018F004001200841018E00EE
:10128C0008004001A000200841019F004201911775
:10129C0011140800410132084001A100410131083C
:1012AC004001A0000800400121084201C700400194
:1012BC0020084201C60008004101370803196929BA
:1012CC00B70101300800003008004001210842013C
:1012DC00C900400120084201C80008004001210853
:1012EC004201CD00400120084201CC000800400121
:1012FC0021084201CB00400120084201CA0008002D
:10130C00400121084201CF00400120084201CE00DB
:10131C000800603051018D008F019101063093005F
:10132C00920108004F0196019701980199019A01C9
:10133C009B019C019D01080041016F084001B50013
:10134C0041016E084001B4008631EB2608008C3058
:10135C0046018E008D018C0144011E08FC390138B8
:10136C009E0008008C3046019200910190014401CE
:10137C001E08F33904389E0008008C304601960094
:10138C009501940144011E08CF3910389E000800C5
:10139C008C3046019A009901980144011E083F398E
:1013AC0040389E0008006400800101310130FE02CB
:1013BC000030FF3B7F087E0403190034DA294E010C
:1013CC008D104201440845040319080045088A00A1
:1013DC0044080A00893108004E018C12420146086B
:1013EC0047040319080047088A0046080A00893197
:1013FC0008000130450190008F019101FF308D00F4
:10140C008C014E019010D03045018E000800400137
:10141C00A0002008073E860001308700033001063B
:10142C00031D1A2A01300800003008000430F700B0
:10143C007708F30701304101BF02031D2A2A04304B
:10144C00F7007708C0000800C001C00A080040017E
:10145C0012157E0138113915400114149414141509
:10146C007E014E10CE104E114F14CF144F150800A4
:10147C004001B6003408E03E84008F300318013E72
:10148C0085000008B5003508AE003608343E8B31B7
:10149C00632308004001A0002008073E86000130AD
:1014AC0087000103031D622A2008073E86000130D5
:1014BC0087008101013008000030080045304B01E5
:1014CC009F00F9309D009C014E018C12961608303D
:1014DC004001A0000930A1008931592180304B0115
:1014EC009E00080001308A318C228A31A9304101DA
:1014FC00C6009030C7008A31A1228A31A730410141
:10150C00C6009030C7008A31A12208004001B40007
:10151C00340803199A2AAE01AE0A24308B316323A6
:10152C004101B901B90A0800AE0124308B316323A3
:10153C004101B9010800C8304001E9006908EC001C
:10154C00410147084001E200410146084001E10029
:10155C006C30E9006908E30000308C31D9240800B4
:10156C0041016B084001A10041016A084001A00043
:10157C0089313E218A3112304001A0000930A1008E
:10158C00893135218A310F30893147210800F80023
:10159C00430111157208023E8600870101080319E8
:1015AC00E22A7808F7007208023E860087010108DB
:1015BC0086008701770881004101C00108004101C4
:1015CC006E036F04031DEF2A0030EE000230EF00B3
:1015DC00F32A0130EE020030EF3B6F084001B500FA
:1015EC0041016E084001B4008631EB260800400131
:1015FC002108A4002008A3002008840021088500ED
:10160C00120003190E2B0130A0070030A13D022B54
:10161C0023082002A0002408213BA100080042015D
:10162C001908F70040016F08283E8600013087003A
:10163C00770881000130F7007708EF0708306F0258
:10164C000318EF010130F70077084101C2070800C9
:10165C00023041016F066E04031D392B0130EE0080
:10166C000030EF003D2B0130EE070030EF3D6F08EE
:10167C004001B50041016E084001B4008631EB26F3
:10168C000800C3304001A00020084101A100C33074
:10169C004001A00020084101A000A2142210A401C6
:1016AC0043018F012830900092014F308D004E0184
:1016BC000F108F101914991408004001B200023059
:1016CC00AF002F08B300A701A70A3208AF00B00182
:1016DC002F08A8003008A9003330B1003108AA0047
:1016EC002E308C3157248B31023040013306031DD0
:1016FC0008007A2B4001A4002408860001308700E2
:10170C002008C03F2108C13F2208A3002408023E44
:10171C00860001308700230881002408033E8600E0
:10172C000130870081012408073E860001308700C4
:10173C00810108004001A6002308A5002208A4008E
:10174C00A435A50D26088600013087002408C03F6B
:10175C002508C13F2108A4002608023E860001305E
:10176C008700240881002008A4002608033E860078
:10177C0001308700240881000800893198218B31C1
:10178C008D3169258B3189318F218B318B314723F9
:10179C008B318931AD218B318931B8218B318C3131
:1017AC000B248B318931CE218B318931C3218B3183
:1017BC008931FF218B318A3164228B318D31D125D6
:1017CC0008004001B8000430410138020318F52B21
:1017DC000D3040013806031D3808031DF72B41015D
:1017EC00B8010D3040013806031908003808B7005D
:1017FC003708B400410138088A313E2201304001DB
:10180C00B70037084101B807080041018C018D0170
:10181C008E018F019201930198019A019F0142015F
:10182C008C018D018E018F01900192015430930037
:10183C00563094009501960197019801D43091008F
:10184C004E018D10971406304001A0000930A10004
:10185C008931352108004001C800C601C70146087E
:10186C004807C20042088600013087000108C30007
:10187C004308C5004508031908004508C200C30108
:10188C004208B9004308BA004108C4004408BB0030
:10189C008E3106268C3101304001C6070030C73D21
:1018AC00352C4001AD00410122187A2C40012D0845
:1018BC00AB002B08A0002708AC002C08A1002908BD
:1018CC00A3002808A20040308B31A0238C3140307B
:1018DC004001AB002B08A0002A08AC002C08A1008A
:1018EC0001308F310527080040012A088600870146
:1018FC008101810A0800893150218C314201340860
:10190C0040012002A200420135084001213BA30006
:10191C0000302302643003192202031C08008931B1
:10192C0050218C31400121084201B50040012008B2
:10193C004201B400893162218C31003A0319A92C7F
:10194C0040019A16080040019A120800400128082C
:10195C0029040319D42CAD01AD0AA91BBF2C0130ED
:10196C00A835A90D890BB62C0130AC002C08AD079D
:10197C00B32C29082B02031DC52C28082A02031C92
:10198C00CB2C2808AA022908AB3B0130A936A80C9D
:10199C00890BCC2C0130AD02031DBF2C2B08A900E8
:1019AC002A08A80008004001E6006208E800610867
:1019BC00E7004201B001B1014001670884006808EA
:1019CC00850012000319FF2C6730E4006408D8006E
:1019DC006308E5006508D90066088F3157278C31FC
:1019EC00400158084201B007400159084201B13D7D
:1019FC00E22C420131084001E20042013008400172
:101A0C00E10008004001D700410125082604031D10
:101A1C00172D26084001D600410125084001D500AC
:101A2C00202D2508FF3E4001D500FF304101263D09
:101A3C004001D6005208D40054084301A000A10173
:101A4C00A0304001D4005408C9005608CB005508FA
:101A5C00CA0057088731AD2740014A08D30049080E
:101A6C00D200080042019D1C3D2D1D121D16500870
:101A7C00510403191D195E2D1908F700F8013708D8
:101A8C00FA003608F900F935FA0DEE30FB00233078
:101A9C00FC0079087B0786007A087C3D8700770874
:101AAC00C03F7808C13F0130B6070030B73D662D06
:101ABC00B601B701D001D1011908F7007708FD0074
:101ACC004E018F1208004001980199019A013F3094
:101ADC009200F030930026309400FF307E01CE004F
:101AEC00E030C3000730B800C401B901CF01BA011E
:101AFC00C501D0013730BB00F030C600FF30D1003B
:101B0C0005307D01C50014307E0194000B30A3001C
:101B1C000C30A400133095000A30A6000930A70041
:101B2C0004307D01C6000C30CB0008004001A5013B
:101B3C00A601200821040319CC2DA701A70AA11B7B
:101B4C00B12D0130A035A10D890BA82D0130A400B9
:101B5C002408A707A52D0130A535A60D890BB22D9C
:101B6C0021082302031DBC2D20082202031CC32DB7
:101B7C002008A2022108A33B25140130A136A00C99
:101B8C00890BC42D0130A702031DB12D2608A1001D
:101B9C002508A00008004E0199123D304001A0001C
:101BAC000E30A100893186218D31083042019F0011
:101BBC0090309D0004309E001F309B009C0107302C
:101BCC004001A0000930A100893174218D311630FB
:101BDC004001A0000930A10089317D218D310930EF
:101BEC004001A0000930A10089316B214101C101E4
:101BFC004001EF01F4014101C2014E0199160800A8
:101C0C0040013B08031D3B08031D102E39088B3186
:101C1C00E72308003B08033E8600870116000104F9
:101C2C000319332E3B08033E86008701403FBC005E
:101C3C00413FBD003B0A86008701403FBE00413F4B
:101C4C00BF003F08803AC0003D08803A4002031DA7
:101C5C00312E3C083E020318080040013B0A860066
:101C6C0087010130810741310318810A08004001C6
:101C7C006F08203E860001308700810142011D1D46
:101C8C00542E40016F08203E8600013087008114DD
:101C9C0042014D088A004C080A008E3142019D1CFD
:101CAC00642E40016F08203E86000130870001152C
:101CBC0042014B088A004A080A008E3140016F0825
:101CCC00203E86000130870001080319742E420162
:101CDC0049088A0048080A008E3108008B31152308
:101CEC0008008B31C3238E3115304101E7004B3096
:101CFC00E600BE30890B802EE60B802EE70B802E83
:101D0C000000893125218E318E31BD268E318931ED
:101D1C000F218E318B170B178A3178228E317C3044
:101D2C004001ED009030EE00803187208E3109307B
:101D3C004101E7001E30E600E430890BA32EE60BD0
:101D4C00A32EE70BA32E00008931A2218E318A31FC
:101D5C00B6228E31843153248E31853138258E3123
:101D6C0086311A268E318C3181248E31B02EC030C2
:101D7C004001A50025084101BB00C8304001A50069
:101D8C002508F100D030A5002508F000D830A500BA
:101D9C0025084101BA000E304001A0000030A1001E
:101DAC000230A5002508A20041013B088B3180239D
:101DBC008E310C304001A0000030A1000230A50093
:101DCC002508A20041013A088B3180238E310E3058
:101DDC004001A0000030A100A20170088B318023CB
:101DEC008E310E304001A0000030A100A201A20AE9
:101DFC0071088B3180238E318A312D2208004001ED
:101E0C00A30041012218442F02304001A2002108F6
:101E1C0086008701220881002008A2004101200AC7
:101E2C00860087014001220881002308A20041019D
:101E3C002008860087014001220881002108A200A9
:101E4C0041012008023E86008701400122088100E2
:101E5C000330A20022084101A0072008C63A031D46
:101E6C003D2FC3304001A20022084101A000A21066
:101E7C0021082006031D4A2F22144A2F4001210855
:101E8C00860087018101810A4001210886008701B3
:101E9C0002300106031D080089311A214E010F146E
:101EAC0008004001E000580886008701403FDA0036
:101EBC00413FDB005A0884005B0885001200253A7C
:101ECC00031DDD2F58088600870101308107413141
:101EDC000318810A4101A501A601A701A801FF3041
:101EEC004201B200FF30B300400158088600870160
:101EFC00403FDA00413FDB005A0884005B08850054
:101F0C001200633A031DAB2F58088600870101307D
:101F1C00810741310318810A59088600870101089D
:101F2C0084008501023081070008DA005A08DF00BE
:101F3C005F08DA005A08D20060088D31082540018C
:101F4C005308D9005208D8000800580886008701A9
:101F5C00403FDA00413FDB005A0884005B088500F3
:101F6C001200253A031DD22F580886008701013034
:101F7C00810741310318810A2530B9000030BA00BD
:101F8C006008DA005A08BB008E3106260130400189
:101F9C00D8000030D90008005808860087010130AD
:101FAC00810741310318810AD801D901080058086A
:101FBC0086008701403FDA00413FDB005A0884006D
:101FCC005B0885000008DC00DD015C08B9005D08D9
:101FDC00BA006008DE005E08BB008E3106268F3129
:101FEC0040015808860087010130810741310318F0
:101FFC00810ACC2F00348234213400340034003474
:10200C000034023439340F3400340034003440349A
:10201C00803400343F3406345B344F3466346D34D2
:10202C007D3407347F346F3400340034003448344A
:10203C0000345334003477347C3439345E3479349E
:10204C0071346F34763406341E3400343834003432
:10205C0054343F347334673450346D3478343E34F4
:10206C000034003400346E340034393400340F340E
:10207C000034083463345F347C3458345E347B343D
:10208C0071346F34743402341E340034063400342A
:10209C0054345C347334673450346D3478341C34B9
:1020AC000034003400346E340034393430340F349E
:1020BC0000340034253463342534633425346334DC
:1020CC00253463340D3400342534633425346334BF
:1020DC002534633420340D340034203425346334F7
:1020EC0025346334253463340D340034483445349A
:1020FC0059345934593459345934593400342534F9
:10210C00633425346334203420340D3400342034CB
:10211C00203425346334253463340D3400342534B1
:10212C0063342034203420340D34003420342034F3
:10213C002034253463340D340034203420342034DE
:10214C0020340D3400342034203420342034003436
:020000040001F9
:0A000E00EC3FFF3F9F3FFF3FFF3F25
:00000001FF
